S01500006D66672D73616D706C652D6170702E73333788
S31508004000D8F5002045A80108BDA70108C1A70108E1
S31508004010A70A090100410008041003AC2057BC0197
S315080040200000000000000000000000000000000082
S315080040300000000000000000000000000000000072
S315080040400000000000000000FFFFFFFFFFFFFFFF6A
S31508004050FFFFFFFF00E00708000000000000000067
S31508004060FFFFFFFFFFFFFFFFFFFFFFFFFFFFFFFF52
S31508004070FFFFFFFFFFFFFFFFFFFFFFFFFFFFFFFF42
S31508004080F0FF002000000000EDFF0020EDFF0020FB
S31508004090D8F500206CB10108BCAA010878EC00200C
S311080040A0A40F0020000008080000012002
S31508004100D8F5002045A80108BDA70108C1A70108E0
S31508004110C9A70108C5A70108CDA7010844A8010831
S3150800412044A8010844A8010844A8010844A80108AD
S31508004130D1A7010844A8010844A801086B91000802
S3150800414085A7010844A801088399000844A801081E
S31508004150576900088D97000844A8010844A8010873
S3150800416039740108D1A200080725010899940008A6
S3150800417044A8010893980008DB98000844A8010899
S315080041801D9F000844A8010844A8010844A801087E
S3150800419010B5DFF88C395C89641C5C819C89641CC9
S315080041A09C81DC796CB901245A71DC719C81997106
S315080041B0411C0278DFF86C091A71BDE8104001F05D
S315080041C09DBA10BD2DE9F047DFF854490FF6E41102
S315080041D0A28982B000F018FA207994F90530A279FC
S315080041E00FF6E41100F02FF800F00AFA0025B3A63E
S315080041F0B3A7DFF830890FF6F81917E0E81005EBD2
S3150800420010700011B5EB001A04D1494600F05BF9AD
S3150800421000F0F6F915F80820394600F0F5F9BAF174
S315080042200F0F01D100F04EF96D1CEDB220798542D1
S31508004230E4DB00F047F900F0E3F90020E071A08123
S31508004240E081BDE8F3870090012001F0C1BB38B5D5
S3150800425001F025FC044601F039FC01F0B3FD012309
S3150800426000220F21012001F0B1FD01F06AFD03468D
S3150800427022460FF68811012001F08DFE01F0CAFED4
S31508004280020006D00FF68811012001F084FE8BA1EA
S3150800429001E00FF69411012001F07DFE012002F0E5
S315080042A05FF9DFF87C4805E000202072A089E081EC
S315080042B002F059F902F0E2FA01F09FFF02F034FB2E
S315080042C00546208A281A80B2C928F1DB072002F0A1
S315080042D0B5FBE07925820028EAD0E089A1898842E1
S315080042E0E2D1207A401C2072C0B20228DED1FFF744
S315080042F069FFDBE710B59028DFF8244804D0912839
S3150800430008D0942809D00FE00FF6301100F0DBF83A
S31508004310012007E00FF6501101E00FF6781100F0C2
S31508004320D2F80020E07010BDBDE8104002460FF636
S315080043309011012001F04CBB7047704770477CB55F
S3150800434004460D46164602F0F5FBDFF8DC17096849
S31508004350715C019103466988009122460FF6801127
S31508004360FFF772FF73BD0FF6A41100F01FBCF8B576
S315080043700D4604460FF6D01101F02AFB0826B1A710
S315080043807019394610F8012C204601F021FB761EDB
S31508004390F6D110E0F8B50D4604460FF6B41101F053
S315080043A017FB0026A7A7725D3946204601F010FBC9
S315080043B0761C082EF7DB41A1204601F009FBBDE873
S315080043C0F240012001F0D6BDF0B587B001A802F091
S315080043D019FC20B102460FF68C1100F015F90FF6FC
S315080043E02C1100F070F8DFF844170120FFF7BFFF23
S315080043F045F220720FF6A01100F006F9DFF82067E3
S315080044000FF6A411307890A490A5002814BF2A4668
S31508004410224600F0F9F800F0F3F8307810B302F00D
S315080044207DFD074602F057FD02463B460FF68C1106
S3150800443000F09CFB02F04CFC02460FF6A81100F0B7
S31508004440E3F872890FF6B81100F0DEF8707818B143
S315080044500FF6CC1100F037F8B07818B10FF6DC116A
S3150800446000F031F8F07800B12C4622460FF6EC1130
S3150800447000F0CAF800F0C4F8F078C0B101F0C6FF41
S3150800448002460FF6EC1100F0BFF800F0B9F8BDF8D7
S315080044900C009DF90E309DF80F200FF6E811FFF776
S315080044A0D2FE01A90120FFF775FF00F0A9F803A1C4
S315080044B000F009F800F0A4F807B0F0BD0D0A0000F6
S315080044C0257820003146012001F082BA10B586B061
S315080044D001210FF6E01002F0E5F890B100F043FB79
S315080044E000F084F800F07CF800F085F800EB042072
S315080044F0ADF8080000A802F0E1FE02460FF6BC116E
S3150800450050E001210FF6C41002F0CCF800B31822CF
S31508004510002100A801F035F90822002100A801F0C1
S3150800452030F900F020FB00F061F800F059F800F0CF
S3150800453062F800EB0420ADF8080000A900208DF809
S315080045400C00022002F041FF02460FF6881129E00E
S3150800455001210FF6901002F0A5F820B103F025F816
S315080045600FF6881109E001210FF6901002F09AF86B
S3150800457028B104F05AF90FF68C11024612E001210F
S315080045800FF6901002F08EF878B100F0ECFA0FF6FC
S315080045908C11C4B200F037F8204602F0F5FE024648
S315080045A00FF6841100F030F818E00FF68C11FFF7BB
S315080045B08AFF0FF6B411FFF786FF0FF6DC11FFF737
S315080045C082FF00F01DF80FF6E011FFF77CFF0FF6EB
S315080045D0E811FFF778FF1EA1FFF775FF06B010BDBB
S315080045E08DF80A000421002002F085B88DF80B002A
S315080045F0032002F0C2B804460421012002F07BB869
S31508004600012001F0B7BC2246012001F0E1B970B5DE
S3150800461004460D46681E20703AB10126AE420FDAEE
S3150800462004F0F4FA3055761CF8E70126DFF80005A1
S3150800463004E0311811F8011C3155761CAE42F8DB3E
S3150800464070BD0000257800004E4F00005945530004
S315080046500D0A00002DE9F0470FF67414DFF8C05470
S3150800466082B0012100F074FAB8B100F07CFAC4B245
S31508004670012C0CBFDFF8BC04002002F04DFB0646F7
S31508004680334622460FF6501100F070FA002E03D179
S31508004690012028700020688139E2012183A002F0F8
S315080046A001F888B16A890FF65411FFF7ADFF02F0D9
S315080046B067FB064632460FF66C11FFF7A5FF002E7C
S315080046C001D10020287022E201210FF6741001F0B2
S315080046D0E9FFD8B100F03BFA58B102F08DFB064667
S315080046E032460FF66411FFF78FFF002E0DD1012019
S315080046F00AE002F08CFB064632460FF66011FFF719
S3150800470083FF002E01D10020687000E201210FF618
S31508004710601001F0C7FFD8B100F019FA58B102F0DD
S3150800472080FB064632460FF65011FFF76DFF002E46
S315080047300DD101200AE002F082FB064632460FF64A
S315080047405011FFF761FF002E01D10020A870DEE1AD
S3150800475057A401210FF6501001F0A4FF002800F01D
S31508004760938000F000FA0546042002F006F8074692
S31508004770DFF8C4630FF63810032101F093FF68B120
S315080047800122F9B23046FFF742FF812F3BDB0FF6D5
S315080047909811FFF798FE80277F203CE003210FF64B
S315080047A0181001F07FFF40B1412F04DB40233A4641
S315080047B00FF60C11A0E00022E3E703210FF63810EC
S315080047C001F070FFE0B10027042100F0B9F9B855EF
S315080047D007EB0608052100F0B3F988F8080006215A
S315080047E000F0AEF988F81000072100F0A9F97F1C3F
S315080047F0082F88F81800E7DB3078471CBFB2C4E7F3
S315080048000FF6FC0181E1062F06DA0FF64C11FFF7C9
S315080048105AFE0627052030703B462A460FF66811D1
S3150800482000F0A4F94FF000080FF2E8290FF6841AF1
S3150800483013E04FEAE80008EB10700011B8EB00101F
S3150800484002D15146FFF73FFE18F806204946FFF702
S31508004850DBFEFFF7D5FE08F10108B845E9DB21467E
S31508004860FFF731FE2DB90FF65411012001F0B8F803
S315080048704DE1691E89B2304602F0EEFA0600F7D01D
S3150800488002460FF66011DCE0A3A6A4A701210FF6E5
S315080048906C1001F007FFE8B100F061F950B102F0C1
S315080048A01AFB02460FF65C11CBE000BF656E64008A
S315080048B00D0A000000F04FF900281FD0032001F070
S315080048C05CFF0446C0B202F0FBFA0346E2B20FF6FA
S315080048D0501111E001210FF6741001F0E3FE70B3D8
S315080048E000F03DF958B102F0F3F9044602F016FB60
S315080048F0024623460FF65C1100F038F907E100F08E
S315080049002AF90028FAD004210FF66C1001F0CAFE25
S315080049100028F3D0032001F030FF0446052001F0FB
S315080049202CFF0546032D09DA61B202F0D6FA00908B
S315080049302B46E2B20FF64811FFF786FCE7E00121A5
S315080049400FF6701001F0AEFEE0B100F00CF9044667
S31508004950032001F027FF0546E4B222460FF6601150
S31508004960FFF752FE25B90FF69811FFF7ACFD04E0E4
S315080049702A460FF6D011FFF747FE2946204602F0D1
S31508004980CFFAC4E00FF6E818012100F0DDF800B30D
S3150800499000F0E5F828B102F0BDFA02460FF6DC1180
S315080049A04FE000F0D8F80028EBD0032001F0D6FE3F
S315080049B06D780FF6EC1144B2FFF725FE0DB102F043
S315080049C026FA204602F09DFA002D01D002F014FACC
S315080049D09DE001210FF6EC1001F064FE002833D0AB
S315080049E0564804880FF6E410022101F05BFE68B110
S315080049F000F0A9F850B102237F22214600A804F04E
S31508004A0015F9BDF800200FF6CC111AE002210FF6B1
S31508004A10FC1001F047FE002879D000F094F8002831
S31508004A2075D002F077FAC0B240F47E40ADF80000C7
S31508004A30022200A9204604F028F9BDF800200FF646
S31508004A40D411FFF7E1FD62E00FF60021FFF73BFD09
S31508004A500FF62821FFF737FD0FF62C21FFF733FD58
S31508004A60FFF7CEFD0FF63421FFF72DFD0FF63C219B
S31508004A70FFF729FD0FF64821FFF725FDFFF7C0FDD3
S31508004A800FF65021FFF71FFD0FF67821FFF71BFDE4
S31508004A900FF69821FFF717FDFFF7B2FD0FF6AC21C9
S31508004AA0FFF711FDFFF7ACFD0FF6C421FFF70BFD6D
S31508004AB00FF6E821FFF707FDFFF7A2FD0FF6EC2139
S31508004AC0FFF701FDFFF79CFD0FF60431FFF7FBFC2E
S31508004AD0FFF796FD0FF60C31FFF7F5FCFFF790FD93
S31508004AE00FF64831FFF7EFFC0FF68C31FFF7EBFCBA
S31508004AF0FFF786FD0FF69431FFF7E5FC0FF6A831B0
S31508004B00FFF7E1FCFFF77CFD2146FFF7DCFCBDE87B
S31508004B10F3870000202578007365740067657400C4
S31508004B2086F90020B8F800203CF60020A8FB0020F3
S31508004B30ECF500209141000838F8002012AF010872
S31508004B40F8B201F0D8BD0321404601F0ABBD022101
S31508004B50204601F0A7BD0221304601F0A3BD02217F
S31508004B60384601F09FBD022001F007BE012000F083
S31508004B702FBF00F0F8BF0000F8B500240FF6443543
S31508004B800FF64836004F07E02CF6002056F834207A
S31508004B902946FFF739FD641C3878E4B28442F5D318
S31508004BA0BDE8F44000A101E00D0A0000012000F074
S31508004BB00FBF00000D0A4D4647205258202532786F
S31508004BC020706B74730D0A006669727374207061C5
S31508004BD0636B65743A206C71692025752C20727395
S31508004BE073692025642C206C656E2025750D0A00D6
S31508004BF02020202020203A200000000052657365FE
S31508004C00742830782578293A25700D0A00000000A6
S31508004C104552524F523A20656D626572496E697403
S31508004C2020307825783A0000656D626572496E69AC
S31508004C3074207061737365640D0A00004556454E0D
S31508004C40543A20737461636B537461747573206E80
S31508004C506F7720454D4245525F4E4554574F524B4C
S31508004C605F55500D0A0000004556454E543A2073CC
S31508004C707461636B537461747573206E6F77204526
S31508004C804D4245525F4E4554574F524B5F444F571E
S31508004C904E0D0A004556454E543A20737461636BAF
S31508004CA0537461747573206E6F7720454D42455273
S31508004CB05F4A4F494E5F4641494C45440D0A00003C
S31508004CC04556454E543A20737461636B5374617448
S31508004CD07573206E6F7720307825780D0A000000EE
S31508004CE0525820747970652025782066726F6D2079
S31508004CF02532782C20636C7573746572202532789A
S31508004D002C206C656E202578000000004D616E75BC
S31508004D10666163747572696E67204C696272617246
S31508004D20792053616D706C65204170706C696361A0
S31508004D3074696F6E2C2076657273696F6E20312EDA
S31508004D40300D0A0D0A0000004555493A20000000BA
S31508004D50202020457874656E64656450616E4964E8
S31508004D603A2000004572726F723A20676574206EA9
S31508004D706574776F726B20706172616D65746572A8
S31508004D80206661696C65642C207374617475732080
S31508004D90307825780D0A0000737461636B205B25F3
S31508004DA032785D0D0A000000696E206D6667206D19
S31508004DB06F64653A2025700D0A0000002020206DDA
S31508004DC06667206368616E6E656C3A203078257870
S31508004DD02C206D666720706F7765723A20307825CB
S31508004DE078000000202020545820706F77657220C4
S31508004DF06D6F64653A2030782532780D0A00000018
S31508004E002020206D666720706B7473207265636559
S31508004E10697665643A2030782532780D0A000000F4
S31508004E202020206D666720546F6E65207465737444
S31508004E302072756E6E696E670D0A00002020206D5F
S31508004E4066672053747265616D2074657374207289
S31508004E50756E6E696E670D0A0000000073746163F3
S31508004E606B2069732075703A2025700D0A000000C2
S31508004E7020202073686F7274204944205B2532789D
S31508004E805D0D0A002020206368616E205B3078255E
S31508004E90785D2C20706F776572205B307825785D99
S31508004EA02C2070616E4964205B30782532785D0D60
S31508004EB00A000000666F726D00000000666F726D72
S31508004EC020307825780D0A0D0A0000006A6F696E91
S31508004ED0000000006A6F696E20307825780D0A0D8B
S31508004EE00A000000696E697400000000696E697442
S31508004EF020307825780D0A0D0A0000006C65617669
S31508004F00650000006C6561766520307825780D0AA5
S31508004F100D0A0000706A6F696E00000076616C20E9
S31508004F20307825780D0A0000704A6F696E2030784F
S31508004F3025780D0A0D0A00006E6574776F726B206E
S31508004F40666F726D203C6368616E6E656C3E203CD0
S31508004F50706F7765723E203C70616E696420696E79
S31508004F60206865783E0D0A006E6574776F726B204F
S31508004F706A6F696E203C6368616E6E656C3E203CA4
S31508004F80706F7765723E203C70616E696420696E49
S31508004F90206865783E0D0A006E6574776F726B201F
S31508004FA0696E69740D0A00006E6574776F726B20FE
S31508004FB06C656176650D0A006E6574776F726B2095
S31508004FC0706A6F696E203C74696D653E0D0A000053
S31508004FD073746172740000006D66676C6962207391
S31508004FE07461727420282578292C2073746174756D
S31508004FF07320307825780D0A0D0A00007278203063
S3150800500078253278207061636B65747320776869D8
S315080050106C6520696E206D6667206D6F64650D0A84
S31508005020000000006D66676C696220656E64207317
S31508005030746174757320307825780D0A0D0A00009E
S31508005040746F6E6500000000737461727420746F6B
S315080050506E6520307825780D0A0D0A0073746F7016
S3150800506020746F6E6520307825780D0A0D0A0000C9
S3150800507073747265616D0000737461727420737461
S315080050807265616D20307825780D0A0D0A000000DA
S3150800509073746F702073747265616D20307825782B
S315080050A00D0A0D0A0000000073656E64000000001A
S315080050B072616E646F6D00007465737400000000A1
S315080050C06C656E677468206F662030782578206C6A
S315080050D06172676572207468616E206375727265A5
S315080050E06E742074657374207061636B6574202810
S315080050F030782578290D0A006D6573736167650038
S315080051006E6F74207265636F676E697A65642C20AA
S3150800511074727920226D66672220666F7220686530
S315080051206C700D0A0000000061646A757374696E1C
S3150800513067206C656E6774682066726F6D203078BC
S31508005140257820746F206D6178696D756D206F669E
S31508005150203132380D0A000061646A757374696E0D
S3150800516067206C656E6774682066726F6D2030788C
S31508005170257820746F206D696E696D756D206F6670
S3150800518020360D0A0000000073656E64696E67209C
S315080051906D66676C696220307825327820706163A5
S315080051A06B65742873292C206C656E6774682030CB
S315080051B0782578000D0A2020203A20004572726F63
S315080051C0723A206E756D626572206F662070616333
S315080051D06B657473206D757374206265203E20308C
S315080051E0000000006D66672073656E642065727244
S315080051F02030782578200D0A0D0A00006368616E54
S31508005200000000006D666720676574206368616E3C
S315080052106E656C20307825780D0A0D0A00000000AE
S315080052206D666720736574206368616E6E656C20B1
S31508005230746F20307825782C207374617475732008
S31508005240307825780D0A0D0A00000000706F776522
S31508005250720000006D66672067657420706F776559
S3150800526072203078257820286D6F6465202532787D
S31508005270290D0A0D0A0000006D6F64650000000024
S315080052806D66672073657420706F77657220746F1A
S3150800529020307825782C206D6F646520307825328B
S315080052A0782C2073746174757320307825780D0A0C
S315080052B00D0A0000746573746D6F6463616C000099
S315080052C053657474696E67206368616E6E656C20D9
S315080052D0616E6420706572666F726D696E672063B1
S315080052E0616C6962726174696F6E20666F722063A1
S315080052F068616E6E656C20307825780D0A000000AE
S31508005300436F6E74696E756F7573204D6F642044B4
S3150800531041432043616C2C20746869732077696C5B
S315080053206C206E6576657220656E642C20726573D6
S315080053306574207061727420746F2073746F702E98
S315080053400D0A00004D6F64204441432043616C20E0
S3150800535072756E6E696E6720666F72202575206D90
S31508005360696C6C697365636F6E64730D0A0000007F
S3150800537073796E6F66667365740000006D666720E4
S315080053806765742073796E7468206F6666736574D2
S315080053903A2025642073746570730D0A0D0A00009F
S315080053A06D6667207365742073796E7468206F66FE
S315080053B0667365743A2025642073746570730D0AE4
S315080053C00D0A0000746F6B656E00000072656164FB
S315080053D0000000006D6667207265616420746F6B5B
S315080053E0656E20544F4B454E5F4D46475F53594EA9
S315080053F054485F465245515F4F46465345543A20F6
S3150800540030782532780D0A0D0A0000007772697423
S31508005410650000006D666720777269746520746F91
S315080054206B656E20544F4B454E5F4D46475F53594B
S315080054304E54485F465245515F4F46465345543A87
S315080054402030782532780D0A0D0A00006D6667202F
S315080054507374617274203C77616E742063616C6C3E
S315080054606261636B2C20303D46616C73652C20317C
S315080054703D547275653E0D0A000000006D66672092
S31508005480656E640D0A0000006D666720746F6E65B0
S315080054902073746172740D0A000000006D6667203F
S315080054A0746F6E652073746F700D0A006D666720E1
S315080054B073747265616D2073746172740D0A0000ED
S315080054C06D66672073747265616D2073746F700DF5
S315080054D00A0000006D66672073656E64203C6E7571
S315080054E06D5061636B6574733E20746573742D70BB
S315080054F061636B6574203C6C656E6774683E0D0A63
S31508005500000000006D66672073656E64203C6E754A
S315080055106D5061636B6574733E2072616E646F6D66
S31508005520203C6C656E6774683E0D0A006D666720E0
S3150800553073656E64203C6E756D5061636B6574733C
S315080055403E206D6573736167652000003C6669726D
S31508005550737420382062797465733E203C736563E2
S315080055606F6E6420382062797465733E0D0A0000F8
S315080055706D666720706F77657220736574203C705E
S315080055806F7765723E206D6F6465203C706F776536
S31508005590726D6F64653E0D0A000000006D66672037
S315080055A0706F776572206765740D0A006D666720EF
S315080055B06368616E6E656C20736574203C63686110
S315080055C06E6E656C2031312D32363E0D0A000000B4
S315080055D06D6667206368616E6E656C206765740D1D
S315080055E00A0000006D666720746573746D6F6463E6
S315080055F0616C203C6368616E6E656C2031312D32BA
S31508005600363E203C23206D696C6C697365636F6E4A
S31508005610647320746F2072756E2C2030203D3D20F7
S31508005620696E66696E6974653E0D0A006D66672067
S3150800563073796E6F666673657420736574203C2390
S315080056402031312E376B487A2073746570733E208B
S315080056502D2076616C7565206973206F6E6C7920D4
S3150800566073657420756E74696C206E657874207223
S31508005670657365740D0A00006D66672073796E6F31
S315080056806666736574206765740D0A006D66672023
S31508005690746F6B656E20726561642073796E6F66D0
S315080056A0667365740D0A00006D666720746F6B6516
S315080056B06E2077726974652073796E6F6666736596
S315080056C0740D0A0025700D0A00000000BCAA010826
S315080056D0794B0008C4AA010867430008CCAA010848
S315080056E0C9430008D4AA010855460008D8AA0108E3
S315080056F0CD440008E0AA0108734B0008814233D262
S3150800570010185118401E491E10E011F8013900F80A
S315080057100139121F11F8013900F8013911F8013958
S3150800572000F8013911F8013900F8013992B2042A52
S31508005730EBDA92B2002A1EBF11F8013900F80139D6
S31508005740521EF6D1704711F8013B00F8013B121FB3
S3150800575011F8013B00F8013B11F8013B00F8013B49
S3150800576011F8013B00F8013B92B2042AEBDA92B237
S31508005770002A1EBF11F8013B00F8013B521EF6D164
S315080057807047130003D00A46194603F0C9BA704792
S3150800579010B500E0521E92B222B100F012F8F9D00C
S315080057A0181B10BD002010BD10B500E0521E92B2A5
S315080057B02AB100F006F8F9D0181B40B210BD002037
S315080057C010BD10F8013B11F8014BA34270470000C9
S315080057D070B51346101802E0A4192C705B1EDBB2D4
S315080057E04BB101F00F060909451E0A2E2846B4BF1B
S315080057F030243724F0E7101870BD2DE9F24F88B031
S31508005800804601A81446994601AD4FF0000B0027C3
S315080058108DF8000010E00127641E05A885420AD30A
S315080058209DF800002E1A00F0B5F8002839D1B344C7
S315080058305FFA8BFB01AD641C9DF800002E1A2078D8
S3150800584000280BD0252803D017B905F8010BE4E783
S31508005850002F14BF0027641C2078010000F08F80F9
S31508005860B0F1250113D00B39092968D928395DD03B
S315080058700B390ED0491E2CD008392AD0091F0BD057
S31508005880C91E09D0891E24D0C91E4FD0C5E72520B8
S31508005890DBE759F8040BD8E759F804AB00F07AF8B7
S315080058A0002873D1B3445FFA8BFB01AD002600E0F4
S315080058B0761CF6B216F80A000028F9D19DF82000E1
S315080058C032465146C047002860D1B3445FFA8BFB85
S315080058D0A3E759F8040B0021002803D52D212970C8
S315080058E040420121002200234FF0000C02E0801BF9
S315080058F00CF1010C0FF2041656F82360B042F6D2EA
S315080059005FFA8CF6002E08BF002A05D0C9B206F148
S3150800591030024A55491C01225B1C092BE4DBC9B23B
S3150800592030304855481CC0B2451976E759F8041B6B
S315080059300222C9B22846FFF74BFF05466DE7607895
S315080059400127782818BF5828F8D1641C002714F8AE
S31508005950010C322804D159F8041B042289B2E9E75C
S3150800596034287FF458AF59F804AB04224FEA1A4199
S315080059702846FFF72DFF04221FFA8AF1DBE700F01D
S3150800598009F818B906EB0B00C0B200E0002009B010
S31508005990BDE8F08F9DF82000F2B201A9404709A1A1
S315080059A016E010B5084BC35C0024012B07D113463B
S315080059B00A4601460548FFF720FF00B9012420469C
S315080059C010BD00000D0A000000600008F35E000824
S315080059D00CB480B502AAFFF7E4FF02BC5DF80CFB25
S315080059E00CB438B5044604AAFFF7DBFF0546204683
S315080059F0FFF7D5FF284632BC5DF80CFB00CA9A3B78
S31508005A0000E1F5058096980040420F00A086010047
S31508005A1010270000E8030000640000000A000000E8
S31508005A2030B5224801680020002201249440CBB2F8
S31508005A30234213D00FF284001D4C30F812000628BA
S31508005A404CF23C324FF20F031DD16088984216D1B2
S31508005A502188080A0B2812DA084612E0521C92B26C
S31508005A60082AE2D31349088140F201720889904254
S31508005A7004D11148D0E90023C1E9002330BD4FF411
S31508005A80C0606280EEE740F20725A84201BF618840
S31508005A9099422188A942E5D162800846E2E705488D
S31508005AA00089000A70470348008970472C000040A7
S31508005AB000000020A0F90020900000200104020444
S31508005AC0010301050600070203090109F8B50120CB
S31508005AD003F057FA002003F0DBFBDFF82C422068BE
S31508005AE040F00800206000F0C0FE03F0C1FBDFF8BC
S31508005AF01C02DFF81C620178F1604278DFF81412A4
S31508005B00CA608378DFF81022D360C578DFF80C32D4
S31508005B10DD600779DFF80852EF60078A3760478A41
S31508005B207760868A0E60C68A4E60018B1160418B4B
S31508005B305160818B1960C18B5960008C286000F018
S31508005B4077F8206820F01000206003F0D9FC03F0F5
S31508005B501CFE03F059FE03F0CEFA00F084FEBDE801
S31508005B60F14000F0A0BE40F2016003F0E9BE2DE965
S31508005B70F04F00F055F80F200021AA0003F098FF17
S31508005B800AEA00001BEA010108BF00281AD000270C
S31508005B904FF00F095046594607EB850203F09AFF66
S31508005BA010F001000BD0B80009FA00F138F81520FA
S31508005BB009FA00F026EA0101104040EA01067F1CB6
S31508005BC0042FE7DB29E02DE9F04F00F029F8FF2044
S31508005BD00021EA0003F06CFF0AEA00001BEA010153
S31508005BE008BF002819D000274FF00109504659462A
S31508005BF007EBC50203F06EFF10F001000AD015F896
S31508005C00081009FA07F009FA07F226EA0000114017
S31508005C1041EA00067F1C082FE8DB2660BDE8F08F06
S31508005C200C468046266839481546D0E90EAB7047BB
S31508005C3010B500F05DF808BF002822D000223A49C6
S31508005C4000F023F80122394900F01FF802223849EA
S31508005C5000F01BF800222E4900F014F80122314901
S31508005C6000F010F802222B4900F00CF80322314903
S31508005C7000F008F80422284900F004F804F124008A
S31508005C803BE010BD04F1240071E704F108009AE72F
S31508005C9010B500F02DF808BF002825D000222249AB
S31508005CA02046FFF790FF012220492046FFF78BFF89
S31508005CB002221F492046FFF786FF0022144900F0FA
S31508005CC014F80122174900F010F80222114900F0D1
S31508005CD00CF80322174900F008F804220E4900F0D0
S31508005CE004F804F1100008E010BD04F110003EE7C6
S31508005CF0064CD4E90E0100297047BDE8104005227C
S31508005D000D4934E70000000000BC004018F70020E9
S31508005D1000B0004000B2004000B4004000B60040A9
S31508005D2000B8004004B000400CB000400CB200407F
S31508005D300CB4004004B2004004B40040032003F051
S31508005D4053BF80B5FFF7ABFE0FF24C01FFE701EB3F
S31508005D50800002BD10B5FFF7A2FE0446FFF7A3FEBA
S31508005D60C0B208B9012C07D1072C11D8DFE804F016
S31508005D7004100608080A0C0E002010BD092010BDE4
S31508005D80022010BD032010BD0B2010BD062010BD3B
S31508005D9044F0800010BD0000554E4B0046494200B5
S31508005DA042544C0045585400505752005744470037
S31508005DB0205357004352530046534800424144007B
S31508005DC0464C5400002181F3118870472DE9F047AD
S31508005DD00446884691469A4600F002F9002801BF13
S31508005DE025460FF21C20285C012823D1DFF8E46140
S31508005DF056F8257003F00AFF0021B98039807980AA
S31508005E0003F00AFF06EB8500066903F0FFFEDFF8DC
S31508005E10C8210021B18031807180A95403F0FCFEAD
S31508005E2003F0B3FC53464A4641462046BDE8F047D0
S31508005E3003F0A2BB2120BDE8F0872DE9F84381468F
S31508005E404C46DFF8900100EB840088460669484610
S31508005E5000F0C6F808B1012037E0DFF87C51605D34
S31508005E6005EB440760B1B8887188884208D103F009
S31508005E70CDFE665D0021615503F0CEFE304624E076
S31508005E80484603F064FCB088F0B103F0BFFE7188A1
S31508005E900FF278128919897988F800104FF6FF7879
S31508005EA0718832F8142000F01EF87180B1884144D8
S31508005EB0B18003F0B1FE605D20B1B888404504BFEB
S31508005EC03088B880002000E02620BDE8F28380886C
S31508005ED00FF2241333F81110891A884201DA0120C7
S31508005EE0704700207047491C91FBF2F302FB13111F
S31508005EF070472DE9F047804647460FF20410385C94
S31508005F0001288A4616462FD132480FF2F80950F86A
S31508005F102740002514E003F079FEA18801B9012580
S31508005F2022881AF8011B12199171218839F817204D
S31508005F30FFF7D9FF2180A188491CA18003F06CFED8
S31508005F403046461EC0B258B1002241462046FFF7E9
S31508005F50BEFF0028DFD10DB100F009F8222004E0C9
S31508005F6000F005F8002000E00120BDE8F087404673
S31508005F7003F03FBB80B501460FF284028A5C012A12
S31508005F8005D1144A52F821108A88002AFCD103F058
S31508005F9069FB002002BD0CB438B504460D4603F073
S31508005FA041FB04AB2A4621460C48FFF726FC0FF2B4
S31508005FB050012046415C012907D1064951F82000C5
S31508005FC0808810B1204603F014FB32BC00205DF82F
S31508005FD00CFB000058F7002008FB00203596000847
S31508005FE0042806DA0FF21801415C481E8041C00FEA
S31508005FF07047012070470000000080000000000084
S3150800600000010000000080000000000000004000C1
S315080060100000000038B503F003FE03F0B7FEDFF812
S3150800602014442078002840F0A780122004F000F8D5
S3150800603000060BD500F0DBF8000607D500F0DAF805
S31508006040000603D500F0D0F8000610D4122003F09D
S31508006050EFFF000614D500F0CAF8000610D400F0C9
S31508006060C9F800060CD500F0BFF8000608D5E07898
S315080060700E2861D103F03EFD002800F07F8032BD76
S3150800608000F0B5F800060FD400F0B4F800060BD5FA
S3150800609000F0B0F8C00707D400F0A6F8000603D44D
S315080060A0E0780C2845D1E5E700F0A1F8000609D507
S315080060B000F0A0F800F08100812803D100F094F8E0
S315080060C000060DD500F093F800060ED400F092F8FD
S315080060D000F08100812808D100F086F8000604D473
S315080060E0E0780D28C6D00E28DCE700F080F8000618
S315080060F010D500F07FF800060CD400F075F80006FD
S3150800610008D5E07816281CBF01281A28B2D00F280F
S3150800611015D1AFE700F06BF80006ABD400F06AF8CB
S315080061200006A7D400F060F80006A3D5E078162884
S31508006130A0D0E07801289DD0E0781A289AD0E07897
S31508006140022818BF1B2895D0062818BF072891D003
S31508006150082818BF09288DD00A2818BF032889D00F
S31508006160102818BF112885D0122818BF1328FAD06E
S31508006170142818BF1528F6D0B02032BDFFF7DEFD6B
S31508006180012004F0A9F904F001FC04F011FC04F064
S3150800619017FC04F0C7FDDFF8A0420FF2DC2004F07C
S315080061A0B0FF2070DFF8940204F0ABFF607003F0D4
S315080061B02DFD0546607804F0C5FF284603F02CFD42
S315080061C005F010F805F0E9F905F03CFB06F00CFEC1
S315080061D006F00DFE06F020FEDFF864024FF470416B
S315080061E004F007FF002032BD002003F021BF102075
S315080061F003F01EBF112003F01BBF2DE9F04706F080
S315080062004FFE06F063FF07F06BFA08B907F054FA79
S31508006210DFF83082404607F0D1FD08B905F025FEC3
S31508006220DFF82492484607F0C9FD08B907F03EFF93
S3150800623008F057FA08F0E7FBDFF8FC61307804F05D
S315080062404CFF707804F049FF08F05AFDDFF8FC515E
S31508006250DFF8FCA1002700240BE0204605F06FF8C4
S315080062602868007B001F022838BF012705F068F858
S31508006270641C9AF80000E4B28442EED3002F1EBFD5
S31508006280DFF8D0010078002805D000F02AF8102899
S3150800629008BF08F0EDFF04F015FD09F065FB03F0F3
S315080062A0B5FC074607F01CFA68B1404607F086FDBC
S315080062B048B1484607F082FD28B109F053FB10B1F2
S315080062C0307804F03FFF384603F0A6FC05F030F8B6
S315080062D018B94FF4BC7100F04AF803F06AF8BDE843
S315080062E0F08710B505F043F948B109F0F5FB30B170
S315080062F009F0B3FC00F0010080F0010400E001247D
S3150800630004F0D4F908B944F0040407F0E9F938B1FF
S315080063104C4807F053FD18B14B4807F04FFD08B934
S3150800632044F002044C48007808B144F02004494877
S31508006330007808B144F010044848007808B144F0E1
S31508006340400409F086FC08B144F0800409F083FC97
S3150800635008B144F480744248007808B144F40074E3
S315080063604048007808B144F48064A0B210BD0FF22A
S31508006370F80009F095BC38B5044634480068007B37
S31508006380C01E03280BD3204609F039FF4FF6FF75C8
S31508006390A84204BF20460AF093F9A84204D1204631
S315080063A0BDE8324004F080BB32BD70B504464FF6F6
S315080063B0F87084420D4627DA244E3CB93068007DD1
S315080063C0800703D428460AF0DAFCD8B93068418831
S315080063D08C4205D1011D08222846FFF78FF911E0E6
S315080063E0007BC01E032808D320460AF05BFEFF2860
S315080063F003D029460AF07AFE20B92946204604F039
S315080064009AFB08B1002070BD012070BD0F480068D6
S31508006410008A70470D490968088270470B4800686A
S31508006420408A7047094909684882704707480068E2
S315080064300078704796070808BDFF0020ECAE0108F3
S31508006440B8FE0020D8F70020CCF700202CFC00204E
S3150800645088F6002040FC0020BCFB002038FE002007
S315080064605CFC002064FC00207A69676265652D7310
S315080064707461636B2E630000D4FC0020C9E9000830
S3150800648098FC0020B15A0108B8FC0020954B010879
S3150800649080FC002029FC0008CCFE002001750108BC
S315080064A0BCFB00203D7E0008C8FB0020F77E0008E4
S315080064B040FC00206DF20008B4FB0020C173000800
S315080064C0E0FB0020FD87000874FC002083200108FB
S315080064D0E4FE002019A5010834FC0020470B01083A
S315080064E048FE0020A19001088CFC00201FA5010889
S315080064F050FC002041330108E0FC00207910010817
S3150800650030FE00201DF0000838FE0020F1CD0008FE
S315080065101CFC0020B3B200085CFC0020073201080E
S3150800652064FC0020453201081CFE0020F5370108EE
S31508006530D4FE0020E395010810FE0020CD5F010877
S31508006540C0FE00201B740108B8FE0020A5AA010899
S3150800655024FC0020DBB30008000000000000000057
S315080065609A490870704738B5984C207800A9FFF703
S3150800657064FCA0BB9DF800202078954D0A2A18BF18
S315080065800D2A8FA102D0202A03D010E000F028F8A7
S3150800659031BDFFF71DFA287841190979F9B1401C70
S315080065A02870C0B208281AD10FF2382112E0FFF776
S315080065B00FFA287841190A79112A09DA854D9DF8C2
S315080065C0004000EB001040191454501C087131BDEE
S315080065D00FF230212078FFF7FBF900F048F831BDBB
S315080065E02DE9F843794C2078012676A1FFF7F0F9D2
S315080065F077480079002838D00025DFF8D881DFF8F9
S31508006600D891764F0DE056B100F038F909EBC50080
S315080066104068804700F032F93878401CC5B2681CDB
S31508006620C5B2387885421ADA59F835000378014632
S31508006630002202E0521CD2B2135C002BFAD10126CA
S31508006640002006E0435C10F808C0634518BF002622
S31508006650401C9042F6DB002AD5D10026DFE726B992
S3150800666020780FF2BC11FFF7B3F9BDE8F14338B54E
S315080066700024584D04EB0410112140190AF00CFEB1
S31508006680641C082CF6DB5248011D002200230CC1AD
S3150800669002704DA1524802684C480078BDE838405F
S315080066A0FFF796B970B5002201EB011603780BB90E
S315080066B0012070BD13465A1C464D7519DBB210F8F9
S315080066C0014B5B5D9C42F1D0002070BDA0F1300209
S315080066D00A2A38BF30380AD3A0F16102062A38BF21
S315080066E0573804D3A0F14101062902D23738C0B27F
S315080066F070470020704738B5364A01EB01139A18DF
S31508006700092902EB400401DB002032BD6078FFF75F
S31508006710DDFF05462078FFF7D9FF05EB0010C0B26C
S3150800672032BD70B52A492B4D411800EB00100A7985
S31508006730465D0021012300242D2E0BD1012409E0FA
S31508006740521E4619D2B2965D303EF6B206FB0311CA
S315080067500A2673439442F3D3084670BD10B504461F
S31508006760092C01DB002010BDFFF7DBFF00F014F851
S3150800677004BF00B2404200B210BD10B50446082C52
S3150800678001DB002010BDFFF7CCFF00F005F804BFC1
S3150800679080B2404280B210BD0E4904EB0412515C2F
S315080067A02D29704710B50446082C01DB002010BDC2
S315080067B0FFF7B7FFFFF7F0FF08BF404210BD000024
S315080067C0256300000D0A000025703E0078F70020BA
S315080067D09CFB002014FB0020CC5600082CF6002059
S315080067E030F600200D0A4F5554204F462053455287
S315080067F049414C20434D44204255464645520D0AD0
S31508006800000000000D0A4F5554204F4620534552AC
S3150800681049414C20434D442053504143450D0A00FD
S31508006820636F6D6D616E64206E6F74207265636F41
S31508006830676E697A65640D0A000000002D480068D5
S31508006840C00701D42C4870472C48704780B5FFF71D
S31508006850F5FF2B49096801B9400802BD80B5FFF765
S31508006860EDFF400802BD02F050BB264801218160B9
S315080068704EF6BE2141600121016070472249012080
S3150800688008607047A52805D11E484DF6AD614160E0
S315080068900221016070471B480068C00701D5012026
S315080068A070470020704780B51849194A10200860BB
S315080068B018491948007858B103280CBF0020012050
S315080068C0106040F651000860002002F064FD06E002
S315080068D0022010604FF40060086002F0CFFA07212A
S315080068E00E4801600021016410200D49086000204F
S315080068F002BD00001C400040001BB70000366E01B8
S3150800690020400040006000400860004080E100E050
S31508006910080000400C600040B9FF002014A00040A9
S3150800692000E100E07047704780B500F008F880B2D3
S3150800693002BD80B500F003F80002000C02BD38B5B0
S3150800694003F064F92B490C684D6803F065F945EACC
S31508006950044032BD704780B5FFF7FCFF2649072083
S31508006960086001202549087001BD2DE9F843044651
S315080069700025206810B9FFF725FA2DE003F046F93F
S31508006980804600F030F81CBF401C2060FFF7D7FF98
S3150800699021681A4E184F81461948494489B2416000
S315080069A021684944090C0160357002203860386452
S315080069B000F015F8404603F02FF901200AF059FFB8
S315080069C03D64307838B98525FFF7B9FF2168081A7C
S315080069D04844206000E025602846BDE8F283102080
S315080069E0094908607047074910200860206810F1B7
S315080069F0010F70471060004014A00040C0FF00203F
S31508006A001860004080E100E000E100E0C1080329C9
S31508006A1007DA012100F007029140C0084002124A35
S31508006A2011507047C108032907DA012100F007024F
S31508006A309140C00840020D4A1150704710B50446EF
S31508006A4003F0E4F8E108032909DA094A02EB4121CF
S31508006A5001230A6804F00704A3405A400A60BDE807
S31508006A60104003F0D9B8000014B0004010B0004040
S31508006A700CB0004000281CBF0620FFF7C7BF062041
S31508006A80D0E70000F0B52F4C0D46A16889B0064640
S31508006A90174629B1082206A8FEF730FE06A8A06008
S31508006AA027B9FFF7B3FC6188814201D1002700E0CE
S31508006AB0012730460BF0D8F8014605AB3A46304672
S31508006AC00AF00CFFA0BB6068C18804912B46417987
S31508006AD003911122017902914188019100880FF2F0
S31508006AE06801009003200BF0F3F90120207004F0F0
S31508006AF021FC9DF8142061682846FDF720FC04F067
S31508006B001FFC9DF81400FF2818BF06F079FE6DB922
S31508006B106068C18848F240021140402906D12178B0
S31508006B20490703D44088FF2107F084FC0020207021
S31508006B3009B0F0BD0348017811B94FF6FF707047E8
S31508006B4040887047D0FB00204242575742425700C0
S31508006B505C480068408870475A480068001D7047BE
S31508006B6058480068C07E704770B5564C564D216827
S31508006B70564E4873022819D100F0ACF878B9206847
S31508006B80007B001F022824BF304604F027FA20683D
S31508006B90007BC01E032824BF284604F01FFA20687D
S31508006BA04069C00054BF9024BC240AE000F092F863
S31508006BB010B109F04DF803E03070287004F067FC56
S31508006BC09124204606F021F950B9234613223CA108
S31508006BD003200BF07DF92046BDE8704004F001BCA7
S31508006BE070BD38480068407B00F00F007047354894
S31508006BF00068407B00F00F00022801D10120704791
S31508006C000020704738B5044600F064F820B12046E5
S31508006C10BDE8324009F010B82A4DFFF7E8FF28B959
S31508006C202868407B032801D0932032BDFFF7F6FB86
S31508006C3020812868C07BA0722868807BE072204685
S31508006C4001F024FD0020207304F1140104F1100062
S31508006C500BF04FF9E081002032BD10B5002300E0AB
S31508006C605B1CDBB28B4205D210F8014B9442F7D07D
S31508006C70002010BD012010BD80B508210BF0D3FC03
S31508006C8008B1002002BDA52002BD0E480068407B61
S31508006C9001281CBF3128332801D101207047002064
S31508006CA0704710B504460BF08FFF10B905490968FF
S31508006CB0CC7310BD03480068807B70470000000055
S31508006CC0424200002CFC002048FE002034FC002034
S31508006CD003F0FEBB80B5FFF7A9FB032801D101200D
S31508006CE002BD002002BD80B5FFF7F4FF38B1BDE84C
S31508006CF004404FF490710FF2080008F0D1BF01BDAF
S31508006D00656D6265722D737461636B2D636F6D6D4E
S31508006D106F6E2E630000000070B5D04D04462878CB
S31508006D2010B904F024FC08B9012070BDCC4E0BF054
S31508006D3044FF30710BF044FF707103F0C9FB3081DA
S31508006D4003F0B4FC707003F0BBFC307003F0EEFC8B
S31508006D50B07003F006FDF070C2484178B1710021A9
S31508006D60417001202870C0480460002003F0CAFC66
S31508006D70002003F0DEFCBDE87040002003F0A3BC51
S31508006D8070B5B64D28780024012833D102F03EFFAD
S31508006D902C700646B24DB449A8780C6003F0B2FCD4
S31508006DA0E87803F0C6FC304602F036FFA879AD490C
S31508006DB04870287803F087FC00B1044668780128F3
S31508006DC008BF03F014FC28890BF029FD00B104461E
S31508006DD0A64E95F905003168C8730BF0F5FE00B1AB
S31508006DE004463168287988730BF0DFFE00B1044643
S31508006DF0204670BD012070BD10B500F01DF80128B1
S31508006E0001D0012010BD03F0FEFC022021E010B5E0
S31508006E1000F012F8022801D0012010BD03F014FD7D
S31508006E2016E010B500F008F8012801D0012010BDC1
S31508006E3003F0D7FC03200CE0884C2078704710B587
S31508006E40FFF7FAFF032801D0012010BD03F0D1FC9B
S31508006E5001202070002010BD2DE9F0478046C007AC
S31508006E608A4604D59C210FF2242008F019FF7B4896
S31508006E700078012818BF012020D100267C4F42F255
S31508006E80107402F0C3FE814600203870404603F0B5
S31508006E905FF90546484602F0BFFE8C2D03D03878C8
S31508006EA00028FCD001E0641EEBD1FFF7E7FC761C56
S31508006EB0B6B2B24501D3002DE1D02846BDE8F08729
S31508006EC066490978012901D0012070476749096890
S31508006ED088730BF06ABE0BF070BE10B50C465F499E
S31508006EE00978012901D0012010BD0BF098FC38B9AA
S31508006EF05E480068C4732046BDE810400BF064BEC7
S31508006F0010BD80B55B4908700BF057FEBDE802401E
S31508006F100BF04BBE574890F9000070470BF050BE77
S31508006F202DE9F04F544F85B004463868002580B2E5
S31508006F3089464FF00A0A0390A8460BF03EFE8DF8E4
S31508006F40060020460BF0CBFCB8684C4C4C4E80B281
S31508006F5002904FF6FF72A06AADF80400002120687F
S31508006F60ADF802000820D6F800B00BF00DFCADF81D
S31508006F700000C022114608200BF00DFC414800789D
S31508006F8010B148F2607038614CF25C00F864022077
S31508006F90A0620120206040F24C4002F0E1F9012095
S31508006FA0F06030607F200BF0F5FE039800F5004096
S31508006FB03860FFF7C4FC049002E0B8F1000F04D172
S31508006FC00020706141F2111003E04FF0FF3070614C
S31508006FD02D48306188F00108012002F0C1F91A2D08
S31508006FE0A8BF6FF0090A04DA15F1190FB8BF4FF0F8
S31508006FF00A0A554402982DB22818B860FFF73EFCD5
S31508007000B9F1000FD9D0FFF79AFC0499401A8145C7
S31508007010D3D20298B8604FF6FF72039838601FFA09
S315080070208BF030600020F06002202060BDF802007E
S315080070302060BDF80400A0620020F8640820BDF8AE
S3150800704000100BF0A8FB40F24C4002F089F99DF8BD
S31508007050060005B0BDE8F04F0BF041BC05FE002068
S31508007060AAF9002098F7002044FE00202CFC0020F6
S3150800707006FE0020C1FF0020C0100040602000402E
S3150800708028100040A5F70020EEEEFFFF6D66676C3E
S3150800709069622E6300000000DFF8C02A12681278C1
S315080070A082420AD019B1012A03D1022805D000204C
S315080070B07047022A08BF0128F9D101207047DFF876
S315080070C0A01A0875704710B5DFF8904A2068407B0B
S315080070D0112804D0B9210FF2100008F0E1FD21684B
S315080070E04120487310BD00006173736F6369617452
S315080070F0696F6E2E6300000080B5022004F016F951
S3150800710004F01DF900F081FC001F022805D2DFF803
S31508007110500AC17C491DC17405E04FF47A71DFF845
S31508007120440A03F066FF00F0FCBE10B5DFF8304AEB
S31508007130002060742078FF2803D006F061FBFF204A
S31508007140207010BD70B582B004460D4606F0E4FA0C
S31508007150007C00F00701400800F0380000EB410011
S3150800716000F11106DFF8C80C0068205CF6B286420A
S315080071700BDA831BDBB20F2BA8BF0F23002000906E
S3150800718032462146284606F0DAFB304676BD1FB55C
S3150800719001200BF03BFF0BF03DFF04F0A4FB18B3F6
S315080071A0DFF8BC49207800A9FFF7CCFFDFF8B4194F
S315080071B0002008700DF10300617901F075F9FFF7F9
S315080071C0B4FF00F012F800F01DFC007DC00702D5E0
S315080071D00CF0B8F808B90CF0ADFA0CF0B2F80BF0F0
S315080071E069FF012001F098FA1FBD10B500F00AFCEE
S315080071F0017BC91E032906D240884FF6FF718842D3
S3150800720008BF032008D0FFF7A3FC0446FFF7A4FC39
S31508007210214603F0C5FB0220FFF7A6FC0AF060FE34
S3150800722000F083FEBDE810400CF0B3BA38B5DFF8BD
S3150800723030492075FFF779FF00214FF6FF7001F0FE
S315080072403BFADFF818592868417B032918BF00293B
S315080072501DD0332918BF432913D101F0C9F928686D
S31508007260017BC91E032906D203214173207DBDE88F
S31508007270324004F0B6B8207D04F0B3F8BDE83140DA
S31508007280B3E721214173BDE8314001F029BB31BD87
S3150800729010B500F0B3FB002048734FF6FE70FFF7F9
S315080072A0B9F84FF6FF70FFF7BDF8DFF8B44801F0FC
S315080072B09FF9207DBDE8104004F093B83EB504461A
S315080072C02346E07A0FF2B8010290152294F90A00D3
S315080072D001902089009000F003FA00F059FF78B970
S315080072E020894FF6FF7188420AD0DFF8580C0078DB
S315080072F00A2805D104F025F810B904F024F808B1D5
S3150800730070203EBD2868007D800706D5DFF8380C5A
S31508007310007810B10CF0DCFB00E00020214601F0FB
S315080073207FF8050008D1012001F05DF80021012051
S315080073300CF053FD050001D028463EBDDFF82008B5
S31508007340007E08B109F058F8002208212046FFF708
S3150800735084FC30B1042120460BF065F908B9A52054
S315080073603EBD00202074DFF8E40B60610020E08158
S31508007370204600F0F5F8054603F09BFFDCE7000021
S31508007380423870574242000010B504462346182278
S3150800739001F030F9DFF8B80B0021017114B1FF2CA8
S315080073A002D10121017007E0012100F8041BA100A8
S315080073B0491C090203F01DFE00F0B7FD002010BDB0
S315080073C0DFF88C1B00200871DEE730B50D4689B062
S315080073D0044668690FF27C1107902346287C0690BC
S315080073E01622E8890590287B0490E87A039095F997
S315080073F00A00029028890190009500F071F9287B0F
S3150800740000280CBF4FF6FE70FFF700F82B46224601
S3150800741009B0BDE83040014601202DE9F041DFF80A
S315080074203C6780463068407B00280F4614461D4658
S315080074304BD1002C49D0062C47DADFF8080B007828
S315080074400A2842D103F07DFF00283ED103F07BFFD6
S3150800745008B1042C39DB287B032816D14FF6FE70B9
S31508007460874214D1012C08BF002710D0022C2CD13A
S31508007470FEF7CCFF4FF6FC71884202DAFEF7C6FF2C
S3150800748001E00CF025FB074601E0012C1DD0B8F100
S31508007490000F0CD0287B03280CBF01210021012CEA
S315080074A00CBF012000200CF098FC00284ED129467C
S315080074B0384600F0B5FF002848D103F03CFF03F03A
S315080074C023FF20B103F03FFF08B170203EE030688B
S315080074D0DFF88C76407B33281EBF5328002078754A
S315080074E0204600F080FF387E20B103F02CFF08B953
S315080074F008F082FF287B032803D12846BDE8F0411F
S315080075002EE00822294607F10800FEF7F7F8287B3F
S315080075100328A8BF00203874FFF707FE94203875A3
S31508007520387C316800280CBF0120312048730020C0
S3150800753031687A7EB8740120897B00FA01F103204C
S315080075400DF046FA10B1326800215173BDE8F0819A
S3150800755000000000424238705742424257424400F7
S3150800756010B5044600220821FFF777FB08B1012071
S3150800757010BDFEF74BFF00224FF6FF7100F078FFB3
S31508007580217C204600F090FF6269E189207C0AF0A0
S31508007590DAFCDFF8C8050068007B012808BF0DF093
S315080075A0AEF9FFF722FE002010BD002038B5DFF83F
S315080075B0AC4505462068407B002802BFDFF88409F1
S315080075C000780A2801D0702032BD08F05AFB00283E
S315080075D041D12DB102222946DFF8C00BFEF78EF8FD
S315080075E000A801F035F808B1932032BD9DF80030A7
S315080075F0142200F0FFFF00F09FFF68BB9DF8000013
S3150800760000F0F1FE2068007B012818BF022806D08A
S31508007610C01E03280FD2002001F05AF858B100F016
S31508007620A2FF2068007BC01E032838BF07F06AF84F
S31508007630FFF7DBFD0FE02168132048730020DFF811
S315080076402015887405222168897B012000FA01F13A
S3150800765005200DF0BDF9002032BDFF22FFE72DE918
S31508007660FC41044600F0CEF90D46017B01299046FF
S3150800767025D0407B022818BF032820D1FFF733FB0B
S31508007680DFF8DC747A7E294603200DF0A1F906009E
S3150800769016D13320FFF768FAFFF747FDFEF7BEFE5F
S315080076A0F880002C14BF02200120387407F1080066
S315080076B000F0ECFF0020B87487F8158000E070260B
S315080076C00196009523462C220FF20C0100F008F8CB
S315080076D03046BDE8F6810000424244420000000000
S315080076E003200AF0F5BB38B5044606F015F805463A
S315080076F020460DF09AFB441920460DF097FC4FF6EC
S31508007700FF5101402046BDE834400DF096BC70B5E7
S3150800771084B0FEF77BFEDFF84844064620780B2146
S315080077200DF062FB002100F0C7FFDFF83054FFF7C9
S31508007730ACFA58B11EB14FF6F870864206DB0CF06B
S31508007740C7F90646286840888642F8D03046FEF7CC
S3150800775061FE207809210DF047FBFEF763FE2E68CF
S31508007760307B052813D100F09CFF8DF8080002AB8A
S31508007770207C00280CBF4FF4804244F2010201200D
S3150800778000904FF48061708806F05AFC0FE00620DE
S315080077908DF8080000F085FF8DF809000223002007
S315080077A00190009002AA708801210AF0B9F90646EC
S315080077B0FF2E08BF002011D02868418830460DF0FA
S315080077C070FB207C02281CBF3046FFF78CFF00F0B8
S315080077D047F80446304606F013F8204604B070BD54
S315080077E070B586B00C4616461D4638B920460DF0CB
S315080077F04BFC02AA03A908F020FD03A807218DF86F
S3150800780008100190310A8DF80A1001200A998DF89E
S315080078100B1000908DF80960042302AA0121204666
S315080078200AF07EF90646FF2E18D021460DF039FBE0
S3150800783015B93046FFF757FF0B9808B930460DE0E3
S31508007840204608F026FD18B1304606F089FF01E00B
S3150800785000F006F8304605F0D3FFFF2006B070BDED
S31508007860002200231146304608F0ECB82DE9F64F01
S3150800787083B004461E4600274FF6FF7856B14FF0F0
S31508007880010B30460AF08AF981467078400800F004
S31508007890010A05E0BB4610460DF06AFB8146BA466A
S315080078A000F0B3F8C01E0328C0F0A1800E98411C52
S315080078B09DF81000C9B206F039F90546680800F0C7
S315080078C001008DF808009DF80C0018B9280658BF65
S315080078D045F0800500F096F8407B022804D1DFF8D1
S315080078E070060078204301D102271CE04846FEF7BF
S315080078F042FD9DF80C1084F0010202EA0108BBF172
S31508007900000F1CBF301D0DF091FB0121009143466D
S3150800791001462A46484608F0EEFB80464FF6FF70B9
S31508007920804508BF0127DEB11CB94FF6FF708045B8
S3150800793004D1301D0DF07AFB014600E041460120D6
S3150800794001900097534642464846FFF749FF9DF87F
S31508007950080050B94FF6FF71484609F00DF804E0E3
S315080079603A46414648460DF03AFD002F3FD19DF86C
S315080079700800E0B14946404609F021F80E2101FB0E
S3150800798000F700F03BF8896A79184A7942F0400214
S315080079904A7109F047F800F035F8806A38186A061F
S315080079A041794CBF41F0800101F07F014171F6B188
S315080079B0DFF8906C9DF810003070FEF727FD690619
S315080079C00FF2300C48BF0CF1010CBAF1000F18BFCA
S315080079D00CF1020C02D10CB90CF1040C01469CF80E
S315080079E000004B4642460DF07DFDFF20307005B085
S315080079F0BDE8F08F0307000401050000DFF8481C06
S31508007A0009687047554800687047DFF83C0C0068FD
S31508007A10007B70472DE9FE4F04468846914640464E
S31508007A200DF00DFA4E4D2F7C824607B101274B4EBD
S31508007A303068007B052808BF01273CB150460AF08C
S31508007A40ADF8834650460AF09CF805E040460DF02E
S31508007A508FFA8346DFF8F40B029004230020009087
S31508007A604A46414601A805F06AFF0DF105000DF0EA
S31508007A70DDFA9DF807908046D4B10298DFF8CC1B52
S31508007A800822FDF785FE002863D13068407B02286E
S31508007A9008BFB9F1000F0BD14046FEF7BBFC0BF04F
S31508007AA049FE992300F0A5FD992003F09AFC50E0C1
S31508007AB0FFF7EBF800284CD0002F14BF204684F0BF
S31508007AC00100002845D0B9F1000F03D09420FFF734
S31508007AD0ADFB3EE030684088594608F070FF08F074
S31508007AE0A1FF306841885A46404600F0C1FC30681C
S31508007AF0417B012916BF31291121432141730220F7
S31508007B0003F013FCDFF87C7C40F6B831384603F006
S31508007B1070FA06F0F7FD0020E8743068C17E19B9DE
S31508007B20384603F05BFA11E034B19AF80110890778
S31508007B3002D5FFF72CFB09E0007B001F022805D2BF
S31508007B400521384603F055FA0620E874AD20FFF7FC
S31508007B50B6FA03F0AEFBBDE8F78F00002CFC002058
S31508007B607CF70020BCFB00202DE9F04F8DB00546C0
S31508007B700DF065F981460DF0A7F9039028460DF03A
S31508007B80F7F9804602AB052205A928460DF040FF05
S31508007B900446022C8DF800002ED028460DF045F933
S31508007BA0039908189DF808100818C6B231462846E1
S31508007BB005F0BCFF0190FFF78DF820B10198072862
S31508007BC01AD1012C18D00198DFF8BCBBDFF8787AF7
S31508007BD0F41C01284FF6FF7A0FD0022815D0042886
S31508007BE000F0F680062816D0072800F081800828BD
S31508007BF03AD07C2800F0B48019E1002100960023D1
S31508007C002A460846FFF732FE11E132462946002089
S31508007C10FFF700FF0BE1404608F0F1FA0446544529
S31508007C201AD0214640460DF08BFBDFF8640B00782E
S31508007C30800711D520460DF027FAFF280CD0DFF86B
S31508007C40542B1268002142F82010DFF84C1B0968F3
S31508007C50425C42F0F00242543868407B022802D166
S31508007C60404602F034F8E2E000200BF0CFF9711C30
S31508007C7000F0E0F88146E1B200F0DDF80446B11DF7
S31508007C8000F0D8F806465645EDD006F03BFD3868B4
S31508007C90407B132808D100F066FC28460DF068F9E9
S31508007CA00146204608F08BFE3868407B022818BF3C
S31508007CB013281CD13046FEF7ADFB4846FEF7B2FB4B
S31508007CC00021002000F0F0FB4146204600F0F4FCBD
S31508007CD09BF80300DFF8C41A087000F026F9386824
S31508007CE0417B132903D1232141730CF0FEFE9EE04C
S31508007CF001210398484405F006FE044600220023A5
S31508007D002146104601F0E5FF204605F079FD386862
S31508007D10407B022802BFDFF8884A20780028E6D18F
S31508007D209DF8001005AA28460DF0A2FE002816D0D8
S31508007D3000F06CFF05469BF9191001208840C0EB3E
S31508007D4000181FFA88F6002003F0EFFA95FBF6F004
S31508007D5006FB1050411C89B2204603F04AF966E03A
S31508007D60284605F0D9FC30184178652904BF807883
S31508007D706D285CD12E480068285CE4B2844256D24D
S31508007D800822414603A8FDF7B9FC00AB00222146AC
S31508007D90284609F0A3FD002849D19DF80000FF28D0
S31508007DA045D0DFF8004ADFF89C680120207035705E
S31508007DB003F0C0FA03A89DF8001001F040FF03F095
S31508007DC0BFFAFF203070002020709DF800002CE0DC
S31508007DD028460DF0EAF80446DFF8CC090078FE28B4
S31508007DE009DB28460DF035F8000B00F001012046A6
S31508007DF001F02BFF1BE00FF600200088ADF80A0003
S31508007E0002230020019000900DF10A02012120466C
S31508007E1009F086FE0546FF2D09D021460DF041F8EA
S31508007E200021284603F0F0FA284605F0E9FCACE103
S31508007E303CF60020C9B2284605F01FBF70B50220DF
S31508007E4003F074FA03F07BFADFF83859DFF8F867BD
S31508007E500020287003F047FD28B13068C07E10B9AD
S31508007E60FFF795F93EE0DFF8204903F03CFD10B92D
S31508007E70FEF70BFF58B1E07C48B1C821284603F04D
S31508007E80B8F8E07C401EE07403F0F3FA2AE03068A4
S31508007E90407B132809D0FEF7F8FE30B93068407BDE
S31508007EA011281CBF4328412803D1207DFFF7BEF9BE
S31508007EB018E0022818BF032803D0002818BF212875
S31508007EC010D10024DFF8E45808E0204603F037FA1A
S31508007ED0002000F021FC03F033FA641C2878E4B291
S31508007EE08442F2D3BDE8704003F02ABADFF8981846
S31508007EF00020C874704780B5002003F017FA03F015
S31508007F001EFADFF89C1800200870DFF83C070068A6
S31508007F10417B022905D1007BC01E032828BF0DF02E
S31508007F207DFABDE8014003F00BBA80B503F015FAF7
S31508007F30FF28DFF87C181ABF05480078002008706B
S31508007F4001BD0000DCF70020D2FF002000F8FF0783
S31508007F50B0FB00202DE9F04F0446DFF8580800680A
S31508007F608DB0205C0090204605F0D6FB0646B01D75
S31508007F700DF05CF8074606F109000DF057F8814642
S31508007F8006F10B000DF052F8ADF80A0006F10D00E7
S31508007F900DF04CF88346C00B8DF80800FEF79AFEE4
S31508007FA018B1204607F052FEEFE008A92046FFF771
S31508007FB0C9F808AEB178C1F3C3010391717801F02D
S31508007FC00F0A00992029ACBF9DF82E804FF00008B3
S31508007FD0021F0023D2B22146052001F07AFE00F0E6
S31508007FE0D7F8022812D1FEF719FA81450ED104A84E
S31508007FF000F04CFB00981C2806DB08220DF1230133
S3150800800004A8FDF7C5FB08B10AF0D1F8B7F5004F8B
S3150800801002BF2BF4404040F6FF718842C4D1009855
S315080080201C28C1DB002208210DF12300FEF715FEEE
S31508008030002839D1DFF880070078012830D19DF86B
S3150800804008000FF2AC710090CDF804A04B46272229
S31508008050FFF746FBDFF8640700788DF81200ADF8E5
S3150800806010908DF81CA08DF81D8008229DF8080038
S315080080708DF813000DF1230105A8FDF73FFB2868CD
S31508008080DFF8C075407B01281CBF33283C7003F01D
S3150800809051F904A8FCF751F9FF20387003F050F99C
S315080080A0DFF8E476B87C00286FD1FEF7EEFD0028ED
S315080080B06BD0012078740022082107F10800FEF72A
S315080080C0CCFD10B1F888814508D008220DF12301AE
S315080080D007F10800FDF75CFB002856D19DF808005B
S315080080E028B92868407B312818BF33284DD101218B
S315080080F05046FEF7D1FF002847D09DF820000028FB
S3150800810002BF7078000902283FD12868017BB2783F
S31508008110022902D1500709D437E0120606D40529E8
S315080081201EBF4088BDF80A1088422ED13878DFF87D
S315080081309056DFF89066FF2813D0787980450BD1E2
S3150800814097F9020096F9001088420ADB1DD1787863
S315080081502978884205D318E0A8EB0000C0B2812828
S3150800816013DAFEF7E2FF3C70204605F03BFB287861
S3150800817078703078B87003980F28B4BF401C0F2069
S31508008180F87087F804A087F805800DB0BDE8F08F71
S31508008190DFF834562868407B70470000C4FB00208F
S315080081A02DE9FF410546DFF8E04501200E46174652
S315080081B0A07404F025FE002813D1A846B8F1010FD3
S315080081C018BF002D0ED1009733462622B5A1FFF71A
S315080081D087FA03F0AFF839463046FCF7ADF803F0F6
S315080081E0AFF8A4E0FEF776FD28B13A4631462846B0
S315080081F007F02BFD9BE0FFF7CBFF23280DD1FEF7F9
S31508008200A7FC0446FEF7A8FC214602F0C9FB02209B
S31508008210FEF7AAFC0AF04EFF89E0002FFCD12128C0
S315080082201CBF0428532802D100F05AFB7FE0FEF752
S315080082302CFD00285BD02678FF2E05D1607C00280F
S315080082400CBFAB20942066E02868007BC01E03287C
S3150800825089412079C90FFEF71FFF08B998205AE00F
S3150800826002F0F2F9052130460CF0D9FD2968887329
S3150800827003F01FF8207C68BB2868007B052829D0F6
S3150800828000F00FFA0746092130460CF0ADFD80468E
S315080082900B2130460CF0A8FD3A4641460DF084F80D
S315080082A0E0B99420FEF70BFF022003F03EF8296898
S315080082B0DFF8D0044A7B012A07D0312A18BF332AAF
S315080082C00ED1097B091F02290AD2C82102F091FEA4
S315080082D003200AE0FFF71BFA0028E2D194201AE0EF
S315080082E04FF4167102F085FE0020E0741FE028683E
S315080082F0407B132815D100F017F9BDF80000FEF7EA
S3150800830091F800F030F92868017BC91E032905D2C7
S31508008310332141739620FEF789FF08E0FEF765FFD3
S3150800832005E0B8F1020F04BF304606F0DEFD4FF453
S31508008330006007F041FE10B907F0D6FB08B10DF052
S315080083409DFBBDE8FF811FB5044600208DF800009F
S31508008350FFF758FB007840F020008DF80100FEF783
S31508008360B9FC18B1204607F07AFC3AE00DF1030093
S3150800837000F08CF90322FF210DF10B00FDF701FA3D
S3150800838009F0CBFD8DF80E00DFF84014DFF818046D
S31508008390DFF83C240078DFF83C34097812781B783B
S315080083A0FE28A8BF0020091A9B1A9042B4BF101ACB
S315080083B00020DFF8E8231278DBB2C0B2D200C0187A
S315080083C0C9B242F004028842B8BF42F080028DF872
S315080083D0022000A90F22204605F01BFB401E804103
S315080083E0C00F04B010BD38B5DFF8DC530446286862
S315080083F0017BA14203D00473204602F0EFFF24B1AB
S315080084002868007B001F022805D202F064FFFF28B7
S3150800841008BF012000D00020BDE8324002F053B961
S3150800842038B50D460446E87A0B38102801D38A2059
S3150800843032BD95F90A00FEF734FC08B18B2032BD2F
S315080084408148E97A026891730068A97AC17320465F
S31508008450FDF7E0FF4FF6FE7084420CBF4FF6FF7043
S315080084602889FDF7DFFF2889C749C880002032BD63
S3150800847038B50C461546FDF7CDFF0BF0FDFA294633
S31508008480204600F019F9C0480178FF2918BFC078BE
S3150800849005D1FFF7BAFA01280CBF00200120BF4911
S315080084A0087031BD424242007FB504460D4600F0D1
S315080084B03BF8654E94B1C84A0021284609F043FDA9
S315080084C0306801788DF804100822007B8DF80500C5
S315080084D0214602A8FDF712F908F004FC3068817BF2
S315080084E08DF80310C07B8DF80200FDF797FFADF8F5
S315080084F00000FDF78BFFADF8060000F017F87FBD0A
S315080085001FB5044600F010F81CB100208DF80500D0
S3150800851007E0FDF77BFFADF80600FDF77FFFADF836
S31508008520000000F003F81FBD00A835E0102307225D
S3150800853000A900200DF0DDBC00B58BB0FFF7F4FFF5
S31508008540BDF80000ADF8180004A99DF803008DF8E1
S315080085501B009DF802008DF81A00BDF80600FFF70B
S315080085605FFF0BB000BD1FB5012000F0B1F804464F
S3150800857008F0C3FBFFF7D8FF1CB900224FF6FF71BE
S3150800858003E0FFF73FFA4188021DBDF80600FFF732
S315080085906FFF0DF018FD1FBD0146102307220120AD
S315080085A00DF0A7BC38B5082002F0C0FE044602F05C
S315080085B0C6FE254D894829680078887302F0BDFEF5
S315080085C0A04208BF02F04BFE00210020FFF76CFF17
S315080085D09B2300F00EF89B2002F003FF2868002179
S315080085E0A0F84410A0F84610BDE8314002F0A8BE35
S315080085F0237D132265A1032009F06ABC80B5A0F18A
S315080086000B01102901D38A2002BDFFF7F7F9497B30
S31508008610022918BF032901D0702002BD6F490870CE
S31508008620082002F082FE00216D4802F077FF20B193
S31508008630012808BFFFF7B6FF01E0A12002BD002010
S3150800864002BD0000A0F700202CFC0020A8FB00209B
S315080086501FB50446FEF73EFB18B1204607F0EEFAB2
S3150800866012E000A8FFF798FF9DF8050040B106281C
S3150800867006DAFFF7C3F99DF804200978914201D07C
S31508008680932001E02070002004B010BD1FB50446F9
S3150800869000A8FFF781FF082202A92046FDF72EF859
S315080086A01FBD5048007800B14020474A4E4912681D
S315080086B0127B515C08437047434A1368588019B9BE
S315080086C00822181DFDF75DB80822181DFDF716B813
S315080086D010B504462B48007AC00784B011D50A2382
S315080086E00A2200A901200DF004FCBDF808004FF687
S315080086F0FF71884205D00822FF2100A8FEF7ADFACF
S3150800870008B1002006E024B1BDF8080000A9FFF76B
S31508008710D3FF012004B010BD70B51A4D0446287A5F
S31508008720C00784B00CD5284E306841884FF6FF72D2
S31508008730914207D100220821001DFEF78EFA08B1E2
S3150800874000201DE044B1022002F0EFFD4FF4F04195
S31508008750284602F04EFC12E030684188ADF8081051
S315080087600822011D00A8FCF7C9FF0A230A22FFF701
S31508008770DFFE02230B221D4900200DF0BAFB012063
S3150800878004B070BDBCFB00207CF70020424200000C
S315080087906CFC00205CF60020A8F60020D5FF00201F
S315080087A0C8FB0020D0FB0020B3FF002088F600207D
S315080087B0D7FF00203CF60020DCF70020CFFF002082
S315080087C0CDFF0020CEFF00202CFC0020C8F600209C
S315080087D015FF002014FF002000F8FF07BCFF00204B
S315080087E0A5850008E5AE0108380601086EFC0020DC
S315080087F042574242000000000460000080B5DFF8DE
S31508008800841300200871062002F090FD02F097FDFF
S31508008810DFF874030068407B042814BF532800F06F
S315080088205FF8BDE8014002F08BBD80B517229DA117
S31508008830032009F04DFBFEF756FABDE8024000207A
S315080088404AE0F8B5DFF8404323685D7B002D18BF82
S31508008850212D05F00F0607D01D7B012D01D18506B8
S3150800886002D4C84D2F790FB17020F2BD2A70012E9F
S31508008870C64A118004D12120587300F031F829E046
S3150800888081064CBF53210421597321680A7BD21EE5
S31508008890032A39BF4A8800F020004FF6FD7200F01F
S315080088A0A0000146104600F032F92068407B0428F3
S315080088B004BF0120FFF724FE062002F036FD2068DB
S315080088C0007BC01E032834BF022008200102281D91
S315080088D002F08FFB0020F2BDFF224FF6FF71B0E7D2
S315080088E080B506F0F6FB07F004F906F088F8A84804
S315080088F000780A281CBFBDE801400CF0F6B806202F
S3150800890002F013FDBDE8044001210FF2090002F050
S3150800891005BE000010B5062002F008FD02F00FFDA6
S31508008920994C2068417B532906D1032141730120C4
S315080089300021FEF792FE26E0042918BF212922D13C
S315080089400120FFF7DDFD4FF6FE70FDF763FD4FF6DC
S31508008950FF70FDF767FD0020FFF745FDFFF7E5FA15
S3150800896002F09BFF04F04EFA2068407B212802D1D2
S31508008970FEF78EFC07E00020FEF7F6F800214FF41C
S31508008980004008F0ACF902F0DBFCBDE8104002F04C
S3150800899090BC2DE9F8430E468046511CC9B23046B4
S315080089A005F0C4F8054630460CF049FA0646B01CF0
S315080089B00CF03CFB0746A809DFF8CC9100F001044F
S315080089C0D9F80000017B032903DB4088804503D0E2
S315080089D022E04069C0011FD484B17078000708D529
S315080089E0304609F0CEF808226A49FCF7D1FE00287D
S315080089F002E0FDF70BFD874251D107E00329A4BF2A
S31508008A004FF6F870874209DBE80907D0012241468C
S31508008A1005F0A000FFF715FF002C40D1D9F800009B
S31508008A20007B03283BDA7078C00638D5304609F053
S31508008A30B5F806463146002007F003FB0446FF2C2E
S31508008A40554F09D0387808B1A80602D4204600F058
S31508008A502BF8204607F0BCFC404607F05EFEFF28D0
S31508008A600DD007F0FAFE387848B1A80607D4FDF706
S31508008A70CDFC20B10222314640460BF03DFCFDF705
S31508008A80C5FC60B902F056FC4FF6FF730222314668
S31508008A90404601F0C6F8BDE8F14302F051BCBDE816
S31508008AA0F1830000420000001CB507F0B6FB04463F
S31508008AB000A907F013FC50B1FDF7A8FC38B1FEF782
S31508008AC04FF820B1022200A920460BF015FC13BD71
S31508008AD038B504460D460CF0D7FA0146FF2901D1F0
S31508008AE0012032BD284A1268D27E4AB12B4A126842
S31508008AF032F81110490403D507F06AFC002032BD8C
S31508008B00FFF7D2FF45F040012046BDE8344030B5B6
S31508008B100446880985B000F0010504208DF8080090
S31508008B208DF8091045B103A9204607F0D7FB08B907
S31508008B30012024E003A800E000200190009502230C
S31508008B4002AA0121204608F0EBFF0546FF2D08BFC3
S31508008B50182014D04FF6F870844206DB0023002252
S31508008B600221284606F06EFF03E02146284603F058
S31508008B7043F80446284604F043FE84F0010005B095
S31508008B8030BD0000DCFB00202CFC0020A2F70020F2
S31508008B90DCF70020A8FB0020D2FF002058F60020B2
S31508008BA038B504460CF04BF90546204608F0D7FFC1
S31508008BB0411CC9B2204604F0B9FF697809070AD5ED
S31508008BC0284608F0DEFF0146002007F03AFABDE81D
S31508008BD0324007F0FDBB40065CBFBDE83140FFF7F9
S31508008BE00DBE31BD81B209B94BF6EF610E4A11804F
S31508008BF0000C08BF4FF6CE20508070470288130439
S31508008C0048BF4A40510001801046704738B5064CA7
S31508008C1062212046FFF7F2FF054641F20B01A01C30
S31508008C20FFF7ECFF684032BDD0F6002030B50446A9
S31508008C3010467F2808BF00204BF23462914283B069
S31508008C401AD108237F2240F6120100A8FFF7EEFF8B
S31508008C5008220FF2C40100A8FCF79AFD30B90823D0
S31508008C607F2240F2A27100A8FFF7E0FF082200A9C0
S31508008C702046FCF743FD37BD1F4D294300FB031172
S31508008C801A462046FCF73AFD37BD2DE9F0440C4656
S31508008C9019490FF2780A41EA0006C007154602D5B7
S31508008CA0622100F02FF8E80702D5632100F02AF8C0
S31508008CB01248864204D3A819401E1149884202D395
S31508008CC0642100F01FF8002706E0B85DFF2802D0EF
S31508008CD06B2100F017F87F1CAF42F6D36A082146CD
S31508008CE030460DF0BFF928B15046BDE8F044712171
S31508008CF006F0D6BFBDE8F08400000808000808089A
S31508008D0000100808504606F0CBBF00006D66672DB8
S31508008D10746F6B656E2E6300FFFFFFFFFFFFFFFF9B
S31508008D2062F30F2262F31F42401810F0030308D0C3
S31508008D30C91A1FD3DB0748BF00F8012D28BF20F842
S31508008D40022D130030B414461546103928BF20E901
S31508008D503C00FAD8490728BF20E90C0048BF40F86C
S31508008D60042D890028BF20F8022D48BF00F8012DE0
S31508008D7030BC7047C91818BF00F8012DCB0728BFAB
S31508008D8000F8012D70470000DFF8881451200860AC
S31508008D9070472DE9F0410546FDF758FDDFF87814D0
S31508008DA0B0FBF1F64FF4F070B0FBF6F71E2D3FB2AC
S31508008DB001DBE81B04D5A8B2BDE8F04100F0D0BA43
S31508008DC000F024FF80460DF091F9DFF85014DFF823
S31508008DD05024012048700721DFF8480400F041F8C4
S31508008DE0E91B09B27143C91C8908491EDFF83854C2
S31508008DF0416000F0BDF8DFF81C743C68386820F064
S31508008E00400038600DF074F93C602E600DF074F97E
S31508008E100DF07AF94046BDE8F04100F0FDBE38B5E0
S31508008E200546FDF713FDDFF8F013B0FBF1F44FF438
S31508008E30F070B0FBF4F02D1A1E2D04DA92210FF211
S31508008E40244006F02DFFDFF8DC03DFF8D4230721E2
S31508008E5000F007F805FB04F1C91C8908491E4160A2
S31508008E6031BD01600021416081604FF000711160E1
S31508008E707047DFF8A82301215170D0E7DFF8AC036B
S31508008E80006800B970472DE9F041DFF8A453DFF810
S31508008E90A46300242C6034604FF4A040706041F253
S31508008EA09A084046FFF775FF6F68FDF7D7FC000183
S31508008EB042F21071B0FBF1F000F5C870C01B00B2A9
S31508008EC04FF4487190FBF1F000B20828A8BF0720BC
S31508008ED004DA10F1080FB8BF6FF00700306040469B
S31508008EE0FFF757FF08274046FFF753FF686804193E
S31508008EF07F1EF8D1FDF7B2FC211D4001C908B0FB61
S31508008F00F1F080B27060BDE8F081DFF820030068F8
S31508008F1000B9704738B5DFF8205301206FF00F0409
S31508008F20A8602C608020FFF734FFE868FF2802D885
S31508008F30641C102CF5DB31BD70B5DFF80003016841
S31508008F4041F0010101600121416000F05FFE044625
S31508008F50DFF8D45200F00CF85120DFF8B812086098
S31508008F602E600DF0C9F82046BDE8704000F054BEEA
S31508008F702E6828684008400028600DF0BDB800201B
S31508008F8070472DE9F041DFF8A442DFF890522268D5
S31508008F9040F2DC51012A8846DFF8A462DFF8A472A1
S31508008FA017DA0221B9803160B16901F0030103299A
S31508008FB05BD02168002903D5B16941F00201B1618E
S31508008FC0FFF7DDFF5FEA00081BD1206800284CD5B3
S31508008FD049E0B8884FF6FF74A0421DD19A48018827
S31508008FE002237F22381DFFF721FEB888A04204BF5E
S31508008FF00220B880B069800703D4B06940F0020047
S31508009000B0610120A870B88830600FFA88F0FFF7C1
S3150800901030FF4046BDE8F081B3699B07EDD5AB78D4
S315080090200BB10846F6E7B168B36811F0010103D140
S315080090300F2809D2401C06E09B0705D53B781BB1D3
S31508009040032801DB2018B880B88839700228BCBF0D
S315080090500220B8803068B9888842D2D1B06900F059
S315080090600300032801D0FFF767FF0020D2E72DE9A8
S31508009070F047804675480178002569B9C078072801
S3150800908018BF09280DD0032818BF112809D013289E
S315080090901CBF15280B2804D06D48016841F480715F
S315080090A0016000F0B3FD81460DF020F84046FFF759
S315080090B068FF08B9012515E05B4F3C683868400829
S315080090C0400038600DF018F8524ED6F800A0306807
S315080090D020F0400030600DF00BF8C6F800A03C60A8
S315080090E00DF00AF80DF010F8484600F095FD002D31
S315080090F0D7D0BDE8F0870220B9E710B54948474CF4
S31508009100002141608160016821F0020101600020B0
S3150800911060704FF0007042490860A07838B10020AE
S31508009120A0700620FFF72BFF00F02BF81CDBE07879
S31508009130012814D147480121016047490968C90730
S3150800914048BF03200FD40221E170016C41F00101F0
S3150800915001640420414908604149086010BDE0786F
S31508009160042801D10520E07010BD80B52B48407851
S3150800917000281CBFBDE80140FFF7BFBF01F07FF81C
S3150800918001BD2A480068012870472DE9F843234C99
S315080091902179207881F0010108422ED0FFF7F1FFEE
S315080091A023DA40F2EB310FF2BC0006F079FD1CE041
S315080091B000F02CFD80460CF099FFE07805280FD0CA
S315080091C000F01FF8134DD5F80090286820F04000ED
S315080091D028600CF08DFFC5F8009037600CF08CFF06
S315080091E00CF092FF404600F017FDE0780528DFD125
S315080091F00020A0700520FFF73AFF00202070BDE888
S31508009200F183094E376830684008400030600CF03A
S3150800921073BF00000080004090D00300C6FF002006
S3150800922004ED00E010E000E094ED00E0D8AE01089F
S31508009230104000400C000040084000401C40004020
S3150800924004400040C0F7002010AF01089607080840
S315080092503840004018A000400C40004080E200E082
S3150800926000E100E0636C6F636B732E63000000001F
S3150800927010B5794C00200CF0A6FF40F68C218842E8
S315080092802068B4BF40F0080020F00800206010BD38
S3150800929010B504467148018882B000F05CF89DF864
S315080092A000109DF80100FF2902BFFF2804200021B5
S315080092B004B1801C6A4A1368C0B20828A8BF0720F0
S315080092C023F4607343EAC010106008291068A8BF29
S315080092D00721C00841EAC00010606248047013BD47
S315080092E000B56148018883B000F035F8BDF8000084
S315080092F04FF6FF7188420EBF4FF4E1600A2190FBDA
S31508009300F1F0ADF800005748007808B353480188D3
S3150800931002237F2201A8FFF789FC9DF80500BDF806
S315080093200030FF2808BF0420811CC9B20829A8BF3D
S315080093300721C1F12F0202EBD272C0F12F005210A1
S3150800934000FB0320C1F12F01B0FBF1F0ADF80000DE
S31508009350BDF800000EBD02237F2200A8FFF766BCF9
S3150800936070B5424C25680646FDF778FA4049B0FBC9
S31508009370F1F070432F303021B0FBF1F0032809D308
S31508009380616D41F0010161652168491B0903090BFB
S315080093908142F9D370BD10B5040004D110BD4FF455
S315080093A07A70FFF7DDFF2046441E80B20028F6D10A
S315080093B010BD3048017869B9C078072818BF092850
S315080093C014D0032818BF112810D013281CBF15283D
S315080093D00B280BD02848016841F480720260C80542
S315080093E004D438210FF2A40006F05ABC704738B5E9
S315080093F004000D4605D0022C10D00FD3032C26D01E
S3150800940027E01E4C45B1FDF729FA1D49B0FBF1F0DE
S31508009410401EB0F5005F0CD2206018E04DB1FDF794
S315080094201DFA690801EB4000B0FBF5F0B0F5003F06
S3150800943001D3202032BD4108022C00F0010008BFEC
S31508009440104A02D0012C02D10F4A50601160002048
S3150800945032BD212032BD000000BC004006AF010825
S3150800946018000040C4FF002008AF0108382000405B
S3150800947090D003009607080838400040100004E022
S3150800948020A1070068D8004068C800407573625F6D
S315080094906572726F722E630070B52C4C2C4D607815
S315080094A02968490726D5032824DAA18804EB40024F
S315080094B091810121A27801FA00F01043A070254A93
S315080094C0207890B1002320FA03F6F60708D59940CC
S315080094D063704840207014EB4300808A106009E0EE
S315080094E05B1CDBB2032BEEDB04E01060FDF71AFA17
S315080094F0032060704FF6FF702860BFF35F8F70BD62
S315080095001248002101700022032141700021C17018
S315080095100521018100218170001D0E490A604A60FB
S315080095204FF400428A601022CA60486101208861AF
S315080095300320C8600421064801644FF6FF710160E4
S315080095404FF400600449086009F05AB968F9002028
