S02100007365637572652D657A73702D7370692D626F6F746C6F616465722E7333378C
S31508000000000400207500000881000008810000082F
S31508000010A70B090100000000040120570040000852
S3150800002004130000E90B000883100008DC0600082A
S3150800003000000000000000000000000000000000B2
S31508000040000000000000000000000000BC010000E5
S31508000050FFFFFFFF05480068202100EA010020B1E4
S315080000600348016842688D46104770472C000040D7
S3150800007000400008FFF7EEFF00F00DF800F042F828
S3150800008005E00000854670474548008870474FF4EC
S31508000090017000F09FB838B54FF20F04414D00F0DB
S315080000A0C7F828B140F2052028806C80012032BDAF
S315080000B03D480068C00615D56888A0421ED1288824
S315080000C040F2022188421CBF40F20621884215D020
S315080000D040F2011188421EBFB0F58A7F40F2111125
S315080000E088420BD0314C208A40F6A721884205D198
S315080000F02068FFF7C7FF6068804700BF002032BD51
S315080001000000000038B50400294872B6016849089D
S315080001104900016000F0ECF823480068000910F077
S3150800012001000CBF2349244902E0CD2201F8012B26
S31508000130224A9142F9D32249224A234B03E011F875
S31508000140015B02F8015B9A42F9D32049204A002351
S3150800015001E001F8013B9142FBD3124A53884FF262
S315080001600F05AB4240F205210AD113888B4205D010
S3150800017030B1180A012818BF022801D1194601E032
S3150800018004B90021064801804CF23C30508000F04A
S31508000190E1F94FF40170BDE8324000F01BB80000E9
S315080001A0840D0020000000202C00004000400008BC
S315080001B0FCED00E00000002098000020000400206C
S315080001C02C1A00080004002004040020040400205F
S315080001D0970D00200E4A302111600E4A11600E4A12
S315080001E0116010210D4A1160010A00290C4908BF47
S315080001F0000208804FF20F004880BFF35F8F09485E
S3150800020000210160416008480849086070470000FD
S315080002103020004030C8004030C0004010E00040A8
S31508000220000000201C4000400400FA050CED00E028
S3150800023010B5002408210E2000F076FA294840213E
S3150800024081600A2100BF491EFCD1C82102685206F6
S3150800025001D4012401E0491EF8D104210E2000F042
S3150800026063FA204610BD80B500F051FA0121062038
S3150800027000F05AFA062000F087FA0121072000F05C
S3150800028053FA072000F074FA1748016821F01001A4
S31508000290016001BD052800D9704710B5DFE800F0F8
S315080002A01721030F1C17114C2088411E2180C0B945
S315080002B0072000F075FA42F21070208010BD072062
S315080002C000F062FABDE81040062000F069BABDE801
S315080002D01040062000F04CBABDE81040062000F099
S315080002E053BA10BD08B2004000BC0040900D002073
S315080002F07A4951200860704738B5054600F0FAF982
S315080003007749B0FBF1F44FF4F070B0FBF4F02D1A16
S315080003101E2DBCBF4FF40170FFF75CFF7148724A8F
S31508000320072101600021416081604FF00071116072
S3150800033005FB04F1C91C8908491E416031BD6B4A99
S3150800034001215170D8E76B48016841F0010101604D
S3150800035001214160512061490860704700207047BB
S315080003602DE9F047624D614E2968814640F2DC5816
S315080003700129C2465B48604F604C1DDA0221618044
S3150800038039600068C00348BF00F08FF8B86900F00C
S315080003900300032861D02868002803D5B86940F00F
S315080003A00200B8614846FFF7D9FF5FEA000A1BD189
S315080003B02868002851D54EE061884FF6FF75A94296
S315080003C01DD14F48018802237F22A01C00F0FEF9A8
S315080003D06088A84204BF02206080B869800703D4F9
S315080003E0B86940F00200B8610120B07060883860D2
S315080003F00FFA8AF0FFF7A3FF5046BDE8F087B96900
S315080004008907EDD50068C00348BF00F04EF8B078FC
S3150800041008B14046F1E7B868B968628810F001008B
S3150800042003D10F2A08D2521C06E0890704D5217881
S3150800043011B1032AA8BFAA1892B2022A2070B8BF1F
S3150800044002226280386861888842CDD1B86900F096
S315080004500300032801D0FFF776FF0020CDE710B58B
S3150800046004462848017869B9C078072818BF0928BA
S3150800047013D0032818BF11280FD013281CBF15281E
S315080004800B280AD02048016841F48071016004E015
S3150800049000F0D2F90620FFF761FF2046FFF760FF5C
S315080004A00028F5D110BD0220D9E70E480E4A0021D2
S315080004B041608160016821F00201016000210B485A
S315080004C041704FF000711160817801B9704780B5AD
S315080004D0002181700620FFF741FF01BD0080004022
S315080004E090D0030010E000E004ED00E0920D00203B
S315080004F0201A00081C400040044000400004002068
S31508000500281A0008960708083840004000787047FF
S3150800051030B5DBB00446214636A800F0ADF9002018
S3150800052000904FF40263584A36A901A800F05CFB14
S315080005300FF29C120FF2A41001A900F0A2FD0546C5
S3150800054000F0EEF81DB12146284600F0E0F92846ED
S315080005505BB030BD80B5FFF7A6FFFFF795FDB0F598
S315080005608A7F09D100F0BAFD00F0CCFD0028FBD047
S3150800057040F21110FFF72EFEFFF775FE00F0AEFDF4
S3150800058000F0CEF800F0DAFD0020FFF783FE07E062
S315080005901A2000F0BAFA01220021522000F023F8AE
S315080005A000F0BEF80220FFF775FE00A800F098FDDF
S315080005B00028F5D19DF800005128E9D033490020DC
S315080005C008700120FFF7A4FF20B90520FFF762FE97
S315080005D0012000E00420FFF75DFE40F20120FFF74E
S315080005E0F9FD002002BDF8B506460F461546284C0B
S315080005F00FF2B4011D22204600F0A1FD0A2204F1E3
S315080006003401201D00F09BFD2248018808237F2223
S3150800061004F10E0000F0DAF8522EA6761BD135202A
S31508000620207006220FF2A00104F12E0000F087FDCB
S315080006300120E0760223184801887F2204F11C0075
S3150800064000F0C4F81548018810237F2204F11E0023
S3150800065000F0BCF802E01D202070E776012D12D1CB
S315080006602078A0F11B05012000F0B7FD0C48FD21FC
S3150800067001704570EAB204F11A01801C00F05FFDB2
S31508000680084901200870F1BD640500208F0D00207F
S31508000690240500202A1A0008261A0008241A000829
S315080006A0940400208E0D00200063CC00FFFF00009C
S315080006B0000000000000FFFFFFFFFFFFFFFF7C6553
S315080006C06D01000000000000000413005720000020
S315080006D097190008D31900080D0500088F0A0008A5
S315080006E0C70A00081A480068C00701D419487047A5
S315080006F01948704780B5FFF7F5FF1849096801B929
S31508000700400802BD80B5FFF7EDFF400802BD14485A
S31508000710012181604EF6BE214160012101607047CA
S315080007201049012008607047C208430710B54CBF3E
S315080007300D4B0E4B03EB422200F0030080001368BA
S315080007400F248440A34301FA00F01843106010BD3B
S315080007501C400040001BB70000366E0120400040D8
S31508000760006000400860004004B0004000B000404F
S31508000770C108032907DA012100F007029140C008E1
S3150800078040020F4A11507047C108032907DA0121B0
S3150800079000F007029140C00840020A4A115070470B
S315080007A0C10803290ADA084A02EB412101230A682B
S315080007B000F0070003FA00F0504008607047000098
S315080007C014B0004010B000400CB0004030B50446EC
S315080007D010467F2808BF00204BF23462914283B04E
S315080007E01AD108237F2240F6120100A8FFF7EEFF70
S315080007F008220FF23C0100A800F0C1FC30B908231A
S315080008007F2240F2A27100A8FFF7E0FF082200A9A4
S31508000810204600F094FC37BD044D294300FB031124
S315080008201A46204600F08BFC37BD00000000080879
S31508000830FFFFFFFFFFFFFFFF70B50D4C256806465B
S31508000840FFF760FF0B49B0FBF1F070432F30302102
S31508000850B0FBF1F0032809D3616D41F00101616530
S315080008602168491B0903090B8142F9D370BD0000B1
S315080008703820004090D003000170012242700129FF
S3150800088082700CBF8021402181800021C1800181B6
S31508000890AC4801600E218162016821F010010160F7
S315080008A00021416341627047F8B50D460446A649E2
S315080008B0A44F4FF0FF3008601646FE6200207862AB
S315080008C0386840F001003860FFF72AFF012C11D183
S315080008D035B900F017FC00F0010080F0010002E0D5
S315080008E0284600F0FDFB38B93868400840003860F3
S315080008F00020F2BD0120F2BD786AB042E4D3002E92
S31508000900E2D038684008400038601620F2BD80B54D
S315080009100A4601461820FFF766FE012000F05DFC36
S31508000920BDE80140F4E038B50446002020814AF6C7
S31508000930B432207800A9FFF7B7FF08B11C2032BDF2
S315080009409DF80000032818BF182801D1182032BDC9
S31508000950042801D1172032BD012801D0212032BD3B
S31508000960002500E06D1CA188EDB2091D8D420BDA49
S31508000970281900F10A01207840F2DD22FFF794FFDA
S315080009800028EFD0262032BD0025002006E00146CB
S31508000990EDB22819007B00F027FD6D1CA188EAB28C
S315080009A08A42F4D3A27AE37A9B18FF2B01D022203D
S315080009B032BD0B191D7BB5EB102F01D0232032BD9C
S315080009C05B7BC0B2834201D0242032BDA07882422C
S315080009D007D0401EC0B2824201D1272032BD252051
S315080009E032BD881C20810220E080002032BD38B547
S315080009F004466078012804D00ED3032845D003D3D3
S31508000A000AE0022060700FE000F098FB00F065F83D
S31508000A10A078401CA07007E0182032BDA078227884
S31508000A20411EC9B200F05BF82046FFF77CFF054679
S31508000A302078012804BF284600F067F80DB100F0B9
S31508000A407DFB272DEAD0A8060BD52278A17815209C
S31508000A50FFF7C9FD002DE7D10320FFF71BFC002097
S31508000A6032BD680603D4182D18BF1C2D07D121786E
S31508000A702846FFF74CFF04206070284632BD172D24
S31508000A80E8D100F02AF803206070172032BDF8B5C7
S31508000A9004460D461646002706E0E088411C001964
S31508000AA0E180807A78557F1CBFB2B74209D2E088C8
S31508000AB021898842F1D32046FFF799FF0028ECD018
S31508000AC0F2BD0020F2BD10B50446FFF790FF00F016
S31508000AD004F800F01DF8172010BD2278A17806202A
S31508000AE0FFF781BD80B51949FD220A708870012279
S31508000AF04A70012000E0002000F043FC00F098FB5B
S31508000B000028F8D11249087001BD00B91920E9E793
S31508000B1010B582B00F4C207860B1002000F031FC8F
S31508000B200028F8D0002000F058FB012000F029FC2E
S31508000B300020207040F2DD2200A90120FFF7B4FE54
S31508000B4013BD000000F0004000A8004094040020F7
S31508000B508D0D00208E0D0020F8B504460D4616466C
S31508000B601F4607E03046A047294600F04FFC0546D9
S31508000B707F1E761CBFB2002FF4D12846F2BD38B5C9
S31508000B800C46154605E0014614F8010B00F03EFC3C
S31508000B906D1EADB2002DF6D132BDF8B507460E462C
S31508000BA01D46144630683B682A4621469847070082
S31508000BB005D1F0682A462146FFF7E1FFF060D6F82E
S31508000BC0A8002818C6F8A80096F8A70050B1AC36B1
S31508000BD02A462146304600F0EBFC2A462146304696
S31508000BE000F068FC3846F2BD10B5029C8472038199
S31508000BF04260016028224FF0FF31C1600021017474
S31508000C00A0F8A410802180F8A610002180F8A7106B
S31508000C10C0F8A810AC30BDE8104000F0A9BA2DE91C
S31508000C20F84F8946044699F81BB0D0689749BBF136
S31508000C30800FA8BF4FF0800B88421E4651D1002E68
S31508000C404DD0B06800904FF0FF38002509EB450AF3
S31508000C509AF848700DE0FFF763FDF80240F000626D
S31508000C6000984FF400634146FFF776FF8046781CEC
S31508000C70C7B20AF148004078B84204DA681CC5B21F
S31508000C80062D02DAE2E7FF2FE5D1D9F844006FEA2C
S31508000C900801884225D1A068736800BA4FEA5B024A
S31508000CA049469847C8B9E06805BAA06802BAB06864
S31508000CB05B464FF0FF31FFF74FFFC04385420CD12B
S31508000CC040F6A720A9F810000122A068736800BAA8
S31508000CD009F110011030984708B1422002E01720A8
S31508000CE000E04320BDE8F28F2DE9F04F0D4683B0B2
S31508000CF08046D5F804B02889ADF80400914605F178
S31508000D00140707F1100404235A464046FFF745FF27
S31508000D1000286DD1BBF8000040BA80B20090BBF83D
S31508000D20020040BA86B2F00748BF462060D4B6F53E
S31508000D30026FC8BF4E205BDC002E58D00098DFF843
S31508000D4050A140B14FF60441401A50D0FF3853D055
S31508000D50FE3851D097E0287C08B1512048E08D2E06
S31508000D6028BF4F2044D233463A1D00F087F90028A1
S31508000D703ED1E27E802AA8BF802202F10C0086427C
S31508000D8001BFB88840BA00F47F40B0F5007F31D182
S31508000D90F88840BA4EF25031884202BF208A40F69F
S31508000DA0A721884226D1608A00F47F40B0F5807F6B
S31508000DB001BFB86800BADAF81C1088421AD14FF693
S31508000DC0FF70208207F110014FF0FF30FFF7D7FEC2
S31508000DD0F96809BAC943884204BF207E042809D1A4
S31508000DE0607E132818BF062804D101202874002025
S31508000DF0BDE8FE8F4520FBE7287C08B94120F7E7C8
S31508000E00042300F03AF90028F2D1DBF8000007BA0B
S31508000E10301F86B2DAF81C00874238BF4820E7D36D
S31508000E20616DF019884228BF4920E1D200984FF633
S31508000E30035188420DD1B9F1000F0AD0D9F8002024
S31508000E4039460220904720B14A20D1E7301B86B2A6
S31508000E50E719002ECBD0BDF804008642B4BF34464D
S31508000E600446234600F009F90028C1D1B9F1000F5C
S31508000E70ECD0D9F804306208594638469847002815
S31508000E80E4D04B20B4E74420B2E70000E320BBDE01
S31508000E90000000082DE9F04F0D4685B080466F68C2
S31508000EA005F11400009005F1A40410300490914651
S31508000EB0A078832805D1A68882214FF60710A1704D
S31508000EC00CE004233A464046FFF767FE002840F048
S31508000ED0D1807988388849BA40BA8EB2F10748BFB6
S31508000EE0462000F1C78080B24FF20972A178801AB5
S31508000EF005F1AC0A05F1040B00F08A804FF4FF7285
S31508000F00801A6BD0FF3830D0FF3803D0FF3800F096
S31508000F109A80AEE0802929D1062E23D3062302AA79
S31508000F2029464046FFF739FEE8B9BDF8080040BA39
S31508000F3000F47F40B0F5007F01BFBDF80C0040BA51
S31508000F404EF2503188420DD1BDF80A0040BA012848
S31508000F5018BF522007D1BDF80A0040BAA5F8A40068
S31508000F60002000E04520812181E081296DD1BBF870
S31508000F700490102E38BF4E202ED30423524600F07C
S31508000F807DF848BB0C230AF1040200F077F818BB79
S31508000F90DAF8000000BAA6F11001CAF800008EB20D
S31508000FA03146504600F04EFA05E069683A46504622
S31508000FB000F080FAF61BB6B256B137464E4588BFE2
S31508000FC04F466A683B4600F059F80028EDD003E022
S31508000FD0504600F092FA0020822148E0822934D156
S31508000FE0042E2BD30120E0704A4600206060294673
S31508000FF04046FFF779FE08BB0021E17061688E4222
S315080010001CD3B14236D28322A270711A616031E0D4
S3150800101082291AD1504600F070FABBF80400B04293
S31508001020B8BF4F2026DB33463A4600F027F808BB00
S31508001030F2B23946504600F086FA08B9542019E04B
S315080010400020842113E0842901D0512012E0042EC7
S3150800105018BF4C200ED104233A4600F00FF848B9C1
S31508001060049900984B462A46FFF7D9FD8521A170B9
S3150800107000E0442005B0BDE8F08F5A4629464046B0
S315080010808BE570B50C4605462089C107164601D47E
S31508001090802801DA4F2070BD00F0C8F908B953203E
S315080010A070BD324621462846FFF7F4FE002818BFD1
S315080010B0172803D08F2184F8A61070BD94F8A600CF
S315080010C0852806D1206869688847172805D1002031
S315080010D070BDA07A0028E4D0502070BD00F068B832
S315080010E010B5044600F00EF850B11248124982783D
S315080010F05118897821708178491C8170002010BDAB
S31508001100012010BD10B50B4C207888B900F039F9CC
S3150800111078B1607840B1002000F05FF8012000F057
S3150800112030F90020607010BD012020700020A070EA
S31508001130012010BD8D0D0020040400207047814257
S3150800114012D210185118401E491E92B2002A1EBF0C
S3150800115011F8013900F80139521EF6D1704711F815
S31508001160013B00F8013B521E92B2002AF7D17047A4
S31508001170130003D00A46194600F044BA704710B562
S3150800118000E0521E92B222B100F005F8F9D0181B01
S3150800119010BD002010BD10F8013B11F8014BA34209
S315080011A0704700008A4800214171817100F05EBADB
S315080011B080B58748002181700121C1700171002125
S315080011C001700921417000F080FAFFF7EBFF00F08B
S315080011D07DFABDE8014000F080BA58B17D48016843
S315080011E0490605D57C490968090744BF0421C16039
S315080011F0002000E001207649C870704774490A79D2
S3150800120022B90870012200200A714870704710B58B
S31508001210044600F09FFA71484078A72807BF70482F
S3150800122004700320FFF7EAFFBDE810400120A8E09C
S31508001230674880797047F8B5654C664D2179664EE2
S3150800124021B13268120744BF0422EA60A278A2B12B
S315080012500420E86001E0FFF763FA28684006FAD53B
S315080012600420A8600020A070E07820B93220FFF79B
S31508001270E3FA0420E8600020F2BD6279584F104274
S3150800128025D031B100202071022221463846FFF7C9
S3150800129056FFE07808B10420A8603878052803DAF4
S315080012A0A720B87003200DE0FE2818BFFD2806D138
S315080012B07978C919A72088707878C01C02E0A72019
S315080012C078700220A071A07900F05FFAD1E7A079C2
S315080012D00028D0D100F06AFA30B93068000703D583
S315080012E000F06CFA00F03FFA00F078FA0028C2D055
S315080012F0012060710420A860384D00F07AFA00BB1E
S3150800130000F07FFA0028B6D028780A2806D00B28DD
S3150800131008D0FD2818BFFE2806D0ACE78220FFF7C4
S3150800132076FFA8E7C120FAE76878862805DBFFF785
S3150800133039FF0120FFF762FF9DE700F06AFA0028EF
S3150800134099D000F0FDF900F005FA00F007FA2079C7
S3150800135018B1012000F015F88DE7687840198078F3
S31508001360A72803D00320FFF749FFF2E72878FE28CD
S3150800137003D10420FFF742FFEBE7FD203870012078
S31508001380F2BD70B5124E174D0446B07900F04CFA0E
S3150800139018B1042028600120707100F04DFA08B1D8
S315080013A00120B07000F050FA70B104202860B079BE
S315080013B000F055FA10B90220FFF720FFFFF7F2FEFA
S315080013C0F07808B9042068602046BDE8704032E726
S315080013D0860D002008B2004008B000400404002032
S315080013E09404002010B200400A0242EA1121484043
S315080013F0C0F30311484080EA003041010206C9B231
S31508001400D20E41EA0221484080B270470A0A484093
S31508001410C0B208214308C00746BF034858401846CB
S31508001420491EF7D1504070472083B8ED00205F4928
S31508001430415CFF2901D001207047401C1028F6DBCB
S315080014400020704712B5044683B02068039900BA95
S3150800145000903A2001B17A2020740C22211D04F153
S315080014601100FFF76CFE03220DF1010104F11D00C6
S31508001470FFF765FE00F03CF80398D0B1B0F57F4F52
S3150800148005D200BA039002220DF10E010EE00FF20A
S3150800149070100088ADF804000222039800BA039081
S315080014A001A9204600F006F8042203A9204600F008
S315080014B001F81FBDF8B504460D461646002714E088
S315080014C094F825007A5D0019017C5140017494F85E
S315080014D02500401C84F82500C0B2102804D300F06B
S315080014E007F8002084F825007F1CB742E8D3F1BD31
S315080014F02E4904F1100000F015BA1FB5044600A8DD
S31508001500102100F019FA94F82500C0F11000C11056
S3150800151000EB11710911A0EB011200A92046FFF793
S31508001520C9FF1FBD1FB50C46011D00AA002000F00B
S3150800153026F8002000AA015D825C51400155401C36
S315080015401028F7DB1FBD38B5102A04460D4612D100
S31508001550216A94F82420206802EB011188420AD1F6
S3150800156029462046FFF7DEFF102204F1100128461F
S31508001570FFF705FE08B1002032BD012032BD11B5C6
S3150800158081B000BA01901446022020700C22601C1B
S31508001590FFF7D5FD03220DF1050104F10D00FFF754
S315080015A0CEFD0249204600F0BDF913BDF80808082B
S315080015B02DE9FF4104460D4690460020002704F118
S315080015C0200619E030B9206A00AA211D401CFFF741
S315080015D0D6FF01203379795D00AA9A5C5140795586
S315080015E03179491CC9B2102904DB206A401C2062E3
S315080015F00021002031717F1C4745E3D3BDE8FF81F8
S31508001600FFFE000062F30F2262F31F42401810F03B
S31508001610030308D0C91A1FD3DB0748BF00F8012DFA
S3150800162028BF20F8022D130030B414461546103989
S3150800163028BF20E93C00FAD8490728BF20E90C0052
S3150800164048BF40F8042D890028BF20F8022D48BF5E
S3150800165000F8012D30BC7047C91818BF00F8012DD5
S31508001660CB0728BF00F8012D704700008048016CA1
S315080016704908490001641022016C21F400710164D3
S315080016807C490A6320220A6300224A650A664A667A
S315080016908A6502224A65784A0A608D324A60774A24
S315080016A00A618D324A61764A1268120709D5026CB8
S315080016B042F001020264026C42F4007202640122E2
S315080016C00A634FF6FF710160704770476D4848F22C
S315080016D09441016008210161704730B56A486B4939
S315080016E06B4D4FF40053036000220A65694A54683B
S315080016F024F4706444F400645460402414610224A1
S315080017000C60654C236040230B65136823F4704313
S3150800171043F4804313604FF4804303600020486518
S3150800172003202860042008602360202048650420E0
S315080017301061106820F4706040F48070106030BD4D
S3150800174056480168490849000160016821F400719A
S3150800175001607047524910200860704744494FF4A9
S315080017600070086070474248012101604FF400711B
S315080017700160016C41F001010164016C41F40071E2
S31508001780016401204649086070473C4A454980186B
S31508001790401E08600122FF20886235480260042244
S315080017A0CA61016C41F00101016470473E48006856
S315080017B0C00701D400207047012070473B4881B01C
S315080017C001688DF8001001688DF8001001688DF821
S315080017D0001000688DF8000001B0704734480068B2
S315080017E018B923480068800501D5012070470020F4
S315080017F070471F480068800501D501207047002002
S3150800180070472B480068022801D301207047002042
S3150800181070472748184900684978C91C884201D387
S31508001820012070470020704711480068C00701D59D
S31508001830012070470020704714480168890701D5C0
S31508001840022109E00020704710480168490701D5C0
S31508001850042101E000207047016001207047154906
S315080018600968814201D000207047012070470000B6
S315080018700CA8004000C00040040400209404002086
S3150800188008B0004000B0004080E100E014A8004025
S3150800189020BC004000B2004080E200E04CA80040B6
S315080018A030C0004014C000402CC000403CC000407E
S315080018B020C0004028C000400268174912BACA6012
S315080018C0426812BA8A60826812BA4A60C06800BA68
S315080018D00860704710B5114980220A600623104A2D
S315080018E0136007230B6013689B07FCD5002350F889
S315080018F023405B1C24BA042B8C62F8D313685B075D
S31508001900FCD500220B6B1BBA40F82230521C042A65
S31508001910F8D310BD00000000383000400030004009
S3150800192010A0004010B504460846FFF7C5FF20463C
S31508001930BDE81040CEE70000002200F001B8000024
S3150800194000B500BF130096469446103928BFA0E894
S315080019500C50FAD85FEA417C28BF0CC048BF40F853
S31508001960042BC90728BF20F8022B48BF00F8012B13
S3150800197000BD00002748018A40F6A772914202BFBF
S31508001980408A4FF47F41084203D1022801DB012037
S31508001990704700207047F8B504461D4E01200D46D5
S315080019A03070FFF7E7FF18B94FF40170FEF712FC25
S315080019B029461848876A44F48070B8470021317070
S315080019C00FF2540618B9294644F40070B847805DEA
S315080019D0F2BD2DE9F041044688465600FFF7CAFFD6
S315080019E018B94FF40170FEF7F5FB0A48476A002359
S315080019F0324641462046B8470FF21C0520B9334601
S31508001A00002241462046B847405DBDE8F081000007
S31508001A10960D002000000808000202024B4B4647BC
S31508001A2000366E012A083A08EE0834B60100FFFFB0
S705080000757D
