S01500006D66672D73616D706C652D6170702E73333788
S31508004000086F002061B20108EDA90108F1A90108AD
S31508004010A70A090100410008041603AC2057BC0191
S315080040200000000000000000000000000000000082
S315080040300000000000000000000000000000000072
S315080040400000000000000000FFFFFFFFFFFFFFFF6A
S31508004050FFFFFFFF00E00708000000000000000067
S31508004060FFFFFFFFFFFFFFFFFFFFFFFFFFFFFFFF52
S31508004070FFFFFFFFFFFFFFFFFFFFFFFFFFFFFFFF42
S31508004080F07F002000000000E67F0020E67F002089
S31508004090086F002000BC0108D8B40108A8650020F4
S311080040A0A40F0020000008080080002083
S31508004100086F002061B20108EDA90108F1A90108AC
S31508004110F9A90108F5A90108FDA9010874AA010869
S3150800412074AA010874AA010874AA010874AA0108E5
S3150800413001AA010874AA010874AA01089B9200083A
S31508004140B5A9010874AA0108B39B000874AA010856
S31508004150376A0008B999000874AA010874AA010800
S31508004160C179010801A500088F2A0108AD96000843
S3150800417074AA0108C39A00080B9B000869AE0108D7
S315080041804DA1000874AA010874AA0108CBAC01085D
S3150800419010B5DFF88C395C89641C5C819C89641CC9
S315080041A09C81DC796CB901245A71DC719C81997106
S315080041B0411C0278DFF86C091A71BDE8104001F05D
S315080041C09DBA10BD2DE9F047DFF854490FF6E41102
S315080041D0A28982B000F018FA207994F90530A279FC
S315080041E00FF6E41100F02FF800F00AFA0025B3A63E
S315080041F0B3A7DFF830890FF6F81917E0E81005EBD2
S3150800420010700011B5EB001A04D1494600F05BF9AD
S3150800421000F0F6F915F80820394600F0F5F9BAF174
S315080042200F0F01D100F04EF96D1CEDB220798542D1
S31508004230E4DB00F047F900F0E3F90020E071A08123
S31508004240E081BDE8F3870090012001F0C1BB38B5D5
S3150800425001F025FC044601F039FC01F0FBFD0123C1
S3150800426000220F21012001F0F9FD01F0B2FD0346FD
S3150800427022460FF68811012001F0D5FE01F012FF43
S31508004280020006D00FF68811012001F0CCFE8BA1A2
S3150800429001E00FF69411012001F0C5FE012002F09D
S315080042A0CFF9DFF87C4805E000202072A089E0817C
S315080042B002F0C9F902F052FB01F0E7FF02F0A4FB95
S315080042C00546208A281A80B2C928F1DB072002F0A1
S315080042D025FCE07925820028EAD0E089A189884270
S315080042E0E2D1207A401C2072C0B20228DED1FFF744
S315080042F069FFDBE710B59028DFF8244804D0912839
S3150800430008D0942809D00FE00FF6301100F0DBF83A
S31508004310012007E00FF6501101E00FF6781100F0C2
S31508004320D2F80020E07010BDBDE8104002460FF636
S315080043309011012001F04CBB7047704770477CB55F
S3150800434004460D46164602F065FCDFF8DC170968D8
S31508004350715C019103466988009122460FF6801127
S31508004360FFF772FF73BD0FF6A41100F01FBCF8B576
S315080043700D4604460FF6D01101F02AFB0826B1A710
S315080043807019394610F8012C204601F021FB761EDB
S31508004390F6D110E0F8B50D4604460FF6B41101F053
S315080043A017FB0026A7A7725D3946204601F010FBC9
S315080043B0761C082EF7DB41A1204601F009FBBDE873
S315080043C0F240012001F01EBEF0B587B001A802F048
S315080043D089FC20B102460FF68C1100F015F90FF68C
S315080043E02C1100F070F8DFF844170120FFF7BFFF23
S315080043F045F220720FF6A01100F006F9DFF82067E3
S315080044000FF6A411307890A490A5002814BF2A4668
S31508004410224600F0F9F800F0F3F8307810B302F00D
S31508004420EDFD074602F0C7FD02463B460FF68C1126
S3150800443000F09CFB02F0BCFC02460FF6A81100F047
S31508004440E3F872890FF6B81100F0DEF8707818B143
S315080044500FF6CC1100F037F8B07818B10FF6DC116A
S3150800446000F031F8F07800B12C4622460FF6EC1130
S3150800447000F0CAF800F0C4F8F078C0B102F02DF8E0
S3150800448002460FF6EC1100F0BFF800F0B9F8BDF8D7
S315080044900C009DF90E309DF80F200FF6E811FFF776
S315080044A0D2FE01A90120FFF775FF00F0A9F803A1C4
S315080044B000F009F800F0A4F807B0F0BD0D0A0000F6
S315080044C0257820003146012001F082BA10B586B061
S315080044D001210FF6E01002F055F990B100F043FB08
S315080044E000F084F800F07CF800F085F800EB042072
S315080044F0ADF8080000A802F051FF02460FF6BC11FD
S3150800450050E001210FF6C41002F03CF900B318225E
S31508004510002100A801F035F90822002100A801F0C1
S3150800452030F900F020FB00F061F800F059F800F0CF
S3150800453062F800EB0420ADF8080000A900208DF809
S315080045400C00022002F0B1FF02460FF6881129E09E
S3150800455001210FF6901002F015F920B103F095F835
S315080045600FF6881109E001210FF6901002F00AF9FA
S3150800457028B104F0CAF90FF68C11024612E001219F
S315080045800FF6901002F0FEF878B100F0ECFA0FF68C
S315080045908C11C4B200F037F8204602F065FF0246D7
S315080045A00FF6841100F030F818E00FF68C11FFF7BB
S315080045B08AFF0FF6B411FFF786FF0FF6DC11FFF737
S315080045C082FF00F01DF80FF6E011FFF77CFF0FF6EB
S315080045D0E811FFF778FF1EA1FFF775FF06B010BDBB
S315080045E08DF80A000421002002F0F5B88DF80B00BA
S315080045F0032002F032B904460421012002F0EBB888
S31508004600012001F0FFBC2246012001F0E1B970B596
S3150800461004460D46681E20703AB10126AE420FDAEE
S3150800462004F064FB3055761CF8E70126DFF8000530
S3150800463004E0311811F8011C3155761CAE42F8DB3E
S3150800464070BD0000257800004E4F00005945530004
S315080046500D0A00002DE9F0470FF67414DFF8C05470
S3150800466082B0012100F074FAB8B100F07CFAC4B245
S31508004670012C0CBFDFF8BC04002002F0BDFB064687
S31508004680334622460FF6501100F070FA002E03D179
S31508004690012028700020688139E2012183A002F0F8
S315080046A071F888B16A890FF65411FFF7ADFF02F069
S315080046B0D7FB064632460FF66C11FFF7A5FF002E0C
S315080046C001D10020287022E201210FF6741002F0B1
S315080046D059F8D8B100F03BFA58B102F0FDFB06468E
S315080046E032460FF66411FFF78FFF002E0DD1012019
S315080046F00AE002F0FCFB064632460FF66011FFF7A9
S3150800470083FF002E01D10020687000E201210FF618
S31508004710601002F037F8D8B100F019FA58B102F073
S31508004720F0FB064632460FF65011FFF76DFF002ED6
S315080047300DD101200AE002F0F2FB064632460FF6DA
S315080047405011FFF761FF002E01D10020A870DEE1AD
S3150800475057A401210FF6501002F014F8002800F0B3
S31508004760938000F000FA0546042002F076F8074622
S31508004770DFF8C4630FF63810032102F003F868B1B6
S315080047800122F9B23046FFF742FF812F3BDB0FF6D5
S315080047909811FFF798FE80277F203CE003210FF64B
S315080047A0181001F0EFFF40B1412F04DB40233A46D1
S315080047B00FF60C11A0E00022E3E703210FF63810EC
S315080047C001F0E0FFE0B10027042100F0B9F9B8557F
S315080047D007EB0608052100F0B3F988F8080006215A
S315080047E000F0AEF988F81000072100F0A9F97F1C3F
S315080047F0082F88F81800E7DB3078471CBFB2C4E7F3
S315080048000FF6FC0181E1062F06DA0FF64C11FFF7C9
S315080048105AFE0627052030703B462A460FF66811D1
S3150800482000F0A4F94FF000080FF2E8290FF6841AF1
S3150800483013E04FEAE80008EB10700011B8EB00101F
S3150800484002D15146FFF73FFE18F806204946FFF702
S31508004850DBFEFFF7D5FE08F10108B845E9DB21467E
S31508004860FFF731FE2DB90FF65411012001F0B8F803
S315080048704DE1691E89B2304602F05EFB0600F7D0AC
S3150800488002460FF66011DCE0A3A6A4A701210FF6E5
S315080048906C1001F077FFE8B100F061F950B102F051
S315080048A08AFB02460FF65C11CBE000BF656E64001A
S315080048B00D0A000000F04FF900281FD0032001F070
S315080048C0CCFF0446C0B202F06BFB0346E2B20FF619
S315080048D0501111E001210FF6741001F053FF70B367
S315080048E000F03DF958B102F063FA044602F086FB7F
S315080048F0024623460FF65C1100F038F907E100F08E
S315080049002AF90028FAD004210FF66C1001F03AFFB4
S315080049100028F3D0032001F0A0FF0446052001F08B
S315080049209CFF0546032D09DA61B202F046FB0090AA
S315080049302B46E2B20FF64811FFF786FCE7E00121A5
S315080049400FF6701001F01EFFE0B100F00CF90446F6
S31508004950032001F097FF0546E4B222460FF66011E0
S31508004960FFF752FE25B90FF69811FFF7ACFD04E0E4
S315080049702A460FF6D011FFF747FE2946204602F0D1
S315080049803FFBC4E00FF6E818012100F0DDF800B39C
S3150800499000F0E5F828B102F02DFB02460FF6DC110F
S315080049A04FE000F0D8F80028EBD0032001F046FFCE
S315080049B06D780FF6EC1144B2FFF725FE0DB102F043
S315080049C096FA204602F00DFB002D01D002F084FA7B
S315080049D09DE001210FF6EC1001F0D4FE002833D03B
S315080049E0564804880FF6E410022101F0CBFE68B1A0
S315080049F000F0A9F850B102237F22214600A804F04E
S31508004A0085F9BDF800200FF6CC111AE002210FF641
S31508004A10FC1001F0B7FE002879D000F094F80028C1
S31508004A2075D002F0E7FAC0B240F47E40ADF8000057
S31508004A30022200A9204604F098F9BDF800200FF6D6
S31508004A40D411FFF7E1FD62E00FF60021FFF73BFD09
S31508004A500FF62821FFF737FD0FF62C21FFF733FD58
S31508004A60FFF7CEFD0FF63421FFF72DFD0FF63C219B
S31508004A70FFF729FD0FF64821FFF725FDFFF7C0FDD3
S31508004A800FF65021FFF71FFD0FF67821FFF71BFDE4
S31508004A900FF69821FFF717FDFFF7B2FD0FF6AC21C9
S31508004AA0FFF711FDFFF7ACFD0FF6C421FFF70BFD6D
S31508004AB00FF6E821FFF707FDFFF7A2FD0FF6EC2139
S31508004AC0FFF701FDFFF79CFD0FF60431FFF7FBFC2E
S31508004AD0FFF796FD0FF60C31FFF7F5FCFFF790FD93
S31508004AE00FF64831FFF7EFFC0FF68C31FFF7EBFCBA
S31508004AF0FFF786FD0FF69431FFF7E5FC0FF6A831B0
S31508004B00FFF7E1FCFFF77CFD2146FFF7DCFCBDE87B
S31508004B10F3870000202578007365740067657400C4
S31508004B2096780020C87700206C6F0020A07B0020B4
S31508004B301C6F0020914100084877002014B901082D
S31508004B40F8B201F048BE0321404601F01BBE02211F
S31508004B50204601F017BE0221304601F013BE02219D
S31508004B60384601F00FBE022001F077BE012000F0A2
S31508004B702FBF00F0F8BF0000F8B500240FF6443543
S31508004B800FF64836004F07E05C6F002056F83420D1
S31508004B902946FFF739FD641C3878E4B28442F5D318
S31508004BA0BDE8F44000A101E00D0A0000012000F074
S31508004BB00FBF00000D0A4D4647205258202532786F
S31508004BC020706B74730D0A006669727374207061C5
S31508004BD0636B65743A206C71692025752C20727395
S31508004BE073692025642C206C656E2025750D0A00D6
S31508004BF02020202020203A200000000052657365FE
S31508004C00742830782578293A25700D0A00000000A6
S31508004C104552524F523A20656D626572496E697403
S31508004C2020307825783A0000656D626572496E69AC
S31508004C3074207061737365640D0A00004556454E0D
S31508004C40543A20737461636B537461747573206E80
S31508004C506F7720454D4245525F4E4554574F524B4C
S31508004C605F55500D0A0000004556454E543A2073CC
S31508004C707461636B537461747573206E6F77204526
S31508004C804D4245525F4E4554574F524B5F444F571E
S31508004C904E0D0A004556454E543A20737461636BAF
S31508004CA0537461747573206E6F7720454D42455273
S31508004CB05F4A4F494E5F4641494C45440D0A00003C
S31508004CC04556454E543A20737461636B5374617448
S31508004CD07573206E6F7720307825780D0A000000EE
S31508004CE0525820747970652025782066726F6D2079
S31508004CF02532782C20636C7573746572202532789A
S31508004D002C206C656E202578000000004D616E75BC
S31508004D10666163747572696E67204C696272617246
S31508004D20792053616D706C65204170706C696361A0
S31508004D3074696F6E2C2076657273696F6E20312EDA
S31508004D40300D0A0D0A0000004555493A20000000BA
S31508004D50202020457874656E64656450616E4964E8
S31508004D603A2000004572726F723A20676574206EA9
S31508004D706574776F726B20706172616D65746572A8
S31508004D80206661696C65642C207374617475732080
S31508004D90307825780D0A0000737461636B205B25F3
S31508004DA032785D0D0A000000696E206D6667206D19
S31508004DB06F64653A2025700D0A0000002020206DDA
S31508004DC06667206368616E6E656C3A203078257870
S31508004DD02C206D666720706F7765723A20307825CB
S31508004DE078000000202020545820706F77657220C4
S31508004DF06D6F64653A2030782532780D0A00000018
S31508004E002020206D666720706B7473207265636559
S31508004E10697665643A2030782532780D0A000000F4
S31508004E202020206D666720546F6E65207465737444
S31508004E302072756E6E696E670D0A00002020206D5F
S31508004E4066672053747265616D2074657374207289
S31508004E50756E6E696E670D0A0000000073746163F3
S31508004E606B2069732075703A2025700D0A000000C2
S31508004E7020202073686F7274204944205B2532789D
S31508004E805D0D0A002020206368616E205B3078255E
S31508004E90785D2C20706F776572205B307825785D99
S31508004EA02C2070616E4964205B30782532785D0D60
S31508004EB00A000000666F726D00000000666F726D72
S31508004EC020307825780D0A0D0A0000006A6F696E91
S31508004ED0000000006A6F696E20307825780D0A0D8B
S31508004EE00A000000696E697400000000696E697442
S31508004EF020307825780D0A0D0A0000006C65617669
S31508004F00650000006C6561766520307825780D0AA5
S31508004F100D0A0000706A6F696E00000076616C20E9
S31508004F20307825780D0A0000704A6F696E2030784F
S31508004F3025780D0A0D0A00006E6574776F726B206E
S31508004F40666F726D203C6368616E6E656C3E203CD0
S31508004F50706F7765723E203C70616E696420696E79
S31508004F60206865783E0D0A006E6574776F726B204F
S31508004F706A6F696E203C6368616E6E656C3E203CA4
S31508004F80706F7765723E203C70616E696420696E49
S31508004F90206865783E0D0A006E6574776F726B201F
S31508004FA0696E69740D0A00006E6574776F726B20FE
S31508004FB06C656176650D0A006E6574776F726B2095
S31508004FC0706A6F696E203C74696D653E0D0A000053
S31508004FD073746172740000006D66676C6962207391
S31508004FE07461727420282578292C2073746174756D
S31508004FF07320307825780D0A0D0A00007278203063
S3150800500078253278207061636B65747320776869D8
S315080050106C6520696E206D6667206D6F64650D0A84
S31508005020000000006D66676C696220656E64207317
S31508005030746174757320307825780D0A0D0A00009E
S31508005040746F6E6500000000737461727420746F6B
S315080050506E6520307825780D0A0D0A0073746F7016
S3150800506020746F6E6520307825780D0A0D0A0000C9
S3150800507073747265616D0000737461727420737461
S315080050807265616D20307825780D0A0D0A000000DA
S3150800509073746F702073747265616D20307825782B
S315080050A00D0A0D0A0000000073656E64000000001A
S315080050B072616E646F6D00007465737400000000A1
S315080050C06C656E677468206F662030782578206C6A
S315080050D06172676572207468616E206375727265A5
S315080050E06E742074657374207061636B6574202810
S315080050F030782578290D0A006D6573736167650038
S315080051006E6F74207265636F676E697A65642C20AA
S3150800511074727920226D66672220666F7220686530
S315080051206C700D0A0000000061646A757374696E1C
S3150800513067206C656E6774682066726F6D203078BC
S31508005140257820746F206D6178696D756D206F669E
S31508005150203132380D0A000061646A757374696E0D
S3150800516067206C656E6774682066726F6D2030788C
S31508005170257820746F206D696E696D756D206F6670
S3150800518020360D0A0000000073656E64696E67209C
S315080051906D66676C696220307825327820706163A5
S315080051A06B65742873292C206C656E6774682030CB
S315080051B0782578000D0A2020203A20004572726F63
S315080051C0723A206E756D626572206F662070616333
S315080051D06B657473206D757374206265203E20308C
S315080051E0000000006D66672073656E642065727244
S315080051F02030782578200D0A0D0A00006368616E54
S31508005200000000006D666720676574206368616E3C
S315080052106E656C20307825780D0A0D0A00000000AE
S315080052206D666720736574206368616E6E656C20B1
S31508005230746F20307825782C207374617475732008
S31508005240307825780D0A0D0A00000000706F776522
S31508005250720000006D66672067657420706F776559
S3150800526072203078257820286D6F6465202532787D
S31508005270290D0A0D0A0000006D6F64650000000024
S315080052806D66672073657420706F77657220746F1A
S3150800529020307825782C206D6F646520307825328B
S315080052A0782C2073746174757320307825780D0A0C
S315080052B00D0A0000746573746D6F6463616C000099
S315080052C053657474696E67206368616E6E656C20D9
S315080052D0616E6420706572666F726D696E672063B1
S315080052E0616C6962726174696F6E20666F722063A1
S315080052F068616E6E656C20307825780D0A000000AE
S31508005300436F6E74696E756F7573204D6F642044B4
S3150800531041432043616C2C20746869732077696C5B
S315080053206C206E6576657220656E642C20726573D6
S315080053306574207061727420746F2073746F702E98
S315080053400D0A00004D6F64204441432043616C20E0
S3150800535072756E6E696E6720666F72202575206D90
S31508005360696C6C697365636F6E64730D0A0000007F
S3150800537073796E6F66667365740000006D666720E4
S315080053806765742073796E7468206F6666736574D2
S315080053903A2025642073746570730D0A0D0A00009F
S315080053A06D6667207365742073796E7468206F66FE
S315080053B0667365743A2025642073746570730D0AE4
S315080053C00D0A0000746F6B656E00000072656164FB
S315080053D0000000006D6667207265616420746F6B5B
S315080053E0656E20544F4B454E5F4D46475F53594EA9
S315080053F054485F465245515F4F46465345543A20F6
S3150800540030782532780D0A0D0A0000007772697423
S31508005410650000006D666720777269746520746F91
S315080054206B656E20544F4B454E5F4D46475F53594B
S315080054304E54485F465245515F4F46465345543A87
S315080054402030782532780D0A0D0A00006D6667202F
S315080054507374617274203C77616E742063616C6C3E
S315080054606261636B2C20303D46616C73652C20317C
S315080054703D547275653E0D0A000000006D66672092
S31508005480656E640D0A0000006D666720746F6E65B0
S315080054902073746172740D0A000000006D6667203F
S315080054A0746F6E652073746F700D0A006D666720E1
S315080054B073747265616D2073746172740D0A0000ED
S315080054C06D66672073747265616D2073746F700DF5
S315080054D00A0000006D66672073656E64203C6E7571
S315080054E06D5061636B6574733E20746573742D70BB
S315080054F061636B6574203C6C656E6774683E0D0A63
S31508005500000000006D66672073656E64203C6E754A
S315080055106D5061636B6574733E2072616E646F6D66
S31508005520203C6C656E6774683E0D0A006D666720E0
S3150800553073656E64203C6E756D5061636B6574733C
S315080055403E206D6573736167652000003C6669726D
S31508005550737420382062797465733E203C736563E2
S315080055606F6E6420382062797465733E0D0A0000F8
S315080055706D666720706F77657220736574203C705E
S315080055806F7765723E206D6F6465203C706F776536
S31508005590726D6F64653E0D0A000000006D66672037
S315080055A0706F776572206765740D0A006D666720EF
S315080055B06368616E6E656C20736574203C63686110
S315080055C06E6E656C2031312D32363E0D0A000000B4
S315080055D06D6667206368616E6E656C206765740D1D
S315080055E00A0000006D666720746573746D6F6463E6
S315080055F0616C203C6368616E6E656C2031312D32BA
S31508005600363E203C23206D696C6C697365636F6E4A
S31508005610647320746F2072756E2C2030203D3D20F7
S31508005620696E66696E6974653E0D0A006D66672067
S3150800563073796E6F666673657420736574203C2390
S315080056402031312E376B487A2073746570733E208B
S315080056502D2076616C7565206973206F6E6C7920D4
S3150800566073657420756E74696C206E657874207223
S31508005670657365740D0A00006D66672073796E6F31
S315080056806666736574206765740D0A006D66672023
S31508005690746F6B656E20726561642073796E6F66D0
S315080056A0667365740D0A00006D666720746F6B6516
S315080056B06E2077726974652073796E6F6666736596
S315080056C0740D0A0025700D0A00000000D8B4010800
S315080056D0794B0008E0B4010867430008E8B40108FC
S315080056E0C9430008F0B4010855460008F4B4010897
S315080056F0CD440008FCB40108734B0008814233D23C
S3150800570010185118401E491E10E011F8013900F80A
S315080057100139121F11F8013900F8013911F8013958
S3150800572000F8013911F8013900F8013992B2042A52
S31508005730EBDA92B2002A1EBF11F8013900F80139D6
S31508005740521EF6D1704711F8013B00F8013B121FB3
S3150800575011F8013B00F8013B11F8013B00F8013B49
S3150800576011F8013B00F8013B92B2042AEBDA92B237
S31508005770002A1EBF11F8013B00F8013B521EF6D164
S315080057807047130003D00A46194603F039BB704721
S3150800579010B500E0521E92B222B100F012F8F9D00C
S315080057A0181B10BD002010BD10B500E0521E92B2A5
S315080057B02AB100F006F8F9D0181B40B210BD002037
S315080057C010BD10F8013B11F8014BA34270470000C9
S315080057D070B51346101802E0A4192C705B1EDBB2D4
S315080057E04BB101F00F060909451E0A2E2846B4BF1B
S315080057F030243724F0E7101870BD2DE9F24F88B031
S31508005800804601A81446994601AD4FF0000B0027C3
S315080058108DF8000010E00127641E05A885420AD30A
S315080058209DF800002E1A00F0B5F8002839D1B344C7
S315080058305FFA8BFB01AD641C9DF800002E1A2078D8
S3150800584000280BD0252803D017B905F8010BE4E783
S31508005850002F14BF0027641C2078010000F08F80F9
S31508005860B0F1250113D00B39092968D928395DD03B
S315080058700B390ED0491E2CD008392AD0091F0BD057
S31508005880C91E09D0891E24D0C91E4FD0C5E72520B8
S31508005890DBE759F8040BD8E759F804AB00F07AF8B7
S315080058A0002873D1B3445FFA8BFB01AD002600E0F4
S315080058B0761CF6B216F80A000028F9D19DF82000E1
S315080058C032465146C047002860D1B3445FFA8BFB85
S315080058D0A3E759F8040B0021002803D52D212970C8
S315080058E040420121002200234FF0000C02E0801BF9
S315080058F00CF1010C0FF2041656F82360B042F6D2EA
S315080059005FFA8CF6002E08BF002A05D0C9B206F148
S3150800591030024A55491C01225B1C092BE4DBC9B23B
S3150800592030304855481CC0B2451976E759F8041B6B
S315080059300222C9B22846FFF74BFF05466DE7607895
S315080059400127782818BF5828F8D1641C002714F8AE
S31508005950010C322804D159F8041B042289B2E9E75C
S3150800596034287FF458AF59F804AB04224FEA1A4199
S315080059702846FFF72DFF04221FFA8AF1DBE700F01D
S3150800598009F818B906EB0B00C0B200E0002009B010
S31508005990BDE8F08F9DF82000F2B201A9404709A1A1
S315080059A016E010B5084BC35C0024012B07D113463B
S315080059B00A4601460548FFF720FF00B9012420469C
S315080059C010BD00000D0A000090600008835F000803
S315080059D00CB480B502AAFFF7E4FF02BC5DF80CFB25
S315080059E00CB438B5044604AAFFF7DBFF0546204683
S315080059F0FFF7D5FF284632BC5DF80CFB00CA9A3B78
S31508005A0000E1F5058096980040420F00A086010047
S31508005A1010270000E8030000640000000A000000E8
S31508005A2030B5224801680020002201249440CBB2F8
S31508005A30234213D00FF284001D4C30F812000628BA
S31508005A404CF23C324FF20F031DD16088984216D1B2
S31508005A502188080A0B2812DA084612E0521C92B26C
S31508005A60082AE2D31349088140F201720889904254
S31508005A7004D11148D0E90023C1E9002330BD4FF411
S31508005A80C0606280EEE740F20725A84201BF618840
S31508005A9099422188A942E5D162800846E2E705488D
S31508005AA00089000A70470348008970472C000040A7
S31508005AB000000020B07800209000002001040204B5
S31508005AC0010301050600070203090109F8B50120CB
S31508005AD003F0EFFA002003F0E5FCDFF8BC4220688B
S31508005AE040F00800206000F030FF03F0CBFCDFF840
S31508005AF0AC02DFF8AC620178F1604278DFF8A412F4
S31508005B00CA608378DFF8A022D360C578DFF89C32B4
S31508005B10DD600779DFF89852EF60078A3760478AB1
S31508005B207760868A0E60C68A4E60018B1160418B4B
S31508005B305160818B1960C18B5960008C286000F018
S31508005B40BFF8206820F01000206003F0E3FD03F0A2
S31508005B5032FF03F071FF03F066FB00F0F4FEBDE8C8
S31508005B60F14000F010BF40F2016004F001B8904B1C
S31508005B70DE6070478D4AD360704770B503F071FADE
S31508005B8003F080FC00F028F80B7800F029F84A7832
S31508005B90854DE2608A78EA60CB78FFF7EBFF0E79ED
S31508005BA0FFF7E5FF4E8A0660888A2060C88A60602B
S31508005BB0088B2860488B6860888B1060C88B50609B
S31508005BC0088C186000F07CF800F012F803F071FBFE
S31508005BD0BDE8704003F0E3BE7648704982687047B6
S31508005BE002F00F0203F0F0031A4382606D4C70470F
S31508005BF06948016821F01001016003F08BBD2DE9A9
S31508005C00F04F00F055F80F200021AA0004F068F8BC
S31508005C100AEA00001BEA010108BF00281AD000277B
S31508005C204FF00F095046594607EB850204F06AF80B
S31508005C3010F001000BD0B80009FA00F138F8152069
S31508005C4009FA00F026EA0101104040EA01067F1C25
S31508005C50042FE7DB29E02DE9F04F00F029F8FF20B3
S31508005C600021EA0004F03CF80AEA00001BEA0101F8
S31508005C7008BF002819D000274FF001095046594699
S31508005C8007EBC50204F03EF810F001000AD015F83B
S31508005C90081009FA07F009FA07F226EA0000114087
S31508005CA041EA00067F1C082FE8DB2660BDE8F08F76
S31508005CB00C468046266839481546D0E90EAB70472B
S31508005CC010B500F05DF808BF002822D000223A4936
S31508005CD000F023F80122394900F01FF8022238495A
S31508005CE000F01BF800222E4900F014F80122314971
S31508005CF000F010F802222B4900F00CF80322314973
S31508005D0000F008F80422284900F004F804F12400F9
S31508005D103BE010BD04F1240071E704F108009AE79E
S31508005D2010B500F02DF808BF002825D0002222491A
S31508005D302046FFF790FF012220492046FFF78BFFF8
S31508005D4002221F492046FFF786FF0022144900F069
S31508005D5014F80122174900F010F80222114900F040
S31508005D600CF80322174900F008F804220E4900F03F
S31508005D7004F804F1100008E010BD04F110003EE735
S31508005D80064CD4E90E0100297047BDE810400522EB
S31508005D900D4934E70000000000BC004048700020B0
S31508005DA000B0004000B2004000B4004000B6004019
S31508005DB000B8004004B000400CB000400CB20040EF
S31508005DC00CB4004004B2004004B40040032004F0C0
S31508005DD023B880B5FFF763FE0FF24C01FFE701EB2E
S31508005DE0800002BD10B5FFF75AFE0446FFF75BFEBA
S31508005DF0C0B208B9012C07D1072C11D8DFE804F086
S31508005E0004100608080A0C0E002010BD092010BD53
S31508005E10022010BD032010BD0B2010BD062010BDAA
S31508005E2044F0800010BD0000554E4B004649420024
S31508005E3042544C00455854005057520057444700A6
S31508005E4020535700435253004653480042414400EA
S31508005E50464C5400002181F3118870472DE9F0471C
S31508005E600446884691469A4600F002F9002801BF82
S31508005E7025460FF21C20285C012823D1DFF8E461AF
S31508005E8056F8257003F0DAFF0021B9803980798049
S31508005E9003F0DAFF06EB8500066903F0CFFFDFF8AB
S31508005EA0C8210021B18031807180A95403F0CCFF4C
S31508005EB003F081FD53464A4641462046BDE8F04771
S31508005EC003F064BC2120BDE8F0872DE9F84381463C
S31508005ED04C46DFF8900100EB840088460669484680
S31508005EE000F0C6F808B1012037E0DFF87C51605DA4
S31508005EF005EB440760B1B8887188884208D103F079
S31508005F009DFF665D0021615503F09EFF304624E043
S31508005F10484603F026FDB088F0B103F08FFF71887C
S31508005F200FF278128919897988F800104FF6FF78E8
S31508005F30718832F8142000F01EF87180B188414447
S31508005F40B18003F081FF605D20B1B888404504BF89
S31508005F503088B880002000E02620BDE8F2838088DB
S31508005F600FF2241333F81110891A884201DA012036
S31508005F70704700207047491C91FBF2F302FB13118E
S31508005F8070472DE9F047804647460FF20410385C03
S31508005F9001288A4616462FD132480FF2F80950F8DA
S31508005FA02740002514E003F049FFA18801B901251F
S31508005FB022881AF8011B12199171218839F81720BD
S31508005FC0FFF7D9FF2180A188491CA18003F03CFF77
S31508005FD03046461EC0B258B1002241462046FFF759
S31508005FE0BEFF0028DFD10DB100F009F8222004E039
S31508005FF000F005F8002000E00120BDE8F0874046E3
S3150800600003F001BC80B501460FF284028A5C012ABE
S3150800601005D1144A52F821108A88002AFCD103F0C7
S315080060202BFC002002BD0CB438B504460D4603F01F
S3150800603003FC04AB2A4621460C48FFF7DEFB0FF2A9
S3150800604050012046415C012907D1064951F8200034
S31508006050808810B1204603F0D6FB32BC00205DF8DC
S315080060600CFB0000FC700020007B0020499800080B
S31508006070042806DA0FF21801415C481E8041C00F59
S3150800608070470120704700000000800000000000F3
S315080060900001000000008000000000000000400031
S315080060A00000000038B503F0D3FE03F087FFDFF8E1
S315080060B058442078002840F0A780122004F0D0F831
S315080060C000060BD500F0DBF8000607D500F0DAF875
S315080060D0000603D500F0D0F8000610D4122004F00C
S315080060E0BFF8000614D500F0CAF8000610D400F070
S315080060F0C9F800060CD500F0BFF8000608D5E07808
S315080061000E2861D103F00EFE002800F07F8032BD14
S3150800611000F0B5F800060FD400F0B4F800060BD569
S3150800612000F0B0F8C00707D400F0A6F8000603D4BC
S31508006130E0780C2845D1E5E700F0A1F8000609D576
S3150800614000F0A0F800F08100812803D100F094F84F
S3150800615000060DD500F093F800060ED400F092F86C
S3150800616000F08100812808D100F086F8000604D4E2
S31508006170E0780D28C6D00E28DCE700F080F8000687
S3150800618010D500F07FF800060CD400F075F800066C
S3150800619008D5E07816281CBF01281A28B2D00F287F
S315080061A015D1AFE700F06BF80006ABD400F06AF83B
S315080061B00006A7D400F060F80006A3D5E0781628F4
S315080061C0A0D0E07801289DD0E0781A289AD0E07807
S315080061D0022818BF1B2895D0062818BF072891D073
S315080061E0082818BF09288DD00A2818BF032889D07F
S315080061F0102818BF112885D0122818BF1328FAD0DE
S31508006200142818BF1528F6D0B02032BDFFF7DEFDDA
S31508006210012004F079FA04F0D1FC04F0E1FC04F062
S31508006220E7FC04F097FEDFF8E4420FF22C3005F0A5
S3150800623080F82070DFF8D80205F07BF8607003F06C
S31508006240FDFD0546607805F095F8284603F0FCFD47
S3150800625005F0E0F805F0B9FA05F00CFC06F0DCFEEE
S3150800626006F0DDFE06F0F0FEDFF8A8024FF47041F6
S3150800627004F0D7FF002032BD002003F0F1BF102044
S3150800628003F0EEBF112003F0EBBF2DE9F04706F04F
S315080062901FFF07F033F807F03BFB08B907F024FBAC
S315080062A0DFF87482404607F0A1FE08B905F0F5FE4E
S315080062B0DFF86892484607F099FE08B908F00EF824
S315080062C008F027FB08F0B7FCDFF84062307805F0E5
S315080062D01CF8707805F019F808F02AFEDFF8405225
S315080062E0DFF840A2002700240BE0204605F03FF91E
S315080062F02868007B001F022838BF012705F038F9F7
S31508006300641C9AF80000E4B28442EED3002F1EBF44
S31508006310DFF814020078002805D000F02AF81028C3
S3150800632008BF09F0BDF804F0E5FD09F035FC03F0F7
S3150800633085FD074607F0ECFA68B1404607F056FEB9
S3150800634048B1484607F052FE28B109F023FC10B1BF
S31508006350307805F00FF8384603F076FD05F000F9B9
S3150800636018B94FF4BC7100F04AF803F02CF9BDE8EF
S31508006370F08710B505F013FA48B109F0C5FC30B13D
S3150800638009F083FD00F0010080F0010400E001241B
S3150800639004F0A4FA08B944F0040407F0B9FA38B1CD
S315080063A05D4807F023FE18B15C4807F01FFE08B9E0
S315080063B044F002045D48007808B144F020045A48C5
S315080063C0007808B144F010045948007808B144F040
S315080063D0400409F056FD08B144F0800409F053FD65
S315080063E008B144F480745348007808B144F4007442
S315080063F05148007808B144F48064A0B210BD0FF289
S31508006400481009F065BD80B503F0E9FD2E223DA1CF
S31508006410032009F061FE04F06BFA04F075F94748A9
S31508006420007808B109F0E4FF4548007808B10AF099
S315080064308AFA4448007808B10AF01EFDBDE8014012
S3150800644009F025BD38B5044635480068007BC01EEE
S3150800645003280BD320460AF0D6FE4FF6FF75A8424E
S3150800646004BF20460AF02CF8A84204D12046BDE80D
S31508006470324004F031BC32BD70B504464FF6F870B0
S3150800648084420D4627DA264E3CB93068007D8007DF
S3150800649003D428460AF073FBD8B9306841888C4281
S315080064A005D1011D08222846FFF728F911E0007BCF
S315080064B0C01E032808D320460BF0C6F8FF2803D0D1
S315080064C029460BF0E5F820B92946204604F04BFC8E
S315080064D008B1002070BD012070BD11480068008A0F
S315080064E070470F490968088270470D480068408A56
S315080064F070470B4909684882704709480068007860
S31508006500704700004200000096070808B67F002082
S3150800651020B90108B07E00207C710020707100202F
S31508006520247C0020B86F0020387C0020B47B002033
S31508006530307E0020547C00205C7C0020407E0020B9
S315080065402C7C0020D87C00207A69676265652D73EB
S315080065507461636B2E630000CC7C0020F9EB0008A5
S31508006560907C002039600108B07C00201D5101088C
S31508006570787C002059FE0008C47E0020897A01082C
S31508006580B47B00201D7F0008C07B0020D77F000851
S31508006590387C00209DF40008AC7B0020A17400081C
S315080065A0D87B0020DD8800086C7C00200B260108BB
S315080065B0DC7E002049A701082C7C00204709010839
S315080065C0407E0020F1030108847C00204FA70108C3
S315080065D0487C0020C9380108D87C0020790E0108BB
S315080065E0287E00204DF20008307E002021D00008C9
S315080065F0147C0020E3B40008547C00208F3701087F
S315080066005C7C0020CD370108147E00207D3D010802
S31508006610CC7E002013980108087E002055650108E5
S31508006620B87E0020A3790108B07E0020C1B4010815
S315080066301C7C00200BB600080000000000000000CB
S315080066409A490870704738B5984C207800A9FFF722
S315080066503CFCA0BB9DF800202078954D0A2A18BF5F
S315080066600D2A8FA102D0202A03D010E000F028F8C6
S3150800667031BDFFF7ADF9287841190979F9B1401C00
S315080066802870C0B208281AD10FF2382112E0FFF795
S315080066909FF9287841190A79112A09DA854D9DF852
S315080066A0004000EB001040191454501C087131BD0D
S315080066B00FF230212078FFF78BF900F048F831BD4A
S315080066C02DE9F843794C2078012676A1FFF780F961
S315080066D077480079002838D00025DFF8D881DFF818
S315080066E0D891764F0DE056B100F038F909EBC500A0
S315080066F04068804700F032F93878401CC5B2681CFB
S31508006700C5B2387885421ADA59F835000378014651
S31508006710002202E0521CD2B2135C002BFAD10126E9
S31508006720002006E0435C10F808C0634518BF002641
S31508006730401C9042F6DB002AD5D10026DFE726B9B1
S3150800674020780FF2BC11FFF743F9BDE8F14338B5DD
S315080067500024584D04EB0410112140190BF06EF873
S31508006760641C082CF6DB5248011D002200230CC1CC
S3150800677002704DA1524802684C480078BDE838407E
S31508006780FFF726B970B5002201EB011603780BB99D
S31508006790012070BD13465A1C464D7519DBB210F818
S315080067A0014B5B5D9C42F1D0002070BDA0F1300228
S315080067B00A2A38BF30380AD3A0F16102062A38BF40
S315080067C0573804D3A0F14101062902D23738C0B29E
S315080067D070470020704738B5364A01EB01139A18FE
S315080067E0092902EB400401DB002032BD6078FFF77F
S315080067F0DDFF05462078FFF7D9FF05EB0010C0B28C
S3150800680032BD70B52A492B4D411800EB00100A79A4
S31508006810465D0021012300242D2E0BD1012409E019
S31508006820521E4619D2B2965D303EF6B206FB0311E9
S315080068300A2673439442F3D3084670BD10B504463E
S31508006840092C01DB002010BDFFF7DBFF00F014F870
S3150800685004BF00B2404200B210BD10B50446082C71
S3150800686001DB002010BDFFF7CCFF00F005F804BFE0
S3150800687080B2404280B210BD0E4904EB0412515C4E
S315080068802D29704710B50446082C01DB002010BDE1
S31508006890FFF7B7FFFFF7F0FF08BF404210BD000043
S315080068A0256300000D0A000025703E001C710020BB
S315080068B0947B00200C7B0020CC5600085C6F0020DF
S315080068C0606F00200D0A4F5554204F4620534552FD
S315080068D049414C20434D44204255464645520D0AEF
S315080068E0000000000D0A4F5554204F4620534552CC
S315080068F049414C20434D442053504143450D0A001D
S31508006900636F6D6D616E64206E6F74207265636F60
S31508006910676E697A65640D0A000000002D480068F4
S31508006920C00701D42C4870472C48704780B5FFF73C
S31508006930F5FF2B49096801B9400802BD80B5FFF784
S31508006940EDFF400802BD02F050BB264801218160D8
S315080069504EF6BE214160012101607047224901209F
S3150800696008607047A52805D11E484DF6AD614160FF
S315080069700221016070471B480068C00701D5012045
S3150800698070470020704780B51849194A10200860DA
S3150800699018491948007858B103280CBF002001206F
S315080069A0106040F651000860002002F0FEFD06E087
S315080069B0022010604FF40060086002F0CFFA072149
S315080069C00E4801600021016410200D49086000206E
S315080069D002BD00001C400040001BB70000366E01D7
S315080069E020400040006000400860004080E100E070
S315080069F0080000400C600040B17F002014A0004051
S31508006A0000E100E07047704780B500F008F880B2F2
S31508006A1002BD80B500F003F80002000C02BD38B5CF
S31508006A2003F00CFA2B490C684D6803F00DFA45EA99
S31508006A30044032BD704780B5FFF7FCFF26490720A2
S31508006A40086001202549087001BD2DE9F843044670
S31508006A500025206810B9FFF7FDF92DE003F0EEF9DF
S31508006A60804600F030F81CBF401C2060FFF7D7FFB7
S31508006A7021681A4E184F81461948494489B241601F
S31508006A8021684944090C0160357002203860386471
S31508006A9000F015F8404603F0D7F901200BF0BBF9D2
S31508006AA03D64307838B98525FFF7B9FF2168081A9B
S31508006AB04844206000E025602846BDE8F28310209F
S31508006AC0094908607047074910200860206810F1D6
S31508006AD0010F70471060004014A00040B97F0020E5
S31508006AE01860004080E100E000E100E0C1080329E9
S31508006AF007DA012100F007029140C0084002124A55
S31508006B0011507047C108032907DA012100F007026E
S31508006B109140C00840020D4A1150704710B504460E
S31508006B2003F08CF9E108032909DA094A02EB412145
S31508006B3001230A6804F00704A3405A400A60BDE826
S31508006B40104003F081B9000014B0004010B00040B6
S31508006B500CB0004000281CBF0620FFF7C7BF062060
S31508006B60D0E70000F0B52F4C0D46A16889B006465F
S31508006B70174629B1082206A8FEF7C0FD06A8A06098
S31508006B8027B9FFF7AAFC6188814201D1002700E0F6
S31508006B90012730460BF03AFB014605AB3A4630462C
S31508006BA00BF06EF9A0BB6068C18804912B46417949
S31508006BB003911122017902914188019100880FF20F
S31508006BC068010090032009F087FA0120207004F07C
S31508006BD0C9FC9DF8142061682846FDF7B0FB04F04F
S31508006BE0C7FC9DF81400FF2818BF06F021FF6DB9F1
S31508006BF06068C18848F240021140402906D12178D0
S31508006C00490703D44088FF2107F02CFD0020207097
S31508006C1009B0F0BD0348017811B94FF6FF70704707
S31508006C2040887047C87B0020424257574242570067
S31508006C305C480068408870475A480068001D7047DD
S31508006C4058480068C07E704770B5564C564D216846
S31508006C50564E4873022819D100F0ACF878B9206866
S31508006C60007B001F022824BF304604F0CFFA2068B4
S31508006C70007BC01E032824BF284604F0C7FA2068F4
S31508006C804069C00054BF9024BC240AE000F092F882
S31508006C9010B109F0F5F803E03070287004F00FFD24
S31508006CA09124204606F0C9F950B9234613223CA17F
S31508006CB0032009F011FA2046BDE8704004F0A9BC8B
S31508006CC070BD38480068407B00F00F0070473548B3
S31508006CD00068407B00F00F00022801D101207047B0
S31508006CE00020704738B5044600F064F820B1204605
S31508006CF0BDE8324009F0B8B82A4DFFF7E8FF28B9D1
S31508006D002868407B032801D0932032BDFFF7EDFBAE
S31508006D1020812868C07BA0722868807BE0722046A4
S31508006D2001F024FD0020207304F1140104F1100081
S31508006D300BF0A3FBE081002032BD10B5002300E074
S31508006D405B1CDBB28B4205D210F8014B9442F7D09C
S31508006D50002010BD012010BD80B508210BF027FFCB
S31508006D6008B1002002BDA52002BD0E480068407B80
S31508006D7001281CBF3128332801D101207047002083
S31508006D80704710B504460CF0E3F910B905490968CF
S31508006D90CC7310BD03480068807B70470000000074
S31508006DA042420000247C0020407E00202C7C0020EB
S31508006DB003F0A6BC80B5FFF7A0FB032801D101208C
S31508006DC002BD002002BD80B5FFF7F4FF38B1BDE86B
S31508006DD004404FF490710FF2080009F079B801BD2C
S31508006DE0656D6265722D737461636B2D636F6D6D6E
S31508006DF06F6E2E630000000070B5D04D04462878EB
S31508006E0010B904F0CCFC08B9012070BDCC4E0CF0CA
S31508006E1098F930710CF098F9707103F071FC3081B3
S31508006E2003F05CFD707003F063FD307003F096FDAF
S31508006E30B07003F0AEFDF070C2484178B171002120
S31508006E40417001202870C0480460002003F072FDDC
S31508006E50002003F086FDBDE87040002003F04BBD1E
S31508006E6070B5B64D28780024012833D102F0E6FF24
S31508006E702C700646B24DB449A8780C6003F05AFD4A
S31508006E80E87803F06EFD304602F0DEFFA879AD49DA
S31508006E904870287803F02FFD00B104466878012869
S31508006EA008BF03F0BCFC28890BF07DFF00B104463F
S31508006EB0A64E95F905003168C8730CF049F900B17A
S31508006EC004463168287988730CF033F900B1044612
S31508006ED0204670BD012070BD10B500F01DF80128D0
S31508006EE001D0012010BD03F0A6FD022021E010B557
S31508006EF000F012F8022801D0012010BD03F0BCFDF5
S31508006F0016E010B500F008F8012801D0012010BDE0
S31508006F1003F07FFD03200CE0884C2078704710B5FD
S31508006F20FFF7FAFF032801D0012010BD03F079FD11
S31508006F3001202070002010BD2DE9F0478046C007CB
S31508006F408A4604D59C210FF2242008F0C1FF7B480D
S31508006F500078012818BF012020D100267C4F42F274
S31508006F60107402F06BFF814600203870404603F02B
S31508006F7007FA0546484602F067FF8C2D03D0387895
S31508006F800028FCD001E0641EEBD1FFF7E7FC761C75
S31508006F90B6B2B24501D3002DE1D02846BDE8F08748
S31508006FA066490978012901D00120704767490968AF
S31508006FB088730CF0BEB80CF0C4B810B50C465F491F
S31508006FC00978012901D0012010BD0BF0ECFE38B973
S31508006FD05E480068C4732046BDE810400CF0B8B897
S31508006FE010BD80B55B4908700CF0ABF8BDE80240EF
S31508006FF00CF09FB8574890F9000070470CF0A4B8F9
S315080070002DE9F04F544F85B004463868002580B204
S3150800701089464FF00A0A0390A8460CF092F88DF8B4
S31508007020060020460BF01FFFB8684C4C4C4E80B249
S3150800703002904FF6FF72A06AADF80400002120689E
S31508007040ADF802000820D6F800B00BF061FEADF8E6
S315080070500000C022114608200BF061FE4148007866
S3150800706010B148F2607038614CF25C00F864022096
S31508007070A0620120206040F24C4002F07BFA012019
S31508007080F06030607F200CF049F9039800F5004065
S315080070903860FFF7C4FC049002E0B8F1000F04D191
S315080070A00020706141F2111003E04FF0FF3070616B
S315080070B02D48306188F00108012002F05BFA1A2D8C
S315080070C0A8BF6FF0090A04DA15F1190FB8BF4FF017
S315080070D00A0A554402982DB22818B860FFF73EFCF4
S315080070E0B9F1000FD9D0FFF79AFC0499401A8145E7
S315080070F0D3D20298B8604FF6FF72039838601FFA29
S315080071008BF030600020F06002202060BDF802009D
S315080071102060BDF80400A0620020F8640820BDF8CD
S3150800712000100BF0FCFD40F24C4002F023FA9DF8EB
S31508007130060005B0BDE8F04F0BF095BEFD7D0020BA
S31508007140BA7800203C7100203C7E0020247C002078
S31508007150FE7D0020BA7F0020C0100040602000405D
S315080071602810004049710020EEEEFFFF6D66676C3F
S3150800717069622E6300000000DFF8C02A12681278E0
S3150800718082420AD019B1012A03D1022805D000206B
S315080071907047022A08BF0128F9D101207047DFF895
S315080071A0A01A0875704710B5DFF8904A2068407B2A
S315080071B0112804D0B9210FF2100008F089FE2168C1
S315080071C04120487310BD00006173736F6369617471
S315080071D0696F6E2E6300000080B5022004F0BEF9C8
S315080071E004F0C5F900F081FC001F022805D2DFF87B
S315080071F0500AC17C491DC17405E04FF47A71DFF865
S31508007200440A04F00EF800F0FCBE10B5DFF8304A68
S31508007210002060742078FF2803D006F009FCFF20C0
S31508007220207010BD70B582B004460D4606F08CFB82
S31508007230007C00F00701400800F0380000EB410030
S3150800724000F11106DFF8C80C0068205CF6B2864229
S315080072500BDA831BDBB20F2BA8BF0F23002000908D
S3150800726032462146284606F082FC304676BD1FB5D2
S3150800727001200CF08FF90CF091F904F04CFC18B3CE
S31508007280DFF8BC49207800A9FFF7CCFFDFF8B4196E
S31508007290002008700DF10300617901F075F9FFF718
S315080072A0B4FF00F012F800F01DFC007DC00702D5FF
S315080072B00CF00CFB08B90CF001FD0CF006FB0CF009
S315080072C0BDF9012001F098FA1FBD10B500F00AFCBF
S315080072D0017BC91E032906D240884FF6FF718842F2
S315080072E008BF032008D0FFF7A3FC0446FFF7A4FC59
S315080072F0214603F06DFC0220FFF7A6FC0BF0B4F85C
S3150800730000F083FEBDE810400CF007BD38B5DFF885
S3150800731030492075FFF779FF00214FF6FF7001F01D
S315080073203BFADFF818592868417B032918BF00295A
S315080073301DD0332918BF432913D101F0C9F928688C
S31508007340017BC91E032906D203214173207DBDE8AE
S31508007350324004F05EB9207D04F05BF9BDE83140A7
S31508007360B3E721214173BDE8314001F029BB31BDA6
S3150800737010B500F0B3FB002048734FF6FE70FFF718
S31508007380B0F84FF6FF70FFF7B4F8DFF8B44801F02D
S315080073909FF9207DBDE8104004F03BB93EB5044690
S315080073A02346E07A0FF2B8010290152294F90A00F2
S315080073B001902089009000F003FA00F059FF78B98F
S315080073C020894FF6FF7188420AD0DFF8580C0078FA
S315080073D00A2805D104F0CDF810B904F0CCF808B1A4
S315080073E070203EBD2868007D800706D5DFF8380C7A
S315080073F0007810B10CF030FE00E00020214601F0C4
S315080074007FF8050008D1012001F05DF80021012070
S315080074100CF0A7FF050001D028463EBDDFF820087E
S31508007420007E08B109F0ECFF002208212046FFF78C
S3150800743084FC30B1042120460BF0B9FB08B9A5201D
S315080074403EBD00202074DFF8E40B60610020E08177
S31508007450204600F0F5F8054604F043F8DCE700009E
S31508007460423870574242000010B504462346182297
S3150800747001F030F9DFF8B80B0021017114B1FF2CC7
S3150800748002D10121017007E0012100F8041BA100C7
S31508007490491C090203F0C5FE00F0B7FD002010BD27
S315080074A0DFF88C1B00200871DEE730B50D4689B081
S315080074B0044668690FF27C1107902346287C0690DB
S315080074C01622E8890590287B0490E87A039095F9B6
S315080074D00A00029028890190009500F071F9287B2E
S315080074E000280CBF4FF6FE70FEF7F7FF2B46224624
S315080074F009B0BDE83040014601202DE9F041DFF82A
S315080075003C6780463068407B00280F4614461D4677
S315080075104BD1002C49D0062C47DADFF8080B007847
S315080075200A2842D104F025F800283ED104F023F8B1
S3150800753008B1042C39DB287B032816D14FF6FE70D8
S31508007540874214D1012C08BF002710D0022C2CD159
S31508007550FEF7C3FF4FF6FC71884202DAFEF7BDFF5D
S3150800756001E00CF079FD074601E0012C1DD0B8F1C9
S31508007570000F0CD0287B03280CBF01210021012C09
S315080075800CBF012000200CF0ECFE00284ED1294645
S31508007590384600F0B5FF002848D103F0E4FF03F0B1
S315080075A0CBFF20B103F0E7FF08B170203EE030685A
S315080075B0DFF88C76407B33281EBF53280020787569
S315080075C0204600F080FF387E20B103F0D4FF08B9CA
S315080075D009F016FF287B032803D12846BDE8F041A9
S315080075E02EE00822294607F10800FEF787F8287BCF
S315080075F00328A8BF00203874FFF707FE94203875C3
S31508007600387C316800280CBF0120312048730020DF
S3150800761031687A7EB8740120897B00FA01F103206B
S315080076200DF09AFC10B1326800215173BDE8F08163
S315080076300000000042423870574242425742440016
S3150800764010B5044600220821FFF777FB08B1012090
S3150800765010BDFEF742FF00224FF6FF7100F078FFDB
S31508007660217C204600F090FF6269E189207C0AF0BF
S315080076702EFFDFF8C8050068007B012808BF0DF05B
S3150800768002FCFFF722FE002010BD002038B5DFF807
S31508007690AC4505462068407B002802BFDFF8840910
S315080076A000780A2801D0702032BD08F003FC0028B3
S315080076B041D12DB102222946DFF8C00BFEF71EF88C
S315080076C000A801F035F808B1932032BD9DF80030C6
S315080076D0142200F0FFFF00F09FFF68BB9DF8000032
S315080076E000F0F1FE2068007B012818BF022806D0AA
S315080076F0C01E03280FD2002001F05AF858B100F036
S31508007700A2FF2068007BC01E032838BF07F012F9C5
S31508007710FFF7DBFD0FE02168132048730020DFF830
S315080077202015887405222168897B012000FA01F159
S3150800773005200DF011FC002032BDFF22FFE72DE9E0
S31508007740FC41044600F0CEF90D46017B012990461E
S3150800775025D0407B022818BF032820D1FFF733FB2A
S31508007760DFF8DC747A7E294603200DF0F5FB060067
S3150800777016D13320FFF768FAFFF747FDFEF7B5FE87
S31508007780F880002C14BF02200120387407F1080085
S3150800779000F0ECFF0020B87487F8158000E070262A
S315080077A00196009523462C220FF20C0100F008F8EA
S315080077B03046BDE8F681000042424442000000001F
S315080077C0032008F089BC38B5044606F0BDF805461E
S315080077D020460DF0EEFD441920460DF0EBFE4FF65F
S315080077E0FF5101402046BDE834400DF0EABE70B5B1
S315080077F084B0FEF772FEDFF84844064620780B216F
S315080078000DF0B6FD002100F0C7FFDFF83054FFF792
S31508007810ACFA58B11EB14FF6F870864206DB0CF08A
S315080078201BFC0646286840888642F8D03046FEF794
S3150800783058FE207809210DF09BFDFEF75AFE2E68AA
S31508007840307B052813D100F09CFF8DF8080002ABA9
S31508007850207C00280CBF4FF4804244F2010201202C
S3150800786000904FF48061708806F002FD0FE0062054
S315080078708DF8080000F085FF8DF809000223002026
S315080078800190009002AA708801210AF01BFC0646A6
S31508007890FF2E08BF002011D02868418830460DF019
S315080078A0C4FD207C02281CBF3046FFF78CFF00F081
S315080078B047F80446304606F0BBF8204604B070BDCB
S315080078C070B586B00C4616461D4638B920460DF0EA
S315080078D09FFE02AA03A909F0B4FC03A807218DF8A4
S315080078E008100190310A8DF80A1001200A998DF8BE
S315080078F00B1000908DF80960042302AA0121204686
S315080079000AF0E0FB0646FF2E18D021460DF08DFD45
S3150800791015B93046FFF757FF0B9808B930460DE002
S31508007920204609F0BAFC18B1304607F031F801E0F4
S3150800793000F006F8304606F07BF8FF2006B070BD6A
S31508007940002200231146304608F094B92DE9F64F77
S3150800795083B004461E4600274FF6FF7856B14FF00F
S31508007960010B30460AF0ECFB81467078400800F0BF
S31508007970010A05E0BB4610460DF0BEFD8146BA4633
S3150800798000F0B3F8C01E0328C0F0A1800E98411C71
S315080079909DF81000C9B206F0E1F90546680800F03E
S315080079A001008DF808009DF80C0018B9280658BF84
S315080079B045F0800500F096F8407B022804D1DFF8F0
S315080079C070060078204301D102271CE04846FEF7DE
S315080079D039FD9DF80C1084F0010202EA0108BBF19A
S315080079E0000F1CBF301D0DF0E5FD01210091434637
S315080079F001462A46484609F082FB80464FF6FF7044
S31508007A00804508BF0127DEB11CB94FF6FF708045D7
S31508007A1004D1301D0DF0CEFD014600E0414601209F
S31508007A2001900097534642464846FFF749FF9DF89E
S31508007A30080050B94FF6FF71484608F09DFE04E06D
S31508007A403A46414648460DF08EFF002F3FD19DF835
S31508007A500800E0B14946404608F0B1FE0E2101FB98
S31508007A6000F700F03BF8896A79184A7942F0400233
S31508007A704A7108F0D7FE00F035F8806A38186A06A9
S31508007A8041794CBF41F0800101F07F014171F6B1A7
S31508007A90DFF8906C9DF810003070FEF71EFD690641
S31508007AA00FF2300C48BF0CF1010CBAF1000F18BFE9
S31508007AB00CF1020C02D10CB90CF1040C01469CF82D
S31508007AC000004B4642460DF0D1FFFF20307005B04E
S31508007AD0BDE8F08F0307000401050000DFF8481C25
S31508007AE009687047554800687047DFF83C0C00681D
S31508007AF0007B70472DE9FE4F04468846914640466E
S31508007B000DF061FC4E4D2F7C824607B101274B4E86
S31508007B103068007B052808BF01273CB150460AF0AB
S31508007B200FFB834650460AF0FEFA05E040460DF084
S31508007B30E3FC8346DFF8F40B029004230020009050
S31508007B404A46414601A806F012F80DF105000DF067
S31508007B5031FD9DF807908046D4B10298DFF8CC1B1A
S31508007B600822FDF715FE002863D13068407B0228FD
S31508007B7008BFB9F1000F0BD14046FEF7B2FC0CF076
S31508007B809DF8992300F0A5FD992003F042FD50E0E9
S31508007B90FFF7EBF800284CD0002F14BF204684F0DE
S31508007BA00100002845D0B9F1000F03D09420FFF753
S31508007BB0ADFB3EE030684088594608F000FE08F004
S31508007BC031FE306841885A46404600F0C1FC3068AC
S31508007BD0417B012916BF3129112143214173022016
S31508007BE003F0BBFCDFF87C7C40F6B831384603F07E
S31508007BF018FB06F09FFE0020E8743068C17E19B9AC
S31508007C00384603F003FB11E034B19AF801108907EE
S31508007C1002D5FFF72CFB09E0007B001F022805D2DE
S31508007C200521384603F0FDFA0620E874AD20FFF773
S31508007C30B6FA03F056FCBDE8F78F0000247C002056
S31508007C4020710020B47B00202DE9F04F8DB0054649
S31508007C500DF0B9FB81460DF0FBFB039028460DF0AD
S31508007C604BFC804602AB052205A928460EF094F97E
S31508007C700446022C8DF800002ED028460DF099FBFC
S31508007C80039908189DF808100818C6B23146284600
S31508007C9006F064F80190FFF78DF820B101980728DF
S31508007CA01AD1012C18D00198DFF8BCBBDFF8787A16
S31508007CB0F41C01284FF6FF7A0FD0022815D00428A5
S31508007CC000F0F680062816D0072800F081800828DC
S31508007CD03AD07C2800F0B48019E1002100960023F0
S31508007CE02A460846FFF732FE11E1324629460020A9
S31508007CF0FFF700FF0BE1404609F085FA04465445B4
S31508007D001AD0214640460DF0DFFDDFF8640B0078F7
S31508007D10800711D520460DF07BFCFF280CD0DFF834
S31508007D20542B1268002142F82010DFF84C1B096812
S31508007D30425C42F0F00242543868407B022802D185
S31508007D40404602F0DCF8E2E000200BF023FC711C50
S31508007D5000F0E0F88146E1B200F0DDF80446B11D16
S31508007D6000F0D8F806465645EDD006F0E3FD38682B
S31508007D70407B132808D100F066FC28460DF0BCFBB2
S31508007D800146204608F01BFD3868407B022818BFCC
S31508007D9013281CD13046FEF7A4FB4846FEF7A9FB7C
S31508007DA00021002000F0F0FB4146204600F0F4FCDC
S31508007DB09BF80300DFF8C41A087000F026F9386843
S31508007DC0417B132903D1232141730DF052F99EE01B
S31508007DD001210398484405F0AEFE0446002200231C
S31508007DE02146104602F08DF8204605F021FE386837
S31508007DF0407B022802BFDFF8884A20780028E6D1AF
S31508007E009DF8001005AA28460EF0F6F8002816D0A8
S31508007E1000F06CFF05469BF9191001208840C0EB5D
S31508007E2000181FFA88F6002003F097FB95FBF6F07A
S31508007E3006FB1050411C89B2204603F0F2F966E0B1
S31508007E40284605F081FD30184178652904BF8078F9
S31508007E506D285CD12E480068285CE4B2844256D26C
S31508007E600822414603A8FDF749FC00AB002221463B
S31508007E7028460AF005F8002849D19DF80000FF2891
S31508007E8045D0DFF8004ADFF89C680120207035707D
S31508007E9003F068FB03A89DF8001001F0E8FF03F063
S31508007EA067FBFF203070002020709DF800002CE052
S31508007EB028460DF03EFB0446DFF8CC090078FE287C
S31508007EC009DB28460DF089FA000B00F0010120466F
S31508007ED001F0D3FF1BE00FF600200088ADF80A007A
S31508007EE002230020019000900DF10A02012120468C
S31508007EF00AF0E8F80546FF2D09D021460DF095FA57
S31508007F000021284603F098FB284605F091FDACE1D0
S31508007F106C6F0020C9B2284605F0C7BF70B50220AD
S31508007F2003F01CFB03F023FBDFF83859DFF8F8678A
S31508007F300020287003F0EFFD28B13068C07E10B924
S31508007F40FFF795F93EE0DFF8204903F0E4FD10B9A4
S31508007F50FEF70BFF58B1E07C48B1C821284603F06C
S31508007F6060F9E07C401EE07403F09BFB2AE0306871
S31508007F70407B132809D0FEF7F8FE30B93068407BFD
S31508007F8011281CBF4328412803D1207DFFF7BEF9DD
S31508007F9018E0022818BF032803D0002818BF212894
S31508007FA010D10024DFF8E45808E0204603F0DFFA91
S31508007FB0002000F021FC03F0DBFA641C2878E4B208
S31508007FC08442F2D3BDE8704003F0D2BADFF89818BD
S31508007FD00020C874704780B5002003F0BFFA03F08C
S31508007FE0C6FADFF89C1800200870DFF83C0700681E
S31508007FF0417B022905D1007BC01E032828BF0DF04E
S31508008000D1FCBDE8014003F0B3BA80B503F0BDFA70
S31508008010FF28DFF87C181ABF05480078002008708A
S3150800802001BD000080710020CB7F002000F8FF070B
S31508008030A87B00202DE9F04F0446DFF858080068B1
S315080080408DB0205C0090204605F07EFC0646B01DEB
S315080080500DF0B0FA074606F109000DF0ABFA8146B5
S3150800806006F10B000DF0A6FAADF80A0006F10D00B0
S315080080700DF0A0FA8346C00B8DF80800FEF79AFEAD
S3150800808018B1204607F0FAFEEFE008A92046FFF7E8
S31508008090C9F808AEB178C1F3C3010391717801F04C
S315080080A00F0A00992029ACBF9DF82E804FF00008D2
S315080080B0021F0023D2B22146052001F022FF00F05C
S315080080C0D7F8022812D1FEF710FA81450ED104A876
S315080080D000F04CFB00981C2806DB08220DF1230152
S315080080E004A8FDF755FB08B10AF025FBB7F5004FC4
S315080080F002BF2BF4404040F6FF718842C4D1009875
S315080081001C28C1DB002208210DF12300FEF715FE0D
S31508008110002839D1DFF880070078012830D19DF88A
S3150800812008000FF2AC710090CDF804A04B46272248
S31508008130FFF746FBDFF8640700788DF81200ADF804
S3150800814010908DF81CA08DF81D8008229DF8080057
S315080081508DF813000DF1230105A8FDF7CFFA28685D
S31508008160DFF8C075407B01281CBF33283C7003F03C
S31508008170F9F904A8FCF7E1F8FF20387003F0F8F9DC
S31508008180DFF8E476B87C00286FD1FEF7EEFD00280C
S315080081906BD0012078740022082107F10800FEF749
S315080081A0CCFD10B1F888814508D008220DF12301CD
S315080081B007F10800FDF7ECFA002856D19DF80800EB
S315080081C028B92868407B312818BF33284DD10121AA
S315080081D05046FEF7D1FF002847D09DF8200000281A
S315080081E002BF7078000902283FD12868017BB2785F
S315080081F0022902D1500709D437E0120606D4052908
S315080082001EBF4088BDF80A1088422ED13878DFF89C
S315080082109056DFF89066FF2813D0787980450BD101
S3150800822097F9020096F9001088420ADB1DD1787882
S315080082302978884205D318E0A8EB0000C0B2812847
S3150800824013DAFEF7E2FF3C70204605F0E3FB2878D8
S3150800825078703078B87003980F28B4BF401C0F2088
S31508008260F87087F804A087F805800DB0BDE8F08F90
S31508008270DFF834562868407B70470000BC7B002036
S315080082802DE9FF410546DFF8E04501200E46174671
S31508008290A07404F0CDFE002813D1A846B8F1010F4A
S315080082A018BF002D0ED1009733462622B5A1FFF739
S315080082B087FA03F057F939463046FCF73DF803F0DC
S315080082C057F9A4E0FEF776FD28B13A463146284626
S315080082D007F0D3FD9BE0FFF7CBFF23280DD1FEF770
S315080082E0A7FC0446FEF7A8FC214602F071FC022012
S315080082F0FEF7AAFC0BF0A2F989E0002FFCD1212891
S315080083001CBF0428532802D100F05AFB7FE0FEF771
S315080083102CFD00285BD02678FF2E05D1607C00282E
S315080083200CBFAB20942066E02868007BC01E03289B
S3150800833089412079C90FFEF71FFF08B998205AE02E
S3150800834002F09AFA052130460DF02DF8296888734F
S3150800835003F0C7F8207C68BB2868007B052829D06D
S3150800836000F00FFA0746092130460DF001F880465D
S315080083700B2130460CF0FCFF3A4641460DF0D8FA80
S31508008380E0B99420FEF70BFF022003F0E6F829680F
S31508008390DFF8D0044A7B012A07D0312A18BF332ACE
S315080083A00ED1097B091F02290AD2C82102F039FF1A
S315080083B003200AE0FFF71BFA0028E2D194201AE00E
S315080083C04FF4167102F02DFF0020E0741FE02868B4
S315080083D0407B132815D100F017F9BDF80000FEF709
S315080083E088F800F030F92868017BC91E032905D2F0
S315080083F0332141739620FEF789FF08E0FEF765FFF3
S3150800840005E0B8F1020F04BF304606F086FE4FF4C9
S31508008410006008F0D5FD10B907F07EFC08B10DF034
S31508008420F1FDBDE8FF811FB5044600208DF8000068
S31508008430FFF758FB007840F020008DF80100FEF7A2
S31508008440B9FC18B1204607F023FD3AE00DF1030008
S3150800845000F08CF90322FF210DF10B00FDF791F9CD
S315080084600AF01FF88DF80E00DFF84014DFF818043C
S31508008470DFF83C240078DFF83C34097812781B785A
S31508008480FE28A8BF0020091A9B1A9042B4BF101AEA
S315080084900020DFF8E8231278DBB2C0B2D200C01899
S315080084A0C9B242F004028842B8BF42F080028DF891
S315080084B0022000A90F22204605F0C3FB401E80417A
S315080084C0C00F04B010BD38B5DFF8DC530446286881
S315080084D0017BA14203D00473204603F097F824B128
S315080084E02868007B001F022805D203F00CF8FF2835
S315080084F008BF012000D00020BDE8324002F0FBB9D9
S3150800850038B50D460446E87A0B38102801D38A2078
S3150800851032BD95F90A00FEF734FC08B18B2032BD4E
S315080085208148E97A026891730068A97AC17320467E
S31508008530FDF7D7FF4FF6FE7084420CBF4FF6FF706B
S315080085402889FDF7D6FF2889C749C880002032BD8B
S3150800855038B50C461546FDF7C4FF0BF051FD294604
S31508008560204600F019F9C0480178FF2918BFC078DD
S3150800857005D1FFF7BAFA01280CBF00200120BF4930
S31508008580087031BD424242007FB504460D4600F0F0
S315080085903BF8654E94B1C84A0021284609F097FF72
S315080085A0306801788DF804100822007B8DF80500E4
S315080085B0214602A8FDF7A2F808F094FA3068817BF4
S315080085C08DF80310C07B8DF80200FDF78EFFADF81D
S315080085D00000FDF782FFADF8060000F017F87FBD32
S315080085E01FB5044600F010F81CB100208DF80500F0
S315080085F007E0FDF772FFADF80600FDF776FFADF868
S31508008600000000F003F81FBD00A835E0102307227C
S3150800861000A900200DF031BF00B58BB0FFF7F4FFBD
S31508008620BDF80000ADF8180004A99DF803008DF800
S315080086301B009DF802008DF81A00BDF80600FFF72A
S315080086405FFF0BB000BD1FB5012000F0B1F804466E
S3150800865008F053FAFFF7D8FF1CB900224FF6FF714E
S3150800866003E0FFF73FFA4188021DBDF80600FFF751
S315080086706FFF0DF06CFF1FBD014610230722012076
S315080086800DF0FBBE38B5082002F068FF044602F07C
S315080086906EFF254D894829680078887302F065FFC2
S315080086A0A04208BF02F0F3FE00210020FFF76CFF8E
S315080086B09B2300F00EF89B2002F0ABFF28680021F0
S315080086C0A0F84410A0F84610BDE8314002F050BFAB
S315080086D0237D132265A1032007F0FEBC80B5A0F117
S315080086E00B01102901D38A2002BDFFF7F7F9497B50
S315080086F0022918BF032901D0702002BD6F490870EE
S31508008700082002F02AFF00216D4803F01FF820B167
S31508008710012808BFFFF7B6FF01E0A12002BD00202F
S3150800872002BD000044710020247C0020A07B0020AC
S315080087301FB50446FEF73EFB18B1204607F096FB28
S3150800874012E000A8FFF798FF9DF8050040B106283B
S3150800875006DAFFF7C3F99DF804200978914201D09B
S31508008760932001E02070002004B010BD1FB5044618
S3150800877000A8FFF781FF082202A92046FCF7BEFFE2
S315080087801FBD5048007800B14020474A4E4912683C
S31508008790127B515C08437047434A1368588019B9DD
S315080087A00822181DFCF7EDBF0822181DFCF7A6BF06
S315080087B010B504462B48007AC00784B011D50A23A1
S315080087C00A2200A901200DF058FEBDF808004FF650
S315080087D0FF71884205D00822FF2100A8FEF7ADFAEE
S315080087E008B1002006E024B1BDF8080000A9FFF78B
S315080087F0D3FF012004B010BD70B51A4D0446287A7F
S31508008800C00784B00CD5284E306841884FF6FF72F1
S31508008810914207D100220821001DFEF78EFA08B101
S3150800882000201DE044B1022002F097FE4FF4F0410B
S31508008830284602F0F6FC12E030684188ADF80810C8
S315080088400822011D00A8FCF759FF0A230A22FFF790
S31508008850DFFE02230B221D4900200DF00EFE01202B
S3150800886004B070BDB47B0020207100204242000095
S31508008870647C00208C6F0020D86F0020CE7F0020FB
S31508008880C07B0020C87B0020AB7F0020B86F00208B
S31508008890D07F00206C6F002080710020C87F0020E8
S315080088A0C67F0020C77F0020247C0020F86F0020A8
S315080088B00D7F00200C7F002000F8FF07B57F002001
S315080088C08586000829B9010840160108667C00203B
S315080088D042574242000000000460000080B5DFF8FD
S315080088E0841300200871062002F038FE02F03FFECD
S315080088F0DFF874030068407B042814BF532800F08F
S315080089005FF8BDE8014002F033BE80B517229DA18D
S31508008910032007F0E1FBFEF756FABDE80240002007
S315080089204AE0F8B5DFF8404323685D7B002D18BFA1
S31508008930212D05F00F0607D01D7B012D01D18506D7
S3150800894002D4C84D2F790FB17020F2BD2A70012EBE
S31508008950C64A118004D12120587300F031F829E065
S3150800896081064CBF53210421597321680A7BD21E04
S31508008970032A39BF4A8800F020004FF6FD7200F03E
S31508008980A0000146104600F032F92068407B042812
S3150800899004BF0120FFF724FE062002F0DEFD206852
S315080089A0007BC01E032834BF022008200102281DB0
S315080089B002F037FC0020F2BDFF224FF6FF71B0E748
S315080089C080B506F09EFC07F0ACF906F030F9A84829
S315080089D000780A281CBFBDE801400CF04ABB0620F7
S315080089E002F0BBFDBDE8044001210FF2090002F0C8
S315080089F0ADBE000010B5062002F0B0FD02F0B7FDCE
S31508008A00994C2068417B532906D1032141730120E3
S31508008A100021FEF792FE26E0042918BF212922D15B
S31508008A200120FFF7DDFD4FF6FE70FDF75AFD4FF604
S31508008A30FF70FDF75EFD0020FFF745FDFFF7E5FA3D
S31508008A4003F043F804F0F6FA2068407B212802D1A7
S31508008A50FEF78EFC07E00020FEF7F6F800214FF43B
S31508008A60004008F03CF802F083FDBDE8104002F033
S31508008A7038BD2DE9F8430E468046511CC9B230462A
S31508008A8005F06CF9054630460CF09DFC0646B01C10
S31508008A900CF090FD0746A809DFF8CC9100F0010418
S31508008AA0D9F80000017B032903DB4088804503D001
S31508008AB022E04069C0011FD484B17078000708D548
S31508008AC0304609F030FB08226A49FCF761FE0028A7
S31508008AD002E0FDF702FD874251D107E00329A4BF52
S31508008AE04FF6F870874209DBE80907D001224146AC
S31508008AF005F0A000FFF715FF002C40D1D9F80000BB
S31508008B00007B03283BDA7078C00638D5304609F072
S31508008B1017FB06463146002008F097FA0446FF2C54
S31508008B20554F09D0387808B1A80602D4204600F077
S31508008B302BF8204608F050FC404607F0EEFCFF28CC
S31508008B400DD007F08AFD387848B1A80607D4FDF796
S31508008B50C4FC20B10222314640460BF091FEFDF7D7
S31508008B60BCFC60B902F0FEFC4FF6FF7302223146E8
S31508008B70404601F06EF9BDE8F14302F0F9BCBDE8E4
S31508008B80F1830000420000001CB508F04AFB0446C9
S31508008B9000A908F0A7FB50B1FDF79FFC38B1FEF716
S31508008BA04FF820B1022200A920460BF069FE13BD3A
S31508008BB038B504460D460CF02BFD0146FF2901D1B8
S31508008BC0012032BD284A1268D27E4AB12B4A126861
S31508008BD032F81110490403D508F0FEFB002032BD17
S31508008BE0FFF7D2FF45F040012046BDE8344030B5D6
S31508008BF00446880985B000F0010504208DF80800B0
S31508008C008DF8091045B103A9204608F06BFB08B991
S31508008C10012024E003A800E000200190009502232B
S31508008C2002AA0121204609F04DFA0546FF2D08BF84
S31508008C30182014D04FF6F870844206DB0023002271
S31508008C400221284607F016F803E02146284603F0D5
S31508008C50EBF80446284604F0EBFE84F0010005B064
S31508008C6030BD0000D47B0020247C00204671002003
S31508008C7080710020A07B0020CB7F0020886F002019
S31508008C8038B504460CF09FFB0546204609F039FA2C
S31508008C90411CC9B2204605F061F8697809070AD56A
S31508008CA0284609F040FA0146002008F0CEF9BDE84A
S31508008CB0324008F091BB40065CBFBDE83140FFF783
S31508008CC00DBE31BD81B209B94BF6EF610E4A11806E
S31508008CD0000C08BF4FF6CE20508070470288130458
S31508008CE048BF4A40510001801046704738B5064CC7
S31508008CF062212046FFF7F2FF054641F20B01A01C50
S31508008D00FFF7ECFF684032BD0070002030B504461E
S31508008D1010467F2808BF00204BF23462914283B088
S31508008D201AD108237F2240F6120100A8FFF7EEFFAA
S31508008D3008220FF2C40100A8FCF72AFD30B908235F
S31508008D407F2240F2A27100A8FFF7E0FF082200A9DF
S31508008D502046FCF7D3FC37BD1F4D294300FB031102
S31508008D601A462046FCF7CAFC37BD2DE9F0440C46E6
S31508008D7019490FF2780A41EA0006C007154602D5D6
S31508008D80622100F02FF8E80702D5632100F02AF8DF
S31508008D901248864204D3A819401E1149884202D3B4
S31508008DA0642100F01FF8002706E0B85DFF2802D00E
S31508008DB06B2100F017F87F1CAF42F6D36A082146EC
S31508008DC030460DF013FC28B15046BDE8F044712139
S31508008DD007F07EB8BDE8F084000008080008080817
S31508008DE000100808504607F073B800006D66672D36
S31508008DF0746F6B656E2E6300FFFFFFFFFFFFFFFFBB
S31508008E0062F30F2262F31F42401810F0030308D0E2
S31508008E10C91A1FD3DB0748BF00F8012D28BF20F861
S31508008E20022D130030B414461546103928BF20E920
S31508008E303C00FAD8490728BF20E90C0048BF40F88B
S31508008E40042D890028BF20F8022D48BF00F8012DFF
S31508008E5030BC7047C91818BF00F8012DCB0728BFCA
S31508008E6000F8012D70470000DFF8B415512008609E
S31508008E7070472DE9F0410546FDF758FDDFF8A415C2
S31508008E80B0FBF1F64FF4F070B0FBF6F71E2D3FB2CB
S31508008E9001DBE81B04D5A8B2BDE8F04100F06ABBC7
S31508008EA000F0CCFF80460DF0E5FBDFF87C15DFF817
S31508008EB07C25012048700721DFF8740500F041F889
S31508008EC0E91B09B27143C91C8908491EDFF86455B4
S31508008ED0416000F0BDF8DFF848753C68386820F056
S31508008EE0400038600DF0C8FB3C602E600DF0C8FBF2
S31508008EF00DF0CEFB4046BDE8F04100F0A5BF38B501
S31508008F000546FDF713FDDFF81C15B0FBF1F44FF429
S31508008F10F070B0FBF4F02D1A1E2D04DA92210FF230
S31508008F20585006F0D5FFDFF80805DFF800250721B9
S31508008F3000F007F805FB04F1C91C8908491E4160C1
S31508008F4031BD01600021416081604FF00071116000
S31508008F507047DFF8D42401215170D0E7DFF8D80430
S31508008F60006800B970472DE9F041DFF8D054DFF802
S31508008F70D06400242C6034604FF4A040706041F245
S31508008F809A084046FFF775FF6F68FDF7D7FC0001A2
S31508008F9042F21071B0FBF1F000F5C870C01B00B2C8
S31508008FA04FF4487190FBF1F000B20828A8BF0720DB
S31508008FB004DA10F1080FB8BF6FF0070030604046BA
S31508008FC0FFF757FF08274046FFF753FF686804195D
S31508008FD07F1EF8D1FDF7B2FC211D4001C908B0FB80
S31508008FE0F1F080B27060BDE8F081DFF84C040068EB
S31508008FF000B9704738B5DFF84C5401206FF00F04FC
S31508009000A8602C608020FFF734FFE868FF2802D8A4
S31508009010641C102CF5DB31BD70B5DFF82C04016833
S3150800902041F0010101600121416000F007FF04469B
S31508009030DFF8005400F00CF85120DFF8E41308605C
S315080090402E600DF01DFB2046BDE8704000F0FCBE0A
S315080090502E6828684008400028600DF011BB0020E3
S31508009060704710B5DFF8D003DFF8BC430068012865
S31508009070BCBF032000F01DF80120207000202071DD
S31508009080DFF8C803816901F00301032907D100202D
S31508009090A070042000F083F80120207110BD0F2174
S315080090A00160022181610120E0706420BDE8104062
S315080090B04FE72DE9F041DFF88043DFF86C5322686B
S315080090C040F2DC51012A8846DFF88063DFF88073B6
S315080090D017DA0221B9803160B16901F00301032969
S315080090E05BD02168002903D5B16941F00201B1615D
S315080090F0FFF7B5FF5FEA00081BD1206800284CD5AA
S3150800910049E0B8884FF6FF74A0421DD1D1480188BE
S3150800911002237F22381DFFF7F9FDB888A04204BF55
S315080091200220B880B069800703D4B06940F0020015
S31508009130B0610120A870B88830600FFA88F0FFF790
S3150800914008FF4046BDE8F081B3699B07EDD5AB78CB
S315080091500BB10846F6E7B168B36811F0010103D10F
S315080091600F2809D2401C06E09B0705D53B781BB1A2
S31508009170032801DB2018B880B88839700228BCBFDC
S315080091800220B8803068B9888842D2D1B06900F028
S315080091900300032801D0FFF73FFF0020D2E72DE99F
S315080091A0F0478046AC480178002569B9C078072899
S315080091B018BF09280DD0032818BF112809D013286D
S315080091C01CBF15280B2804D0A448016841F48071F7
S315080091D0016000F033FE81460DF04CFA4046FFF779
S315080091E068FF08B9012515E0924F3C6838684008C1
S315080091F0400038600DF044FA894ED6F800A0306871
S3150800920020F0400030600DF037FAC6F800A03C6048
S315080092100DF036FA0DF03CFA484600F015FE002D22
S31508009220D7D0BDE8F0870220B9E710B580487E4C54
S31508009230002141608160016821F00201016000207F
S3150800924060704FF0007079490860A07838B1002046
S31508009250A0700620FFF703FF00F098F81CDBE07803
S31508009260012814D17E48012101607E490968C90791
S3150800927048BF03200FD40221E170016C41F00101BF
S3150800928001640420784908607849086010BDE078D0
S31508009290042801D10520E07010BD80B562484078E9
S315080092A000281CBFBDE80140FFF7BFBF01F0FFF86B
S315080092B001BD2DE9F84300F069F803DABDE8F24389
S315080092C004206CE7584C207900B35DE000F0B6FD49
S315080092D005460DF0CFF9E078032812D000F096F88D
S315080092E0DFF83C81D8F80090D8F8000020F040005C
S315080092F0C8F800000DF0C0F9C8F8009037600DF006
S31508009300BFF90DF0C5F9284600F09EFDE078032860
S31508009310DCD14F4E4D4DB08828604FF6FF777088E8
S31508009320B8420CD15248018802237F22B01CFFF7AD
S31508009330EDFC7088B84202D16420708001E0708824
S31508009340C8B1FDF7FBFA7188364AB0FBF2F048431C
S315080093502F303021B0FBF1F046494A6D42F0010248
S315080093604A650A68AB68DB07FBD50B689B1A1B03C3
S315080093701B0B8342F6D3FFF74FFE0420E0704FF431
S31508009380C870BDE8F243E4E5BDE8F1832A48006801
S31508009390012870472DE9F843234C2179207881F07C
S315080093A0010108422ED0FFF7F1FF23DA40F2EB3134
S315080093B00FF2C40006F08CFD1CE000F03FFD80466D
S315080093C00DF058F9E07805280FD000F01FF8144D75
S315080093D0D5F80090286820F0400028600DF04CF978
S315080093E0C5F8009037600DF04BF90DF051F940467D
S315080093F000F02AFDE0780528DFD10020A0700520BE
S31508009400FFF7CDFE00202070BDE8F183094E3768CE
S3150800941030684008400030600DF032B900000000A6
S315080094200080004090D00300BF7F002004ED00E0DC
S3150800943010E000E094ED00E0F4B8010810400040A8
S315080094400C000040084000401C400040044000401A
S315080094506471002012B901089607080838400040D0
S3150800946018A000400C40004080E200E000E100E067
S3150800947016B9010838200040636C6F636B732E635E
S315080094800000000010B5794C00200DF060F940F698
S315080094908C2188422068B4BF40F0080020F00800FC
S315080094A0206010BD10B504467148018882B000F0EE
S315080094B05CF89DF800109DF80100FF2902BFFF28FF
S315080094C00420002104B1801C6A4A1368C0B2082827
S315080094D0A8BF072023F4607343EAC0101060082968
S315080094E01068A8BF0721C00841EAC000106062489A
S315080094F0047013BD00B56148018883B000F035F8E3
S31508009500BDF800004FF6FF7188420EBF4FF4E160C8
S315080095100A2190FBF1F0ADF800005748007808B32F
S315080095205348018802237F2201A8FFF7EFFB9DF825
S315080095300500BDF80030FF2808BF0420811CC9B209
S315080095400829A8BF0721C1F12F0202EBD272C0F188
