S01A0000657A73702D7370692D626F6F746C6F616465722E73333747
S315000000000004002079000000850000008500000043
S31500000010A70B090100000000040120570040000062
S315000000200418000017100000E1120000340500005B
S3150000003000000000000000000000000000000000BA
S31500000040000000000000000000000000BC010000ED
S31500000050FFFFFFFF054800680549884205D10548AE
S31500000060016842685FEA010D1047704704500E4070
S315000000700000010000400000FFF7ECFF00F00BF865
S3150000008000F03EF803E000005FEA000D70474FF411
S31500000090017000F0A7B838B54FF20F04414D00F0DB
S315000000A0F4F828B140F2052028806C80012032BD8A
S315000000B03D480068400515D56888A04212D12888B9
S315000000C040F2022188421CBF40F20621884215D028
S315000000D040F2011188421EBFB0F58A7F40F211112D
S315000000E088420BD0314C208A40F6A721884205D1A0
S315000000F02068FFF7C9FF6068804700BF002032BD57
S3150000010038B5294972B60968890A11F001010CBF90
S31500000110274A284A02E0CD2302F8013B264B9A42A1
S31500000120F9D3264A264B274C03E012F8015B03F865
S31500000130015BA342F9D3244A244B002401E002F8D0
S31500000140014B9A42FBD372B6214A136813F1010F91
S315000001501CBF5B1C1360134B5C884FF20F05AC424F
S3150000016040F205220AD11C88944205D031B1210AF9
S31500000170012918BF022901D1224601E000B9002257
S31500000180074802804CF23C30588000F0F2F800F04C
S315000001901DF94FF40170BDE8324000F023B80000AD
S315000001A0080E00200000002004500E400040000011
S315000001B0000000209C00002000040020BC27000056
S315000001C0000400206C0400206C040020160E0020A1
S315000001D080040020890001EB401000F18440026099
S315000001E07047000010B504461A484AF6E851016007
S315000001F0C162016B01F00F01022913D1164A0121D8
S315000002001160806B00F00300012818BF022809D195
S3150000021000221C211148FFF7DDFF114800220021B2
S31500000220FFF7D8FF200A00280E4808BF24024FF225
S315000002300F0104804180BFF35F8FBFF34F8F0A48E1
S315000002400A4A016801F4E06111430160BFF34F8F70
S31500000250FEE7000008300E404040084060300E4087
S3150000026074300E40000000200CED00E00400FA059A
S31500000270344A302313FB00200C30890001EB401078
S3150000028000F1844001210160704738B501212E48F4
S3150000029000F0CFF92D4C0121204600F0CAF90025C7
S315000002A0012302220B21012000F052FC0B21012028
S315000002B0FFF7DEFF0A2000BF401EFCD1C8202449FC
S315000002C0096809B9012501E0401EF8D10023002282
S315000002D00B21012000F03CFC0021204600F0A9F98A
S315000002E0284632BD80B500F075FCBDE8014000F03F
S315000002F087BC0000052800D9704710B5DFE800F07C
S315000003001721030F1C17134C2088411E2180C0B9EA
S31500000310012000F07BFC42F21070208010BD01200D
S3150000032000F072FCBDE81040002000F06FBCBDE894
S315000003301040002000F066BCBDE81040002000F030
S3150000034063BC10BD00A00040404105000025080028
S31500000350AC091442140E002010B5084B1C6890FA24
S31500000360A0F2B2FA82F224EA000091400843186033
S3150000037010BD0349012008607047000000500E4080
S3150000038008500E400078704730B5DBB00446214671
S3150000039036A800F047FC002000904FF40263504A54
S315000003A036A901A800F037FE0FF27C120FF2841076
S315000003B001A900F095FF054600F019FC1DB1214684
S315000003C0284600F0A9FC28465BB030BD80B5FFF793
S315000003D089FF00F0A5FF00F00AFC00F0D1FF002025
S315000003E0FFF788FF07E01A2000F096FD01220021A2
S315000003F0522000F023F800F0FAFB0220FFF77AFF04
S3150000040000A800F08FFF0028F5D19DF800005128C4
S31500000410E9D03449002008700120FFF7B5FF20B964
S315000004200520FFF767FF012000E00420FFF762FFC9
S3150000043040F20120FFF7D6FE002002BDF8B50646C1
S315000004400F461546284C0FF2B8011D22204600F033
S3150000045098FF0A2204F13401201D00F092FF234880
S31500000460018808237F2204F10E0000F0B5FF522E0A
S31500000470A6761BD13520207006220FF2A40104F1C6
S315000004802E0000F07EFF0120E07602231848018846
S315000004907F2204F11C0000F09FFF164801881023FC
S315000004A07F2204F11E0000F097FF02E01D2020705D
S315000004B0E776012D12D12078A0F11B05012001F06D
S315000004C028F80D48FD2101704570EAB204F11A01C1
S315000004D0801C00F056FF094901200870F1BD00009C
S315000004E0E8050020130E0020A8050020B82700000C
S315000004F0B6270000B427000018050020120E0020C1
S315000005000063CC00FFFF0000000000000000FFFFBA
S31500000510FFFFFFFFFFFF7C656D010000000000008C
S315000005200004180057200000ED2600006527000093
S31500000530850300009D0E0000D50E0000890001EB2A
S31500000540401000F1844002607047890001EB4010C2
S3150000055000F184400068704700F1806300F1C060DC
S31500000560196002607047012101FA00F07047DFF858
S31500000570E414CA6B02B1012241F67133CB63D2B2E5
S315000005800B68DFF8D4341818DFF8D03498420B68BB
S3150000059034BF4FF08070002023F04073184308608A
S315000005A00AB10020C863704738B50446002500F03C
S315000005B0EAF8DFF8AC24DFF8AC14944208D0DFF890
S315000005C0A824944206D0DFF8A424944204D006E07E
S315000005D0086802E0486800E0886800F00700012823
S315000005E006D01BD303280DD005D3042806D015E06A
S315000005F001F0C6F804E001F0C7F801E001F0C1F827
S3150000060005460BE0DFF868040068C00103D501F079
S3150000061089F8850802E001F085F84508284632BDCC
S31500000620DFF850144A68D20702D40A680242FCD1A5
S31500000630704770B50C460212002102F00F02012A23
S31500000640DFF83C540CD0022A18D0052A0AD0062A14
S3150000065016D0072A17D0092A18D00A2A1AD070BD30
S31500000660DFF82054C0F3043611B10846FFF7D8FF6F
S31500000670224631462846BDE870405FE71035F1E76F
S3150000068030350121EEE738351021EBE740354FF4E0
S315000006908031E7E7DFF8F053E4E738B5DFF8D81341
S315000006A0DFF8CC430D68DFF8B823DFF8BC1310F48D
S315000006B0781024D0B0F5003F29D0B0F5802F22D095
S315000006C0B0F5002F57D0B0F5202F26D0B0F5402F2B
S315000006D049D0B0F5602F53D0B0F5801F3ED0B0F5AD
S315000006E0901F25D0B0F5A01F2CD0B0F5C01F1DD08F
S315000006F0B0F5D01F24D0B0F5F01F2FD03FE001F0A9
S3150000070020F821680CE001F01CF8E16802E001F035
S3150000071018F8A168C1F3082104E001F012F8616934
S31500000720C1F30421491CB0FBF1F529E0104617E09E
S315000007301046FFF739FF0546206A00F00F0008E073
S3150000074008460DE00846FFF72FFF0546A06A00F0B1
S315000007500300FFF708FFB5FBF0F511E0DFF80C0327
S31500000760FFF722FF09E0DFF8240300F00CF8082861
S3150000077006D0092803D100F0E4FF054600E0002575
S31500000780284632BD0000012100F00F000128DFF8E5
S31500000790002308D0022814D0032816D0052820D01C
S315000007A006282BD02DE0506800F00700022804D060
S315000007B005D3042807D01FD301E0042122E0052138
S315000007C020E010690EE002211CE0506900F00700ED
S315000007D0012811D016D3032801D0F4D308E006214E
S315000007E010E0906900F00700012805D00228EAD041
S315000007F0042808BF0A2105E0032103E01068082148
S3150000080000E00021084670472DE9F0410325032644
S3150000081000F00F000128DFF86C42DFF87882DFF87D
S31500000820447206D0022832D003282FD005282BD0B8
S315000008303AE0022906D0032917D0042917D0052942
S3150000084020D031E00425002601220121304600F0A7
S31500000850ACF800F074FFFFF78AFE656700F098FFBA
S3150000086000F060FFBDE8F04181E60126ECE70226D4
S31500000870022500F078FF4045E6D3206840F480303A
S315000008802060E1E70125DFE7083700E03F1D012989
S3150000089008D002290AD003290FD0062914D00A2924
S315000008A028D001E000253D60BDE8F081012201214C
S315000008B0002000F07AF80225F5E70121012208461A
S315000008C000F073F80125EEE701220021DFF8B00100
S315000008D0FFF734FE00F026FF4045E4D30122102145
S315000008E02046FFF72BFE01221821DFF88401FFF7CF
S315000008F025FED8E70425D6E710B500F053F8002208
S315000009000021022000F051F820780028E07814BF7A
S315000009104FF48072002208B142F08042607808B13C
S3150000092042F08052A07808B142F000525B495A4822
S31500000930FFF712FE227B5A480721FFF70DFE217AA8
S31500000940A088090741EAC020A17A084340F40002C2
S3150000095054495548FFF700FE607AE288C11C102909
S3150000096028BF0F21C00140EAC220E27A104340EAC4
S3150000097001726FF07F614D48FFF7EEFDA17B607B52
S31500000980090341EA0040E17B40EA0120217C40EA7C
S315000009900110617CBDE8104041EA00024449454827
S315000009A0FFF7DABD04461120EDE62DE9F843050010
S315000009B0914638D0022D27D030D3042D29D042D2EB
S315000009C00120022201270024334EDFF8B08089B3CC
S315000009D0F06300F03AF80028FBD0B9F1000F2ED0F2
S315000009E0394600F033F80028FAD0022D04BF3068EB
S315000009F010F0300F23D1172100F028F80028FAD084
S31500000A00162100F023F81AE0042008220327022406
S31500000A10DAE71020202205270424D5E7402080228B
S31500000A2007270624D0E74FF480704FF40072092799
S31500000A300824C9E7F26300F008F80028FBD1BDE8F6
S31500000A40F14300F0A5BEBDE8F18321464046FFF71D
S31500000A507CBD000004000E407F4573FE809FD500DC
S31500000A600200180080400E4003001A0005001E0018
S31500000A7000410E4040410E400004002090400E40D0
S31500000A80B0400E4000400E4050410E4006000C00A3
S31500000A9070400E400148E80124400E4000010070FD
S31500000AA028400E407FF8EFFF2C400E4030400E40AD
S31500000AB0FFFF0F0034400E40890001EB401000F1AB
S31500000AC084400260704700F1806300F1C0601960E5
S31500000AD00260704710B500F00CF8BDE81040002227
S31500000AE005E010B500F005F8BDE8104001220C3015
S31500000AF0E2E7324B302414FB0030704770B50C46E9
S31500000B000F21082C15461E4605D2A30000FA03F253
S31500000B1099402B4806E0A4F10802930000FA03F27C
S31500000B2099402848FFF7CFFF27482A462146FFF776
S31500000B30C3FF264D324621462846FFF7BDFF01205A
S31500000B40A04028612146049A2148BDE87040B3E7D9
S31500000B50F8B5160004460D461F4605D017B1FFF737
S31500000B60C0FF01E0FFF7B6FF30210F221348082D22
S31500000B7011FB040009D2AB0041689A4021EA020247
S31500000B8006FA03F1114341600AE0A5F108039B0050
S31500000B9081689A4021EA020206FA03F11143816054
S31500000BA056B9002F294620461CBFBDE8F440FFF782
S31500000BB098BFBDE8F4408DE7F1BD000000A00040FD
S31500000BC000A4004004A4004010A4004014A4004067
S31500000BD028A4004080B501210648FFF72AFD04211C
S31500000BE00720FFF7B9FB04490448086001BD00F07F
S31500000BF0DDBD0000000508000020054001080300D7
S31500000C0000F0FFBD00F01EBE00F012BE00F02EBECA
S31500000C1041627047002914BF0121022141607047DB
S31500000C20C161704770B588B0017001224270012918
S31500000C3082700CBF8021402181800021C18001810A
S31500000C400121C348FFF7F5FCC2480121FFF7F1FC7B
S31500000C5004A80FF21831102200F02EFE00208DF8A5
S31500000C60100004A9BC4C204600F051FE00A80FF26B
S31500000C700C31102200F020FE02208DF80300002027
S31500000C808DF8000001208DF80C0000A9B34D284610
S31500000C9000F03DFE4FF6FF7631462046FFF7C0FFD7
S31500000CA031462846FFF7BCFF08B070BD2DE9F0417C
S31500000CB004460D46DFF8A0821646012100F02AF808
S31500000CC000214046FFF7A4FFA44F00213846FFF756
S31500000CD09FFFFFF78CFF012C0FD135B900F034FBD5
S31500000CE000F0010080F0010002E0284600F01AFB47
S31500000CF028B900F00EF8002009E0012007E0786A24
S31500000D00B042E6D3002EE4D000F003F81620BDE88A
S31500000D10F081002140467DE780B50A46014618204D
S31500000D20FFF78CFB012000F0F4FBBDE80140F6E084
S31500000D3038B504460020208148F65812207800A9CC
S31500000D40FFF7B4FF08B11C2032BD9DF80000032850
S31500000D5018BF182801D1182032BD042801D1172048
S31500000D6032BD012801D0212032BD002500E06D1CD6
S31500000D70A188EDB2091D8D420BDA281900F10A018E
S31500000D80207840F24A22FFF791FF0028EFD0262074
S31500000D9032BD0025002006E00146EDB22819007B91
S31500000DA000F0FCFD6D1CA188EAB28A42F4D3A27A57
S31500000DB0E37A53FA82F3FF2B01D0222032BD0B19BE
S31500000DC01D7BB5EB102F01D0232032BD5B7BC0B25B
S31500000DD0834201D0242032BDA078824207D0401E33
S31500000DE0C0B2824201D1272032BD252032BD881CE7
S31500000DF020810220E080002032BD38B504466078AC
S31500000E00012804D00ED3032846D003D30AE00220DB
S31500000E10607010E000F0B4FA00F066F8A078401CAC
S31500000E20A07008E0182032BDA0782278411EC9B211
S31500000E300620FFF703FB2046FFF77AFF05462078DA
S31500000E40012804BF284600F067F80DB100F098FAB3
S31500000E50272DE9D0A8060BD52278A1781520FFF713
S31500000E60EDFA002DE7D10320FFF744FA002032BD4A
S31500000E70680603D4182D18BF1C2D07D121782846E3
S31500000E80FFF74AFF04206070284632BD172DE8D1CF
S31500000E9000F02AF803206070172032BDF8B504462A
S31500000EA00D461646002706E0E088411C0019E18041
S31500000EB0807A78557F1CBFB2B74209D2E088218973
S31500000EC08842F1D32046FFF798FF0028ECD0F2BD08
S31500000ED00020F2BD10B50446FFF78FFF00F004F8BE
S31500000EE000F01DF8172010BD2278A1780620FFF724
S31500000EF0A5BA80B51A49FD220A70887001224A7087
S31500000F00012000E0002000F0DCFB00F02EFB0028B2
S31500000F10F8D11449087001BD00B91920E9E710B5E8
S31500000F2082B0114C207860B1002000F0CAFB002886
S31500000F30F8D0002000F0EDFA012000F0C2FB0020FE
S31500000F40207040F24A2200A90120FFF7AFFE13BD30
S31500000F5000020400001204000080014000840140E9
S31500000F6018050020110E0020120E002001000000BE
S31500000F70000000000000000000000000010000006A
S31500000F80000000000000000000000000418AB1F5EA
S31500000F90847F09DDCD49096890F868000902B0EB45
S31500000FA0116F01D00020704701207047F8B5044644
S31500000FB00D4616461F4607E03046A047294600F074
S31500000FC0FFFC05467F1E761CBFB2002FF4D12846D3
S31500000FD0F2BD38B50C46154605E0014614F8010B7E
S31500000FE000F0EEFC6D1EADB2002DF6D132BDF8B5A7
S31500000FF004460D461F461646286823683A4631467B
S315000010009847040005D1E8683A463146FFF7E1FF04
S31500001010E8602046F2BD10B5029C847203814260EE
S3150000102001604FF0FF31C1600021017410BD2DE950
S31500001030F84F8846044698F81BB0D068A449BBF11F
S31500001040800FA8BF4FF0800B88421E464FD1002E5E
S315000010504BD0B06800904FF0FF3A002508EB4509E9
S3150000106099F848700BE0FFF7C2FD00984FF4006353
S31500001070FA025146FFF79AFF8246781CC7B209F179
S3150000108048004078B84204DA681CC5B2062D02DA78
S31500001090E4E7FF2FE7D1D8F844006FEA0A01884257
S315000010A025D1A068736800BA4FEA5B0241469847AB
S315000010B0C8B9E06805BAA06802BAB0685B464FF0E6
S315000010C0FF31FFF773FFC04385420CD140F6A720DE
S315000010D0A8F810000122A068736800BA08F1100190
S315000010E01030984708B1422002E0172000E0432064
S315000010F0BDE8F28F2DE9F04F0D4683B08046D5F856
S3150000110004A02889ADF80400914605F1140606F1FD
S315000011101007042352464046FFF769FF002874D1A2
S31500001120BAF8000040BA80B20090BAF8020040BA9D
S3150000113084B2E00748BF462067D4B4F5026FC8BF43
S315000011404E2062DC002C5FD00098DFF888B148B1F1
S315000011504FF60441401A00F0A180FF3857D0FE3800
S3150000116055D0B1E0287C08B151204EE08D2C28BF27
S315000011704F204AD22346321D00F0AFF8002844D152
S31500001180FA7E802AA8BF802202F10C00844201BFA9
S31500001190B08840BA00F47F40B0F5007F30D1F088C7
S315000011A040BA4EF25031884202BF388A40F6A72133
S315000011B0884225D1788A00F47F40B0F5807F01BF50
S315000011C0B06800BADBF81C10884219D14FF6FF70E0
S315000011D0388206F110014FF0FF30FFF7FAFEF16892
S315000011E009BAC943884204BF387E042808D1787EEC
S315000011F0182818BF062803D13846FFF7C7FE08B9D6
S31500001200452002E0012028740020BDE8FE8F287CDE
S31500001210002845D0042300F05FF80028F5D1DAF85D
S31500001220000006BA201F84B2DBF81C00864238BFD5
S315000012304820EAD3796DA019884228BF4920E4D214
S3150000124000984FF6035188420ED1B9F1000F0BD02A
S31500001250D9F8002031460220904728B14A20D4E729
S31500001260E01B84B216FA87F6002CCDD0BDF8040038
S315000012708442B4BF274607463B4600F02DF80028B7
S31500001280C3D1B9F1000FEBD0D9F804307A08514632
S31500001290304698470028E3D04B20B6E7287C08B9AB
S315000012A04120B2E7042C18BF4C20AED16A68042353
S315000012B000F013F80028A8D14B462A463946304696
S315000012C003B0BDE8F04FB2E644209EE7FC81E00F94
S315000012D0E320BBDE0000000052462946404686E673
S315000012E070B50D4604462889C107164601D48028E4
S315000012F003DA4F2070BDA87A78B9324629462046CF
S31500001300FFF7F8FE0028F6D0172807D1286861688D
S315000013108847172802D1002070BD502070BD0000FC
S3150000132000F0E2B810B5044600F00EF850B11248CD
S31500001330124982785118897821708178491C817008
S31500001340002010BD012010BD10B50B4C207888B9C7
S3150000135000F0B7F978B1607840B1002000F0D9F814
S31500001360012000F0AEF90020607010BD0120207051
S315000013700020A070012010BD110E0020880400205E
S315000013807047814212D210185118401E491E92B25F
S31500001390002A1EBF11F8013900F80139521EF6D194
S315000013A0704711F8013B00F8013B521E92B2002A29
S315000013B0F7D1704710B500E0521E92B222B100F08C
S315000013C005F8F9D0181B10BD002010BD10F8013B20
S315000013D011F8014BA342704730B504467F2A08BF77
S315000013E000224BF23460814283B041F2F01519D1EC
S315000013F008237F2241F2020100A8FFF7EDFF082231
S315000014000FF28C0100A8FFF7D5FF28B908237F2229
S31500001410294600A8FFF7E0FF082200A92046FFF7AB
S31500001420B0FF37BDA94211D1184801684068217044
S315000014300A0A62700A0CA270090EE1702071010A94
S315000014406171010CA171000EE07137BD12FB03F052
S315000014500D052D0D01F47042B2F5805F03D11A46D9
S3150000146045F07E610CE0B2F5005F1CBF01F47041EF
S31500001470B1F5405F08D145F07C611A4641F401118F
S3150000148041182046FFF77DFF37BD0000F081E00FD1
S31500001490FFFFFFFFFFFFFFFF890001EB401000F198
S315000014A08440026070479A4A302313FB00201C30A8
S315000014B0890001EB401000F184400068704780B558
S315000014C009210220FFF7EFFF00B10120C0B202BDE3
S315000014D0012200E000220A218E48DDE78E48002125
S315000014E04171817100F08DBA80B58B480021817001
S315000014F00121C1700171002101700921417000F0C4
S31500001500E8FAFFF7EBFF00F00DFBBDE8014000F045
S3150000151024BD80B558B10B210320FFF7C4FF20B1CD
S31500001520FFF7CDFF08B1FFF7D5FF002000E001204F
S315000015307949C87001BD78490A7922B90870012233
S3150000154000200A714870704710B5044600F035FD5A
S3150000155072484078A72807BF714804700320FFF738
S31500001560EAFFBDE810400120ABE06B488079704788
S3150000157070B5694C0646207920B1FFF7A0FF08B187
S31500001580FFF7A8FFA078B8B1FFF7A4FF01E0FFF7C7
S315000015902EFB0B210320FFF786FF0028F7D0FFF76D
S315000015A097FF0020A070E07820B9322000F0BEFD41
S315000015B0FFF790FF002070BD6079594D064226D096
S315000015C0207930B100202071022221462846FFF7FB
S315000015D0D8FEE07808B1FFF77BFF2878052803DA04
S315000015E0A720A87003200DE0FE2818BFFD2806D10D
S315000015F069784919A72088706878C01C02E0A7207E
S3150000160068700220A071A07900F0E4FCD0E7A07910
S315000016100028CFD100F0E4FC30B9FFF750FF18B135
S3150000162000F0E6FC00F0CDFC00F0EFFC0028C1D095
S3150000163001206071FFF74CFF384E00F0F3FC00BB51
S3150000164000F0F2FC0028B5D030780A2806D00B2826
S3150000165008D0FD2818BFFE2806D0ABE78220FFF78A
S3150000166073FFA7E7C120FAE77078862805DBFFF746
S3150000167035FF0120FFF75FFF9CE700F0DFFC002845
S3150000168098D000F099FC00F098FC00F099FC2079C5
S3150000169018B1012000F015F88CE770788019807871
S315000016A0A72803D00320FFF746FFF2E73078FE288D
S315000016B003D10420FFF73FFFEBE7FD202870012050
S315000016C070BD38B5144D0446A87900F0C8FC18B1B1
S315000016D0FFF7FEFE0120687100F0CDFC08B1012085
S315000016E0A87000F0D1FC70B1FFF7F2FEA87900F007
S315000016F004FD10B90220FFF71EFFFFF7EFFEE878A2
S3150000170008B9FFF7E7FE2046BDE8324030E70000A3
S3150000171000A000409CA000400A0E00208804002083
S315000017201805002080B500F00CF81049104A096829
S31500001730C1F30821491CB0FBF1F0106002BD0D4851
S3150000174070470D4A0D49126802F00702022A4FF44B
S31500001750004004D005D3042A04D003D301E008686E
S3150000176070474868704705480068704708410E4052
S315000017708404002000F0490294400E400404002036
S3150000178003E04FF47A70704700BF4FF40040704793
S31500001790DFF81410DFF80C000A684260496801801F
S315000017A0704700007804002090400E40064801680B
S315000017B0C90707D58168890704D48168C907FCD49D
S315000017C0012141607047000000200540890001EBBF
S315000017D0401000F184400260704710B500F00CF82C
S315000017E0BDE81040002205E010B500F005F8BDE8A0
S315000017F0104001220C30E9E7284B302414FB00305E
S31500001800704780B501212648FEF713FF25480121C0
S31500001810FEF70FFF0023042204210520FFF798F9A5
S315000018200521002304220846FFF792F9002002BD95
S3150000183080B5022805D200F011F8FFF7CEFF002090
S3150000184002BD08E080B5022805D200F007F8FFF7D0
S31500001850CBFF002002BD4FF0FF3002BD0FF2480261
S3150000186002EBC00112F830004968704710B5022833
S3150000187010D20FF23401094A11F8303001EBC000E2
S31500001880302414FB03224068012303FA00F0906120
S31500001890002010BD4FF0FF3010BD000000A000403A
S315000018A04041050000250800050000000400000076
S315000018B00500000005000000103A07D330B4B1E877
S315000018C03810103AA0E83810F9D230BC530724BFBC
S315000018D0B1E80810A0E8081044BF51F8043B40F8EE
S315000018E0043BD20724BF31F8022B20F8022B44BF59
S315000018F00B7803707047083A07D3B1E80810083A26
S3150000190040F8043B40F804CBF7D25307E4E72DE94F
S31500001910F0430A780AB902234360002343624B78F6
S3150000192003B140234C7A04B180248D7A05B1202579
S31500001930CE7A06B1102691F8049091F805C091F878
S315000019400CE091F80280CF78B9F1000F18BF4FF480
S315000019500059BCF1000F18BF4FF0805CBEF1000FBC
S3150000196018BF4FF0080E3F0447EA08688F7948EA27
S315000019708728CF79097A48EA07273943194321434B
S315000019802943314349EA01014CEA01014EEA0101CA
S3150000199001600AB101214160BDE8F0830A0242EA12
S315000019A011214840C0F30311484080EA003041014C
S315000019B00206C9B2D20E41EA0221484080B27047FF
S315000019C00A0A4840C0B208214308C00746BF034878
S315000019D058401846491EF7D1504070472083B8ED4D
S315000019E000F1C0600160704700F1806001607047DF
S315000019F0006808407047DFF8A4160A6810430860BC
S31500001A00704770B5DFF898460FF2F461204600F093
S31500001A10B4FB0020A067DFF88C56A06F6979DFF869
S31500001A2088660843A067A06F297940EA0120A0676D
S31500001A30A06FA97940EA0160A067A06FE97940EA42
S31500001A400140A067DFF86416606F40F00100606730
S31500001A50606F40F002006067606F40F004006067EE
S31500001A60606F40F008006067DFF844067067DFF8D3
S31500001A7044060860DFF84016E06C40F00400E064BD
S31500001A804FF0FF30B0640020306070614FF480701A
S31500001A9008600021204600F069FB05F12C0205F1E3
S31500001AA01C01002000F012FC01213046FFF79CFFCC
S31500001AB00521204600F05AFBDFF80006006838B121
S31500001AC00120FFF798FF3046BDE87040012187E707
S31500001AD070BD00B585B000A80FF23C611422FFF777
S31500001AE0EBFE00A8FEF708FF04211120FEF78CFE8E
S31500001AF00121DFF8CC05FEF79CFDDFF8C8050121C2
S31500001B00FEF797FD0121DFF8C005FEF792FDDFF82D
S31500001B10BC0500F0B7FBDFF8B8154FF4807008601D
S31500001B2005B000BDF8B5DFF87C150A79FF25002A57
S31500001B3018BF012A07D0022A18BF032A03D0042A95
S31500001B4018BF052A01D100203AE0062A18BF072A45
S31500001B5004D0082A1CBF092A0A2A01D101202FE035
S31500001B600B2A18BF0C2A07D00D2A18BF0E2A03D03D
S31500001B700F2A18BF102A01D1022021E0112A18BF0E
S31500001B80122A08D0132A18BF142A04D0152A1CBFFB
S31500001B90162A172A01D1032012E0182A18BF192A7B
S31500001BA00BD01A2A18BF1B2A07D01C2A18BF1D2AB9
S31500001BB003D01E2A18BF1F2A01D1052000E0FF20EE
S31500001BC04F79002F18BF012F40D0022F1CBF032FC3
S31500001BD0042F3BD0052F18BF062F04D0072F1CBF9C
S31500001BE0082F092F01D1012433E00A2F18BF0B2F2C
S31500001BF007D00C2F18BF0D2F03D00E2F18BF0F2F95
S31500001C0001D1022425E0102F18BF112F08D0122F62
S31500001C1018BF132F04D0142F1CBF152F162F01D158
S31500001C20032416E0172F18BF182F0BD0192F18BF33
S31500001C301A2F07D01B2F18BF1C2F03D01D2F18BF1C
S31500001C401E2F01D1052404E01F2F01D1002400E03E
S31500001C50FF248B79002B18BF012B41D0022B18BF14
S31500001C60032B3DD0042B18BF052B04D0062B1CBF1D
S31500001C70072B082B01D1012635E0092B18BF0A2BAB
S31500001C8007D00B2B18BF0C2B03D00D2B18BF0E2B18
S31500001C9001D1022627E00F2B18BF102B08D0112BDD
S31500001CA018BF122B04D0132B1CBF142B152B01D1DC
S31500001CB0032618E0162B18BF172B0BD0182B18BFAE
S31500001CC0192B07D01A2B18BF1B2B03D01C2B18BFA0
S31500001CD01D2B01D1052606E01E2B18BF1F2B01D197
S31500001CE0002600E0FF26002A3FD0012A41D0022A22
S31500001CF043D0032A45D0042A47D0052A49D0062ACC
S31500001D001FD0072A21D0082A23D0092A25D00A2A3B
S31500001D1027D00B2A41D00C2A43D00D2A08BF082110
S31500001D2042D00E2A05D00F2A07D0102A09D0112A30
S31500001D3001D1092138E0122A01D10A2134E0132AFF
S31500001D4001D10B2130E0142A01D10C212CE0152AF7
S31500001D5001D10D2128E0162A01D10E2124E0172AEF
S31500001D6001D10F2120E0182A01D100211CE0192AF7
S31500001D7001D1012118E01A2A01D1022114E01B2AFF
S31500001D8001D1032110E01C2A01D104210CE01D2AF7
S31500001D9001D1052108E01E2A01D1062104E01F2AEF
S31500001DA001D1072100E0FF21002F3FD0012F41D0B4
S31500001DB0022F43D0032F45D0042F47D0052F1FD025
S31500001DC0062F21D0072F23D0082F25D0092F27D063
S31500001DD00A2F3FD00B2F41D00C2F08BF082744D025
S31500001DE00D2F05D00E2F07D00F2F09D0102F01D1A0
S31500001DF009273AE0112F01D10A2736E0122F01D127
S31500001E000B2732E0132F01D10C272EE0142F01D11E
S31500001E100D272AE0152F01D10E2726E0162F01D116
S31500001E200F2722E0172F1DD0182F01D101271CE004
S31500001E30192F01D1022718E01A2F01D1032714E028
S31500001E401B2F01D1042710E01C2F01D105270CE020
S31500001E501D2F01D1062708E01E2F01D1072704E018
S31500001E601F2F01D1002700E0FF27002B3FD0012BB9
S31500001E7041D0022B43D0032B45D0042B1FD0052B7A
S31500001E8021D0062B23D0072B25D0082B27D0092BB2
S31500001E903DD00A2B3FD00B2B08BF082544D00C2B76
S31500001EA005D00D2B07D00E2B09D00F2B01D10925FC
S31500001EB03AE0102B01D10A2536E0112B01D10B2572
S31500001EC032E0122B01D10C252EE0132B01D10D256A
S31500001ED02AE0142B01D10E2526E0152B01D10F2562
S31500001EE022E0162B1BD0172B1DD0182B01D1022553
S31500001EF01AE0192B01D1032516E01A2B01D104256E
S31500001F0012E01B2B01D105250EE01C2B01D1062565
S31500001F100AE01D2B01D1072506E01E2B01D1002565
S31500001F2002E01F2B00D1012501230222FEF710FE3D
S31500001F300023042239462046FEF70AFE0123022228
S31500001F4029463046FEF704FE01B0BDE8F040012305
S31500001F50032209210220FEF7FBBD10B55D4C82B0BD
S31500001F60002060600090012300220B210320FEF771
S31500001F70C5FD032201230B211046FEF7E9FD0020D3
S31500001F80206000900346012209210220FEF7B6FDDB
S31500001F90012304220A210320FEF7DAFD4E48002120
S31500001FA0016040210160016841F48001016001681F
S31500001FB041F00101016013BD704701213A4813E564
S31500001FC0704780B50120FFF716FDBDE804400121EA
S31500001FD0354805E5414901F11002012000F076B9C6
S31500001FE080B501213048FFF703FD00B1012002BD95
S31500001FF03B4881B001688DF8001001688DF800102B
S3150000200000688DF8000001B0704780B500F023F835
S315000020102749814204D301213248FFF7E9FC00B188
S31500002020012002BD0020704780B500F014F82E494B
S31500002030884201D3012002BD002002BD80B500F018
S315000020400AF81B494A788918C91C884201D301201D
S3150000205002BD002002BD4FF0FF312448C8E410B590
S315000020600446FFF7F8FF1249814202D20CB901205B
S3150000207010BD002010BD1E480168090502D54FF4A9
S31500002080006137E00020704719480168890502D5CC
S315000020904FF400712EE00020704700006C200E40C7
S315000020A0000401400C04002020200E40C4200E40F5
S315000020B0880400201805002080E200E0A40F1442E6
S315000020C04041050000250800003204006804002095
S315000020D080E100E010A4004090A0004048040020E9
S315000020E01C04014028200E408A04002094200E4043
S315000020F01CA4004081600120704701207047000049
S315000021000500000000000000E803000005000100D3
S31500002110000000000000000000000000A0004201D6
S315000021200A0A600706020A060607000000F028B938
S3150000213000F1806300F1C06019600260704738B535
S3150000214004460800154604BF3B48FEF7A6FA010EF2
S3150000215000026A00002300F057F9394901EA00023B
S3150000216004F11400BDE838403449E1E7CA4302F0FF
S3150000217005025200C260C160704738B504460D467C
S3150000218000F039F8A87B08B14FF480602168B5F9F2
S315000021901020104340F0010008432060287D08B15C
S315000021A04FF00050216808432060A87C18B1E87CF5
S315000021B040F08000A065287B40F480506060AA68EB
S315000021C069682046FFF7BBFF687B08B11020E06016
S315000021D0A87DE97D0007090500F0E04001F4E00173
S315000021E008432066687D18B1206840F4803020607E
S315000021F02878E06031BD40F6AA61C1600021016027
S3150000220041F205014160002181604161C1640E49CE
S315000022108164002141678167C1670A49884202D10A
S315000022200A4A00211160002181650949884202D1CC
S31500002230084900200860704740410500F8FF7F000C
S3150000224000FF7F0000000140F9FF0100500001403F
S31500002250000401405C04014000F1806001607047A9
S3150000226072B63E48016811F1010F1CBF491C01609E
S31500002270006870473949086818B1401E086000D1E7
S3150000228062B6704710B5044601213548FEF7D1F90C
S31500002290627821783348120242EA0161A27811433A
S315000022A0016000210162C16241634FF00041C166D5
S315000022B04FF0FF3181664FF480702B492B4A08603E
S315000022C0E178490111702A49086010BD70B50C46C5
S315000022D0012101FA00F53021484326492368264E9C
S315000022E043504018617B8160E37AA17A1B0543EA7B
S315000022F00141237B41EA4351416091088900816194
S315000023003564FFF7ADFF706C28437064207A10B116
S31500002310F0682843F060607A10B1706828437060F6
S3150000232010480168227922B1D243120262F47F4238
S31500002330114062790AB141EA0221A27902B19143C0
S31500002340E27902B11143016030462946FFF784FF66
S315000023500A4875610560BDE870408BE7800400207F
S315000023600045080000200E4080E200E008E400E09E
S3150000237000E100E080200E4028200E4020200E467E
S3150000238038B500F01BF804460D4605E04FF6E85058
S3150000239000F020F800F00CF800218D424FF6E950CD
S315000023A0F4D88442F2D2A0B200F014F8002032BD74
S315000023B013484FF0FF3124184D4170470D490E4A1E
S315000023C049680023E0FB0123104619460B4A002307
S315000023D000F01AB881B058B10A490A6892B20B687F
S315000023E0ADF80030BDF800309B1A9BB28342F6D39D
S315000023F001B070476C04002020A1070040420F0086
S315000024001802FFFF248001401B4213D1094236D136
S315000024102AB18446B0FBF2F002FB10C2704700F00E
S315000024206BB8FCD30022002370470B00020000218A
S3150000243000207047904271EB030CF6D370B5B1FAE9
S3150000244081F4B3FA83F52C1BA340C4F1200532FABC
S3150000245005F63343A2405FF00046E64002E05B0823
S315000024605FEA3202841A71EB030524BF204629462F
S315000024707641F4D302000B003000002170BD012A22
S31500002480CFD970B5140C20D0B1FA81F4B2FA82F526
S31500002490C4F120046419B4F12006D6D3B2405FF02B
S315000024A00044F440002502E052085FEA3303C61AEE
S315000024B071EB020E24BF3046714664416D41F3D381
S315000024C002000B002000290070BD0C46B1FBF2F1A2
S315000024D002FB11452D0445EA1045B5FBF2F402FB5B
S315000024E0145580B240EA0545B5FBF2F002FB1052E6
S315000024F040EA044070BD000070470000774841F68E
S31500002500713181630168490849000160FFF70AB922
S3150000251072480168490849000160002181637047DB
S315000025202DE9F0410D460026002D044645D0DFF882
S31500002530B0816C4FA2B9FFF7F5F80020A8423CD253
S3150000254054F8041BF960401C08213960414601E03B
S3150000255089B3491E3A69D207FAD40029EED12AE096
S31500002560FFF7E0F8002072B65F490A6812F1010F22
S3150000257011D0521C0A600EE03A6902F01902102AC4
S3150000258008BF3A603A691207F6D554F8042BFA6088
S31500002590401C10223A60A842F4D3086818B1401EC5
S315000025A0086000D162B6414601E021B1491E386992
S315000025B0C007FAD409B96FF002063046BDE8F081CB
S315000025C02DE9F047454F9A463B68814643F00103A3
S315000025D000203B6094080025884602E0751908EB48
S315000025E08608A5422DD209EB85003D4901E021B1BF
S315000025F0491E7A69D207FAD411B96FF0020024E0B5
S31500002600B86001217960796911F0060F09D04A078F
S3150000261002D54FF0FF3018E0890702D56FF00100B0
S3150000262013E04005400DC0F500608608601BB0420F
S3150000263038BF0646524631464046FFF771FF00282E
S31500002640CCD03968490849003960BDE8F08723498C
S31500002650234A0B6843F001030B6088600120486041
S315000026604869400706D508684008400008604FF0F2
S31500002670FF3070474869800706D508684008400063
S3150000268008606FF0010070470220486001E022B147
S31500002690521E4869C007FAD432B90868400840009B
S315000026A008606FF002007047086840084000086044
S315000026B000207047002383E70848016841F00101C4
S315000026C0016046F21A31C1644FF48071416041697C
S315000026D0C907FCD40021C1640020704708000E40E1
S315000026E0809698000C000E408004002038B5044601
S315000026F00D46FFF703FF012C02D1FFF7DDFF02E0D5
S315000027002846FFF7A4FF18B1FFF702FF012032BDEC
S31500002710FFF7FEFE002032BD10B5C20782B01BD403
S3150000272002884FF6FF739A4218BF002914D1840815
S31500002730A400800722684EBFC2EA0140100C41EA9D
S3150000274000400090FFF7DAFE042200A92046FFF7BA
S31500002750B1FF18B1FFF7DCFE012016BDFFF7D8FE6A
S31500002760002016BD70B504460D46164604E0FFF778
S31500002770CFFE241D2D1DB61EB6B1012E01D0A00719
S3150000278006D535F8021B2046FFF7C6FFA41C761EA9
S31500002790022EF1D3FFF7B2FE042229462046FFF7A8
S315000027A089FF0028E3D001E0002070BDFFF7B0FEEE
S315000027B0012070BD2A103A1034B60000C0EA21018B
S315000027C000F04902C0EA2101000401400B0B0B0B8B
S315000027D00000000008000000FF00000001010000EA
S315000027E00000000000000D000000000000000000D6
S315000027F000000000D00810031C04014088040020DB
S315000028000000000002000D000000000000000000B3
S3150000281000000000D00810301805002034040140E4
S30D000028200000000007000003A0
S7050000007981
