S02300007365637572652D73657269616C2D7573622D626F6F746C6F616465722E733337CE
S31508000000000400207500000881000008810000082F
S31508000010A70B09010000000007012057004000084F
S3150800002004140000250A0008BF0E00085005000841
S3150800003000000000000000000000000000000000B2
S31508000040000000000000000000000000BC010000E5
S31508000050FFFFFFFF05480068202100EA010020B1E4
S315080000600348016842688D46104770472C000040D7
S3150800007000400008FFF7EEFF00F00AF800F03EF82F
S3150800008002E00000854670474FF4017000F09EB804
S3150800009038B54FF20F04414D00F0C6F828B140F2CA
S315080000A0052028806C80012032BD3D480068C006C6
S315080000B015D56888A0421ED1288840F202218842B8
S315080000C01CBF40F20621884215D040F20111884231
S315080000D01EBFB0F58A7F40F2111188420BD0314C11
S315080000E0208A40F6A721884205D12068FFF7CAFF73
S315080000F06068804700BF002032BD000038B50400A4
S31508000100294872B6016849084900016000F0D2F82A
S3150800011023480068000910F001000CBF2349244950
S3150800012002E0CD2201F8012B224A9142F9D3224955
S31508000130224A234B03E011F8015B02F8015B9A425D
S31508000140F9D32049204A002301E001F8013B9142F6
S31508000150FBD3124A53884FF20F05AB4240F20521F2
S315080001600AD113888B4205D030B1180A012818BF66
S31508000170022801D1194601E004B900210648018088
S315080001804CF23C30508000F0C9F94FF40170BDE8DC
S31508000190324000F01BB800000415002000000020C3
S315080001A02C00004000400008FCED00E000000020A4
S315080001B098000020000400200827000800040020FA
S315080001C0C4040020C80400200E1500200E4A302161
S315080001D011600E4A11600E4A116010210D4A116015
S315080001E0010A00290C4908BF000208804FF20F00D7
S315080001F04880BFF35F8F09480021016041600848C5
S3150800020008490860704700003020004030C80040A8
S3150800021030C0004010E00040000000201C400040B4
S315080002200400FA050CED00E00020704780B500F0E8
S31508000230A8F90121062000F0B1F9062000F0DEF940
S315080002400121072000F0AAF9072000F0CBF917488A
S31508000250016821F01001016001BD0000052800D9E0
S31508000260704710B5DFE800F01721030F1C17104C74
S315080002702088411E2180C0B9072000F0CBF942F240
S315080002801070208010BD072000F0B8F9BDE81040B6
S31508000290062000F0BFB9BDE81040062000F0A2B95C
S315080002A0BDE81040062000F0A9B910BD00BC00400A
S315080002B0061500207A4951200860704738B505466A
S315080002C000F052F97749B0FBF1F44FF4F070B0FB47
S315080002D0F4F02D1A1E2DBCBF4FF40170FFF776FF00
S315080002E07148724A072101600021416081604FF020
S315080002F00071116005FB04F1C91C8908491E41609B
S3150800030031BD6B4A01215170D8E76B48016841F04D
S31508000310010101600121416051206149086070476F
S31508000320002070472DE9F047624D614E29688146E5
S3150800033040F2DC580129C2465B48604F604C1DDA22
S315080003400221618039600068C00348BF00F08FF859
S31508000350B86900F00300032861D02868002803D58F
S31508000360B86940F00200B8614846FFF7D9FF5FEA6E
S31508000370000A1BD12868002851D54EE061884FF63F
S31508000380FF75A9421DD14F48018802237F22A01C70
S3150800039000F056F96088A84204BF02206080B86958
S315080003A0800703D4B86940F00200B8610120B07034
S315080003B0608838600FFA8AF0FFF7A3FF5046BDE859
S315080003C0F087B9698907EDD50068C00348BF00F012
S315080003D04EF8B07808B14046F1E7B868B96862885F
S315080003E010F0010003D10F2A08D2521C06E0890733
S315080003F004D5217811B1032AA8BFAA1892B2022AF5
S315080004002070B8BF02226280386861888842CDD1E0
S31508000410B86900F00300032801D0FFF776FF002033
S31508000420CDE710B504462848017869B9C078072889
S3150800043018BF092813D0032818BF11280FD013286E
S315080004401CBF15280B280AD02048016841F4807182
S31508000450016004E000F02AF90620FFF761FF204654
S31508000460FFF760FF0028F5D110BD0220D9E70E4836
S315080004700E4A002141608160016821F00201016095
S3150800048000210B4841704FF000711160817801B965
S31508000490704780B5002181700620FFF741FF01BD36
S315080004A00080004090D0030010E000E004ED00E07A
S315080004B009150020E42500081C40004004400040BF
S315080004C0C0040020042700089607080838400040A2
S315080004D00078704730B5DBB00446214636A800F0F0
S315080004E005F9002000904FF402630B4A36A901A8CB
S315080004F000F098FA0FF24C020FF2540001A900F02E
S31508000500DEFC054600F046F81DB12146284600F0F7
S315080005103DF928465BB030BDE40C002080B5FFF7F6
S31508000520A4FFFFF783FE00F0F7FC00F073FD40F22E
S315080005300120FFF74BFE002002BD012A08BF00F08C
S31508000540F3BC70475B25000897250008D10400080E
S315080005504D090008850900081A480068C00701D433
S31508000560194870471948704780B5FFF7F5FF1849CD
S31508000570096801B9400802BD80B5FFF7EDFF4008DC
S3150800058002BD1448012181604EF6BE214160012159
S31508000590016070471049012008607047C208430788
S315080005A010B54CBF0D4B0E4B03EB422200F0030077
S315080005B0800013680F248440A34301FA00F018430F
S315080005C0106010BD1C400040001BB70000366E01CD
S315080005D020400040006000400860004004B0004031
S315080005E000B00040C108032907DA012100F007021C
S315080005F09140C00840020F4A11507047C1080329AC
S3150800060007DA012100F007029140C00840020A4AB1
S3150800061011507047C10803290ADA084A02EB41213A
S3150800062001230A6800F0070003FA00F0504008604A
S315080006307047000014B0004010B000400CB00040F5
S3150800064030B5044610467F2808BF00204BF23462B6
S31508000650914283B01AD108237F2240F6120100A8DE
S31508000660FFF7EEFF08220FF23C0100A800F0F4FDA8
S3150800067030B908237F2240F2A27100A8FFF7E0FFF5
S31508000680082200A9204600F0C7FD37BD044D2943BE
S3150800069000FB03111A46204600F0BEFD37BD0000D8
S315080006A000000808FFFFFFFFFFFFFFFF70B50D4CB6
S315080006B025680646FFF760FF0B49B0FBF1F070436B
S315080006C02F303021B0FBF1F0032809D3616D41F0DA
S315080006D0010161652168491B0903090B8142F9D3A8
S315080006E070BD00003820004090D003000170012240
S315080006F04270012982700CBF80214021818000212F
S31508000700C18001811F4801600E218162016821F0C4
S31508000710100101600021416341627047F8B50D463A
S3150800072004461949174F4FF0FF3008601646FE6217
S3150800073000207862386840F001003860FFF72AFF29
S31508000740012C11D135B900F045FC00F0010080F00C
S31508000750010002E0284600F046FC38B9386840082F
S31508000760400038600020F2BD0120F2BD786AB04230
S31508000770E4D3002EE2D038684008400038601620DE
S31508000780F2BD000000F0004000A8004038B504465D
S315080007900D4600F009F800F007F82A462146BDE89C
S315080007A038401820FFF7C9BE2A4621461820FFF709
S315080007B0C4BE38B50446002020814AF6B4322078F3
S315080007C000A9FFF7ABFF08B11C2032BD9DF8000059
S315080007D0032818BF182801D1182032BD042801D1D2
S315080007E0172032BD012801D0212032BD002500E0A6
S315080007F06D1CA188EDB2091D8D420BDA281900F18E
S315080008000A01207840F2DD22FFF788FF0028EFD0A2
S31508000810262032BD0025002006E00146EDB2281943
S31508000820007B00F02BFD6D1CA188EAB28A42F4D346
S31508000830A27AE37A9B18FF2B01D0222032BD0B192E
S315080008401D7BB5EB102F01D0232032BD5B7BC0B2D8
S31508000850834201D0242032BDA078824207D0401EB0
S31508000860C0B2824201D1272032BD252032BD881C64
S3150800087020810220E080002032BD38B50446607829
S31508000880012804D028D3032859D01DD324E0207882
S31508000890012816D13B2500A800F0A5FB0028FAD0B0
S315080008A0432000F041FB207840F2DD220021FFF7CB
S315080008B035FF30B12846451EC0B20028F0D11B20AE
S315080008C032BD022060700FE000F098FB00F039F8A6
S315080008D0A078401CA07007E0182032BDA0782278C6
S315080008E0411EC9B200F02FF82046FFF762FF050047
S315080008F018BF00F083FB272DF0D0A8060BD5227869
S31508000900A1781520FFF719FE002DEDD10320FFF77A
S31508000910A5FC002032BD680603D4182D18BF1C2D6F
S3150800092007D121782846FFF731FF04206070284652
S3150800093032BD172DE8D100F004F8032060701720A7
S3150800094032BD2278A1780620FFF7F7BDF8B5044630
S315080009500D461646002706E0E088411C0019E1808E
S31508000960807A78557F1CBFB2B74209D2E0882189C0
S315080009708842F1D32046FFF780FF0028ECD0F2BD6D
S315080009800020F2BD10B504462046FFF776FF002882
S31508000990FAD010BDF8B504460D4616461F4607E0C0
S315080009A03046A047294600F07BFC05467F1E761C8C
S315080009B0BFB2002FF4D12846F2BD38B50C4615460D
S315080009C005E0014614F8010B00F06AFC6D1EADB295
S315080009D0002DF6D132BDF8B507460E461D4614461B
S315080009E030683B682A4621469847070005D1F068D3
S315080009F02A462146FFF7E1FFF060D6F8A800281836
S31508000A00C6F8A80096F8A70050B1AC362A46214683
S31508000A10304600F017FD2A462146304600F094FC81
S31508000A203846F2BD10B5029C8472038142600160AB
S31508000A3028224FF0FF31C16000210174A0F8A410EC
S31508000A40802180F8A610002180F8A710C0F8A81009
S31508000A50AC30BDE8104000F0F8BB2DE9F84F8946E8
S31508000A60044699F81BB0D0689749BBF1800FA8BF18
S31508000A704FF0800B88421E4651D1002E4DD0B068EB
S31508000A8000904FF0FF38002509EB450A9AF84870A0
S31508000A900DE0FFF77FFDF80240F0006200984FF482
S31508000AA000634146FFF776FF8046781CC7B20AF115
S31508000AB048004078B84204DA681CC5B2062D02DA46
S31508000AC0E2E7FF2FE5D1D9F844006FEA080188422A
S31508000AD025D1A068736800BA4FEA5B024946984771
S31508000AE0C8B9E06805BAA06802BAB0685B464FF0B4
S31508000AF0FF31FFF74FFFC04385420CD140F6A720D0
S31508000B00A9F810000122A068736800BA09F110015B
S31508000B101030984708B1422002E0172000E0432031
S31508000B20BDE8F28F2DE9F04F0D4683B08046D5F823
S31508000B3004B02889ADF80400914605F1140707F1B9
S31508000B40100404235A464046FFF745FF00286DD196
S31508000B50BBF8000040BA80B20090BBF8020040BA69
S31508000B6086B2F00748BF462060D4B6F5026FC8BF04
S31508000B704E205BDC002E58D00098DFF850A140B11B
S31508000B804FF60441401A50D0FF3853D0FE3851D0A2
S31508000B9097E0287C08B1512048E08D2E28BF4F20C9
S31508000BA044D233463A1D00F087F900283ED1E27E4A
S31508000BB0802AA8BF802202F10C00864201BFB888AD
S31508000BC040BA00F47F40B0F5007F31D1F88840BACA
S31508000BD04EF25031884202BF208A40F6A721884249
S31508000BE026D1608A00F47F40B0F5807F01BFB868DF
S31508000BF000BADAF81C1088421AD14FF6FF70208224
S31508000C0007F110014FF0FF30FFF7D7FEF96809BA70
S31508000C10C943884204BF207E042809D1607E14286F
S31508000C2018BF062804D1012028740020BDE8FE8FCD
S31508000C304520FBE7287C08B94120F7E7042300F0A4
S31508000C403AF90028F2D1DBF8000007BA301F86B25D
S31508000C50DAF81C00874238BF4820E7D3616DF019DF
S31508000C60884228BF4920E1D200984FF603518842AE
S31508000C700DD1B9F1000F0AD0D9F800203946022063
S31508000C80904720B14A20D1E7301B86B2E719002EDB
S31508000C90CBD0BDF804008642B4BF3446044623468A
S31508000CA000F009F90028C1D1B9F1000FECD0D9F844
S31508000CB0043062085946384698470028E4D04B2045
S31508000CC0B4E74420B2E70000E320BBDE00000008DA
S31508000CD02DE9F04F0D4685B080466F6805F1140082
S31508000CE0009005F1A404103004909146A07883285A
S31508000CF005D1A68882214FF60710A1700CE00423BF
S31508000D003A464046FFF767FE002840F0D1807988CA
S31508000D10388849BA40BA8EB2F10748BF462000F172
S31508000D20C78080B24FF20972A178801A05F1AC0A21
S31508000D3005F1040B00F08A804FF4FF72801A6BD01D
S31508000D40FF3830D0FF3803D0FF3800F09A80AEE085
S31508000D50802929D1062E23D3062302AA29464046EE
S31508000D60FFF739FEE8B9BDF8080040BA00F47F403D
S31508000D70B0F5007F01BFBDF80C0040BA4EF2503105
S31508000D8088420DD1BDF80A0040BA012818BF522082
S31508000D9007D1BDF80A0040BAA5F8A400002000E073
S31508000DA04520812181E081296DD1BBF80490102E60
S31508000DB038BF4E202ED30423524600F07DF848BB98
S31508000DC00C230AF1040200F077F818BBDAF80000E1
S31508000DD000BAA6F11001CAF800008EB23146504694
S31508000DE000F07AFA05E069683A46504600F0ACFA2F
S31508000DF0F61BB6B256B137464E4588BF4F466A68A7
S31508000E003B4600F059F80028EDD003E0504600F0C4
S31508000E10BEFA0020822148E0822934D1042E2BD341
S31508000E200120E0704A460020606029464046FFF7E8
S31508000E3079FE08BB0021E17061688E421CD3B1427D
S31508000E4036D28322A270711A616031E082291AD1E2
S31508000E50504600F09CFABBF80400B042B8BF4F20D9
S31508000E6026DB33463A4600F027F808BBF2B2394685
S31508000E70504600F0B2FA08B9542019E0002084213F
S31508000E8013E0842901D0512012E0042E18BF4C200B
S31508000E900ED104233A4600F00FF848B90499009891
S31508000EA04B462A46FFF7D9FD8521A17000E044206C
S31508000EB005B0BDE8F08F5A46294640468BE570B521
S31508000EC00C4605462089C107164601D4802801DA52
S31508000ED04F2070BD00F0F4F908B9532070BD3246B2
S31508000EE021462846FFF7F4FE002818BF172803D026
S31508000EF08F2184F8A61070BD94F8A600852806D11F
S31508000F00206869688847172805D1002070BDA07A2F
S31508000F100028E4D0502070BD80B500220023114679
S31508000F20032000F0B9FA04E080B50146032000F07A
S31508000F302BFBBDE8014000F0D4BB10B5044603E026
S31508000F4014F8010BFFF7F0FF20780028F8D110BD40
S31508000F5030B583B00FF2B40218CA00A900AA18C1A6
S31508000F6005210A2509E080B20A24034690FBF4F419
S31508000F7005FB143330338B542046491EF3D1C9B2CE
S31508000F800429084604D2835C302B08BF491CF6D0D6
S31508000F9000A94018FFF7D1FF37BD10B50446200950
S31508000FA00A28ACBF37303030C0B2FFF7BDFF04F0B7
S31508000FB00F000A28BDE81040ACBF37303030C0B249
S31508000FC0B2E710B50446200AFFF7E7FFE0B2BDE82E
S31508000FD01040E2E780B500F084FB032000F089FAB0
S31508000FE000B1012002BD10B5044600F07AFB214687
S31508000FF0032000F089FA00B1012010BD80B500A8D1
S31508001000FFF7F1FF0028FAD001BD0000303030307C
S31508001010300000002DE9F84FFFF7BCFAFFF7EEFFA6
S315080010200020FFF71BF90FF26C18474D0FF2381B1B
S31508001030DFF818910FF2181A41A642A41EE050468E
S31508001040FFF77BFF0C27B9F81A00F84000F00F00ED
S31508001050FFF77EFF012FA4BF2E20FFF765FF3F1F76
S31508001060F1D52046FFF769FF09F11A00408EFFF710
S315080010706FFF5846FFF761FFFFF7C0FFFFF78AFAD1
S315080010800220FFF7EBF800A8FFF7ADFF0028F5D11F
S315080010909DF80000FFF748FF9DF800000A2818BFD2
S315080010A00D28CCD0312804D032282ED0332831D080
S315080010B0E2E70FF2F000FFF740FF0120FFF70AFA18
S315080010C007460FF2F400FFF738FF2FB90520FFF7A0
S315080010D0C5F80FF2F800CDE70420FFF7BFF80FF2C6
S315080010E0F800FFF72AFFB80648BF0FF2F80005D444
S315080010F078064CBF0FF204100FF21010FFF71DFF11
S315080011003846FFF75EFF3046B4E70120FFF7A6F83A
S31508001110BDE8F18F00273046FFF70FFF288A40F613
S31508001120A721884218BF4046A4D178197F1C90F899
S31508001130240020B1FFF7F8FEFFB2202FF5DBE2E727
S315080011400D0A0000206200000040000800000008A8
S315080011500D0A45465220333253657269616C204246
S31508001160746C2076000000000D0A312E2075706C14
S315080011706F61642065626C0D0A322E2072756E0DE1
S315080011800A332E2065626C20696E666F0D0A424C22
S31508001190203E20002A2A206E6F20617070202A2A9D
S315080011A00D0A00000D0A626567696E2075706C6F1E
S315080011B061640D0A000000000D0A53657269616CCE
S315080011C02075706C6F61642000000000636F6D709D
S315080011D06C6574650D0A000061626F727465640D52
S315080011E00A0000000D0A584D6F64656D20626C6F29
S315080011F0636B206572726F72203078000D0A66691B
S315080012006C65206572726F72203078000D0A6572FF
S31508001210726F722030780000814212D2101851186D
S31508001220401E491E92B2002A1EBF11F8013900F865
S315080012300139521EF6D1704711F8013B00F8013BFF
S31508001240521E92B2002AF7D17047130003D00A46FD
S31508001250194600F047BB704710B500E0521E92B21F
S3150800126022B100F005F8F9D0181B10BD002010BDFA
S3150800127010F8013B11F8014BA34270470A0242EAF3
S3150800128011214840C0F30311484080EA003041016B
S315080012900206C9B2D20E41EA0221484080B270471E
S315080012A00A0A4840C0B208214308C00746BF034897
S315080012B058401846491EF7D1504070472083B8ED6C
S315080012C000205F49415CFF2901D001207047401C7E
S315080012D01028F6DB0020704712B5044683B0206854
S315080012E0039900BA00903A2001B17A2020740C22A2
S315080012F0211D04F11100FFF78FFF03220DF10101F3
S3150800130004F11D00FFF788FF00F03CF80398D0B100
S31508001310B0F57F4F05D200BA039002220DF10E01F7
S315080013200EE00FF270100088ADF804000222039850
S3150800133000BA039001A9204600F006F8042203A982
S31508001340204600F001F81FBDF8B504460D461646BE
S31508001350002714E094F825007A5D0019017C5140B5
S31508001360017494F82500401C84F82500C0B21028A2
S3150800137004D300F007F8002084F825007F1CB74244
S31508001380E8D3F1BD2E4904F1100000F015BB1FB5D6
S31508001390044600A8102100F019FB94F82500C0F1B6
S315080013A01000C11000EB11710911A0EB011200A980
S315080013B02046FFF7C9FF1FBD1FB50C46011D00AA31
S315080013C0002000F026F8002000AA015D825C51404A
S315080013D00155401C1028F7DB1FBD38B5102A0446F6
S315080013E00D4612D1216A94F82420206802EB0111D7
S315080013F088420AD129462046FFF7DEFF102204F16B
S3150800140010012846FFF728FF08B1002032BD012049
S3150800141032BD11B581B000BA019014460220207081
S315080014200C22601CFFF7F8FE03220DF1050104F1FA
S315080014300D00FFF7F1FE0249204600F0BDFA13BD84
S31508001440F80808082DE9FF4104460D469046002095
S31508001450002704F1200619E030B9206A00AA211DE8
S31508001460401CFFF7D6FF01203379795D00AA9A5C04
S31508001470514079553179491CC9B2102904DB206AD3
S31508001480401C20620021002031717F1C4745E3D3B0
S31508001490BDE8FF81FFFE0000F8B504460D46164676
S315080014A01F4600F0D1F8002801BF20460FF2B811F8
S315080014B0415C01291BD1DFF8881151F8202000234F
S315080014C09380138001EB800153800969DFF874214A
S315080014D08B800B804B80835400F014FB3B463246CE
S315080014E02946204601B0BDE8F04000F0B5BA2120F3
S315080014F0F2BD10B5044600F0F4FADFF8440100EB3B
S3150800150084000069808810BD2DE9F843804644466A
S31508001510DFF82C0100EB840089460569404600F097
S3150800152093F808B101202DE0DFF81861A05D06EBFD
S31508001530440730B1B9886A88914202D10021A15581
S3150800154020E0404600F0CDFAA888D0B168880FF2AE
S3150800155024114019807989F80000688831F8141038
S3150800156000F024F868804FF6FF70A9884118A98012
S31508001570A15D21B1B988814204BF2888B8800020BE
S3150800158000E02620BDE8F28302B5012200A900F09A
S3150800159013F802BD80880FF2C80333F81110891AB0
S315080015A0884201DA0120704700207047401C90FBF2
S315080015B0F1F201FB120070472DE9F84F80464746C5
S315080015C00FF2A400385C01288B46164634D11C4815
S315080015D00FF2A80950F827400FF2900A002510E0EC
S315080015E0A08800B9012521881BF8010B0919887103
S315080015F020883AF81710FFF7D9FF2080A088401CEA
S31508001600A0803046461EC0B288B100224146204618
S31508001610FFF7C0FF0028E3D11DB1404600F022FACB
S31508001620002517F809000028EFD1222005E04046DA
S3150800163000F018FA002000E00120BDE8F28F000053
S31508001640A0040020D80C0020042806DA0FF218019E
S31508001650415C481E8041C00F70470120704700005A
S3150800166000000000000080000000000100000000EB
S3150800167000008000000000000000000100000001DA
S31508001680002180F83410011D0160704782780078C7
S3150800169001219140C943884A18B110680840106072
S315080016A002E05068084050600020704710B5834A31
S315080016B0126800F00F0300219B1804064CBF93F82C
S315080016C0D43093F8E1302BB1282000FB032000F139
S315080016D0340104E00F23184208BF02F1340108461A
S315080016E010BD2DE9F84F00F0BCF87548D0F8008019
S315080016F0C0F80080B8F1000F00F0AB80714D6F4E56
S31508001700E96849084900E96040685FEAC8201BD5CE
S315080017107F20E8613068FFF7B3FF306800F13407CF
S31508001720002087F820003861012038703846FFF716
S31508001730ADFF002038703846FFF7A8FF3068006B09
S315080017400068010018BF8047286B50B90120E8617E
S315080017503068FFF795FF30683430002180F8201094
S31508001760016118F47E5F584F4AD000244FF0800973
S31508001770DFF858A11FFA89F918EA090F3BD054482F
S3150800178050F824B0E0B2FFF791FF38600269DBF841
S3150800179000108A4234BF1146DBF8001000F05BF8EF
S315080017A090F82010022908D1DBF8002081785AF831
S315080017B02110806892B2FFF72FFD1CB9306800F03F
S315080017C0FBF90CE0DBF80010386880785AF820003E
S315080017D0C9B200F04CF93868C07800F091FADBF825
S315080017E000205AF8240092B20021FFF72EFD40F29D
S315080017F00110A0402860641C072C4FEA4909B9DB90
S3150800180018F07F0F25D000250124DFF8C890A4B270
S3150800181018EA040F19D059F825A045F08000C0B27F
S31508001820FFF744FF38600269DAF800108A4234BFCD
S315080018301146DAF8001000F00EF81DB9306800F00D
S31508001840BBF902E0C07800F05BFA6D1C6400072D56
S31508001850DDDBBDE8F18F521A0261426989184161E0
S31508001860704710B51C481D4C4FF40041C160082153
S3150800187001601B48A168C90811F0010101700DD06B
S3150800188000F035FB042816D0206820F4706040F478
S315080018908070206004202061032008E0206820F47E
S315080018A0706040F480602060042060610020BDE81C
S315080018B0104000F007BB10BD541001407004002012
S315080018C088A8004048100140280B0020000400208A
S315080018D0380400205404002014A8004000B000403A
S315080018E00815002062F30F2262F31F42401810F019
S315080018F0030308D0C91A1FD3DB0748BF00F8012D18
S3150800190028BF20F8022D130030B4144615461039A6
S3150800191028BF20E93C00FAD8490728BF20E90C006F
S3150800192048BF40F8042D890028BF20F8022D48BF7B
S3150800193000F8012D30BC7047C91818BF00F8012DF2
S31508001940CB0728BF00F8012D704700000268174929
S3150800195012BACA60426812BA8A60826812BA4A60C3
S31508001960C06800BA0860704710B5114980220A603D
S315080019700623104A136007230B6013689B07FCD5E0
S31508001980002350F823405B1C24BA042B8C62F8D33E
S3150800199013685B07FCD500220B6B1BBA40F8223094
S315080019A0521C042AF8D310BD00000000383000404D
S315080019B00030004010A0004010B504460846FFF766
S315080019C0C5FF2046BDE81040CEE70000002200F023
S315080019D051BC00007CB5FEF7DDFD424801880823AE
S315080019E07F2200A8FEF72CFE002200203E4900AC0C
S315080019F0531C045D25090A2DD2B2B4BF30263726FA
S31508001A0001EB4202751955805A1C04F00F050A2D80
S31508001A10B4BF3025372504F00F04DBB22C1901EBCF
S31508001A204303401C08285C80E1DB304800F077FA65
S31508001A3000F03AFC044600F05AFA04280AD0FFF7E8
S31508001A4050FE00F031FC001B80B2B0F57A7FF2DD63
S31508001A50212076BD002076BD032808BFFFF7BABF50
S31508001A6021207047032808BF00F0F2BB7047F8B57D
S31508001A701F4EF76804460D46FEF78CFD1D480FE01D
S31508001A803A8814F8011BD21991713988C288491C01
S31508001A9091FBF2F302FB13113980B988491CB9800E
S31508001AA029464D1EC9B2D9B1B988FF29E8DB124AC1
S31508001AB0F068D378114923B90088C8802320D070EC
S31508001AC0F1BDC98801802321D170028841888A42E4
S31508001AD004D20B4BDB88591A511800E0511A818041
S31508001AE0F1BD7047062700087C040020E0260008A0
S31508001AF0B004002074160008D80C0020DC0C002066
S31508001B00FC26000870470000002180F8341000E029
S31508001B1000BF011D0160704782780078012191405D
S31508001B20A84A18B110680843106002E050680843D4
S31508001B3050600020704738B50446A07818B920468A
S31508001B40BDE832401FE02178E1B1A58921698D42BF
S31508001B5088BF0D46002D1CBFA168002905D09A4BE9
S31508001B6053F82000EAB2FFF757FBA0682818A060D0
S31508001B70A178964850F8210005600120A178884090
S31508001B809349086031BD38B50446207890B1A589D7
S31508001B902069854288BF05462DB18B48A168006833
S31508001BA0EAB2FFF739FBA0682818A0600121884827
S31508001BB08560016031BDE6E7F8B5064606F13404EE
S31508001BC0844D94F82000AF6830B1022841D064D320
S31508001BD0032800F08280F1BD20616070A86028703B
S31508001BE07D48006800680028F5D0304600F064FBA0
S31508001BF010F1010F07D100F07FF800202070304661
S31508001C00BDE8F24084E794F82000022812BF0128B4
S31508001C10606AA86094F8200002286CD0206960B138
S31508001C203168C988884266D2A189B0FBF1F201FB06
S31508001C30120000285FD1012042E03046FFF768FF16
S31508001C406078002854D1002284F820000023114629
S31508001C5020E0206910B10020207020E038005F4E97
S31508001C6010D0616900220020B8470021A96048B158
S31508001C7000F042F8002000F040F83068FFF744FF13
S31508001C80002027E03068FFF73FFF00F0A9F800239F
S31508001C900246014600F02CFA1BE0206918B12046DE
S31508001CA0BDE8F24087E7607801280BD16069686073
S31508001CB0002300F095F80246014600F019FA0220C2
S31508001CC06070F1BD18B96069686001206070012014
S31508001CD02870032084F82000F1BD287810B130461A
S31508001CE0FFF716FF380003D0696800220020B847BE
S31508001CF000F076F82070F1BD0120207020460BE731
S31508001D0038B5002401063549096800F00F0247BFB7
S31508001D10511891F8D410511891F8E11029B12F48AB
S31508001D200068282202FB010004E00F21084203D1C3
S31508001D302A48006800F1340494F82000012814D1D8
S31508001D40206918B12046BDE83240F4E684F8200040
S31508001D50636A180004D0002060620022616998470F
S31508001D60BDE832400320FFF77DBE022829D122694B
S31508001D70DAB1194DA07855F820000068A1898018B5
S31508001D80884207D2636A18001BD0002060626FF091
S31508001D900B0011E02046FFF7CEFEA17855F821107A
S31508001DA0A06809680818A06031BD00F019F8636AD0
S31508001DB0180006D000206062616901B0BDE83040B5
S31508001DC0184731BD541001401C040020540400205B
S31508001DD0081001402C0B0020380400207004002055
S31508001DE0002084F820007047DFF834144FF40020F0
S31508001DF008600021DFF82C0441604FF0FF310160D4
S31508001E00704781780078DFF82024002814BF10680E
S31508001E105068C84000F00100704770B50446A078C5
S31508001E202178DFF80854DFF8083488B969B3A68939
S31508001E302069864288BF064626B1A1681868F2B2AC
S31508001E40FFF7EAF9A0683018A060AE6001201BE031
S31508001E50D9B1A68921698E4288BF0E46002E1CBFBD
S31508001E60A168002904D053F82000F2B2FFF7D4F98C
S31508001E70A0683018A060A178DFF8B80350F82100F0
S31508001E8006600120A1788840286070BD10B5DFF88B
S31508001E90A823126800F00F0300219B1804064CBF04
S31508001EA093F8D43093F8E1302BB1282000FB0320B7
S31508001EB000F1340104E00F23184208BF02F134018F
S31508001EC0084610BDDFF870130968CA7F01F11F03C1
S31508001ED0062808BF5A709A70C877096B4B681900AC
S31508001EE018BF824202D00146104618477047DFF8ED
S31508001EF048030068C07F704710B500F00EF804006C
S31508001F0004BF4FF40170FEF761F994F8200000B1A0
S31508001F10012010BD0C4615461E46C0B2B6E72DE98F
S31508001F20F84F054600F020FADFF80C633068F02217
S31508001F300021FFF78AF93068011D01600722296828
S31508001F4041624FF0010A696881620027A968C16287
S31508001F50D346297B8177306800F11D018A700022FB
S31508001F60CA700A71904669690163427700F8342F8E
S31508001F70826082700121C181C2700271427108219A
S31508001F8081810261426180F8202042620221C1619A
S31508001F9091463068846A60880019009014E02B69BD
S31508001FA0FB5C9208521C5A43C26109F10109326866
S31508001FB0891881F8E17080780628A4BF4FF401706B
S31508001FC0FEF704F9207804190098844238D220785C
S31508001FD008B900F0BDF860780528F3D130687F1C91
S31508001FE0282101FB0700A178C90900F8341F00233E
S31508001FF000218160A178C17001F00F0181700BFA90
S3150800200001F2C281E27802F003020271A28882819B
S315080020100361436180F8203043620378002BBED009
S3150800202080F805A008F101082B69FB5C92085A4361
S31508002030C2610AF1010A3268891881F8D470BAE7D0
S31508002040032F1CBF4FF40170FEF7C0F8B8F1060F56
S3150800205024BF4FF40170FEF7B9F8B9F1060F24BF93
S315080020604FF40170FEF7B2F8FFF7BEFE01210846ED
S3150800207000F0CCF968B96B49714A704B48604FF06B
S31508002080FF3008606F4848604FF400201060012256
S3150800209012E000F05DF86FF0030027E05C688578D1
S315080020A00BFA05F52C435C6080254C68807805FAA8
S315080020B000F020434860521CD2B21046874212DB19
S315080020C03468282505FB004010F8344F002CE5D06D
S315080020D01C6885780BFA05F52C431C604C688078DB
S315080020E00BFA00F0E5E700F081F90020BDE8F28F71
S315080020F0F8B5FFF70FFF070004D100F029F86FF0D5
S315080021000300F2BD002C1EBF14F003004FF401704B
S31508002110FEF75CF83846FFF774FE00B151E097F811
S31508002120200000B150E0B87800281FBF4248006878
S31508002130C07F042800D04AE000F03DF810B901201D
S31508002140387003E0387808B900F002F8012041E059
S315080021504FF40170FEF73AB8F8B5FFF7DBFE070053
S3150800216004BF4FF40170FEF731F8002C1EBF14F0BF
S3150800217003004FF40170FEF729F83846FFF741FED1
S3150800218000B11EE097F82000012800D11CE0B878BD
S3150800219000281FBF28480068C07F042800D016E022
S315080021A000F009F808B9387003E0387808B1FFF785
S315080021B0CFFF02200EE0BC603D6100207861B87850
S315080021C070476FF00400F2BD6FF00100F2BD6FF0CA
S315080021D00800F2BD87F820007E623846FFF71DFE2C
S315080021E00020F2BD70B51849184BCA68002110E0E6
S315080021F05488A418491CA47900F8014B5488DD8832
S31508002200641C94FBF5F605FB164454809488641EFA
S315080022109480948814B1C9B24029E9DBC8B270BD6C
S3150800222080E100E088A800405410014008100140F1
S315080022301C04002054040020700400204C100140A7
S3150800224000E100E081001000A00400206C160008E0
S3150800225000B591B08520FFF74FFE48B900A8FFF7F3
S31508002260C1FF28B10246002300A98520FFF740FFD9
S3150800227011B000BD00B500BF13009646944610394C
S3150800228028BFA0E80C50FAD85FEA417C28BF0CC0EA
S3150800229048BF40F8042BC90728BF20F8022B48BFBF
S315080022A000F8012B00BD000002480168406880B2B2
S315080022B0704700001060004038B504460E4D05F121
S315080022C008002060206B8168080005D005F1080029
S315080022D0884710F1030F0DD1297AC1F3411100295E
S315080022E004BF697A06294FF0FF3003D12046BDE8BE
S315080022F0324003E032BD0000C8040020F8B5066885
S315080023003178002400251F2211424FF0FF3728D1CB
S31508002310C90926D07188CAB2090A012904D014D37A
S3150800232003290BD003D310E0DAB9456A0CE0C2B929
S31508002330856A6C880420FFF7C5FD06E0817F8A421E
S315080023400FDAC06A50F822502C7854B1F0888442CB
S3150800235028BF04460023224629460020FFF7C8FE68
S3150800236000273846F2BD000080B5FEF705F91A4980
S3150800237000F5FA724FF47A73B2FBF3F20A60174B60
S31508002380174A1218B2FBF3F24A6000F5434250327C
S31508002390144BB2FBF3F28A6000F59850883042F28B
S315080023A01072B0FBF2F0C8600F488169890889008D
S315080023B08161016A41F001010162816921F07001C0
S315080023C08161816941F030018161016841F0010153
S315080023D0016001BD00000000380B002040420F00DC
S315080023E020A10700A086010000F0004080B500F09B
S315080023F027F82348007840B12248016821F4706123
S3150800240041F4807101600421016101BD10B51D48C8
S315080024101D4C01680909090101604FF4AE620168A3
S3150800242021F0F0010160002118482060FEF70DFF39
S31508002430E06D20F0050040F00100E065002010BDC9
S3150800244010B51048124B0168124C21F4704141F442
S3150800245080410160002210498A654FF400421A60E3
S3150800246008230B60CA600323236060238B6580689A
S315080024700349C00800F0010008700848026010BD52
S315080024800815002000B0004000100140C8040020D4
S3150800249080E100E024BC004014A8004000E100E010
S315080024A002466FF00200137803F07F01212900D05D
S315080024B0704710B554781849202C14D02AD3222CEA
S315080024C022D027D25488002C01BF9488002CD288A9
S315080024D0072A1FD1DA091DD0BDE8104000230722BC
S315080024E00020FFF705BE5488002C01BF9488002CF5
S315080024F0D288072A0ED1DA090CD1BDE8104000238C
S3150800250007220020FFF728BE9188002902BFD1883C
S315080025100029002010BD000074040020042900D002
S31508002520704780B50D208DF800000023012200A910
S315080025300520FFF711FE01BD2748018A40F6A7725C
S31508002540914202BF408A4FF47F41084203D10228D4
S3150800255001DB0120704700207047F8B504461D4E80
S3150800256001200D463070FFF7E7FF18B94FF40170E8
S31508002570FDF72CFE29461848876A44F48070B84748
S31508002580002131700FF2540618B9294644F4007038
S31508002590B847805DF2BD2DE9F041044688465600ED
S315080025A0FFF7CAFF18B94FF40170FDF70FFE0A4886
S315080025B0476A0023324641462046B8470FF21C05B3
S315080025C020B93346002241462046B847405DBDE85B
S315080025D0F08100000D150020000008080002020224
S315080025E04B4B464700366E011201000202000008F6
S315080025F0C4100F0000000102030100000902430095
S31508002600020100C03209040000010202000005248C
S315080026100020010524010001042402000524060007
S3150800262001070582030800FF09040100020A0000E9
S315080026300007058502400000070505024000000066
S31508002640040309043403530069006C00690063003D
S315080026506F006E0020004C00610062006F0072007F
S31508002660610074006F007200690065007300200045
S3150800267049006E0063002E00000000003A03530074
S3150800268069006C00690063006F006E0020004C0052
S3150800269061006200730020004300440043002000EC
S315080026A0530065007200690061006C00200050004C
S315080026B06F007200740000004026000844260008D7
S315080026C07C2600087C0400200101020200000000AC
S315080026D01D250008A12400080000000000000000D5
S315080026E0E8250008FC250008B826000804000000B4
S315080026F0C8260008CC2600080000000000000000DC
S3150800270000000001EE0834B6D0040020E0040020E2
S31508002710F00400203805002098050020F805002060
S3150800272038080020C8040020D8040020E804002047
S31508002730F804002078050020B80500203806002097
S31508002740781001407C10014080100140841001403F
S31508002750881001408C100140901001401010014073
S3150800276014100140181001401C10014020100140AF
S315080027702410014028100140380A002000C2010038
S31508002780000008002203300030003000300030001E
S3150800279030003000300030003000300030003000AB
S315080027A0300030003000000000000000000000008B
S315080027B000000000480B0020000000000000000098
S311080027C000000000D00B00200100FFFF05
S705080000757D
