S0100000656D3236302D7370692E73333701
S31508002000B8210020D15D0208495D02084D5D02082D
S31508002010A70A090100210008041E03AC2057BC01C9
S3150800202000000000000000000000000000000000A2
S315080020300000000000000000000000000000000092
S315080020400000000000000000FFFFFFFFFFFFFFFF8A
S31508002050FFFFFFFF007002080000000000000000FC
S31508002060FFFFFFFFFFFFFFFFFFFFFFFFFFFFFFFF72
S31508002070FFFFFFFFFFFFFFFFFFFFFFFFFFFFFFFF62
S31508002080F02F002000000000EE2F0020EE2F002089
S31508002090B821002030680208286102085818002074
S311080020A0EC0F00200000030800300020B0
S31508002100B8210020D15D0208495D02084D5D02082C
S31508002110555D0208515D0208595D0208D05D020846
S31508002120D05D0208D05D0208D05D0208D05D0208C5
S315080021305D5D0208D05D0208D05D0208651F0208D1
S31508002140D05D0208D05D0208FB2D0208D05D0208AA
S31508002150DDE901080F2B0208D05D0208D05D0208F0
S31508002160091B02080534010889BB0108412C02082D
S31508002170AB2B0208D05D0208B72B0208FD3D01080B
S31508002180B5FD0108D05D0208D05D0208D05D0208E1
S3150800219010B501F007010368012405E010B501F048
S315080021A00301890003680F2400F059F8016010BD87
S315080021B038B500F0D1F8044600F0CEF8054600F030
S315080021C0CBF800F00102182C05F00F05A8BF362041
S315080021D037DA5148E040C00748BF382031D4E00814
S315080021E003D0022807D003D309E021464B4804E070
S315080021F021464B4801E021464A48FFF7C9FFA00897
S3150800220005281DD8DFE800F003070B0F13172A4629
S315080022102146454812E02A46214644480EE02A4609
S31508002220214643480AE02A462146424806E02A460D
S315080022302146414802E02A4621464048FFF7AEFFBC
S315080022400020BDE8324000F0A0B810B501F0030147
S31508002250890003880F2400F002F8018010BD8C4025
S31508002260A34302FA01F11943704710B501F00701BB
S3150800227003780124FFF7F3FF017010BD2DE9F04143
S3150800228000F06AF8044600F067F8054600F064F8BE
S31508002290064600F061F8074600F05EF805F00F0202
S315080022A000F00108182C06F0010507F00F07A8BF73
S315080022B0362021DA1848E040C00748BF38201BD42A
S315080022C0600804EB907086081D4800F019F81D4850
S315080022D03A4600F015F8A00804EB5070C7081A48EB
S315080022E02A4621463818FFF7C0FF184842462146B5
S315080022F03818FFF7BAFF0020BDE8F04100F045B8EE
S31508002300214600EB4600A0E780B500F061F81049C9
S3150800231008401049086001BD001F80000CB000404D
S315080023200CB400400CB8004000B0004004B00040B7
S3150800233000B4004004B4004000B8004004B80040AF
S31508002340C4220020D0220020BC220020C022002067
S31508002350FFE07F00942700202A480168491C016095
S3150800236011F8010D704738B50446264D0846296808
S31508002370224600F01EFA28682018286031BD214A36
S31508002380116840181060084670471F491F4B0A68B5
S315080023901B68D31AC82BB8BF10700868401C0860A1
S315080023A0704710B50446C0B2FFF7EFFF200A49E0B0
S315080023B010B5FFF7D1FF00F037F904EB002080B223
S315080023C010BD10B5044680B2FFF7EBFF200CB1E054
S315080023D010B5FFF7EDFF00F05EF804EB004010BD06
S315080023E038B5094C094A2368126805469A1AAA1884
S315080023F0C92A03DA0246184600F0DBF920682818CD
S31508002400206031BD3428002038280020642C0020A4
S3150800241010B5044600F082F9FFF7CAFF2081FFF7DE
S315080024209BFFA072FFF798FFE072FFF795FF2073F6
S31508002430FFF7BEFFE081FFF78FFF2074FFF7C8FFA5
S31508002440606110BDBDE810409FE710B500F023F8A5
S315080024502080FFF7ADFF6080FFF77EFF2071FFF752
S315080024607BFF6071FFF7A4FFE080FFF7A1FF2081E3
S31508002470FFF772FFA07210BD10B500F009F8A0783A
S31508002480E0E710B500F007F800F007F8A07010BDF7
S315080024900446208885E704468AE720805CE710B56D
S315080024A000F0C2F8A070FFF783FF2080211D00F01E
S315080024B036F9FFF751FF00B10120E070FFF74CFF36
S315080024C02073FFF749FF607310BD10B500F0DDF803
S315080024D02069BDE8104074E710B500F007F9FFF76A
S315080024E077FF206110BD10B5FFF7D5FF208010BD1E
S315080024F020794AE710B50446FFF7D1FF04F110002A
S3150800250000F01BF804F11C0100F009F9FFF750FF71
S31508002510A0842434FFF74CFF6080FFF71DFF20716D
S31508002520FFF71AFF6071FFF717FFA071FFF714FF97
S31508002530E07110BDBDE8104033E710B50446FFF75B
S3150800254047FF2060FFF744FF6060FFF731FF2081F7
S3150800255010BD10B500F011F8A088FFF722FFE0883B
S31508002560FFF71FFF2089FFF71CFF6089FFF719FF98
S31508002570A089FFF716FFA07B64E70446206820E7DA
S3150800258010B50446FFF724FF2060FFF711FFA0806F
S31508002590FFF70EFFE080FFF70BFF2081FFF708FF2C
S315080025A06081FFF705FFA081FFF7D6FEA07310BD77
S315080025B010B5FFF7E2FFFFF79BFF611D1020FFF73D
S315080025C00FFF04F11501BDE81040102008E710B50B
S315080025D0FFF761FF2080A11C22E010B50446207891
S315080025E0FFF7D3FE611C0F20FFF7FAFE04F1100176
S315080025F00320FFF7F5FE04F11301BDE8104007209C
S31508002600EEE610B500F010F82070611C0F20FFF7F9
S31508002610AAFE04F110010320FFF7A5FE04F1130139
S31508002620BDE8104007209EE6044695E638B500F05A
S315080026302CF804F1100100F026F8A069FFF7C1FE96
S3150800264004F11805A888FFF7ACFEE888FFF7A9FE8D
S315080026502889FFF7A6FE6889FFF7A3FE04F124017F
S315080026600720FFF7BDFEE87CFFF78FFE287DFFF702
S315080026708CFE687DFFF789FEA87DFFF786FEE87D5C
S31508002680BDE8324081E60820AAE604462146102025
S31508002690A6E638B500F02AF804F1100100F03FF874
S315080026A0FFF796FEA06104F11805FFF781FEA880E2
S315080026B0FFF77EFEE880FFF77BFE2881FFF778FEAE
S315080026C0688104F124010720FFF74DFEFFF744FE59
S315080026D0E874FFF741FE2875FFF73EFE6875FFF7B9
S315080026E03BFEA875FFF738FEE87531BD044621465E
S315080026F0102038E610B5FFF797FF207230B9FFF7BC
S3150800270067FE2060FFF764FE206003E0022801D11F
S3150800271000F004F8FFF720FE607210BD214608207D
S3150800272021E60CB4F8B504460D4606AE07E056F8A1
S31508002730040B1CB10078FFF722FE38606D1C287860
S31508002740A0B356F8047B622824D07028EFD07328EB
S3150800275018BF752804D076280BD0772812D0EDE755
S315080027601CB1FFF7F9FD3870E8E73878FFF70DFE7A
S31508002770E4E71CB1FFF71CFE3880DFE73888FFF76F
S3150800278010FEDBE714B1FFF723FED6E73868FFF73C
S3150800279018FED3E756F8040B0078002C394602D009
S315080027A0FFF7E1FDCAE7FFF71BFEC7E7F1BC5DF8D7
S315080027B00CFB814233D210185118401E491E10E0F6
S315080027C011F8013900F80139121F11F8013900F81A
S315080027D0013911F8013900F8013911F8013900F801
S315080027E0013992B2042AEBDA92B2002A1EBF11F816
S315080027F0013900F80139521EF6D1704711F8013B2C
S3150800280000F8013B121F11F8013B00F8013B11F8D3
S31508002810013B00F8013B11F8013B00F8013B92B27D
S31508002820042AEBDA92B2002A1EBF11F8013B00F81F
S31508002830013B521EF6D17047130003D00A461946CB
S3150800284000F020B8704710B500E0521E92B222B1CF
S3150800285000F012F8F9D0181B10BD002010BD10B5F5
S3150800286000E0521E92B22AB100F006F8F9D0181B01
S3150800287040B210BD002010BD10F8013B11F8014B05
S31508002880A342704762F30F2262F31F42401810F00A
S31508002890030308D0C91A1FD3DB0748BF00F8012D68
S315080028A028BF20F8022D130030B4144615461039F7
S315080028B028BF20E93C00FAD8490728BF20E90C00C0
S315080028C048BF40F8042D890028BF20F8022D48BFCC
S315080028D000F8012D30BC7047C91818BF00F8012D43
S315080028E0CB0728BF00F8012D7047000010B5044635
S315080028F001F07AF8204602F06AF9204602F01BFD3C
S315080029002046BDE8104003F0C5B902F05DBD10B51C
S31508002910044601F0A2F8204602F088FD204602F09F
S3150800292073F9204603F0DBF92046BDE8104003F0B2
S3150800293064BB10B500E010B5044601F0DFF8204688
S3150800294002F059FE204602F065F9204603F0E3F945
S31508002950204603F0BCFB2046BDE8104003F0FBBD53
S3150800296010B5044601F0F7F8204602F064FE20464A
S3150800297002F067F9204603F0FCF90CE010B50446AE
S3150800298001F00EF9204602F093FE204602F059F9AE
S31508002990204603F00BFA204603F0B1FB204603F06D
S315080029A0F2FD2046BDE8104003F05BBB80B504F09D
S315080029B047F803F0BAF8BDE8014002F08BB910B544
S315080029C0044603F08DFC2046BDE8104003F05DBBCD
S315080029D00198704780B504F0A6F8BDE8014003F0F9
S315080029E0ABB870472DE9F0471038E428AAB04FF085
S315080029F00108DFF8B897DFF8B857D6A1D6A4D7A745
S31508002A00D7A60FF2603A00F24E87DFE810F02801E9
S31508002A104C074C074C070605B703BC034C0789034C
S31508002A204C07DA034C074C078903E703EE038903CF
S31508002A301C0189034C074C074C074C074C07E5005B
S31508002A40EB008903550144047401890361049B035F
S31508002A504C074C0779017C014C07AD010302D701ED
S31508002A603B024C074C074C074C074C074C074C07D6
S31508002A70660454024C074C074C074C074C074C0796
S31508002A804C07FF004C074C074C074C074C074C07F4
S31508002A904C074C074C074C074C074C074C074C0790
S31508002AA04C07660289036F049B0379048004960425
S31508002AB09E044C07B102C1024C07EB044C07A7045D
S31508002AC0BF04D4020C054C074C074C070203D3037A
S31508002AD0D402CA04AB030F05E004FB04AB034C079E
S31508002AE00A04890324044C074C07850490044C0700
S31508002AF04C077B02760389038903890389038903C3
S31508002B007D03890389037E0589034C074C072E0735
S31508002B104C074C074C074C078903CC024C074C075B
S31508002B203E0489034C07F9034C074C0714054C0768
S31508002B3089036C054C0589033A0565034C071E0392
S31508002B4039034C074C074C074C074C0755035C05E3
S31508002B508903990687059E05AA054C074C074C0765
S31508002B60AE06B3064C07B606C106B205AF054C0756
S31508002B704C074C074C074C074C0776064C074C0786
S31508002B8051064C074C074C074C074C074C07B50534
S31508002B90C005C806CB05D5054C074C07F305010645
S31508002BA0CD064C074C074C07FC064C0704064C0799
S31508002BB04C0715064C074C071A06240638068903DF
S31508002BC04C0727054C074205720389033F064C0745
S31508002BD04C074C074806010701A900A802F04AFB62
S31508002BE000F01ABE08208DF809000DF10A0103A8A5
S31508002BF002F07EFB8DF8080003AB0DF10A00019088
S31508002C0002AA0DF109000090BCA1ADE108208DF8DB
S31508002C100F000DF10E0200F074FE9DF80E0003ABD6
S31508002C2005AA04A902F075FB8DF80D0004AB03A8EC
S31508002C3002900DF10D020DF10F00019005A800900C
S31508002C400FF6085190E101AB0DF10102ACA100F0BD
S31508002C5053FE01999DF8010002F06AFBA2E10DF10D
S31508002C60150004900DF11E030DF11600039006AA37
S31508002C700DF1170002900DF11A00019007A80090B7
S31508002C8001200FF6D041FFF74CFD9DF81500BDF861
S31508002C901A30BDF81C20BDF81E1002909DF81600CB
S31508002CA001909DF8170000909DF8180003F0ADFFFD
S31508002CB08DF8140005AAE2E1FFF74EFB00F019FEB5
S31508002CC08DF80000FFF748FB8DF80100FFF770FB51
S31508002CD0ADF80200FFF740FB8DF804000DF1050181
S31508002CE000F031FEFFF738FB8DF80D0000A92846E5
S31508002CF003F02EFC07E2FFF72FFB03F02AFC02E2A3
S31508002D0004F0B1FB4EE10DF1120304AAE9A100F0AB
S31508002D10F3FD06A8FFF799FB03A8019003AB05A8E6
S31508002D2000900DF10F0221464046FFF7FAFC0DF11F
S31508002D300D00029006AA05989DF80F30BDF81210EE
S31508002D4001909DF80C0000909DF8100002F0B9F96A
S31508002D502DE000BF760000007575700075700000E4
S31508002D6075000000757500000DF112020120FFF7CD
S31508002D70D8FC06A8FFF769FB03A802900DF10F031C
S31508002D8005A8019004AA03A800F0C7FD0DF10D00DF
S31508002D90029006A905989DF80F309DF8102001901D
S31508002DA09DF80C000090BDF8120002F093F98DF81A
S31508002DB00E000DF10D030DF10E025EE007A8FFF7F8
S31508002DC044FB04A8039005AB06A802900DF1150272
S31508002DD004A801900DF11300009001200FF67C3134
S31508002DE0FFF79FFC9DF813309DF814209DF81510E9
S31508002DF00DF111000290069801909DF810000090C0
S31508002E0007A802F073F98DF812000DF111030DF100
S31508002E10120232E00DF1190000900DF11A0307AA0B
S31508002E20DCA100F073FD09A8FFF70FFB05A80290C7
S31508002E300DF1170308A8019006AA05A800F06DFD74
S31508002E400DF11500049009AB08989DF81920BDF8F6
S31508002E501A1003909DF8140002909DF8170001902F
S31508002E609DF818000090BDF81C0002F05AF98DF87C
S31508002E7016000DF115030DF1160251460020FFF755
S31508002E8050FC6EE10DF106020120FFF74AFC03A88B
S31508002E90FFF7DBFA01A8009002AB01AA39464046C3
S31508002EA0FFF73FFC029B9DF80420BDF8060003A926
S31508002EB002F067F92FE10DF1050000900DF1060308
S31508002EC002AAB5A100F022FD9DF805209DF806107E
S31508002ED0BDF8080004F018FCE7E000F023FDAFA1F8
S31508002EE000F014FD039A9DF80810BDF80A0004F0D6
S31508002EF0C5FC8DF809000DF10902C0E0756276007F
S31508002F007577000008208DF811008DF810000DF176
S31508002F100E00029005A801900DF11100009008AB73
S31508002F200FF640250DF10F02294600F0EFFC03A825
S31508002F3002900DF11200019006A800909DF80E303F
S31508002F40BDF814209DF80F0008A902F048F98DF87D
S31508002F500D0006AB03A802900DF10D020DF112004B
S31508002F600190294604A800900020FFF7DAFBF8E054
S31508002F7000F0C5FC9DF8010001A902F055F98DF88D
S31508002F80000000AA00F0C5FC01A8FFF775FAE8E002
S31508002F9000F0B5FC01A8FFF774FA9DF8010001A935
S31508002FA002F055F9DDE300F0C5FC02999DF804002E
S31508002FB002F0ACF8AFE000AA00F0A3FC28786A2873
S31508002FC09DF8000001A902D104F096FC01E004F086
S31508002FD08AFF8DF801000DF1010200F09AFCBDF898
S31508002FE00400FFF7DEF99DF80600FFF7CEF90DF1AC
S31508002FF007011020FFF7F4F90698FFF7E2F907989A
S31508003000FFF7DFF99DF82000FFF7BFF90DF1210161
S31508003010C5E109A8FFF760FA00F084FC214600F034
S3150800302075FC04A80090039B9DF808209DF80A10DB
S3150800303009A802F00BFE8DF809000DF1090200F04F
S3150800304068FC04A8FFF741FA8BE008208DF80E000B
S315080030508DF80D0007AB0DF10D00029004AA05A826
S3150800306001904FA10DF10E0000F04FFCBDF81000C5
S3150800307005AA07A905F029F98DF80C0003AABFE3EC
S3150800308008208DF8050002AB0DF1050000900DF142
S31508003090060244A100F03AFC04A900F020FCBDF8A1
S315080030A0060004AA02A905F050F98DF8040001AA41
S315080030B0A6E300BF7576000008208DF801000DF123
S315080030C0010301AA38A100F017FC00F007FC03A9C8
S315080030D001A802F0D5FD44E300F02CFC02999DF806
S315080030E0040002F029FF8DF805000DF1050200F035
S315080030F010FC02F03CFFFFF748F9FFF72DF900B185
S31508003100012005F0C4FBCBE300F014FC02999DF8FE
S31508003110040005F0C5FB8DF805000DF105026FE307
S315080031202A780FF65000002600E0761CF6B2315CCD
S315080031309142FAD1FFF710F90FF6500151F826100F
S315080031408847ADE3FFF708F90646FFF731F929780E
S31508003150302901460CBFDFF86427DFF864273046BC
S315080031609047A2E300F0BEFB2878772800A802D192
S3150800317005F0AAFB94E305F0DFF891E3FFF718F9E9
S31508003180DFF8401703E0FFF713F9DFF83C1708806C
S315080031908BE300BF767675007675750076757000D8
S315080031A0766262007662000062000000286102080A
S315080031B0B02F002000A8FFF796F900A805F03AFE00
S315080031C06EE3FFF7C9F80546FFF702F900F08EFB34
S315080031D002463146284606F059FF61E300A8FFF784
S315080031E017F900A805F0AFFC5AE3FFF7B5F805464E
S315080031F000A8FFF70DF900A9284605F02AFD4FE3B8
S31508003200FFF7D6F80546FFF7E3F800F06FFB04462C
S31508003210FFF7CEF8034622463146284607F04EFB0E
S315080032203EE3FFF799F800A907F0F2FFFFF7ADF8BC
S3150800323000F04CFB9DF80200FFF7A7F89DF8030085
S31508003240FFF7A3F800F046FB9DF80500FFF79DF889
S315080032500DF10601A3E0FFF77FF800A908F067FA69
S31508003260FFF793F800F032FBBDF80200FFF799F874
S3150800327000F030FB9DF80500FFF787F89DF806007B
S31508003280FFF783F89DF807000AE3FFF765F840B2F1
S3150800329008F0B0FB04E3FFF75FF800A903F07DFA36
S315080032A0FFF773F89DF80000FFF76FF89DF8010027
S315080032B0FFF76BF8BDF80200FFF773F800F00AFB9A
S315080032C00DF105010820FFF78BF89DF80D00E7E2E0
S315080032D0FFF742F803F043FA34E0FFF769F800F025
S315080032E008FB0146284608F0A5FDD9E2FFF734F8A1
S315080032F0054600F027FB00A9284609F0E7FECFE2BD
S31508003300FFF72AF800A909F04CFF00A947E0FFF7E4
S3150800331023F809F054FF15E000F014FBFFF71CF83A
S31508003320010018BF012100A80AF074F8BDE200F0F8
S3150800333009FB00A80AF051F8B2E200F003FB00A866
S315080033400AF09CFAFFF72DF8AFE2FFF731F800A96B
S315080033500AF0AEFAFFF719F800A920E0FFF728F8F7
S31508003360ADF800000DF1020100F0B9FA0DF11201F5
S3150800337000F0B5FAFEF7F0FF8DF822000DF12301F3
S3150800338000F0E1FA00A80AF079FB89E200A80AF041
S3150800339011FCFEF7FAFF00F099FA0DF10201082078
S315080033A07EE0FEF7D9FF054601A900F0CCFAFEF744
S315080033B0D3FF064600F092FA03A83300009018BF20
S315080033C0012301AA2946002004F0F0FD68E200F076
S315080033D0B9FAFEF7C1FF010018BF012100A804F0E1
S315080033E0A5FD5DE200F0AEFAFEF7B6FF054602A9B6
S315080033F000F075FA290018BF012102AA00A804F0F6
S315080034007CFD4DE2FEF7A8FF002100910A46014621
S315080034100023404604F0CAFD42E200F093FA00A8F1
S3150800342004F07CFC3CE20BF023FA3EE24FF6FF7018
S3150800343004F0ECFF34E2FEF78FFF054606A93020BC
S31508003440FEF791FF00A91620FEF78DFF280018BF8A
S31508003450012000AA06A90BF0A9FB21E2FEF77CFFD2
S3150800346005460AA94A20FEF77EFF00A92520FEF791
S315080034707AFF280018BF012000AA0AA90BF0A3FBAF
S315080034800EE200A80BF099FBFEF77FFF00A930209B
S3150800349006E000A80BF09CFBFEF777FF00A94A2080
S315080034A0FEF79EFF01E200F01DFA0FA93020FEF795
S315080034B05AFF04A92A20FEF756FF04AA0FA900A856
S315080034C00BF08CFBECE100F00DFA16A94A20FEF78A
S315080034D04AFF04A94820FEF746FF04AA16A900A831
S315080034E00BF07EFBDCE106A91620FEF73CFF0CA9D3
S315080034F03020FEF738FF00A91520FEF734FF00AA92
S315080035000CA906A80BF057FBCAE1FEF751FF00F01D
S31508003510F0F941B228460BF046FCC1E10AA900F0D1
S31508003520DEF9FEF755FF0090FEF716FF8DF804004A
S315080035300DF1050100F0D3F90DF1150100F0CFF9F1
S3150800354000A90AA80BF0B3FDAAE1FEF741FF00F0B7
S31508003550D0F900F0CBF9024671B228460BF0D9FD36
S315080035609EE1FEF725FF0BF021FE99E10CF0A8F984
S315080035709BE10CF0AAF893E1FEF7EEFE054600A8DB
S31508003580FFF787F800A928460CF0BAF988E1FEF794
S31508003590E3FE00A90CF010FAFEF7F7FE00A8FFF705
S315080035A045F882E1FEF7D8FE054600F09BF900A92A
S315080035B028460CF0EBFD73E1FEF7CEFE00F099F914
S315080035C00646FEF7F5FE8146FEF7C6FE0446FEF7FA
S315080035D0C3FE0746FEF7C0FE8246FEF7D0FE0290FF
S315080035E0CDF804A0009723464A46314628460DF0F2
S315080035F0B9FF55E1FEF7B0FE054600A8FEF7E7FF5E
S31508003600FEF7AAFE42B200A928460CF091FB47E154
S315080036100CF022FC44E1FEF79FFE0546FEF7C8FEC5
S31508003620064600F08FF9FEF797FE034600AA3146D4
S3150800363028460CF0B2FC33E1FEF78EFE0CF03CFD9A
S315080036402EE1FEF7C5FE0546FEF7C2FE01462846F0
S315080036500EF036FB24E1FEF77FFE00F04AF900F093
S3150800366045F90746FEF7A4FE0446FEF775FE0090E8
S3150800367023467AB2314628460CF048FD10E100A8E8
S31508003680FEF7BFFF00A80EF040FB09E100A80EF008
S3150800369049FBFEF77AFE00A8FEF79FFF05E1FEF755
S315080036A05BFE00F026F9014628460EF035F8F7E0ED
S315080036B0FEF78EFE054606A8FFF71CF8FEF74CFE39
S315080036C00646FEF775FE8146FEF772FE0446FEF7CD
S315080036D06FFE074604A900F036F909A900F0FFF8BD
S315080036E009A803904B4604A8029001970094324615
S315080036F006A928460EF0BCFFD7E0FEF72DFE00F01F
S31508003700F8F8064604A8FEF7F5FFFEF725FE8146FB
S31508003710FEF722FE0446FEF732FE0746FEF71CFEBB
S315080037208246FEF745FE0390CDF808A0019700945F
S315080037304B4604AA314628460FF06EFAC0B2AFE0EF
S3150800374001A8FEF7D7FE0DF101030DF1020259A1FA
S3150800375000F0D2F89DF901209DF8021001A802F0A8
S31508003760ABFC8DF8000000AA4AE0FEF7F5FD0BF069
S31508003770C7FF95E00BF0C9FF92E004A900A80BF07B
S3150800378096FF00A8FEF7E5FE04A8FEF711FF8CE0F9
S3150800379000A8FEF7F5FE00A80BF091FF85E0FEF7FE
S315080037A0DBFD01F011FA7BE006A805900DF11E037A
S315080037B009A8049008AA06A803900DF11A00029019
S315080037C007A801900DF11B00009001200FF29C1133
S315080037D0FEF7A7FFBDF81C309DF81B20BDF81E108C
S315080037E009A802909DF8180001909DF81A0000900B
S315080037F0BDF8200001F0BDF98DF819000DF1190288
S3150800380000F087F851E0FEF7D3FD01F0D1F947E063
S3150800381001A900A801F03BFA8DF8010000AB0DF1F3
S31508003820010251460020FEF77CFF01A90820FEF799
S31508003830D7FDBDF80C00FEF7B4FD9DF80E00FEF7A7
S31508003840A4FD9DF80F00FEF7A0FD9DF81000FEF7F9
S315080038509CFDBDF81200FEF7A4FD9DF81400FEF7C6
S3150800386094FD0698FEF7ADFD1FE008208DF81200BE
S3150800387006AB04A803900DF1110205A802900EA14B
S3150800388004A801900DF1120000F03FF89DF8110010
S3150800389000B10120059B9DF8102006A901F07FFFC5
S315080038A0FEF773FD01E04FF0000840462AB0BDE878
S315080038B0F087000075730000756270006B6700087A
S315080038C04BD10008E8220020EA220020BDF80000BB
S315080038D0FEF767BD9DF80400FEF757BD03A9102043
S315080038E0FEF741BD00A91020FEF73DBD0646FEF7CE
S315080038F033BD0546FEF730BD0120FEF712BF0DF1B8
S31508003900010231460120FEF70CBF00900120FEF7A8
S3150800391008BF31460020FEF704BF009049464046DE
S31508003920FEF7FFBE02A8019002AB03A800900DF1B6
S315080039300A02704701A8009002AB01AA3946012085
S31508003940FEF7EFBE00A90820FEF70DBD7576627575
S31508003950000000007576767675757500757575754F
S315080039607000000075627675000000007676757640
S3150800397075756200181D207A2A84858687888B8A41
S315080039808D959A2E5BB1A4A122E8EE00EFB8000847
S31508003990A7A1000865890108FBB100088D6A00081F
S315080039A04DEC0008C5EC0008DBEC0008EFEC00085D
S315080039B00BED0008A3ED00088DED0008CFED00081B
S315080039C0FD5301088D9E0008D9A70108DDA7010847
S315080039D04D810008B1EB0008BFEB0008118C000808
S315080039E0CBEB0008D9EB000838B50446207898BB1D
S315080039F06070012020722070A07803281FD0072845
S31508003A0021D0112804D0152820D0302814D021E040
S31508003A100720DFF88C59207204F1090029880FF075
S31508003A20BEFAA878E072E878207328796073687916
S31508003A30A073A879E07331BD0FF0D7FA08E0DFF874
S31508003A406409007804E00FF091FB01E00FF0F7FF3E
S31508003A50607231BD0020207031BD38B5044620782B
S31508003A6000284AD101202070A078042810D0072801
S31508003A7014D00E281AD011283AD0152822D0172883
S31508003A8025D018282DD019282ED0302814D032E069
S31508003A90207A012814BF362000202AE0607A10B167
S31508003AA00FF032FB25E00FF041FB22E0607A00B10F
S31508003AB0012010F0B7F902E0607A0FF098FAC0B169
S31508003AC0362016E094F909000FF091FF0EE0657AAA
S31508003AD004F10A000FF05CFA0146284610F08FFA46
S31508003AE004E010F087FA01E010F077FA002000E011
S31508003AF03720607031BD0020207031BD10B50446F6
S31508003B00DFF8A4088078217856280CBF0120002009
S31508003B1001BBA1706178072910D130B110F0C4FA41
S31508003B20012814BF632062200EE0E07862280CBFEB
S31508003B300120002010F0BBFAA07009E0042909D181
S31508003B40DFF8681810B10878E07001E0E0780870CE
S31508003B500120207010BD017809BB81700121017018
S31508003B60417801290ED00C2909D017290DD02D2905
S31508003B7002D035290CD010E0DFF834180AE0DFF857
S31508003B80341807E0DFF8301804E0DFF8301801E0F1
S31508003B90DFF82C180978818070470021017070477A
S31508003BA038B50446207800285AD101202070002014
S31508003BB0A0706078012815D00C280FD017283DD0A2
S31508003BC02D2802D0352844D048E0A18803293DDABB
S31508003BD0C9B2DFF8DC0710F039FC38E0A088DFF856
S31508003BE0D41739E0DFF8DC07008828BBA08818B3AB
S31508003BF0DFF8D457287810F051FE11F08CF980B10F
S31508003C00A188DFF8B407C9B210F020FCA07011F043
S31508003C108CF9DFF8B807DFF8B8170068C01C086029
S31508003C2001E03820A070012010F0CFFD2870002098
S31508003C30DFF8A017088031BD382008E0A08811F009
S31508003C4032FA18B9A088DFF8741705E03620A07094
S31508003C5031BDA088DFF86817087031BD00202070D4
S31508003C6031BD80B501208DF8000000A8FEF7A7FE3B
S31508003C709DF8000002BD00002DE9F04FA7B011F035
S31508003C8076F911F084F90746DFF84007DFF8184798
S31508003C900068DFF8442746788578A57006F00301A2
S31508003CA08DF8081001782170C11C1160C01CDFF85E
S31508003CB020170860700900F00300E07011F04EFD4F
S31508003CC0300602D5582532203AE2607820B9A07825
S31508003CD010B15825302033E211F0E0FF10B958250D
S31508003CE042202DE2FFF7BDFF002800F02B82A078C6
S31508003CF06178DFF8E8B602000FF234280FF23429AB
S31508003D000FF2342A4FF6FF7662D0012800F0D281EE
S31508003D10022800F09A80032800F0EB80052834D0AA
S31508003D20062800F03681092818BF0A2800F03981CC
S31508003D300B2818BF0C2800F03B810E2800F045819F
S31508003D40122800F08B81132800F0B981172800F09B
S31508003D50C681262800F0B981272800F0BB814728AC
S31508003D6000F0B081492800F02A814E2800F05781DA
S31508003D70522842D0532857D0552800F07D8056281F
S31508003D8000F0918065281BD0812800F0F7808F28E5
S31508003D9000F0A881912800F0C281942800F0AE8135
S31508003DA0AA2800F09C80AB2800F0C880AC2800F058
S31508003DB0DA80AD2800F0DA80AE2800F0DA80F12843
S31508003DC000F06881F52817D0F62800F0D580B2E112
S31508003DD0FEF7C2FA06460420FEF7D7FA0220FEF7D7
S31508003DE0D4FA45F22070FEF7DCFA6078002808BF9E
S31508003DF0042E01D101206070A4E100F0C2F9FEF79B
S31508003E00ABFA8DF8010000A8FEF7AAFD9DF80000A0
S31508003E1028B937208DF802000020ADF8040001AB60
S31508003E200DF10202414656E0012918BF382039D162
S31508003E3000F0A7F901AB0DF1010241460120FEF79A
S31508003E4070FC00A8FEF79AFD24E03826012912D155
S31508003E50F91EC9B2032011F095F80746FF2F08BFCF
S31508003E60352608D011F02CFF002814BF0026362668
S31508003E70384610F013FDEFE0042200F083F90DF147
S31508003E8003030DF1010249460120FEF74AFC00A88A
S31508003E90FEF751FD9DF8000010B937208DF8020095
S31508003EA09DF802004CE1042200F06CF9FEF754FA82
S31508003EB08DF8010000A8FEF73CFD9DF8000028B922
S31508003EC037208DF8020000208DF803000DF103035A
S31508003ED00DF1020249460020FEF723FC32E100F00C
S31508003EE04BF9FEF739FA8DF80E0003A8FEF7FEFC2B
S31508003EF00BE000F041F904AB0DF10E02AEA1012072
S31508003F00FEF70FFC03A8FEF700FD9DF80C0028B984
S31508003F1037208DF80D0000208DF8140000F025F9E3
S31508003F200DF10D0251460020FEF7FBFB0AE100BF2A
S31508003F3075760000757500007575620000F01CF94D
S31508003F4000F013F90DF10E0251460120FEF7E9FBC8
S31508003F5003A8FEF7DCFC9DF80C0000280CBF3720F0
S31508003F609DF80D00ECE0FEF723F9EBE0FEF786F985
S31508003F70E8E0FEF7C9F9E5E00020ADE0042FFADB3A
S31508003F80DFF84C04DFF8481400683818C01E0860CB
S31508003F90D8E0012000F0FAF8002840F0E380072571
S31508003FA0D0E009280CBF0120002002F095FDC9E0E9
S31508003FB00C280CBF0120002000F05AF9C2E00020AE
S31508003FC0FEF7E3F911F0A4FF86E0FEF7C5F9064609
S31508003FD0FEF7EEF90746FEF7BFF98046FEF7BCF98D
S31508003FE08146B7F5004FB4BFB8F1040F70200BEB4C
S31508003FF0C60A11DA022E10DADAF800004246394605
S3150800400011F096FFB9F1000FAAF8047008BF4FF037
S3150800401000088AF80680002092E0702090E0FEF7FB
S315080040209BF9002100260228ADF802108DF8001031
S315080040300BEBC00708DA386800AA0DF1020111F087
S3150800404086FFB87900B10126BDF80200FEF7A9F986
S315080040509DF80000FEF799F9304671E0FEF77CF905
S31508004060070018BF0127002011F0A2FF804642462C
S31508004070FF2A08BF182063D0002F14BF304602203D
S315080040807AA111F0E1FF0020FEF77FF9404610F013
S3150800409005FC57E00026DFF8487337F81600FEF7E8
S315080040A080F9761C222EF8DBA07865284AD10FF015
S315080040B094FF47E0FEF750F912F018F940E011F0C6
S315080040C0FCFD3FE011F0F0FD3CE0C6490820FEF794
S315080040D087F937E009F01DFCFEF763F932E004F0D2
S315080040E0A8FE2DE0012712F075F9B04204D000278A
S315080040F0FEF732F9BC490870384621E003A91020BA
S31508004100FEF731F907A91020FEF72DF907A903A82C
S3150800411012F0A6F903A91020FEF762F912E012F0D0
S3150800412059F9FEF73EF90420FEF72FF91E20FEF78F
S315080041302CF9032004E0FEF755FC18B95825312060
S31508004140FEF723F9A149207809680870072D9F48CA
S31508004150006885700CBF012200229DF80800012125
S3150800416000F02CF827B0BDE8F08F05A8019005AB44
S315080041700DF11500009070478C22002103A8FEF768
S315080041805BBB0622002100A8FEF756BB38B58D4D4D
S315080041900446288810B110F002FF08B9002032BD85
S315080041A0288808B910F0ECFE9048007801222146CC
S315080041B000F004F8012032BD757700002DE9F843B8
S315080041C08846824E82490968074630689146091A28
S315080041D0B9F1000F8DB203D04078C0F3411402E064
S315080041E011F0B8FA044672480078844205D340F2C2
S315080041F07F310FF2082012F03FF9600140F080008D
S31508004200C92DC4B205DBC82010F0C5FE44F002046F
S3150800421002E0E8B210F0BFFE7548017819B1002136
S3150800422044F0020401707348017819B1002144F082
S31508004230010401706348018811B144F00401CCB24D
S3150800424019EA080F1CBF44F00801CCB231684C705B
S31508004250012F18BF022F02D1008800B1002763483A
S3150800426007704046BDE8F24310F078BE62000000D1
S315080042702DE9F0419AB00446FEF76EF805464CB1B2
S31508004280062818BF082803D0092818BF0B2801D10B
S3150800429070207FE0062D12D12820FEF776F800243C
S315080042A0554801880223224601A812F015FABDF8DE
S315080042B00400FEF776F8641C142CF1DB6CE0082D7C
S315080042C01DD14020FEF761F80024042322460C2164
S315080042D000A812F001FA9DF80000FEF756F89DF8BE
S315080042E00100FEF752F89DF80200FEF74EF89DF819
S315080042F00300FEF74AF8641C102CE6DB4CE00B2D95
S3150800430047D000260FF2081808EBC607387885420A
S315080043102BD114B97878FEF738F878687B78018855
S31508004320002202A812F0D8F934B3FEF715F80146B0
S315080043307878814201D002202CE0002100E0491C57
S31508004340C9B2814205D202AA8A5CFF2AF7D0462062
S3150800435020E002A9FEF707F878687A78008802A9AB
S3150800436012F049FA0020FEF710F8761CF6B20A2E6B
S31508004370CAD374B1B1200DE0092D05D1152200214B
S315080043800DF14E00FEF758FA787802A9FEF728F8DC
S3150800439002E00020FDF7F9FF1AB0BDE8F081000041
S315080043A07C650208B9210020AE2F0020E0220020FB
S315080043B00C220020A62F0020B8210020B32F0020B1
S315080043C020220020122F0020D7230020642C002052
S315080043D038280020BE29002034280020A0230020E9
S315080043E07C2C0020682C0020D6230020CF2F00200C
S315080043F0B22F0020102F0020AE650208636F6D6D86
S31508004400616E642D68616E646C6572732E6300005C
S3150800441001100000A265020802100000A465020847
S3150800442003020000A665020805100000AA65020836
S3150800443007080000AC650208000200009E65020835
S3150800444004020000A8650208095C0000B0650208BD
S315080044500A140000B26502080C080000A0650208EC
S3150800446010B5044601202070A178DFF8A00A272994
S315080044700CD1217A0429A8BF36200DDA417304F13C
S315080044800901227A2030FEF794F96FE028290CD129
S31508004490217A0829A8BF36206FDA017304F10901C9
S315080044A0227A1830FEF785F960E0C27B1D2910D103
S315080044B0217A042918BF36205FD142F00101C17361
S315080044C0617A0172A17A4172E17A8172217BC172A5
S315080044D04CE01E290DD1217A012918BF36204CD16E
S315080044E0617A002914BF42F0020102F0FD01C1738E
S315080044F03CE01F290DD1217A012918BF36203CD16D
S31508004500617A002914BF42F0040102F0FB01C1736D
S315080045102CE020290BD1217A082918BF36202CD166
S31508004520082204F10901B030FEF743F91EE02129FB
S315080045300BD1217A092918BF36201ED1092204F188
S315080045400901A430FEF735F910E0222910D1217AA5
S31508004550052918BF362010D1617A0170A17A4170F9
S31508004560E17A8170217BC170617B0171002004E0D2
S31508004570162904D1607A0BF04CFE607010BD00203D
S31508004580207010BD2DE9F54FDFF88409C0780027A3
S31508004590702895B08A461E46BB4640F02181307881
S315080045A0DDF88090DFF86C89DFF86049C0F3021007
S315080045B00090002500E06D1C0098EDB2C0B285425F
S315080045C080F09380A8190221C07C00F072FA0028B6
S315080045D0F1D0327BF07AB17AE57B130901EB002042
S315080045E0AF0702F00F014EBF0127277A07F00F0722
S315080045F0727BED0780B268D54FF6FF75A8421CBFDF
S31508004600B8F80050A84260D18F4222BFBB42219819
S3150800461090425AD31599082208A8FEF7CAF816999F
S315080046208DF828A00A220DF12A00FEF7C2F81A22F0
S3150800463031460DA8FEF7BDF88DF84E90E07B800751
S315080046404CD5DFF8D45805F12E06B07800283DD0B1
S315080046500822294608A8FEF7F6F8002801BF0AAE80
S315080046607088698988422CD1072205F10C010BA8AC
S31508004670FEF7E9F8002802BF307B297D884220D161
S315080046800F220DF135010DF13500FEF7DCF8C0B942
S31508004690032205F1240111A8FEF7D5F888B90722E7
S315080046A005F127010DF14700FEF7CDF8002802BFF6
S315080046B09DF84E0095F82E10884202D1022101205D
S315080046C00EE0E07B00F0FD00E07387E0302208A9E9
S315080046D02846FEF76EF80120B0707FE00221002020
S315080046E000F0ABF94FF0010B78E000253BE0401CE9
S315080046F0C0B2884236D2DFF824288218127C914547
S31508004700F5D101A800F085F9227B04F118010DF115
S315080047101700FEF74EF89DF8040000F08F008DF89C
S3150800472004000922217B090141F0010108438DF8A3
S31508004730040004F1A4010DF10500FEF73AF8A0788B
S315080047408DF80F0060788DF8100020788DF811002C
S3150800475020798DF81200E0788DF8130001A80DF085
S31508004760D4FABB466D1C0098EDB2C0B2854234D26D
S31508004770BBF1000F31D1A819C07C012802D0C0288E
S315080047800FD0EFE7E07B01278007EBD515990822C4
S3150800479004F12400FEF70DF80021012000F04DF980
S315080047A0DFE7DFF87C17097801F0010101270AF035
S315080047B0010081F00101084301BF16980088B8F886
S315080047C000108842CED1DFF854070078B9F1FF0F00
S315080047D0C0F3410195D000208AE70FB1584606E09C
S315080047E0DFF82C07007872280CBF0120002017B0CC
S315080047F0BDE8F08F2DE9FE4FDFF81407C0780024D6
S315080048007028A0466BD10E98DFF800A700780094B0
S31508004810C0F30210019021E06D1C09F10109B9F1FC
S31508004820100F43DB96B10E980078C0070ED50E9888
S31508004830C07AC0F30110022818BFFF2F06D00299CC
S315080048400AEBC70008222430FDF7B3FFE8B21028A8
S3150800485000DAA0460098401CC0B200900098019962
S31508004860884239DAB8F1000F36D10E98009908183F
S315080048700022C17C00E0521C9AF80E30D2B29A424D
S31508004880E8D202EB0A031B7C8B42F4D1012906D03D
S31508004890032902D0C02904D0DCE70124D9E7012482
S315080048A0D8E70025FF2701260124A9460AEBC90BEC
S315080048B0029908220BF12400FDF7C5FF00B900266E
S315080048C0FF2208210BF1240007F070F80028A3D076
S315080048D0FF2FA2D14F46A0E70CB1404606E0DFF80D
S315080048E03006407874280CBF01200020BDE8FE8FF2
S315080048F02DE9F44FDFF818A605469AF803000026B6
S3150800490070288EB0B3467BD1199F38781A9CDFF889
S31508004910FC85C0F302100490B14607E00126002D7D
S3150800492018BFC12D00D1B34609F1010904985FFAF1
S3150800493089F9C0B2814560D2BBF1000F5DD109EBA0
S315080049400700C07C012848D0032802D0C028E5D03B
S31508004950EAE70126032CE7DB002D18BFC12DE3D1BA
S3150800496007A800F056F89DF81C0040F001008DF8E5
S315080049701C00082208F1B0010DF11D00FDF719FF12
S31508004980072200210DF12500FDF756FF387805A905
S315080049900391C0F34102C0F30211029108F1180312
S315080049A007F113010191FF2098F80C10009107F107
S315080049B0100100F0ADF89DF81C1001F08F0141EAD6
S315080049C000118DF81C10024605A90DF12F00FDF700
S315080049D0F0FE07A80DF099F9A5E70126002D18BFE6
S315080049E0C12DA1D1032C9FDB0E99082208F12400C2
S315080049F0FDF729FF002897D195E70EB1584605E03F
S31508004A009AF8020076280CBF012000200FB0BDE8F6
S31508004A10F08F38B5DFF8F4546A7B044605F12001B7
S31508004A2004F11000FDF7C5FE207800F0F9002070AB
S31508004A30697B40EA4100207031BD70B588B00546F3
S31508004A400E4600A8FFF7E5FF9DF80000DFF8BC4416
S31508004A50217B00F08F008DF80000334600AA04F190
S31508004A60180000F033F89DF8000040F001008DF8BA
S31508004A700000082204F1B0010DF10100FDF799FECE
S31508004A8000208DF80900ADF80A00002DA07A8DF8EF
S31508004A900C00607A8DF80D0014BF2120207A8DF85D
S31508004AA00E00E07A8DF80F0000A80DF02EF908B078
S31508004AB070BD0022022808BF0122032808BF02226F
S31508004AC08A4201D101207047002070472DE9F8433A
S31508004AD014460546207888469946C0F302160027EC
S31508004AE00BE0785D40B14946FFF7E3FF20B1F2B22B
S31508004AF0785D1119561CC8747F1C4745F1DB207870
S31508004B0000F08F00207040EA06102070BDE8F1839F
S31508004B10F8B51C460025002306E0FF281CBF5E5C8E
S31508004B20B04205D05B1CDBB29342F6DB0020F2BD37
S31508004B30099E0722FF213046FDF77EFE0699079A51
S31508004B40089800230EE01F5D1CF802E0774502D1A5
S31508004B50EDB2AF556D1C0CF1010C5FFA8CFC844567
S31508004B60F1D35B1C8B42B8BF4FF0000CF5DBE8B203
S31508004B70F2BDFEB5099C082C01DB7020FEBD0A9E1D
S31508004B80089D0296019400950BF08DF905000DD14C
S31508004B90DE4F8022FF2107F12400FDF74DFEBC738E
S31508004BA02246314607F11000FDF703FE2846FEBDF2
S31508004BB010B50BF0D7F9040004D18022FF21D9489B
S31508004BC0FDF73AFE204610BD00210AF099BE10B541
S31508004BD004462078B8B901202072A078262805D185
S31508004BE000206070D048007860720AE016280AD162
S31508004BF004F10A000BF09DFB10B100213720217249
S31508004C0060700120207010BD0178002908BFFFF7E9
S31508004C1027BC7047017899B941780939C9B2102972
S31508004C200ED2C24A52F82110C14A1278562A07BF34
S31508004C300978C170C2780A7000218170012101705B
S31508004C40704710B50446207800BB6078B94A312809
S31508004C5008BF104602D0322818D1B748B0B1B449B7
S31508004C600978522908D0A188904209D1B34A127806
S31508004C708A4205D2362006E00078A080002002E0AD
S31508004C80C9B20FF0E3FBA0700120207010BD70B50B
S31508004C90044686B00D463826112011F027FB8028D9
S31508004CA015D1204605F01CF9064612231C2200A938
S31508004CB001200EF0B2F9BDF8060028819DF8020021
S31508004CC0A8729DF80300E872BDF80400E881304632
S31508004CD006B070BD80B511F0ACFE0DF08EF8BDE8DB
S31508004CE0014011F031BF38B504460D4609220021AE
S31508004CF02846FDF7A1FD218828460EF050F9A11C8B
S31508004D00A81CBDE838400722FDF753BD38B5044650
S31508004D100D461A2200212846FDF78EFD20782870B8
S31508004D200F22611C681CFDF744FD2078C0F3410280
S31508004D3004F1100105F11000FDF73BFD2078C0F3E2
S31508004D40021204F1130105F11300BDE83840FDF71E
S31508004D5030BD2DE9F0438FB00646DB208DF80800FC
S31508004D600F4690469946082231460DF10900FDF78F
S31508004D7020FD8DF811700DF112014046FFF7B3FFC3
S31508004D800DF11B014846FFF7C1FF169D179C8DF8CC
S31508004D9035508DF836402F2102A812F0DDF901941E
S31508004DA000954B46424639463046FFF7EBFB0FB0B7
S31508004DB0BDE8F0832DE9F14F92B0DC208DF81400A0
S31508004DC005AE9DF8480070700DF115058A469046A7
S31508004DD0994685F801A041460DF117000EF0DFF857
S31508004DE0082249460DF11900FDF7E3FC1C9C2C73BB
S31508004DF00DF122011D9F3846FFF775FFDDF878B0E3
S31508004E000DF12B015846FFF781FF1F9D86F831509B
S31508004E103321209E8DF8466005A812F09DF9049668
S31508004E200395CDF808B0019700944B469DF84800C5
S31508004E3042465146FFF7DEFC13B0BDE8F08F2DE978
S31508004E40F04790B08146E1208DF80C000DF10D0475
S31508004E500E46924698468DF80D9066700822514681
S31508004E600DF10F00FDF7A5FC84F80A8006A9189D28
S31508004E702846FFF738FF199F0DF121013846FFF73D
S31508004E8045FF1A9C8DF83B40302103A812F064F9BF
S31508004E900294019700954346524631464846FFF725
S31508004EA027FD10B0BDE8F087F0B58DB004460D4675
S31508004EB016461F462F22FF2100A8FDF7BDFCDE205F
S31508004EC08DF800008DF801409CB9082229460DF19D
S31508004ED00200FDF76EFC8DF80A600DF10B013846ED
S31508004EE0FFF701FF129805A9FFF710FF13988DF831
S31508004EF02E002F2100A812F02FF924B908222946DE
S31508004F000848FDF756FC0DB0F0BD0000BC2800208F
S31508004F104C2300205C2A002074290020682A0020DF
S31508004F2090230020E0280020912300205023002011
S31508004F30B02F0020282200203022002077610208A6
S31508004F4080B5DA2160E010B59EB01C468DF80100E8
S31508004F508DF80210D5238DF8003011460DF10300A7
S31508004F600EF01DF88DF805400DF10700209C2199DB
S31508004F708DF806402246FDF71CFCE11D1FE010B522
S31508004F809EB0D6248DF802108DF801008DF80040E9
S31508004F908DF803208DF804300DF1050020990DF0E9
S31508004FA0FEFF2198229C23998DF807008DF808406A
S31508004FB022460DF10900FDF7FCFB04F10901C9B20F
S31508004FC000A812F0C9F81EB010BD10B51C46E023A3
S31508004FD08AB0002818BFC1288DF800308DF8010066
S31508004FE08DF8021008D10DF103011046FFF77BFE7C
S31508004FF003A92046FFF78AFE262100A812F0ACF87E
S315080050000AB010BD80B5E3218DF800108DF80100B7
S31508005010022100A812F0A0F801BD80B5E421F3E74B
S315080050202DE9F84F8046DFF8180B07780D460A99E0
S3150800503091469B4619B10B980FF0B3FC02E000208D
S315080050400FF08EFC82460C9EBAF1FF0F03D10020AA
S315080050501824307032E0342F06D0362F0ED0382F71
S3150800506013D0962F18D01AE053464A46294640468A
S3150800507001F05CFF044602F06EFB10E05346424620
S315080050804946284601F0B1FF08E05346EAB24146D0
S31508005090484601F0FEFF01E012F08EFA0446962F0C
S315080050A01CBF99F80A003070E4B224B9DFF8940AF4
S315080050B000680AF800B050460FF0F0FB2046BDE83D
S315080050C0F28F10B584B0089C0294079C0194069C44
S315080050D0009407E010B584B00446104600F00FF8B7
S315080050E00A462146FFF79CFF04B010BD10B50446DA
S315080050F084B00846114600F002F82246F2E7089AFC
S315080051000292079A0192069A00927047E0B50191B9
S31508005110002200901146029200230846FFF780FFFE
S315080051200EBD2DE9F04683B089460C990546924690
S315080051301E4619B10D980FF034FC02E000200FF05E
S315080051400FFC04460E9FFF2C03D10020182538704B
S3150800515014E00A9800900194334652464946284678
S3150800516001F065FF0500B07A387004D1DFF8D4196C
S315080051700B980968605420460FF090FB2846BDE856
S31508005180FE8638B5DFF8C0492080C888440606D5AB
S31508005190DFF8B8492478202C03D1000401D4702004
S315080051A032BDDFF8AC49216022B1114618460FF02E
S315080051B0F8FB02E000200FF0D3FB0546FF2D08BFE1
S315080051C018240AD020684088294602F053F9044674
S315080051D002F0C1FA28460FF061FB204632BD2DE9E0
S315080051E0F041069F0D46044616469846394607F08E
S315080051F0D8FF204607F0E3FF07990880384608F0ED
S31508005200ECF8089908702946204607F05FFF070062
S3150800521007D13146204607F098FF4146284608F050
S31508005220F9F83846BDE8F081DFF828291278904267
S3150800523001D370207047DFF82029126832F8203031
S315080052400B8002EB80008078887000207047DFF8BA
S3150800525004291278904201D370207047DFF8F828A5
S3150800526012680B8822F8203002EB8000897881705A
S315080052700020704730B589B00C4604F031FE05466B
S3150800528012231C2204A901200DF0C7FE002020735A
S3150800529010F060FA9DF8101088420BD1BDF8160080
S315080052A020819DF81200A0729DF81300E072BDF8E7
S315080052B0140019E01023072200A901200DF0ADFE05
S315080052C0082202A92046FDF774FABDF800002081DD
S315080052D004F114019DF80200A0729DF80300E07223
S315080052E004F1100012F0ADFAE08109B0284630BD8D
S315080052F038B504460D4606F0B1FA0146082220469E
S31508005300FDF757FA06F0A6FA2880DFF85008007865
S3150800531032BDF8B504460D4616461F4612F0F5FD91
S3150800532028803A4631462046BDE8F84012F0FDBDD1
S31508005330FF2203F0DCBD10B504462078002842D1D0
S31508005340012020722070A078142804D100206070F3
S3150800535013F02FF933E001280BD0022808D00828CB
S3150800536018BF0D2805D0122818BF132801D002E04F
S3150800537020720021617001280AD0022812D008285C
S315080053800AD00D280BD0122815D0132815D018E0EE
S31508005390DFF8CC07007812E003F031FB0FE005F0E8
S315080053A044FC0CE0DFF8BC07018804F10900BDE8FD
S315080053B010400DF0F4BDFF2001E003F092FD60728D
S315080053C010BD0020207010BD10B5044682B02078AC
S315080053D058BB0120207000206070A07818B1022800
S315080053E019D00BD31FE0616800AAC9B210F0CEFC31
S315080053F060700220207204F1090007E00320207281
S3150800540000A813F0A6FA607204F10A00BDF80010AD
S315080054100DF0C5FD13BD01202072606880B213F03F
S31508005420ECFC607213BD0020207013BDF0B5044675
S3150800543085B02078002840F0D88001202070A07818
S31508005440010022D0012844D0022849D0052818BFD7
S3150800545006284DD0082800F0BB80092856D00A280F
S3150800546079D00B287CD00C2800F086800F2800F015
S315080054708780232818BF242800F08F80252800F06D
S315080054809D80292800F0A680ADE0207A102860D1FA
S3150800549000F0ADF8ADF80400082294F90B008DF879
S315080054A0060004F11001207B8DF80700607B8DF85B
S315080054B00800A07B8DF80900E07BADF80A0003A878
S315080054C0FDF777F91023072201A900200DF0A5FDA5
S315080054D086E0207A01283CD1607ADFF884167EE0DF
S315080054E0207A022835D100F082F8DFF878160BE02A
S315080054F0207A02282DD100F07AF8A17805290CBF68
S31508005500DFF86416DFF86416088069E0DFF86006DD
S315080055100568207A46080DB9DEB961E0DFF8540659
S315080055200078B04215D3002707E004EB470009309E
S315080055300DF02EFD25F817007F1CB742F5DB4FF45A
S31508005540004725F81670284613F0C9FC002848D0ED
S315080055502F80362045E000F04AF808F008FB3FE0C7
S31508005560DFF814060068407B20B900F040F808F020
S31508005570D4F935E0382034E0607ADFF800162EE0FA
S31508005580657A04F10A000DF003FDADF8000000AAE3
S315080055902946012010F0FAFB23E0217A042912D1CA
S315080055A023280CBF0325012504F1090101200DF06C
S315080055B008FD0146284613F030FE12E0607A0328FB
S315080055C018BF042801D002200BE004F054FB07E0C2
S315080055D0372006E0607A00B10120DFF8A4150870CC
S315080055E00020607001E00020207005B0F0BD04F1D5
S315080055F009000DF0CDBCDFF8481509780278562960
S315080056000CBF01210021AAB98270DFF84035427823
S31508005610032A05D109B1597806E0C178597007E01F
S31508005620022A07D111B11978C17001E0C178197041
S31508005630012101707047017801B1704730B581705A
S31508005640012101704178052906D0122913D018299D
S315080056500AD01F2912D015E0DFF82815DFF828250B
S3150800566009781278891A21E0DFF820150A78511E80
S315080056708941C90F1AE0DFF8181501E0DFF814159B
S31508005680098813E000220FF23C5300E0521CD2B204
S315080056901446E55CFF2D02D10021017030BD8D4214
S315080056A0F4D10FF23C5151F824100978818030BDAD
S315080056B070B504462078002870D10120207000209B
S315080056C0A0706278052A08D0122A2BD0182A1DD075
S315080056D0192A02D01F2A20D02DE0DFF8AC0405785D
S315080056E0DFF8A00401784E1BA188052A0CBF0E46D8
S315080056F00D46A919C9B20EF0A9FE0028A0704DD111
S31508005700E9B2F0B2BDE8704013F09EBFA188481E0A
S315080057108041C00FDFF874143DE0A088DFF87414E8
S31508005720088070BDA18847F2315081421DDADFF842
S315080057306004018070BD0FF28C4100E0401CC0B2CD
S3150800574003465D5CFF2D02D10020207070BD954296
S31508005750F4D1042B07DADFF8400450F82300A188B7
S315080057600078884201D32B2A02D13620A07070BD5A
S315080057700FF26C40A18850F823000B2B0DDAC9B242
S315080057800EF064FEA070002804BF6078112805D1C9
S31508005790A088DFF80814087070BD017070BDF8B5F0
S315080057A004460D461146184618260FF0FAF807461D
S315080057B0FF2F08D03A462946204614F043F90646F4
S315080057C038460FF06BF83046F2BD38B504460D463C
S315080057D0218828460DF0E3FB6188A81C0DF0DFFB45
S315080057E02079287160796871A81DE1880DF0D7FBCA
S315080057F0218905F108000DF0D2FBA07AA87231BD07
S3150800580010B586B004461B208DF80000A0788DF8E8
S3150800581001000DF1020021880DF0C1FB0822211DAF
S3150800582001A8FCF7C6FF00A8E1780173217B417344
S31508005830607B8DF80E000DF10F0000F0B9F911210B
S3150800584000F01AF906B010BD80B58DF801008DF884
S3150800585002101C228DF80020D4E02DE9F04F87B005
S3150800586005460E46144614F0E4F9804622463146AB
S31508005870284610F017FA002865D10DF1090014F032
S31508005880E0F930B962208DF80800092102A811F064
S3150800589063FCFF2C0FBF4FF0000BC149096814F8D1
S315080058A001B045208DF8080002AF0DF10A017D70A0
S315080058B03046FFF78AFF0DF1150000F079F94146E9
S315080058C00DF117000DF06BFB01F0F9FD8DF81900CD
S315080058D00025B448DFF8B0920668DFF8A8A201E010
S315080058E06D1C0C369AF8000099F80010EDB2401AB3
S315080058F085420BDA30884045F2D10FF055FFB17A70
S31508005900C1F342018142EBD1BD7401E0FF20B874B6
S315080059108DF81BB0404613F070FA8DF8040000B1FC
S315080059200120009001AB2246142102A811F01CFCAC
S3150800593000281EBF85480078212804D19A48017896
S3150800594041F00401017007B0BDE8F08F2DE9F0437E
S3150800595007469348006887B01D460E9C2E5C88460D
S3150800596091462146384601F03DF93F208DF804005E
S315080059708DF8057041460DF106000DF010FB02A9E1
S315080059804846FFF722FF6F480068285C8DF8130029
S315080059908DF8144085480078402804BF0026FF2566
S315080059A0002000908DF8156000232A46122101A8D0
S315080059B011F0DAFB07B0BDE8F0831FB504462320D3
S315080059C08DF800008DF801408DF80210204612F07F
S315080059D09CFA01460DF103000DF0E1FA0DF10D02F6
S315080059E00DF10501204612F0A0FA0E2100F044F848
S315080059F01FBD80B57C218DF8001001460DF1010010
S31508005A000DF0CDFA032100A811F0A6FB01BD70B573
S31508005A1086B004467D208DF800000D4616462146C0
S31508005A200DF101000DF0BBFA082229460DF103001D
S31508005A30FCF7BFFE8DF80B600C2100F01DF803A8DB
S31508005A4014F0FFF818B903A9204613F003FE06B0B0
S31508005A5070BD38B504460D4601F0A9F880208DF8CA
S31508005A6000008DF8014029460DF102000DF097FA65
S31508005A70042100F001F831BD00A811F06DBB10B586
S31508005A8084B0044646208DF8040001A821784170A8
S31508005A90617881700DF1070000F08AF84048A17816
S31508005AA00068085C8DF80900002300200090062194
S31508005AB0A27801A811F058FB1FBD80B598208DF873
S31508005AC000008DF8011000A802219DE71FB50C46BD
S31508005AD092218DF80410082201460DF10500FCF705
S31508005AE068FE0DF10D0000F063F82D480068205C93
S31508005AF08DF80F0000230020009022460C21D8E7DD
S31508005B0000B5274A126883B0825C8DF80510932386
S31508005B108DF8062000218DF80430009102460023F6
S31508005B20032101A811F020FB07BD80B507F0C2FAD2
S31508005B30BDE8014005F0A4BF114900200870704770
S31508005B40B02F00207C2D0020B62D00200723002032
S31508005B50B82D00200422002000220020142F002047
S31508005B60DA2F0020F4230020EC220020EE22002069
S31508005B70A82D0020782D0020642D0020082F002055
S31508005B80DE2F00204C220020E62F0020D021002006
S31508005B906C2200205C2200200C23002069220020B1
S31508005BA0C021002050220020B42D0020E022002031
S31508005BB010B5044614F036F8601CBDE8104014F021
S31508005BC033B800001102090A030607081A2B2C1914
S31508005BD010131B14151C1D2021222A2E333435FFC1
S31508005BE0D8210020142200209F2F00209E2F00205D
S31508005BF05422002004220020F0210020FC2100204D
S31508005C00072F002006230020782D0020E62F0020ED
S31508005C106A2200206F220020702200206E220020B7
S31508005C20A72F00205E220020A12F0020812300201C
S31508005C307122002072220020A52F0020A92F002003
S31508005C401024002020220020082E002038B5044603
S31508005C501046002901461A46204602D014F053F889
S31508005C6001E014F021F80546002C1EBF0498002810
S31508005C70A04203D02146142214F0B2F8284632BDB9
S31508005C80954B1B7802467020002B1CBF104608F067
S31508005C90CDBD70471CB504462078F8B9022020729D
S31508005CA0A0780A280AD0102810D101A814F0EFF815
S31508005CB06070BDF80400ADF8000004E000206070D4
S31508005CC000A807F06DFF0120207001E0207828B1B8
S31508005CD0BDF8001004F109000DF061F913BD38B5DF
S31508005CE004462078002804BFA078102812D104F1B1
S31508005CF0090101200DF065F9054604F10D000DF0C6
S31508005D0047F9ADF8000000A9284614F095F8607028
S31508005D100120207031BD71490978027856290CBFD7
S31508005D200121002122BB827001220270427832B919
S31508005D306B4A09B1117811E0C07810707047052ACE
S31508005D4005D1684A61B1117841F0500106E0062A8A
S31508005D500CD1654A21B1117841F06001C1707047D4
S31508005D60C17801F00F01C1701170704700210170F0
S31508005D70704710B504462078B8B900F045F806D043
S31508005D801E2807D0242807D0362808D00BE005F0AF
S31508005D9069FD06E0554800E05548007801E0554899
S31508005DA00088A08010BD0020207010BD10B50446E4
S31508005DB0207840BB00F028F806D01E280AD02428F0
S31508005DC012D0362819D01CE0A088BDE81040C0B211
S31508005DD005F04CBD4848A188007888420AD3C9B264
S31508005DE042480EF033FB06E0A1880B2902DA404848
S31508005DF0017010BD3620A07010BDA0883D490880EE
S31508005E0010BD0020207010BD012020700020A07059
S31508005E1060780D28704700002DE9F0431546012DDE
S31508005E2087B0804689461C4608D1012100200226F3
S31508005E3050EA01022A4F0AD1032618E0052DF4D0AC
S31508005E400021032D18BF072DF0D10120EFE73A787E
S31508005E50052A0AD8DFE802F003060509083C0126E8
S31508005E6005E060B1002602E00E46022E07D007F0D4
S31508005E7050FD844203D02146404612F0AAFF0196FF
S31508005E802346387800902A4649464046FCF7A0FD46
S31508005E90064624208DF8080041460DF109000DF04C
S31508005EA07EF8082249460DF10B00FCF782FC8DF8B6
S31508005EB013508DF8146021460DF115000DF06FF89A
S31508005EC00F2102A811F048F9304607B0BDE8F08363
S31508005ED00028C7D0B0E70000DE2F0020B02F002032
S31508005EE003230020A32F002064220020A22F0020D5
S31508005EF0A82F0020662200207561020880B56E2151
S31508005F008DF800108DF80100022100A811F024F97F
S31508005F1001BD10B584B00C469B218DF800100822EF
S31508005F2001460DF10100FCF744FC8DF809400A21F1
S31508005F3000A811F011F91FBD30B58BB004460D4607
S31508005F402A22FF2100A8FCF777FC214628460EF0F6
S31508005F5028FD0446FF2C08BF182505D013F0D8FFE6
S31508005F60054620460EF09AFC28460BB030BD10B503
S31508005F704E4C2178FF29A8B008BF702020D00020F9
S31508005F8000904A2300220AA80EF027FD0020009060
S31508005F90252321784A221DA80EF01FFD0020009017
S31508005FA0242321786F2201A80EF017FD20780EF021
S31508005FB075FCFF20207001AA0AA91DA808F00AFE90
S31508005FC028B010BDF8B5394F04463878FF280D4675
S31508005FD0164608D1932100200EF0E3FCFF283870FE
S31508005FE001D13520F2BD01200090334639782A4682
S31508005FF020460EF0F2FC0020F2BD10B50446A6B00D
S31508006000207860BB01202070A0781A2804D024D3F9
S315080060101C2815D00AD320E04A2204F1090113A846
S31508006020FCF7C7FB4A22002113A812E0252204F137
S31508006030090109A8FCF7BDFB25224A2109A808E0A1
S31508006040242204F1090100A8FCF7B3FB24226F21DE
S3150800605000A8FFF7B7FF607001E00020207026B0A7
S3150800606010BD0178002904BF417829290CD11049AF
S315080060700978522904D10F4909788180002100E066
S315080060803821817001210170704710B5074C2078BE
S31508006090FF281FBF06490978AB29ED2903D00EF062
S315080060A0FDFBFF20207010BD000000000523002026
S315080060B0B02F0020A42F002011B1012903D004E03D
S315080060C0114608F007BF08F050BF0220704710B508
S315080060D004462078002804BF607808280ED11448A2
S315080060E00078562803D109F020FBE07002E0E0783A
S315080060F009F020FB0020A0700120207010BD017857
S31508006100A1B941782F2908BF0A4902D030290DD1F3
S31508006110094959B1064A1278522A07BF0978818077
S3150800612082880A7000218170012101707047000081
S31508006130B02F0020742200207522002030B58FB0C1
S3150800614005460C463B22002100A8FCF775FBB62045
S315080061508DF800000DF10101284600F077F800A837
S31508006160DCB1002180F82910082221460DF12A0009
S31508006170FCF71FFB0DF12905207A68720DF1330033
S3150800618061890CF00CFFA1890DF135000CF007FFB1
S31508006190A07BA873E07BE87302E0012180F8291050
S315080061A00DF13900FFF704FD3B2100F00CF80FB0A4
S315080061B030BD80B5B7218DF800108DF80100022199
S315080061C000F001F801BD00A810F0C6BF10B586B0F2
S315080061D00446B8208DF800000DF1010021880CF066
S315080061E0DEFE61880DF103000CF0D9FEA1880DF1E1
S315080061F005000CF0D4FEE1880DF107000CF0CFFE87
S3150800620021890DF109000CF0CAFE61890DF10B0018
S315080062100CF0C5FEA1890DF10D000CF0C0FE0DF1C4
S315080062200F00FFF7C5FC1121FFF7CDFF06B010BD23
S3150800623000B58BB0BB218DF800100DF1010100F0FF
S3150800624005F82921FFF7BFFF0BB000BDF8B50446D6
S315080062500D46A0782870681C21880CF0A0FE08223C
S31508006260211DE81CFCF7A5FAE078E87204F110078E
S31508006270207B287305F10E06607B687331463A6801
S3150800628001200CF090FE7A68311D01200CF08BFE7F
S31508006290398906F108000CF082FE082204F11C0177
S315080062A005F11800FCF785FAA18C05F120000CF021
S315080062B076FEE18C05F122000CF071FE94F82800B8
S315080062C085F8240094F8290085F8250094F82A0012
S315080062D085F8260094F82B0085F82700F1BD000004
S315080062E0F8B5B84D0446286880782B38022801D9B5
S315080062F00D382ED1FCF730F806462868B249C01C7E
S3150800630008600021312010F0E4FF05464FF6FF77BC
S315080063100BE005F10D0080B210F013FFB04213D068
S315080063202946312010F0D5FF0546BD42F1D100219E
S3150800633000E02946322010F0CCFF0546BD4208D0C1
S3150800634010F0FFFEB042F4D1A420FCF71EF800209E
S315080063502070F1BD38B50446002100E029463F20EB
S3150800636010F0B7FF05464FF6FF7085420CD0284659
S3150800637010F0E7FE0228F1D1681C80B210F0E1FEA9
S31508006380A042EBD1012032BD002032BD2DE9F843F1
S3150800639080464FF000090021452010F09AFF044678
S315080063A08A4D4FF6FF7609E0FF21B8B210F0CEFE0F
S315080063B0A146A1B2452010F08CFF0446B44223D072
S315080063C004F11007B8B210F0BCFE4045F0D12046E3
S315080063D010F0B7FE022818BF0328E5D1241FA0B283
S315080063E010F0AFFE01462888401A32182A8092B269
S315080063F077480092091900784B1C9BB20246A1B255
S315080064000EF0D6FC4C46D3E7BDE8F183F0B5714FE4
S315080064103D788BB006466C240FF0C6F90FF09EF94E
S315080064206D480078112806D0122830D17188707806
S315080064300FF0EFFC58B3707804A90FF089FC88B107
S31508006440BDF8100040F20911884204BF7088B0F503
S31508006450006F07D1701D13F066FDB52802D0B0B9DC
S31508006460002414E00124002500E06D1C3878EDB204
S3150800647085420CD206A9284600F08FF99DF8180027
S315080064800028F2D13146284600F092F90446312018
S315080064908DF8000000AF307878707078B8700DF11C
S315080064A0030071880CF07BFD307978710822711D24
S315080064B00DF10600FCF77DF98DF80E508DF80F40AA
S315080064C0102100A810F048FE20460BB0F0BD38B5E4
S315080064D004466C250FF068F90FF040F93E4800783D
S315080064E011280DD12046FFF735FF08B1752507E0BD
S315080064F0204600F0A7F9050004BF2046FFF746FF2F
S3150800650032208DF800008DF801408DF802500321E5
S3150800651000A810F021FE284632BD38B504460D46BF
S31508006520FFF718FF08B1752510E03DB10FF012F915
S3150800653068732946204600F03BF902E0204600F041
S3150800654081F9050004BF2046FFF720FF284632BD23
S31508006550E3E70021E1E721490978027856290CBFCB
S3150800656001210021002A04BF4278012A0AD11A4AC9
S31508006570002919BF1178C170C17811700021817086
S3150800658001210170704710B504462078002804BF21
S315080065906078042814D111490E480978522903D184
S315080065A00078A080002008E00D4AA18812788A4267
S315080065B032BF3620C9B20DF049FFA0700120207005
S315080065C010BD0000642C002034280020122F002063
S315080065D0D7230020A02F002004230020B02F00205E
S315080065E0736102081FB50C4602460D23152100A843
S315080065F010F072F80D2200A92046FCF7DAF8207888
S3150800660040096073207800F01F0020701FBD30B568
S3150800661085B004460D460D2200A8FCF7CAF89DF879
S315080066200000697B40EA41108DF800000D2300AA9E
S315080066302146152010F077F805B030BD2DE9FF4149
S3150800664004460025DFF88064DFF8807413E03068BC
S31508006650A84630F81800A0420CD100A9284600F038
S315080066609CF89DF80000022804D031684FF6FD70AA
S3150800667021F818006D1CEDB238788542E7D3BDE8DD
S31508006680FF812DE9F04588464FF6FF7AD04585B05B
S31508006690044605D100F0D0F910B907F03AF933E00D
S315080066A0DFF82464DFF8247400250CE0D04508D010
S315080066B0306830F81510414504BF4FF6FD7120F8D3
S315080066C01510681CC5B2387885421CDA306830F86F
S315080066D0150000F00FF9F4DA00A92846FFF782FF43
S315080066E0082221460DF10500FCF7ADF80028DDD19A
S315080066F03068D04502D130F8150005E020F815803D
S3150800670013F04EFCDDE7504605B0BDE8F0852DE9EF
S31508006710FF47804689460026DFF8B473DFF8A843AA
S31508006720DFF8A85315E02068B24630F81A0000F0E2
S31508006730E1F80DDA00A93046FFF754FF0822414672
S315080067400DF10500FCF77FF810B938680AF80090D3
S31508006750761CF6B228788642E5D3BDE8FF87DFF8CF
S315080067606813096831F8100070471FB50C46DFF842
S315080067705C13097888420FD2D349096831F810109A
S315080067804FF6FE72914207DA00A900F006F8214694
S315080067900DF10500FFF775FF1FBD80B5CB4A1278CE
S315080067A0904201D3692002BDFFF71CFF002002BDFD
S315080067B070B504460D4623460022B3A1032014F003
S315080067C05BF8287818B92046BDE870403AE0BF481B
S315080067D00078844201D3692070BD204613F0FCFF7F
S315080067E008B1752070BD0EF093FF6873681D06F03A
S315080067F0F4FD06464FF6FF71681DFFF742FF024695
S3150800680029783346204600F006F829462046FFF741
S31508006810FEFE002070BD10B54FF6FF7409B922467A
S3150800682008E0032908BF4FF6FE7203D0A24208BF4C
S315080068304FF6FD72A449096821F81020A449096891
S31508006840435410BD30B505462C4685B02346012273
S315080068508DA1032014F010F89C480078854228BFC3
S3150800686069201AD2284613F0B7FF08B1752014E03C
S3150800687000A92846FFF7B6FE9DF8000030B10020B3
S315080068808DF8000000A92846FFF7C1FE8E49096861
S315080068904FF6FF7021F81400002005B030BDF0B5A2
S315080068A085B007460C46884D884E00E07F1C307838
S315080068B0FFB287421BD2286830F8170000F01AF892
S315080068C0F4D100A93846FFF78DFE9DF80500E1B220
S315080068D0884204BF9DF80600B0EB142FE6D10EF0EF
S315080068E017FF9DF80D108142E0D1384600E0FF20E1
S315080068F005B0F0BD4FF6FE71884270472DE9F14F9D
S3150800690084B00D460E9C704FDFF8C0A1904699469C
S31508006910002607E03868BDF8101030F81B008842DA
S315080069202BD0761C9AF80000F6B2864227D2386831
S31508006930B34630F81B00FFF7DDFFF2DA00A9304650
S31508006940FFF750FEB8F1000F07D19DF80100484542
S3150800695004BF9DF80400A042E3D10EF0D9FE9DF8CD
S315080069600D108142DDD1002DD4D008220DF105018C
S315080069702846FBF768FF0028D3D1304600E0FF2001
S3150800698005B0BDE8F08F10B51446FFF72BFE20467C
S31508006990BDE8104008224F49FBF70BBF2DE9FF471A
S315080069A00446084615461E4600F046F808B100207B
S315080069B03FE00027DFF81081DFF8109100E07F1C28
S315080069C099F80000FFB2874222D2D8F80000BA46EA
S315080069D030F81A004FF6FF718842F0D000A9384601
S315080069E0FFF700FE0C220DF10101601CFBF72BFFDF
S315080069F00028E4D1BAF1FF0F0CD1002030700EF058
S31508006A00A7FE307845B178B92046FFF7FFFC07E0C6
S31508006A10FF27F2E70120F1E738B13846FFF757FDBF
S31508006A20401E8041C00F00E0012030700EF04DFE80
S31508006A30012004B0BDE8F08708222649FBF703BF0A
S31508006A4030B585B00024214D17E000A92046FFF790
S31508006A50C9FD9DF80000042806DB00208DF800001B
S31508006A6000A92046FFF7D3FD9DF8001000234FF636
S31508006A70FF722046FFF7CFFE641C2878E4B28442F2
S31508006A80E3D305B030BD00004242000030B585B002
S31508006A9002220CA1032013F0EFFE00208DF800005F
S31508006AA000240A4D04E000A92046FFF7B0FD641C47
S31508006AB02878E4B28442F6D3FFF7C2FF002005B077
S31508006AC030BD00004200000040220020A02F002018
S31508006AD044220020682C002030B583B00446FBF71A
S31508006AE03BFC0546202D1ADA5CB100A90820FBF705
S31508006AF03AFC082300AA294621200FF014FE00209C
S31508006B000EE008232A46212100A80FF0E5FD002003
S31508006B10FBF73BFC00A90820FBF762FC37BD702099
S31508006B20FBF733FC37BD704770B54D4D6E8A04468A
S31508006B3005F1080013F0D2FE012C08BFAE8A02D078
S31508006B40022C08BF022618B1FA217143884206D3DF
S31508006B50310205F10800BDE8704013F0B2BE70BD01
S31508006B607CB53F4C3F4E0020E07020714FF6FD7516
S31508006B70607988B14FF6FC700190002300200090E0
S31508006B8002460146308803F086FE35800020607193
S31508006B900120BDE87640C7E7A178208A05F04AF9C2
S31508006BA03088A842F4D0012060710220F1E710B5C0
S31508006BB0A92818BFAA2814D12948C2780378521CD4
S31508006BC0C270D2B29A420CD3264A13884FF6FD7485
S31508006BD0A34202D11180002141710020BDE8104076
S31508006BE0A2E710BD00281CBF012802280CD166297F
S31508006BF00AD11B480179491C0171C9B24078814202
S31508006C0024BF0020FFF790BF704710B5144C2182AF
S31508006C109200029921709B0003996282A382617097
S31508006C209BB20499A17092B2934208D3218A4FF677
S31508006C30F87291421CBF4FF6F972914201D070204A
S31508006C4010BD002161714FF6FD71064A118018B119
S31508006C500120FFF769FF00E02072002010BD000048
S31508006C60A8290020622300202DE9F84F8AB088461B
S31508006C701646ADF804804FF00009F5880446CA4662
S31508006C80002704F0E4FE159860B9E8060AD59DF8D1
S31508006C9050009DF82830009032464146204613F0B1
S31508006CA039F910E1680548BF4FF4805A280548BFEE
S31508006CB04AF4006AA80548BF4AF0800A03D4E805E2
S31508006CC048BF4AF0400A9DF8500002900A2CC34675
S31508006CD068D8DFE804F007301B3F67673F06073FC1
S31508006CE0190002279DF82800BDF8042000904B469D
S31508006CF09DF850004AF4027111F0B0FB8246BAF1D1
S31508006D00FF0F51D11820DEE00327EBE705A95FFA4C
S31508006D1088F0FFF742FD08220DF1190103A8FBF7D9
S31508006D2048FDDFF8C808006830F81B000DF10C09AB
S31508006D30ADF80400D6E703A95FFA88F006F031FA41
S31508006D40DFF8AC0800680C2101FB0B000DF10C09FB
S31508006D500088EDE74FF6F870834523DBF0884FF49B
S31508006D60026108421ED100F03AF918BF91201AD1E3
S31508006D700298FF280FD000F076FB032C0CBF0121E8
S31508006D800021401ADFF86C18029A0968515C88429B
S31508006D90B8BF742007DB032C0CBF0C2708272AF47E
S31508006DA0C07A9FE701208EE0DFF84C0800884FF68E
S31508006DB0FF71884214D0504613F0A7FE8346DFF8C9
S31508006DC0380801880BF104000CF0E9F8DFF82C0804
S31508006DD0DFF8241800788BF807004FF6FF70088054
S31508006DE032463946504611F013FD08B9182666E0B2
S31508006DF0DFF80C080068C07E70B1A8060CD5E80755
S31508006E004CBF2020002040F001034A46002150468E
S31508006E1012F093FB060052D10298FF2816D050466E
S31508006E2013F069FEDFF8D8170968C97E01B1122187
S31508006E30DFF8C027029B12689B5C1AF80220D2185A
S31508006E40743089188842B8BF742638DBA80407D579
S31508006E50504613F064FE40F48061504613F061FE1C
S31508006E60082C12BF092C504613F068FE159848B135
S31508006E70BDF80410504613F07AFE159880F800A065
S31508006E80002020E0E01E05D0C01E012884BFC01ED9
S31508006E90012807D8504604F051FE00280CBFA12649
S31508006EA000260CE0A80444BF4FF6BF7005402B46E9
S31508006EB05FFA88F22146504613F083F80646504694
S31508006EC00DF0ECFC30460BB0BDE8F08FF0B587B09E
S31508006ED00E4604460C99174618460DF062FD0546FF
S31508006EE0FF2D21D0FF208DF810008DF81100ADF888
S31508006EF00E704CF20E00ADF80C00ADF812600020D2
S31508006F00ADF81400009502A80190FF2303AA2146B4
S31508006F100020FFF7A9FE044628460DF0BFFC002C0A
S31508006F200CBF9DF80800FF2007B0F0BD2DE9F0431F
S31508006F30164685B00446F08804900D4670790FF21F
S31508006F40007103901F4630790290A8467088019018
S31508006F50434630880090082200F098F800F03FF881
S31508006F6018BF912019D1FF2F09D000F07CFADFF85D
S31508006F7084160968795C884238BF74200DD37CB9B9
S31508006F804FF6F870804528DA002001900097FF2315
S31508006F90324629462046FFF767FE05B0BDE8F0836E
S31508006FA0022C4FF6FE790CD1DFF858060078854298
S31508006FB013D2DFF83806006830F818004845E3DBD6
S31508006FC00BE0012C09D1DFF840060078854204D28F
S31508006FD0E8B206F0F4F84845D6DB0120DDE7DFF82D
S31508006FE020060068407B02287047F0B587B00D463A
S31508006FF01646044605961F46E8880FF24C6104902B
S3150800700023466879039009222879029068880190B6
S315080070102888009000F03AF800200190009733463F
S315080070202A4621460620FFF71FFE07B0F0BD2DE9C8
S31508007030F04188B01E460E9C07948046F08806905C
S315080070401746707905900D4630790FF2086104905D
S315080070504346708803900A2230880290019700956B
S3150800706000F014F8DFF89005A0F800802346DFF852
S315080070708C0507700020019032460F98009029462B
S315080070800620FFF7F1FD08B0BDE8F081032013F0F4
S31508007090F3BB70B588B000F013F8DFF87005007818
S315080070A00096002814BF4FF6FF714FF6FD710020B9
S315080070B001902B4622460320FFF7D6FD08B070BD87
S315080070C004460D46069205951E46E0880FF2905135
S315080070D004900622607903902079029060880190D6
S315080070E0208800900320238913F0C6BB10B5DFF86B
S315080070F020050DF0A3FE0446FF2C0DD021460420E2
S315080071000DF03BF918B10121204600F006F820469B
S31508007110BDE810400DF0C2BB10BD2DE9F04F89B097
S3150800712082460D4613F0F1FC0646B01C0BF030FF04
S315080071308346504611F044FA00F07EFA804608F07D
S315080071400309504613F0F5FC0EF08FFADFF8C47405
S31508007150301D0BF01DFF3880DFF8BC4406F0D9FB64
S31508007160834512D04FF6F87083450EDA7078C0075B
S315080071700BD4584610F005FF002805D0388801239F
S315080071805246594600F0B3F977E005A9504611F082
S31508007190A8FA05A82060304611F031FADFF87C1409
S315080071A008600321504613F0A0FCDFF87414087039
S315080071B00421504613F099FCDFF86814087055B39B
S315080071C09DF81A00800626D5DFF8346406F0A1FB80
S315080071D040B13068007D800704D4B9F1010F08BFBB
S315080071E0102000D0002040F008030022002150465D
S315080071F012F0A3F978B108F00300012802BF30683D
S31508007200407B11284CD100F07FFD002848D1AF20E3
S3150800721001F08DFB44E018F0030003D0022806D0E5
S315080072200AD32AE02946504600F03FF825E05146A1
S31508007230404612F0F4FE20E006F06BFB39888142E6
S315080072401BD0514605200DF098F8B0B12168887911
S3150800725040060DD50C2202A8FBF7ABFA00200190D8
S31508007260FF23FF20009002AA39880A20FFF7FCFCBA
S3150800727039882A46504606F0DCFC06F04AFB39886F
S3150800728081420BD1504611F09BF900F0D5F90C213B
S31508007290084203D10021504613F0E2F8002020608E
S315080072A00EF013FA09B0BDE8F08F2DE9FE4F8146BE
S315080072B013F02BFC0546484611F082F9014648466C
S315080072C00DF082FC8246687800F001000290A81C46
S315080072D00BF05EFE4FF6F8718842ACBF0127002717
S315080072E006F017FBDFF82C83DFF82C63B8F80010DC
S315080072F081423068B0F802B002980CBF012400241D
S3150800730038438DF804009DF80400002814BF0620B1
S31508007310082000210EF0A3FB30680188002904BF6D
S315080073204079002814D100A9484603F037FA336893
S315080073309DF80010421ED2B2032013F0E0FCB8F804
S315080073400000BBF5004F19DB5A46494603F03AFAE6
S31508007350306800884CF20E0188423FD144F201079A
S31508007360BB4518BFBBF5804F35D1484611F0ADF97E
S315080073700146BB450CBF0120002023E0AA4A022192
S3150800738011703B460022494603F098F83068807928
S31508007390400603D5FF21584600F06CF8BBF1130FE1
S315080073A0D6D03068C0884004D2D4A0499E4809780F
S315080073B00078CA0701D50228CAD0890745D5012809
S315080073C0C6D042E0491EC9B200912B464A46012161
S315080073D001F094FE39E0484613F000FD3068029942
S315080073E019B90AF00C010C290DD1008906F022F80A
S315080073F058B330680189002C14BF032502250020E4
S31508007400FFF74DFA12E00179009100224379B8F8A6
S3150800741000000021FFF772FA0AF00C01082904D1CE
S31508007420002C0CBF0425052500E0002580490870BE
S315080074309DF8040010B9BBF1380F01D1012200E014
S3150800744000222946484612F095FBBDE8F78F10B58D
S31508007450044600F008F8610548BF0838210548BF0A
S315080074600838C0B210BD66490968C97E642001B1F2
S315080074705220704770B5684E0C4686B0054631688E
S315080074800C2202A8FBF795F9306801798DF80D10E2
S31508007490FF2341798DF80C10ADF80A504FF6BF71ED
S315080074A0C08800940840ADF80E0002AA002001909A
S315080074B0584801880720FFF7D7FB06B070BD5D481E
S315080074C0007808B9FF2070475948007870470A467F
S315080074D080B50C21084208D19079400605D5508818
S315080074E0FF21FFF7C7FF012002BD002002BD2DE9DD
S315080074F0F34F924683B01C46504611F061F800F0EF
S315080075009BF8834603201BEA000F6AD142480668A7
S31508007510404807884FF0000800A9504611F0E1F8E6
S315080075203D4900A808603B49BDF80C0008809DF855
S315080075300500002804BFBDF80000002835D15046D4
S3150800754013F0E3FA801C0BF023FD4FF6F87188421E
S31508007550ACBF4FF00109C146002C14BF0224012418
