S01D0000486143617053656E736544696D6D65725377697463682E7333374C
S3150800400098ED0020DD4D0208A12A0208A52A02081B
S31508004010A70A090100410008040E03AC2057BC0199
S315080040200000000000000000000000000000000082
S315080040300000000000000000000000000000000072
S315080040400000000000000000FFFFFFFFFFFFFFFF6A
S31508004050FFFFFFFF00080408060000000028040808
S31508004060FFFFFFFFFFFFFFFFFFFFFFFFFFFFFFFF52
S31508004070FFFFFFFFFFFFFFFFFFFFFFFFFFFFFFFF42
S31508004080F0FF002000000000EDFF0020EDFF0020FB
S3150800409098ED00206CCB0208CA50020838E40020CC
S311080040A03C0F0020002804080000012046
S3150800410098ED0020DD4D0208A12A0208A52A02081A
S31508004110AD2A0208A92A0208B12A0208282C020890
S31508004120282C0208282C0208282C0208282C020809
S31508004130B52A0208282C0208282C0208AB4D0008CC
S315080041402D270208282C0208378C0008282C02087C
S31508004150D3D70008282C0208282C0208282C020885
S31508004160BD8000087D5C00089B5700089141000847
S31508004170E9D20108282C0208A58A0008F1120208CB
S315080041802D8F0008282C0208282C0208282C020843
S3150800419070B52C4C2C4D60782968490726D503281C
S315080041A024DAA18804EB400291810121A27801FA60
S315080041B000F01043A070254A207890B1002320FA19
S315080041C003F6F60708D5994063704840207014EB4B
S315080041D04300808A106009E05B1CDBB2032BEEDB30
S315080041E004E0106000F0C0F8032060704FF6FF701E
S315080041F02860BFF35F8F70BD12480021017000224E
S31508004200032141700021C1700521018100218170BF
S31508004210001D0E490A604A604FF400428A60102267
S31508004220CA604861012088610320C86004210648E5
S3150800423001644FF6FF7101604FF40060044908609D
S3150800424000F0D0B850F1002010A8004004E000406B
S3150800425000E100E036480068C00701D435487047D9
S315080042603548704780B5FFF7F5FF3449096801B945
S31508004270400802BD80B5FFF7EDFF400802BD00F01B
S315080042803CBC2F48012181604EF6BE2141600121C8
S31508004290016070472B49012008607047A52805D1A1
S315080042A027484DF6AD6141600221016070472448F8
S315080042B00068C00701D5012070470020704701211A
S315080042C000F007029140C00840021F4A115070478B
S315080042D0012100F007029140C00840021B4A115014
S315080042E0704780B51A491B4A102008601A491B48AE
S315080042F0007858B103280CBF00200120106040F652
S3150800430051000860002000F0D8FE06E00220106088
S315080043104FF40060086000F0A9FB0721104801600F
S315080043200021016410200F490860002002BD00002A
S315080043301C400040001BB70000366E0120400040BC
S31508004340006000400860004014B0004010B0004013
S3150800435080E100E0080000400C600040B3FF002048
S3150800436014A0004000E100E070477047DFF81C35F4
S3150800437033F810001040C840704730B50FF2D054DB
S31508004380DFF80C3534F810409C601140DFF8FC4427
S3150800439034F8105095432943D96002221A60002246
S315080043A01A6024F8101058680028FCD130BDDFF8D0
S315080043B0E424DFF8E4041278DFF8E0140AB1497857
S315080043C00EE0895611F1090FB8BF302108DBC16D1F
S315080043D039B1C26D40F24A31B1FBF2F189B2C91E58
S315080043E001607047E0B5DFF8B80401880A2300F0D9
S315080043F064F8BDF806104FF6FF720D20FFF7BDFFF3
S3150800440007BDF8B50546B5F5004FDFF8904419D154
S31508004410DFF890040188022300F04FF8BDF8000089
S31508004420000AFF2814BF002818206070BDF8000095
S315080044300006C00E10281CBF001D00F0B7F9BDF815
S315080044400000C543DFF84C64707808B1002005E029
S31508004450A089ADB26840C00701D501207070DFF8A9
S315080044604804A58105F00104016841F40041016092
S31508004470C5F340070FF2FC4000EB44004FF44052EE
S315080044804078010389B20220FFF777FF204600F043
S315080044908BFE4022B90100F025FA2D06A80E00F081
S315080044A0010038433070FFF782FF707818B1FFF7C4
S315080044B099FF002070700020F2BD7F2200A800F04E
S315080044C0E9BEA0F10B02A0F10B01102A89B201D3B3
S315080044D08A207047012202FA01F1DFF8D0235388B7
S315080044E00B4353800123137093881943918000214D
S315080044F0DFF8BC2311704AE12DE9F04FDFF8B44329
S31508004500207887B0042304900C210B38C0B203909E
S3150800451000A8039A00F07CFF9DF800008DF80A00B9
S315080045209DF801008DF809009DF802008DF8080035
S315080045309DF803008DF80500DFF87C030078012854
S3150800454006BF607880F00105012501F0F1F9824681
S315080045509DF902000399D54F0AF10A06AAF10A093C
S31508004560B042B6BF81454FF001084FF00008012060
S315080045708840ADF806009DF80100000604D4788846
S31508004580BDF80610084201D04FF0010801F046FABE
S315080045909DF8030000060AD4B888BDF8061008423C
S315080045A005D19DF90000B042B8BF814502DB4FF046
S315080045B0010901E04FF0000948EA050059EA000040
S315080045C000F0A480DFF8F4B2BD49DBF8000040082B
S315080045D000F001008DF80400BA48006800F4E060B5
S315080045E005904FF4E0600860002001F019FE00F025
S315080045F059FCB54EADB1607858B1DBF80000AE494C
S3150800460040084000CBF800000120087000F03AFD91
S3150800461007E0306840F400503060306820F480507D
S315080046203060A5480078012810D161780D4208BF8E
S3150800463001F040FFDBF800009F4940F00100CBF88D
S31508004640000000200870642000F01CFD607880F0EF
S315080046500100054203D00498C0B201F0ECFF60786F
S3150800466038B1306820F480503060306840F400502B
S315080046703060BDF80600C543B8F1000F08D002F057
S31508004680C5F88DF801008DF802A078882840788052
S31508004690B9F1000F08D002F06AF98DF803008DF819
S315080046A000A0B8882840B8809DF900009DF90A1036
S315080046B0884202BF9DF801009DF8091088420BD177
S315080046C09DF902009DF90810884202BF9DF8030073
S315080046D09DF80510884206D00399042300AAC9B29A
S315080046E00C2000F0BCFE05987649086000F0F0FE44
S315080046F09DF8040001F094FD02F059FA607828B19B
S3150800470048F260703060642000F0BCFC9DF801003F
S3150800471001F0E8FF9DF8030002F024F907B0BDE8B0
S31508004720F08F80B501F0F7F8BDE80140E4E601F046
S31508004730F2B870B50646A6F10B0401F08DFC0546E5
S31508004740A6F10B00102801D38A2070BD5F48816846
S31508004750090702D40068C00701D58C2070BD5548EA
S3150800476006705B4801680C290FD00FF27C11594A74
S3150800477092F90020A4B231F824105118C161FFF74C
S31508004780BBFE012D08BF01F008FC002070BD10B566
S31508004790044601F0C0F82046BDE81040C9E7454880
S315080047A0007870473D4890F9000070472DE9F041C0
S315080047B0044614F12B0F86B045DB474801881423BD
S315080047C0FFF77BFEBDF810004FF6FF71884203D055
S315080047D0400448BF012606D43F2200211020FFF7D7
S315080047E0C5FD0546002604F12B022F2A2B483B4916
S315080047F01AD213220FF2301300E0521ED2B213F966
S315080048001270BC42F9DB03EB4204032764780C60A0
S31508004810002413F81210017000208046AEB1BDF8CE
S3150800482010104FF6BF7229E0092C0CDA225C0A60D8
S31508004830047014232A480188FFF73FFE0124032049
S31508004840A0462827EAE78B201DE0C1024FF46052F4
S3150800485000F048F84FF4E062210200F043F88022A5
S315080048604FEAC81100F03EF885F020003D18ADB2B9
S31508004870402DA8BF3F253F2285F0200100F032F8E1
S31508004880FFF795FD002006B0BDE8F08198FB0020F3
S31508004890E8100040BCFF002064100040C0F0002073
S315080048A066C7020874C702081C100040F8FE0020FC
S315080048B0DAFF0020BCF000202AF10020802000400A
S315080048C080E100E000E100E0D010004060200040F8
S315080048D0AC100040BBFF002062C70208C0100040B1
S315080048E064C702080B2048E5AA2129005523290098
S315080048F000252800AA26270055282700002A260072
S31508004900AA2B2600552D2500002F2400AA302400A6
S315080049105532230000342200AA35220055372100DB
S3150800492000392000AA3A2000D500E601EC02EF0380
S31508004930F204F405F506F707F808F909FA0AFB0B75
S31508004940FC0DFD0FFE11FF1300160119021C031FB3
S3150800495010001100200030004000410050006000A7
S31508004960700080009000A000B000C000D000E000F9
S31508004970F000000000000103DFF8B41551200860BC
S3150800498070472DE9F0410546FFF76CFCDFF8A415E2
S31508004990B0FBF1F64FF4F070B0FBF6F71E2D3FB200
S315080049A001DBE81B04D5A8B2BDE8F04100F06ABBFC
S315080049B002F038F9804602F03BF9DFF87C15DFF89B
S315080049C07C25012048700721DFF8740500F041F8BE
S315080049D0E91B09B27143C91C8908491EDFF86455E9
S315080049E0416000F0BDF8DFF848753C68386820F08B
S315080049F04000386002F01EF93C602E6002F01EF995
S31508004A0002F024F94046BDE8F04102F021B938B574
S31508004A100546FFF727FCDFF81C15B0FBF1F44FF449
S31508004A20F070B0FBF4F02D1A1E2D04DA92210FF265
S31508004A30585002F013F9DFF80805DFF800250721BA
S31508004A4000F007F805FB04F1C91C8908491E4160F6
S31508004A5031BD01600021416081604FF00071116035
S31508004A607047DFF8D42401215170D0E7DFF8D80465
S31508004A70006800B970472DE9F041DFF8D054DFF837
S31508004A80D06400242C6034604FF4A040706041F27A
S31508004A909A084046FFF775FF6F68FFF7EBFB0001C2
S31508004AA042F21071B0FBF1F000F5C870C01B00B2FD
S31508004AB04FF4487190FBF1F000B20828A8BF072010
S31508004AC004DA10F1080FB8BF6FF0070030604046EF
S31508004AD0FFF757FF08274046FFF753FF6868041992
S31508004AE07F1EF8D1FFF7C6FB211D4001C908B0FBA0
S31508004AF0F1F080B27060BDE8F081DFF84C04006820
S31508004B0000B9704738B5DFF84C5401206FF00F0430
S31508004B10A8602C608020FFF734FFE868FF2802D8D9
S31508004B20641C102CF5DB31BD70B5DFF82C04016868
S31508004B3041F0010101600121416002F073F8044669
S31508004B40DFF8005400F00CF85120DFF8E413086091
S31508004B502E6002F073F82046BDE8704002F078B87F
S31508004B602E68286840084000286002F067B80020D0
S31508004B70704710B5DFF8D003DFF8BC43006801289A
S31508004B80BCBF032000F01DF8012020700020207112
S31508004B90DFF8C803816901F00301032907D1002062
S31508004BA0A070042000F083F80120207110BD0F21A9
S31508004BB00160022181610120E0706420BDE8104097
S31508004BC04FE72DE9F041DFF88043DFF86C532268A0
S31508004BD040F2DC51012A8846DFF88063DFF88073EB
S31508004BE017DA0221B9803160B16901F0030103299E
S31508004BF05BD02168002903D5B16941F00201B16192
S31508004C00FFF7B5FF5FEA00081BD1206800284CD5DE
S31508004C1049E0B8884FF6FF74A0421DD1D1480188F3
S31508004C2002237F22381D00F035FBB888A04204BF56
S31508004C300220B880B069800703D4B06940F002004A
S31508004C40B0610120A870B88830600FFA88F0FFF7C5
S31508004C5008FF4046BDE8F081B3699B07EDD5AB7800
S31508004C600BB10846F6E7B168B36811F0010103D144
S31508004C700F2809D2401C06E09B0705D53B781BB1D7
S31508004C80032801DB2018B880B88839700228BCBF11
S31508004C900220B8803068B9888842D2D1B06900F05D
S31508004CA00300032801D0FFF73FFF0020D2E72DE9D4
S31508004CB0F0478046AC480178002569B9C0780728CE
S31508004CC018BF09280DD0032818BF112809D01328A2
S31508004CD01CBF15280B2804D0A448016841F480712C
S31508004CE0016001F09FFF814601F0A2FF4046FFF7F1
S31508004CF068FF08B9012515E0924F3C6838684008F6
S31508004D004000386001F09AFF894ED6F800A0306856
S31508004D1020F04000306001F08DFFC6F800A03C602E
S31508004D2001F08CFF01F092FF484601F091FF002D3B
S31508004D30D7D0BDE8F0870220B9E710B580487E4C89
S31508004D40002141608160016821F0020101600020B4
S31508004D5060704FF0007079490860A07838B100207B
S31508004D60A0700620FFF703FF00F098F81CDBE07838
S31508004D70012814D17E48012101607E490968C907C6
S31508004D8048BF03200FD40221E170016C41F00101F4
S31508004D9001640420784908607849086010BDE07805
S31508004DA0042801D10520E07010BD80B5624840781E
S31508004DB000281CBFBDE80140FFF7BFBF00F035FF64
S31508004DC001BD2DE9F84300F069F803DABDE8F243BE
S31508004DD004206CE7584C207900B35DE001F022FF0F
S31508004DE0054601F025FFE078032812D000F096F872
S31508004DF0DFF83C81D8F80090D8F8000020F0400091
S31508004E00C8F8000001F016FFC8F80090376001F0F6
S31508004E1015FF01F01BFF284601F01AFFE07803286A
S31508004E20DCD14F4E4D4DB08828604FF6FF7770881D
S31508004E30B8420CD15248018802237F22B01C00F0E8
S31508004E4029FA7088B84202D16420708001E070881F
S31508004E50C8B1FFF70FFA7188364AB0FBF2F048433B
S31508004E602F303021B0FBF1F046494A6D42F001027D
S31508004E704A650A68AB68DB07FBD50B689B1A1B03F8
S31508004E801B0B8342F6D3FFF74FFE0420E0704FF466
S31508004E90C870BDE8F243E4E5BDE8F1832A48006836
S31508004EA0012870472DE9F843234C2179207881F0B1
S31508004EB0010108422ED0FFF7F1FF23DA40F2EB3169
S31508004EC00FF2C40001F0CAFE1CE001F0ABFE8046FA
S31508004ED001F0AEFEE07805280FD000F01FF8144D5B
S31508004EE0D5F80090286820F04000286001F0A2FE5E
S31508004EF0C5F80090376001F0A1FE01F0A7FE404614
S31508004F0001F0A6FEE0780528DFD10020A070052074
S31508004F10FFF7CDFE00202070BDE8F183094E376803
S31508004F20306840084000306001F088BE000000008C
S31508004F300080004090D00300CCFF002004ED00E084
S31508004F4010E000E094ED00E0B4C102081040004013
S31508004F500C000040084000401C400040044000404F
S31508004F6012F1002076C70208960708083840004064
S31508004F7018A000400C40004080E200E000E100E09C
S31508004F807AC7020838200040636C6F636B732E6320
S31508004F900000000010B5754C002001F00EFE40F62A
S31508004FA08C2188422068B4BF40F0080020F0080031
S31508004FB0206010BD10B504466D48018882B000F027
S31508004FC05CF89DF800109DF80100FF2902BFFF2834
S31508004FD00420002104B1801C664A1368C0B2082860
S31508004FE0A8BF072023F4607343EAC010106008299D
S31508004FF01068A8BF0721C00841EAC00010605E48D3
S31508005000047013BD00B55D48018883B000F035F81B
S31508005010BDF800004FF6FF7188420EBF4FF4E160FD
S315080050200A2190FBF1F0ADF800005348007808B368
S315080050304F48018802237F2201A800F02BF99DF82A
S315080050400500BDF80030FF2808BF0420811CC9B23E
S315080050500829A8BF0721C1F12F0202EBD272C0F1BD
S315080050602F00521000FB0320C1F12F01B0FBF1F015
S31508005070ADF80000BDF800000EBD02237F2200A88F
S3150800508000F008B970B53E4C25680646FFF7F2F8F9
S315080050903C49B0FBF1F070432F303021B0FBF1F002
S315080050A0032809D3616D41F0010161652168491B37
S315080050B00903090B8142F9D370BD10B5040004D168
S315080050C010BD4FF47A70FFF7DDFF2046441E80B20C
S315080050D00028F6D110BD2C48017869B9C078072890
S315080050E018BF092814D0032818BF112810D0132870
S315080050F01CBF15280B280BD02448016841F4807280
S315080051000260C80504D438210FF2900001F0A6BD4C
S31508005110704738B50C4620B101280FD0032820D097
S3150800512021E01B4D44B1FFF7A5F81A49B0FBF1F091
S31508005130401EB0F5005F0CD2286012E04CB1FFF7B4
S3150800514099F8610801EB4000B0FBF4F0B0F5003FB8
S3150800515001D3202032BD104900F001024A60400800
S315080051600860002032BD212032BD000000BC00408E
S3150800517068C7020818000040BEFF00206AC7020878
S315080051803820004090D003009607080838400040B1
S31508005190100004E020A1070068C800407573625F2C
S315080051A06572726F722E6300F0B5044689B00020EE
S315080051B0FFF700FF264801880A237F2200A800F08F
S315080051C069F8BDF802004FF6FF75A84204D1DC2144
S315080051D00FF2940001F042FD0FF2A407002601E049
S315080051E02A4616B94FF47C4203E0022E08BF4EF257
S315080051F03F0200A800F032F8761C052EF0D3012CE9
S3150800520003D114237F22134802E014237F22124875
S31508005210018803A800F03EF800260FF26C072A461C
S3150800522008E02A46012E08BF4FF6C07202D0082EA3
S3150800523008BF002203A800F011F8761C0A2EF0D346
S31508005240012C04BF0120FFF7B5FE09B0F0BD000030
S3150800525066C7020864C7020862C7020830F8161053
S31508005260F05DFFF78AB80000616E616C6F6775655F
S315080052702D63656C6C2D626961732E6300000000F6
S3150800528000100C0D0E000000010203040708090AAD
S315080052900B0F000030B5044610467F2808BF0020D3
S315080052A04BF23462914283B01AD108237F2240F62A
S315080052B0120100A8FFF7EEFF08220FF2C40100A8AA
S315080052C001F014FE30B908237F2240F2A27100A82B
S315080052D0FFF7E0FF082200A9204601F0BDFD37BD13
S315080052E01F4D294300FB03111A46204601F0B4FD61
S315080052F037BD2DE9F0440C4619490FF2780A41EA00
S315080053000006C007154602D5622100F02FF8E80707
S3150800531002D5632100F02AF81248864204D3A81958
S31508005320401E1149884202D3642100F01FF8002765
S3150800533006E0B85DFF2802D06B2100F017F87F1C45
S31508005340AF42F6D36A082146304601F039FE28B145
S315080053505046BDE8F044712101F080BCBDE8F084F8
S31508005360000008080008080800100808504601F060
S3150800537075BC00006D66672D746F6B656E2E6300D5
S31508005380FFFFFFFFFFFFFFFF30B50FF24011DFF809
S3150800539028510A6883B001A80024026001202870F9
S315080053A0002001F051FE30B1002001F04DFE10B191
S315080053B02C7049203EBDDFF80401018802237F22B4
S315080053C00DF1020000F024F802237F22002100A834
S315080053D000F01EF8204601A9BDF8022031F8101089
S315080053E0914208BF0124401C0228F4D3BDF80000EE
S315080053F024B1B0F57F7F07D100203EBDB0F57F7F91
S315080054000CBF0620042000E00720002129703EBDBD
S3150800541010B5FF2908DCDFF8A040247844B1BDE8C0
S315080054201040C9B202F01EB9BDE81040FFF732BFFE
S3150800543010BD10B5FF2908DCDFF87C4024786CB174
S31508005440BDE81040C9B202F048B97F2A08BF002259
S31508005450DFF86C40214302FB0311016010BD2DE902
S31508005460F0410546FF2D0E46174698460FF25400A2
S3150800547013DCDFF844402178A1B1617811B1C0216D
S3150800548001F0ECFB01206070434632463946E8B22B
S3150800549002F061FA0020607004E0BDE8F041CB211B
S315080054A001F0DCBBBDE8F08103490978002918BF83
S315080054B002F057BB70470000B7FF00206EC702080E
S315080054C000000808746F6B656E2E6300FE01FD020E
S315080054D010B5DFF8F4441020206301F0A3FBDFF8D1
S315080054E0EC140A6842F001020A6001F0B1FBDFF829
S315080054F0E00400F108016160216092306168893139
S31508005500616001212163E060A060DFF8C814E068EB
S315080055108930E060022020634FF6FF70086010BDF6
S31508005520DFF8B40445F26401C1601E2141625021CE
S315080055300162C821C1618165F021C16545F6900106
S315080055404166882181660621C16644F206610160CA
S315080055504FF6FF714160DFF88404007838B1DFF850
S31508005560800448F2607101604FF4C1514160DFF870
S315080055707404016841F0040101600020DFF8681432
S31508005580487070472DE9F047DFF844248A2101FB6B
S31508005590002101F1080909F1010104244B78097871
S315080055A001EB03211FFA81FA00210AF44063B3F5DF
S315080055B0006F05460AF4404708BF082403D0B3F530
S315080055C0406F08BF0E2427B15FEA4A635CBFA41C7C
S315080055D0E4B2DFF818341B78537000EB02080AF0BF
S315080055E02700232888F8021067D1DFF80464706E54
S315080055F0000662D5B7F5404F04EB090003D102F067
S3150800560068FB014617E0B7F5004F14D1407814F847
S31508005610091001EB002080B202F066FB0021FF288A
S3150800562008D0DFF8D023126832F810004FF4FE6273
S31508005630104200D001214FF480604FF40062F9B1A6
S315080056405FEA0A731CD4B7F5004F08BFA41C03D041
S31508005650B7F5404F01D10834E4B26308002D14BFF2
S31508005660776837689F421CD3002D14BF7768376860
S3150800567003F1010C6745F7D314F80930042B10D150
S3150800568079B1F16DC90608D4B16C05B1104601426D
S3150800569003D0706C40F001007064012088F80200A5
S315080056A00BE0F16DC90608D5B16C05B1104601428B
S315080056B003D0706C400840007064BDE8F0872DE99F
S315080056C0F04E0446C24EDFF828538A2000FB0460D9
S315080056D000F1080B002C0CBF28686868C1B20529C0
S315080056E003DA7068401C706055E040005FFA80F984
S315080056F009EB0B00A0F108073878797801EB002050
S315080057001FFA80FA7078387002F0BDFB7870BA4FCD
S31508005710F86B20F48050F863686E14B93868400551
S3150800572004D4012C1FD1386800051CD5B34801786C
S3150800573089B1002101701AF4E45FB148016802D00A
S315080057400022402005E09BF80100000900F0010254
S315080057508F2002F016FC002C0CBF4FF480604FF42B
S315080057600060386012E01AF4E45F0FD100F00CFD17
S3150800577010B15FEA4A4009D59BF80000802805DA8F
S31508005780A01949468278584602F0C4FC002C0CBF82
S31508005790012002202861BDE8F08E2DE9F0478D4CE6
S315080057A0974E2068216C924FDFF85882DFF84C92AA
S315080057B0DFF81CA201EA000519E038B14878C006EE
S315080057C004D4316800228F2002F0DBFB280605D5B9
S315080057D002F034FC802025F080052060E80506D517
S315080057E002F02CFC4FF4807025F480752060002DA3
S315080057F05CD0280706D50020FFF7C4FE082025F050
S3150800580008052060E80606D50120FFF7BBFE102034
S3150800581025F01005206005F06000602803D1B86CFB
S31508005820C0050AD401E0A80605D52020206025F089
S315080058302005002006E0680606D54020206025F0F1
S3150800584040050120FFF73BFFE80404D54FF48050DC
S3150800585025F480552060E807B8D5012020606D083A
S315080058609AF800006D000028B0D000F0FFFB012870
S31508005870ACD199F800000028A8D098F800000428B0
S31508005880A4D1F868400800F001008A2101FB00A1B4
S315080058900831002814BF7A683A6812B92268D20417
S315080058A0F7D5002814BF7868386886E70020206096
S315080058B0BDE8F087544800687047F0B504460D46C1
S315080058C089B00021032001F01BF904AE1BE0002774
S315080058D001F031F926F8170001F02DF900A921F891
S315080058E017007F1C082FF3DB04A802F0A5FD002093
S315080058F02080218836F810205140401C0828218035
S31508005900F7DB6D1EA41CEDB2002DE0D101F04FF9B6
S31508005910012009B0F0BD0321022001F0F1B84FF6CD
S31508005920FF71081A292190FBF1F03A3040B270470E
S3150800593038B501F000F9FFF7F2FF344D0446287830
S31508005940B0B90321032001F0DBF8314801880223AE
S315080059507F2200A8FFF79EFC01F0EDF8BDF80010C5
S31508005960401880B2FFF7DBFF1538687001202870F1
S3150800597001F01DF96878201A40B232BD80B50321BE
S31508005980022001F0BDF8BDE80140D1E770B5214815
S315080059900078002490B9FFF7F1FF134E054670789A
S315080059A048B13078401B40B202F04FFD0B2805DBAA
S315080059B03570012402E0012035707070204670BDF4
S315080059C015480078704700000020004084200040F9
S315080059D070FC002000A000404C100040BDF00020E4
S315080059E0D010004080200040D7FF0020BCF00020E7
S315080059F020200040B4EE002004A000408CFD0020CA
S31508005A0094FD002029F1002038200040D5FF002011
S31508005A106CC702082AF10020D9FF002010B50D48EE
S31508005A20018884B00A237F2200A8FFF733FCBDF85B
S31508005A3000004FF6FF74A04204D14E210FF2180061
S31508005A4001F00CF9BDF8001022460020FEF795FC7F
S31508005A501FBD000066C70208616E616C6F677565D9
S31508005A602D66696C7465722E63000000DFF81808ED
S31508005A70007848B1DFF814080179012904BF407994
S31508005A80042801D101207047002070470FF6A401B1
S31508005A904008405C7047010603D54FF67F71084001
S31508005AA0C0007047491C800189B2B0FBF1F080B292
S31508005AB0FF288CBF0020C0F1FF00C0B2704738B580
S31508005AC0DFF8CC07C17809B1002032BDDFF8CC4732
S31508005AD0617871B1E178007945182079ADB28542CF
S31508005AE028BF054602F0CAFC0121A940491E084004
S31508005AF000E0002061790818C0B232BD2DE9F047F0
S31508005B000446C00705D54FF4BE710FF6180001F01C
S31508005B10A5F8DFF88C57286DC00748BF8C2000F120
S31508005B208280DFF86C07DFF874770021017041780E
S31508005B3029B9397819B1A96F41F0010102E0A96FB5
S31508005B4049084900A967DFF844877A7898F8061063
S31508005B50DFF85097DFF8506792B1002202710129E9
S31508005B60286D40F00400286506D14FF6FF703060B6
S31508005B704FF40070C9F80000FFF7A1FF82460CE059
S31508005B80286D20F00400012928654FF0000A04D189
S31508005B9000F030FA6420FFF775FAA86F20F00800C5
S31508005BA0A8671420E864C5F848A0787838B198F84A
S31508005BB00600002801BFA86C00280120A864B8794F
S31508005BC00028286D14BF40F0080020F0080028655A
S31508005BD0FFF74CFF18B1306C40F008003064202005
S31508005BE028626C602C604FF4E06468687F306860F7
S31508005BF004202862DFF8B406046006E002F04EFCD2
S31508005C0018B102F053FC01F00DF8DFF8A40600689D
S31508005C1000F003000328F1D0C9F80040286D40F0D1
S31508005C20010028650020BDE8F087DFF88806002116
S31508005C3041608160016821F0020101604FF0007047
S31508005C40DFF8741608600120DFF8701608707047D0
S31508005C50A0F13301DFF86826914200D3704710B5EA
S31508005C60DFF8584600212170FEF7D1FE02E0012038
S31508005C7002F020FC20780028F9D010BD2DE9F84F55
S31508005C80DFF82486DFF80856D8F80000D8F8401060
S31508005C90DFF80C7601EA0004A4B2C8F80040687878
S31508005CA0002840F0D580E007DFF81866DFF8EC95A5
S31508005CB04CD5D7F800A0386C796C41EA004199F8C0
S31508005CC00000A96000283DD09AF80100800639D561
S31508005CD001202870FFF7CAFEC0B31920FFF7D2F9D2
S31508005CE04FF44040DFF8E0B5CBF82800DBF80000B9
S31508005CF00090F06E40F40050F066F06E40F480506C
S31508005D00F0669AF80010A8684901B83101EB000A54
S31508005D10FFF7D0FDAAEB00000003000BFFF798FF82
S31508005D20F06E80098001F06600A9F06E09880843C4
S31508005D30F0660020CBF8280048F26070F066E88824
S31508005D40306003E00022002002F01BF920060ED581
S31508005D50287830B1002028700022A968402002F077
S31508005D6010F9D8F83C0020F48050C8F83C006006CA
S31508005D7008D5687830B9FFF79DFD014600228920CD
S31508005D8002F0FFF8E00654D5DFF800A5DFF814B5F1
S31508005D909AF80400012804BF9AF8061001291FD1B1
S31508005DA000F088FB386F40F00100386700208AF859
S31508005DB00600FFF78DFB0A20FFF764F94FF6FF7020
S31508005DC0C8F8000000244FF4E060CBF80000092072
S31508005DD0B8660120B864B86F40F00800B86718E0E4
S31508005DE0297999F80220491C2971C9B2914215D21C
S31508005DF0012808BF00F0D1F8B86F20F00800B8678E
S31508005E001420B866FFF75BFEB8644FF40070CBF851
S31508005E100000386D40F0010038650AE0012808BF27
S31508005E2000F0BBF8FFF746FD014600228D2002F080
S31508005E30A8F820070CD5FFF719FE48B13068E880A6
S31508005E4001203060D8F8400020F00800C8F840006B
S31508005E50A0060AD520203862687830B9FFF72AFDEF
S31508005E6001460022882002F08CF8687820B114F4E4
S31508005E70407F04BF0120A870BDE8F18FDFF8500409
S31508005E800088704770B582B00446FEF750FCDFF80C
S31508005E904404DFF80054002101601521E960092156
S31508005EA001651F21416001210166DFF8240400888D
S31508005EB0FEF7A7FAFFF734FB02F0C0FD00F02AF957
S31508005EC0DFF8C863308900F052F9708900F057F995
S31508005ED000F0A8FE696841F04001696000F0B8FE6C
S31508005EE0707800F0E5F8B07800F0F9F8DFF8E80324
S31508005EF0007800F026F9DFF8E40390F90000FEF7D1
S31508005F0055FC307800F08CF996F9030000F094F906
S31508005F10DFF8CC0300F0B2F9BDF80000DFF8C413CF
S31508005F20C0054CBF0020BDF800000870DFF8B803B4
S31508005F300078FEF7FEFB28B10FF2E83040F2B231E6
S31508005F4000F08CFE012C05D12868C00711D500F099
S31508005F5024F80EE06CB92868C0070AD400F0AAFA3B
S31508005F60286840F001002860C820FFF78BF8002059
S31508005F70B071F120DFF83043206440F2F910E06395
S31508005F80FFF7A6FA2868C00704D54FF6FF70206009
S31508005F9000F05DF8FEF786FF73BD70B5DFF84C5369
S31508005FA0DFF8E8422E68A079012822D000F03AFEF0
S31508005FB0B6B2DFF8F8222E604FF4E0611160DFF820
S31508005FC00C130A6A520852000A620A6852085200FA
S31508005FD00A600A6842F002020A604A6A42F001024E
S31508005FE04A620121A17100F033FEBDE8704000F05D
S31508005FF05ABA70BD70B5A54CA07938B300F05AFAF4
S3150800600000F010FE0546DFF8E812A34E01200860EE
S31508006010306D40F0010030650020A071FFF758FA96
S3150800602020203060306B40F002003063F06D40F0A5
S315080060300800F065284600F00BFE0A20FFF722F854
S3150800604099494FF6FF70086000F001F870BD4FF4EB
S31508006050E0609449086070478C48807970478B489F
S315080060600079012808BFFFF798BF7047874800796D
S31508006070704780B5022801DB012002BD83490871FB
S315080060808979884205D010B9FFF7B4FF01E0FFF718
S3150800609084FF002002BD97480068800200149A38E1
S315080060A001B211F1800FB8BF6FF07F0040B27047A0
S315080060B010B5044600F0B6FD8F490A68002C04D0D6
S315080060C042F012020A60012103E022F012020A607D
S315080060D000216E4A517043E06C484078704738B5E5
S315080060E0044600F09FFD0546FFF76AFC40B9824862
S315080060F00168002C14BF41F0800121F08001016085
S31508006100624884702846BDE8324000F0A1BD5F4869
S315080061108078704779494A780B78794803EB0222E8
S3150800612002608B78CA7803EB022242600B794A79BF
S3150800613003EB02228260CA79897901EB0221C160E8
S31508006140704710B5044600F06DFD6B490A68002CCF
S3150800615014BF42F0200222F020020A605E490C7049
S31508006160BDE8104000F074BD4848008970474749AB
S315080061700881644908607047444840897047434924
S3150800618048816149086070476048007870474F4801
S31508006190816A41F0020181620121016070474B4822
S315080061A000210160816A21F0020181625020FEF718
S315080061B069BF38B5564C57482169574D0180E16982
S315080061C04180E96C818000202061FFF7E0FF012013
S315080061D0E0610020606220624CF25D00E864286895
S315080061E040F4004028604FF40040206048F2020066
S315080061F0206031BD80B5FFF7D2FF45484FF4004116
S3150800620001600021016044490A6822F400420A60DC
S31508006210404A9388CB64118801615188C16101BDE8
S315080062201C490A68002814BF42F0020222F0020242
S315080062300A6016490870704738B504467F2C0AD19B
S31508006240364800F01BF8BDF80000C00554BFBDF87D
S3150800625000406FF04A0400F0E5FC0546FFF7B0FB86
S3150800626030B964B204F19A0080052D49000C086023
S315080062700648C470284600F0EBFC31BD01880223AD
S315080062807F2200A8FFF706B8DEFF002024F10020D1
S315080062908CFD00208020004030200040D0F00020F7
S315080062A01020004000E100E004A0004080E100E08A
S315080062B0A820004010E000E004ED00E0DFFF002029
S315080062C0CDFF070064100040E41000406020004045
S315080062D0CCF000205C100040DDFF0020C0F000205C
S315080062E078C70208BBFF0020BCF000201C10004045
S315080062F0281000400C1000408420004000FC0020BC
S3150800630098200040942000409020004022F1002070
S315080063101810004016FF0020C01000407EC7020873
S31508006320541000407068792D636F6D6D6F6E2E6323
S3150800633000000000FEF7C80138B50120FEF741FC51
S315080063400020FEF737FE734C206840F008002060F6
S31508006350FDF797FFFEF71EFE6F4970480A78C26080
S315080063604B786F4AD3608D786E4BDD608D880560FB
S31508006370CD8845600889106048895060888918600A
S31508006380C889586000F08FF8206820F01000206057
S31508006390FDF732FF02F05EFB02F027FCFEF7CBFCAE
S315080063A0FDF76DFFBDE83140FDF79BBF40F2016088
S315080063B002F020BC10B502F0E6FC02F014FC5A49C3
S315080063C000F001F810BD55480A78C2604B78544A67
S315080063D0D3608C78534BDC608C880460CC8844602E
S315080063E0088910604889506088891860C88958608B
S315080063F0704710B5FEF7BDFBFEF7CCFD4649FFF723
S31508006400E2FF00F050F84348016821F010010160EE
S31508006410FDF7F2FEFEF7D5FC02F0E6FBBDE81040FC
S3150800642002F0CDBCF0B50B68404C0F2524689600E9
S3150800643005FA06F6344215D0002606EB820724FA3A
S3150800644007F7FF070BD5B70005FA07FC23EA0C0385
S3150800645030F812C005FA07F707EA0C073B43761C23
S31508006460042EEADB0B60F0BDF0B50B682F4CFF2558
S315080064702468D600B5402C4213D00025012605EB2A
S31508006480C20724FA07F7FF0708D506FA05F7BB433C
S31508006490175C06FA05FC0CEA07073B436D1C082D3A
S315080064A0EDDB0B60F0BD10B52048006808B11E4C46
S315080064B007E010BD10B51D48006808B1164C00E08D
S315080064C010BD1B4900222046FFF7CEFF01221949BD
S315080064D02046FFF7C9FF022217492046FFF7C4FFE7
S315080064E000220E4900F030F80122144900F02CF879
S315080064F002220B4900F028F80322114900F024F87B
S315080065000422084900F020F8201DBDE810400522A5
S315080065100C4987E700BC0040D4EF002000B00040DB
S3150800652000B2004000B40040E4EF002078F80020F4
S315080065300CB000400CB200400CB4004004B000405F
S3150800654004B2004004B40040201D6BE70320FEF7A8
S31508006550ABBF80B502F0B5FD0FF2600109E080B56A
S3150800656002F0B3FD0FF280010204120E51F8221058
S31508006570C0B201EB800002BD10B502F0A2FD0446D0
S3150800658002F0A3FDC0B208B9012C07D1072C11D817
S31508006590DFE804F004100608080A0C0E002010BDF7
S315080065A0092010BD022010BD032010BD0B2010BD10
S315080065B0062010BD44F0800010BD0000554E4B006B
S315080065C04649420042544C00455854005057520020
S315080065D05744470020535700435253004653480038
S315080065E042414400464C5400B8C10208BCC10208E6
S315080065F014C2020834C202083CC2020848C2020891
S3150800660054C2020860C2020868C2020874C20208BC
S3150800661084C202082A490A68920992010A600A682D
S31508006620104308604FF400412648016000210160CC
S315080066306420FEF727BD2DE9F047234D204FD5F8F6
S315080066400090224C8046286840F40040286038684C
S3150800665020F480503860207868B162781C48A178A8
S3150800666000EB820200EB880012F82A2C10F82A0C9C
S31508006670891A461802E0012020262070B0B2FFF7DA
S31508006680C9FF0FF2500A02E0B0B2FFF7C3FF386B3A
S31508006690042805D0386B400754BF761E761CF3E7EE
S315080066A0F86A38B184F80180A6701FFA89F0286064
S315080066B0BDE8F08740F22111504600F0CFFAE6E730
S315080066C0D0100040181000401C100040DAFF0020CF
S315080066D0E8480008616E616C6F6775652D76636FB3
S315080066E02E63000081014FF4FE5289B20C20FDF79B
S315080066F044BE2DE9F84F8F4CA56820680127ADB236
S3150800670000264FF00A08B9461FFA80FA00F04FFA39
S31508006710B0202063DFF820B208E016F1190FB8BFE1
S315080067204FF00A08464436B27019A060DBF800003C
S31508006730000702D559EA070028D00120FEF7A2FC77
S31508006740B9F1000F11D0AAF10300874202DAF81C4A
S3150800675087B213E00AF50040206057460621092053
S3150800676000F0CEF94FF000090BE0DBF80000000757
S3150800677007D5042FA6BFF81E87B2002707F50040E5
S3150800678020601A2EC9DB6FF00908CBE7A560C4F8AC
S3150800679000A00820CBF800006848006880B2BDE871
S315080067A0F28F80B5624B66491B784FF0FF326BB1AA
S315080067B0002819BF4A606348486041F21110086012
S315080067C0614841880088BDE8044092E7002819BF5F
S315080067D04A600A604860086000F0E9F9BDE80440CC
S315080067E00621092000F0DDB938B50120FFF7D9FFE9
S315080067F004460020FFF7D5FF05460120FFF7D1FF25
S315080068004042001B00EB450000B232BD2DE9FE4FA9
S315080068104E4CDFF83C81A06A454EADF8020025686B
S31508006820D8F800B0307860B14FF6FF720021082022
S31508006830FDF79CFDADF80000C022C0210820FDF739
S315080068409CFD4448DFF81091007818B148F2607052
S31508006850C9F80000708840F4404040F04C00C9F880
S315080068603C000220A0620120206040F24C40FEF766
S3150800687009FC0120C8F80C00C8F800000020324FB7
S31508006880388040207880307800B12020FFF72AFF32
S31508006890FFF7AAFF8246402038807F207880FFF7DE
S315080068A021FFFFF7A1FF0290504601F0CEFDFE2121
S315080068B001FB00F70298AAEB00000190307860B15E
S315080068C0029801F0C2FD8246019801F0BEFD80B231
S315080068D007EB8A11B1FBF0F005E0019801F0B5FD70
S315080068E080B2B7FBF0F080B2401CC7031FFA8BF0EA
S315080068F0C8F80000ADB20020C8F80C0002202060DD
S315080069002560BDF80200A0620020C9F83C00307876
S3150800691030B1BDF800104FF6FF720820FDF72DFDC7
S3150800692040F24C40FEF7AEFB380CBDE8FE8F000087
S315080069301EF10020C010004018A000400070004062
S3150800694038100040EEEEFFFF12FF002060200040E6
S3150800695028100040BDF00020D010004041003F2222
S3150800696089B201E001463F220220FDF706BD2DE966
S31508006970F04F564C564D95B0E06CADF810004FF6FA
S31508006980FF782068ADF80E004246E86AADF80C00BC
S3150800699000210120FDF7EAFCADF80A004246002175
S315080069A00B20FDF7E3FCADF808004FF4004020602B
S315080069B000202861686148F2020000F08BF84CF666
S315080069C08C30E0644FF4805248F2F000E8621146D9
S315080069D00120FDF7D2FC424600210B20FDF7CDFC35
S315080069E00621062000F0DDF8019000F085F80090F9
S315080069F04CF69C30E0640020FFF7B0FF06210846FD
S31508006A0000F07EF800260DF1140BB0B2FFF7A6FFD2
S31508006A100621062000F074F800F08DF82BF8160011
S31508006A20761C202EF1DB00F086F81020FFF796FF83
S31508006A3000F062F80099019A401ABBF82010891AEA
S31508006A40404301FB01094FF0100A112700F04EF8E8
S31508006A5000F052F800F043F806DB81461FFA87FA81
S31508006A60781C07B2202FF1DBBAF1100F0ED10F27D1
S31508006A7000F03CF800F040F800F031F806DB8146FB
S31508006A801FFA87FA781E07B2002FF1D5BDF8100055
S31508006A90E0644246BDF80E002060BDF80C00E862CE
S31508006AA00120BDF80A10FDF768FCBDF8081042463B
S31508006AB00B20FDF762FC01202861002000F00AF88F
S31508006AC04FEA4A00C0B215B0BDE8F08FC0100040CA
S31508006AD018100040286040F24C40FEF7D3BA0099DF
S31508006AE0401A404306FB0600484570473BF8170026
S31508006AF00199461AB8B231E70621072000F051B8C5
S31508006B0070B505460E4600F093F83F4C206C20F011
S31508006B100800206400F09AF800F084F8310341EA8E
S31508006B20C5113A4A41F00101116008212160BDE80A
S31508006B30704000F08DB82DE9F041354C354D324E98
S31508006B4025E000F075F8344904200860306C40F000
S31508006B50080030642F68286840084000286000F064
S31508006B606DF8D4F80080206820F04000206000F01E
S31508006B7061F8C4F800802F6000F060F8306C27498F
S31508006B8020F0080030640420086000F05FF83068E0
S31508006B900007D6D5082030602148006880B2BDE8D5
S31508006BA0F08180B5FFF7ACFFBDE80140C3E71748A1
S31508006BB001684908490001607047F8B50746FEF7BD
S31508006BC021FA044639460320FFF7EBFF0546394606
S31508006BD00120FFF7E6FF0646FDF7C7FB394600200A
S31508006BE0FFF7DFFF0746FDF7BFFB084801684908BE
S31508006BF049000160781B0004711BB0FBF1F060438B
S31508006C004000000CF2BD000018A0004004700040CF
S31508006C100080004094ED00E000E100E080E200E042
S31508006C2000700040EFF31180602181F311887047EE
S31508006C3072B6704700BF30BF00BF7047BFF35F8FA3
S31508006C40BFF34F8FBFF36F8F7047704762B67047B9
S31508006C5080F311887047000042DE704738B5044655
S31508006C600D46FDF717FBFFF7DDFF2946204602F024
S31508006C7062FA2B4622460FF2CC11002002F0CFFC16
S31508006C8029462046BDE83440E6E72DE9F84F654831
S31508006C90654D01682E1D4FF4206A7165016AB1655C
S31508006CA062490968F165416A3166816A7166C16A35
S31508006CB0B166016BF166806B306796F83400400761
S31508006CC04CBFF76BB76BBB4602F023F80022584C53
S31508006CD0DFF86081DFF86091F2648742014624BFDD
S31508006CE0A4F12003BB4231651DD357F8180F306451
S31508006CF057F8040F7064706DC005C00D062815D1CD
S31508006D00306C484512D3404510D200884DF6426291
S31508006D1090420BD105F18C006A68426040F2017A14
S31508006D207268826002E03264726483464348814234
S31508006D3002D2014600E0091DA14203D20B68B3F155
S31508006D40CD3FF8D0601AB064182105F1780002F03A
S31508006D50A7FC002003E0C0B205EB80029167A345BB
S31508006D6023D254F8041D4945F9D34145F7D2CA0739
S31508006D70F5D5002205EB82039B6F8B4203D0521C8C
S31508006D80D2B2062AF6DB062AE9D1002814BF401E2D
S31508006D900520E0E7716F002205EB8203521CDF6FC6
S31508006DA09F67052AF8DBC5F88C100146481EC9B24C
S31508006DB00029EFD1706DC005C00D02280AD003283E
S31508006DC015D0042816D0052817D0062818D00C2860
S31508006DD01CD01EE01A480168890748BF40F6021A07
S31508006DE01CD40068C00719D540F2025A16E040F6CE
S31508006DF0012A13E040F6022A10E040F6032A0DE0C5
S31508006E00BAF5206F0AD140F6042A07E040F6052AAB
S31508006E1004E018B1242838BF40F6072A5046BDE8D2
S31508006E20F28F000004ED00E00000002000E300E01F
S31508006E3098ED0020CA5002089041000898000020EA
S31508006E401CA000400D0A5B4153534552543A257025
S31508006E503A25645D0D0A0000814233D21018511894
S31508006E60401E491E10E011F8013900F80139121FB9
S31508006E7011F8013900F8013911F8013900F801391A
S31508006E8011F8013900F8013992B2042AEBDA92B204
S31508006E90002A1EBF11F8013900F80139521EF6D131
S31508006EA0704711F8013B00F8013B121F11F8013B2E
S31508006EB000F8013B11F8013B00F8013B11F8013BD2
S31508006EC000F8013B92B2042AEBDA92B2002A1EBFFE
S31508006ED011F8013B00F8013B521EF6D1704713002A
S31508006EE003D00A46194602F0DFBB704710B500E02A
S31508006EF0521E92B222B100F012F8F9D0181B10BD3A
S31508006F00002010BD10B500E0521E92B22AB100F062
S31508006F1006F8F9D0181B40B210BD002010BD10F8B5
S31508006F20013B11F8014BA342704700004048018A13
S31508006F3040F6A772914202BF408A4FF47F41084249
S31508006F4003D1022801DB01207047002070472DE994
S31508006F50F84F82468846FFF765FE364D2F68044689
S31508006F602868400840002860FFF768FE0120DFF81F
S31508006F70BCB08BF80000FFF7D9FF20B9FE210FF24D
S31508006F80B800FFF76BFE2A48D0F8289041464AF425
S31508006F908070C84706462F60FFF750FE2046FFF769
S31508006FA057FE00208BF800000FF294040EB1305DF6
S31508006FB004E041464AF40070C847005DBDE8F28F18
S31508006FC02DE9F84F804689464FEA420AFFF72AFE1E
S31508006FD0184E376805463068400840003060FFF7AD
S31508006FE02DFEFFF7A3FF28B940F241110FF2480022
S31508006FF0FFF734FE0E48D0F824B00023524649461F
S315080070004046D84704463760FFF718FE2846FFF77C
S315080070101FFE0FF22C050CB1605D05E053460022F9
S3150800702049464046D847405DBDE8F28FCBFF002071
S315080070300000080894ED00E0666C6173682E630032
S31508007040000202024B4B46472DE9F04F89B08046B5
S3150800705023252322FF2100A8FFF741FFDFF8ACA074
S31508007060A022FF215046FFF73AFF0027284CDFF8F9
S31508007070A490294EB85D17F809B0395D401C00EB9D
S31508007080D070401001B11930401C00FB0BF22348A8
S3150800709030F817100FF2880092B202F039FBBBF1F4
S315080070A0010F1CBF2AF817505D447F1C232FE1DB14
S315080070B00FF28800232340F21C4240F2752102F0A9
S315080070C027FB0FF2A8054FF4E04000F00DF918B1C0
S315080070D0CA212846FFF7C2FD4FF4804000F004F9A4
S315080070E018B1CC212846FFF7B9FD4FF4805000F0BF
S315080070F0FBF818B1CE212846FFF7B0FD00A9404697
S3150800710000F01FF909B0BDE8F08F000048FA00202A
S3150800711080C30208C8C30208A4C3020838C3020809
S3150800712043726561746F723A2030782532582C2084
S31508007130576F7264733A2025640A000053696D45D7
S315080071404520646174613A20256420776F72647300
S31508007150206F66202564206D61782C20746F6B651E
S315080071606E436F756E743A2025640A0073696D2D37
S31508007170656570726F6D2E630000000010B5DFF84C
S31508007180D84ADFF8D83A2488001B06E010B5DFF89D
S31508007190D04ADFF8C83A24681B1B03EB40000023DB
S315080071A004E030F8134021F813405B1C9342F8DBE7
S315080071B0002010BD2DE9F04182B004460D46164662
S315080071C00027DFF8988A01E0B81CC7B2B74217DA79
S315080071D07819795D4078DFF8803A1B8801EB002042
S315080071E0ADF80000012207EBD77004EB6000C01A67
S315080071F000F0ACFB0028E7D002F0ADFA002000E072
S315080072000120BDE8F681F8B504460E461546002766
S315080072100DE000F019F8BDF8000004EB4701000A7C
S315080072204870761CBDF8000004F817007F1CB7EB01
S31508007230550FEEDBE80706D500F006F8BDF80000A6
S31508007240291901F8010CF1BD012200A9B0B295E790
S31508007250DFF8042ADFF8041A1288801A01EB4001C5
S315080072600220FFF774BEDFF8FC19DFF8FC29415C41
S31508007270825CDFF8F839C05C10B102F5997292B2F7
S3150800728041EAC21080B2704710B5DFF8E439DFF87A
S31508007290D44903EB4002005D012801D1104610BD18
S315080072A01088081803EB400010BD38B50C46DFF807
S315080072B0C4190D782A462146FFF760FF2088002862
S315080072C01CBF4FF6FF7188420AD0012000E0401C1F
S315080072D0C0B2A84206D234F8101022889142F6D0DD
S315080072E0002032BD012032BDF0B5DFF8741987B031
S315080072F008600C2200A90020FFF748FF00A9002516
S31508007300C88A8A890346040A01204FF6FF7631F8AF
S315080073101570BDF800C0BC4503D1B74218BF002F91
S3150800732000D100206D1C062DF1DBB21A944518BF5A
S315080073300020DBB2C4F1FF018B4218BF002007B062
S31508007340F0BD2DE9F24F0446DFF82C6900203070B5
S3150800735070809CB0DFF824090088ADF8020007A900
S31508007360FFF7A3FF83460120707009A9DFF810090B
S315080073700588DFF81009B0F80080DFF8DC08BDF8EA
S3150800738002A007883846FFF790FFB8B1BBF1000F97
S315080073903CD0BDF81C10BDF824004FF6FE72914291
S315080073A002D1012804D10CE0012908BF90422DD052
S315080073B00846BDF82410884228D202E0BBF1000F27
S315080073C023D000207070029750460695CDF810809D
S315080073D00122DFF8A01891F800804044ADF80600B5
S315080073E000A9BDF80600FFF7C9FEDFF89C0800886B
S315080073F005904FF6FF79BDF80000000B404518BF11
S315080074000F2800D10CB3002516E001247078002857
S31508007410D9D03846CDF808A0CDF818800495D7E716
S31508007420059805FB00F4E01900F03CFCBDF80200E5
S31508007430201800F037FC6D1C4545F1DB0120307043
S315080074404D2002F088F90025FEE0BDF8065001221D
S3150800745001A92846FFF792FEBDF80400C043C0B252
S31508007460ADF804006F1CDFF824080588BDF8040091
S31508007470A84218BF01244FF0000A20E0401CC1B200
S31508007480A94218D2C0B2DFF80818BDF80E20834604
S3150800749031F81B109142F1D1FFF7E5FE4FF68071E6
S315080074A00840BDF80C104FF680721140884204BFA0
S315080074B01C980BF800A00AF101001FFA80FABDF823
S315080074C00400824507DA022203A9B8B2FFF756FE7E
S315080074D0BF1C0020D3E7002001E0401C80B2A84270
S315080074E017DA1C99415C8142F7D0012411E02AF889
S315080074F01070BDF8060000EB4300401C00F0E6FAE9
S31508007500BDF80200C0F3C710401C00EBD07007EBB3
S3150800751060070498DFF858A7BFB2874211DA01223C
S3150800752000A93846FFF72AFEBDF80000484508D0EE
S31508007530030A00F07F01BDF804007F1C834202DBCA
S31508007540012400252FE0002001E0401C80B2A8425B
S31508007550CFDA1C9A825C9A42F7D1C0B2FF28C8D00B
S31508007560DFF80027825C7F290CBF4FF0000C8C46A1
S3150800757094450BDABDF800C0DFF8F0E610F80EE027
S315080075804FEA0C6C4FEADC7CF44501D00124B0E7E5
S31508007590012AACD07F293AF8100008BF0021081844
S315080075A0A5E76D1CADB2DFF8EC060088854204DA63
S315080075B03AF815004845F4D1012477800498BDB2FD
S315080075C085420ADA012200A92846FFF7D7FDBDF849
S315080075D000006F1C4845F1D032E7002CFCD1029818
S315080075E001220BA980B2FFF7C9FDBDF82C0048455A
S315080075F00DD105E0401C80B2202813DB2034A4B24C
S315080076000699029A891A8C4205DB012030700020FF
S315080076101DB0BDE8F08FA51820220BA9A8B2FFF768
S31508007620ADFD00200BA931F810104945E2D0A8B2EB
S31508007630FFF70EFE203CA4B2E0E70298059905FB89
S31508007640010000F02FFB6D1C4545F6DB012030706C
S31508007650494600F053F818B100F03DF90028D6D194
S315080076600120D5E72DE9F0420F46DFF82016DFF8AE
S31508007670F85509888F420446164699460CD2DFF813
S31508007680E415795C30467F2808BF0020884203DA73
S31508007690785D814500D11CB940F2D64100F012FA56
S315080076A031463846FFF7F0FD0188DFF8C005385C3B
S315080076B060B1384600F03BFA795D012908BF2070B1
S315080076C009D0022914BF2060208004E04A462046DB
S315080076D0BDE8F04297E5BDE8F08210B504460846D5
S315080076E01146FFF7D1FDDFF8702500881288DFF80C
S315080076F06C15801A01EB4000206010BD2DE9F34F90
S31508007700DFF85405DFF86C150488DFF86C0509788E
S31508007710407883B000281ABFDFF860050088204645
S315080077200D18DFF868050088ADF80800ADB2C0434B
S31508007730C0B200EB013000F55060ADF802002B1B1B
S31508007740DFF8180500F0C8F96E1C0028B6B238D163
S315080077500025DFF83C7514E0E8B2FFF784FDADF8C4
S315080077600400331B37F81500ADF806000222DFF8CF
S31508007770EC0400F0ABF8002823D1B61C6D1CB6B299
S31508007780ADB2BDF808008542E6DB002501E06D1CB8
S31508007790ADB2BDF80800854280F293804FF0000A2A
S315080077A01CE001220DF102011FFA89F0FFF7E6FC41
S315080077B0BB19DFF8A8041B1B09F1010900F08CF9B5
S315080077C0002878D17F1CFFB2B7EB1B6FE9DBDFF827
S315080077D0C804285C8619B6B20AF1010ADFF88404DF
S315080077E015F800B05FFA8AFADA45D0D25146E8B2FF
S315080077F0FFF74AFD8046DFF87404B8F800902F5C5E
S31508007800F80140EA0520ADF80000BBF1010FBDF80C
S3150800781000000CBF40F07F004AEA0000ADF8000007
S31508007820311BDFF8380400EB4100711C89B2019165
S315080078304FF6FF7189451EBFBDF80010BDF8102030
S31508007840914218D19DF80C100029C5D0012200A933
S31508007850FFF7B6FB019E70BBDFF80C04A8F80060C2
S315080078602A5CDFF8380450F82510B0B2FFF7A2FCFE
S315080078700028ACD122E0DFF8F013695C491C01EB63
S31508007880D1714FEAC15B012200A9FFF799FB019E5E
S3150800789088B9002FA8F8006095D04946E8B200F0EC
S315080078A046F90190331BDFF8B4034FEA1B6200F078
S315080078B00DF800288BD001F04EFF002005B0BDE87A
S315080078C0F08FDFF8B40346800120F7E701A900EB43
S315080078D04300FFF775BB2DE9F041DFF8A003DFF899
S315080078E098530688DFF8700304886878002882B001
S315080078F012BF204630462646012200A9FFF73EFC65
S31508007900BDF80000DFF8548301280CBF4FF6FE705F
S31508007910401EADF80000DFF85C0307783846471EBE
S3150800792058B1BFB2B819001B012200F00FF80028A1
S31508007930F4D001F010FF002006E0687880F001001E
S315080079406870002028700120BDE8F68100A908EBC0
S315080079504000FFF735BB2DE9FE4F0D46CB49098898
S315080079608842044617461E464FF000094FF00108A4
S315080079700CD2BC49615C38467F2808BF0020884283
S3150800798004DAB948205C864200D11DB940F2FA51A2
S3150800799000F098F839462046FFF776FC0190B64F76
S315080079A0787820B1B648B0F800A0AB4803E0B548EF
S315080079B0B0F800A0B1483978008849B97988081A1A
S315080079C0B74909888842B4BF4320442001F0C3FE62
S315080079D001980188A548205CF8B1204600F0A7F870
S315080079E0012E08BF297803D0022E0CBF29882968E2
S315080079F0814265D001980088401E00F067F8A648C5
S31508007A00265C7888AAF10101891B814201DB0028DE
S31508007A1035D1387858BB452044E00291CB4620E062
S31508007A2002980BEBDB7300EB630000F03EF90BEBFF
S31508007A3005001BF80510407801EB0020711E8B45E8
S31508007A4080B205D1BDF80010C9B2C0B2ADF80010B9
S31508007A50BDF8001088420BF1020018BFC8465FFA4D
S31508007A6080FBB345DCDBB8F1000FC3D028E0BDF8D6
S31508007A7002100020FFF742FE10B34FF00109788884
S31508007A807949401C788080B2625C2946FFF792FBF0
S31508007A90B0B1714C7B88248870485B1E1B1B00F0B4
S31508007AA01BF810B101F057FE0AE0B9F1000F02D039
S31508007AB0FFF711FF20B1019978880880301878807F
S31508007AC0BDE8F78F0FF2EC10FFF7C8B801220DF1E9
S31508007AD0020180B2FFF752BB01220DF1020100EB51
S31508007AE04300FFF76DBA70B582B004460025192623
S31508007AF0012200A9A0B2FFF741FBBDF80000641CF3
S31508007B0048B14FF47F41401A02D0FF3806D007E04B
S31508007B10681C40B276BDAD1C761EE9D168B276BD4A
S31508007B20BDF80000C0B200B96D1CE843F1E738B5EE
S31508007B300C46002100914C49455C2A46214600A87E
S31508007B40FFF761FB681C00EBD07004EB600080B2A5
S31508007B50FFF7C9FF002848BFC043009940B2401844
S31508007B6032BDF0B5494909880446414883B02546DF
S31508007B7030F815608C4202D23C48285C18B940F2AD
S31508007B803B71FFF79FFF38482D5C681C00EBD070EF
S31508007B9006EB6007B8B2FFF7A6FF322814D2C10772
S31508007BA0BFB207EB60002C4F2C4B3F884CBF00211F
S31508007BB04FF47F41ADF80410C01B012201A903EB65
S31508007BC04000FFF7FDF960B131462046FFF7AFFFE9
S31508007BD000902B46401C00907F2200A92046FFF704
S31508007BE0BAFEF7BDF8B5244C20780027002830D116
S31508007BF019480588607800281ABF204806882E4646
S31508007C001C4807783846471E02281BDBFFB2B819FE
S31508007C1000F04BF8BDF800000028F3D01A48008899
S31508007C2007FB006000F03EF80020ADF80000BB1925
S31508007C300A485B1B012200A9FFF749FE48B101F07B
S31508007C408AFD06E03046FFF703FBFFB20FB90120B5
S31508007C5020703846F2BD000004C302080008040874
S31508007C6014FC0020C8C30208A4C3020880C3020883
S31508007C7048FA002000C3020802FF002008C30208D1
S31508007C8006C302080AC3020802C302080EC3020892
S31508007C9038C3020810C3020814C302085CC60208E7
S31508007CA00CC3020880B2FFF7D3BA012200A980B23A
S31508007CB0FFF764BA73696D2D656570726F6D2D690E
S31508007CC06E7465726E616C2E630000007047012049
S31508007CD0704700207047002070470020704700203A
S31508007CE07047704770477047F8B50D4C276806000F
S31508007CF014D0FEF797FF0B4D21682A7821F81260F9
S31508007D0037F8021BB142FBD1FEF7A2FFB81E216865
S31508007D10401AC0052978000E884200D1FF20F2BD1E
S31508007D20ACEE0020B0EE002010B57348734C006826
S31508007D302060606048220021FFF7D1F8704821686A
S31508007D4000780870002021680873216848730B20A2
S31508007D502168887303202168C8734FF6FE7120686E
S31508007D6001824FF6FF71418200F088FB2168087690
S31508007D7000F084FB2168487600F080FB216888764D
S31508007D80604821680078C8765F492068096881627A
S31508007D905E49097880F82C105D48216800680863F8
S31508007DA010BD10B5FCF7FBFC544C6168897B884212
S31508007DB003D00846FCF7EBFC50B9FCF7F3FC014688
S31508007DC0606890F90F00814204D0FCF7EFFC08B117
S31508007DD0012010BD6068008AFEF7C9F96068408A0C
S31508007DE0FEF7CDF96068007B012818BF0020FEF772
S31508007DF0A8F9002010BD10B5464C0020207001F0EF
S31508007E0004FF20B92046BDE8104001F031BF02F05A
S31508007E1021F908B102F04FF962E080B5002000F0C0
S31508007E2015F828B1002000F005F808B1002002BDB9
S31508007E30FF2002BD31480068407B02281CBF11287C
S31508007E40432801D101207047002070472B4800685D
S31508007E50007B012818BF022804D003281CBF062867
S31508007E60072801D10120704700207047002070477D
S31508007E700020704770477047002070470120704700
S31508007E8070470020704700207047704770470020F1
S31508007E90704780B50020FFF7CDFF18B1BDE8024056
S31508007EA00020D3E702BD80B50020FFF7C3FF30B13D
S31508007EB012480068007B032801DA002002BDFF2073
S31508007EC002BD10B5040004D0E5210FF26C00FEF7E0
S31508007ED0C5FE09480068482101FB040007494860B7
S31508007EE0BDE810405DE705484068008A70470348CA
S31508007EF04068408A70470000CCEE0020CCFB00208A
S31508007F0014EF002015EF0020D4EE0020D8EE002054
S31508007F10DCEE0020BCFB00207047002070470020E4
S31508007F20704702F024B97047704701F0FFBB02F0B2
S31508007F3072BC01F008BC0000656D6265722D6D7536
S31508007F406C74692D6E6574776F726B2D73747562B8
S31508007F502E63000038B504460D46012002F0D6FD12
S31508007F605F48002D12BF00210178491C01705D4849
S31508007F7044705D48FDF7C2FDBDE83240002002F0BE
S31508007F80C5BD10B50028144643D0402823D08828FC
S31508007F9018BF892844D08D2831D08F284AD1534814
S31508007FA0007804280DD144B151490220087040F6E2
S31508007FB00620BDE8104002F0ABBDFEF750F83120B0
S31508007FC034E0012001F0A8FBFEF749F8002C0CBFAD
S31508007FD0312000202AE002F0CBFDFEF740F84048A9
S31508007FE0444900780978884204D2BDE81040002147
S31508007FF00120AFE7002001F08FFB402016E00020AB
S3150800800001F08AFBFEF72BF800212020FFF791FFED
S315080080100BE0012001F080FBFEF721F8002005E0C7
S31508008020002001F079FBFEF71AF88D20BDE8104014
S3150800803002F04CB9BDE81040A6213BE02C48007878
S31508008040022800D0704780B52B480078042807D04E
S315080080500C280ED129480078022818BF7C2808D198
S3150800806002F071FDFDF7FBFFBDE80240002002F0BB
S315080080702DB901BD38B50024FEF7D4FD05461C48C8
S31508008080007810B9FDF782FC04462846FEF7E0FDA5
S31508008090002C1CBFBDE8314001F05BBB31BD80B58B
S315080080A0FFF7E8FFBDE804404FF4A051144801F07B
S315080080B0EABDE2210FF25000FEF7D0BD38B5114CEB
S315080080C02068216C01EA0005ADB2680705D5206C69
S315080080D020F00400206401F077FC256031BD000023
S315080080E0E1FF0020D0F000201CFF002029F100202D
S315080080F060FE002032F10020E4FF0020E5FF0020AA
S3150800810020FE002008A000406D61632D656D3235A4
S31508008110302E630070B504460D461646FDF7F7FF88
S3150800812038B16078002E14BF40F0200000F0DF0060
S3150800813060702946204602F014FEFF2821D0974C8D
S315080081400146201D03F01BF8954D28882188401C00
S31508008150288080B281420AD26888401C6880201D27
S3150800816003F022F802F07AFD2888401E288020882D
S3150800817029888842F3D3BDE870408A48007801F020
S3150800818065BE70BD2DE9F04FA5B082460027FEF703
S3150800819049FD834C2188491E2180FEF759FD50462A
S315080081A002F0E8FC90F8009081784078009700EBA0
S315080081B001201FFA80F800F0D4F8A0F1080208237D
S315080081C0D2B2514602A802F0E8FD02AD6878FFF780
S315080081D05CFE7548007808B3606800281DD0E8780A
S315080081E0FDF759FC4946FDF75DFC074695F902007F
S315080081F000F166050020009009F10103DBB20022B8
S31508008200514604A802F0C9FDFFF73AFE63686AB250
S31508008210394604A89847FFF739FE98E008F00700A2
S3150800822002282DD0FF208DF80400504602F0A2FC4B
S3150800823000F1010B584603F067F80446A9EB040061
S31508008240801E46B2002E1BD45FEA885003D508F07C
S315080082500700032810D101A9584603F0EFF90028B2
S3150800826076D108F0070001280BD19DF8040004EB2D
S315080082700B0104F016FD20B99DF8040002F0EEFC8F
S3150800828066E04A499DF804000968475C4849096858
S3150800829000F801A000F065F800F120019DF804003F
S315080082A0C9B202F06DFC9DF8040002F0F7FF00F079
S315080082B00C0004281CBFA619002470B280B20090D6
S315080082C0631C9DF804009BB25246394602F026FF0D
S315080082D0F1199DF80400C9B202F00BFE3549687819
S315080082E00978884204D3CD210FF2D000FEF7B6FCF8
S315080082F09DF8040002F0CDFF69788004800C40EAFE
S3150800830081319DF8040089B202F0C5FFE878FDF7CF
S31508008310C2FB4946FDF7C6FB02469DF80400032149
S3150800832002F096FFA87800F166029DF80400D2B222
S31508008330042102F08DFF9DF808209DF80400052110
S3150800834002F086FF9DF804A0504602F01BF80127AC
S31508008350504602F083FCFFF799FD384625B0BDE884
S31508008360F08F124800681AF80000704710B50C4CD8
S31508008370618829B1C9B21D20FFF7DBFD00206080A6
S315080083800D4802F011FFFF2803D0FFF7FBFE002877
S31508008390F6D010BD084802F02DBF000034F10020C9
S315080083A040FE0020BFFF00208DFD002098EE002033
S315080083B0A0EE0020D0EE002038F100206D61632D7C
S315080083C0726563656976652E630000000268174961
S315080083D012BACA60426812BA8A60826812BA4A60D9
S315080083E0C06800BA08607047704710B51049802207
S315080083F00A6006230F4A136007230B6013689B075E
S31508008400FCD5002350F823405B1C24BA042B8C624D
S31508008410F8D313685B07FCD500220B6B1BBA40F830
S315080084202230521C042AF8D310BD00003830004010
S315080084300030004010A0004010B504460846FFF77B
S31508008440C5FF2046BDE81040CFE7002848BF404298
S315080084507047000081B209B94BF6EF610E4A1180E8
S31508008460000C08BF4FF6CE205080704702881304D0
S3150800847048BF4A40510001801046704738B5064C3F
S3150800848062212046FFF7F2FF054641F20B01A01CC8
S31508008490FFF7ECFF684032BD52F00020EFF3118081
S315080084A060288041C043C00F70470000002181F357
S315080084B0118870472DE9F04FDFF82C4591B06168B7
S315080084C01091072808BF032006D0082808BF0220F5
S315080084D002D0052808BF0420DFF8105529686A6805
S315080084E041EA0221AA6841EA0241009169684907FE
S315080084F003D5E16941F00201E1612968490703D51D
S31508008500E16941F00401E1610099EA69D140C907CE
S3150800851003D5E16941F00801E1610021DFF8C4648F
S31508008520DFF8CC743160012800F00082C0F02682A2
S3150800853003281AD004D3042840F02082616014E08E
S31508008540386CC00703D5E06940F04000E061386C3C
S31508008550400703D5E06940F02000E061386C8007E9
S3150800856003D5E06940F01000E061FEF75BFBFBF71E
S315080085709EFE8DF83C004FF00009DFF87814DFF80E
S3150800858078A4C1F580310120090B00FA01F1491ED2
S31508008590CAF83810090A07D1DFF86014097819B142
S315080085A0616C41F020016164396CDFF85484DFF8AE
S315080085B054240E91796C0D91D8F84C100C91D8F87A
S315080085C050100B91D8F854100A91D8F85810099100
S315080085D0DAF800100891DAF804100791DAF814109E
S315080085E00691DAF824100591DAF834100491DFF8C8
S315080085F0181409681268039202222260DFF80C2414
S3150800860012688DF80420DFF8082412688DF8052012
S31508008610DFF8002412688DF806204FF0FF326262F8
S3150800862000F0B5F9D2040AD56A68D20707D5E26917
S31508008630D20704D5326842F480728146326000F06F
S31508008640A6F992040AD56A68520607D5E269D207DE
S3150800865004D5326842F480428146326000F097F9C8
S3150800866052040ED5009AAB69DA40D20709D5E269F9
S31508008670D20706D53268AB6900FA03F31A43814676
S31508008680326000F084F9120410D5009AEB69DA40DA
S31508008690D2070BD5E269D20702D4E269120705D5DB
S315080086A03268EB698146984010433060DA480068C2
S315080086B0C00308D5E069000605D5F07840F0080043
S315080086C04FF00109F07000206A68D2076A6848BF4F
S315080086D04FF480505206009AAB6948BF40F40050E8
S315080086E0DA40D207009AEB6948BF40F48040DA4086
S315080086F0D207E26948BF40F40040D20605D4E269D1
S31508008700920602D4E269520601D540F01000E269E9
S31508008710120648BF40F4803008400290A520FBF7B7
S31508008720BDFD0120E063E069A16B11B1616A0142F8
S31508008730FAD0616A014200F0CA800020E063F0784E
S3150800874040F04000F070FEF773FA0498CAF8340057
S31508008750072038600F20C8F8000004F027FB10989F
S31508008760A94960600E9838640D9878640C98C8F822
S315080087704C000B98C8F850000A98C8F85400099895
S31508008780C8F858000898CAF800000798CAF80400FC
S315080087900698CAF814000598CAF8240002980860D2
S315080087A09849039808604FF0FF309C49086097483D
S315080087B00068307096480068707096480068B07017
S315080087C0626AE0691040EA69336801994B4000998A
S315080087D00B400106490E01F0010143EA8123010617
S315080087E0890E01F0010143EA81030106C90E01F071
S315080087F0010101FA02F21A4300F47C7042EA0050C1
S315080088003060FEF70FFAFEF721FA002020609DF887
S315080088103C0008B1FBF735FDF0787B490968C903C8
S3150800882004D5C0F3C00109B120212162396C89073A
S3150800883003D5C10744BF0221F960396C490704D53D
S31508008840C0F3400109B10421F960396CC90704D5A0
S31508008850C0F3800109B10121F9603168D8F84C20CC
S3150800886012F0E00F05D0CA0503D56B4B4FF48052C2
S315080088701A60D8F8502012F0E00F05D04A0403D544
S31508008880654B4FF400521A60D8F8542012F0E00FE6
S3150800889008D0AA6921FA02F2D20703D55E4B4FF433
S315080088A080421A60D8F8582012F0E00F07D0EA691B
S315080088B0D140C90703D5584A4FF40041116040F02A
S315080088C08000F07011B0BDE8F04FFFF7EFBDB9F1C9
S315080088D0000F7FF434AFDAF818004A49DFF840B1E0
S315080088E040084000CAF818004648806840F004006E
S315080088F0886040F20721BBF80000884202BFBBF837
S3150800890002004FF20F01884205D14CF23C30ABF819
S3150800891002004FF00109012004F082FAB9F1000FB4
S3150800892003D04FF20F00ABF802000EE7FBF7BFFCCF
S315080089300446A520FBF7B2FCFEF77AF9FFF7B6FD69
S31508008940384D2E682868400840002860FEF776F9FA
S31508008950354FD7F80080386820F040003860FEF7B9
S3150800896069F9C7F800802E60FEF768F90CB1FBF7C5
S3150800897088FC11B0BDE8F04FFEF768B911B0BDE844
S31508008980F04F40F24C410FF2AC00FEF767B9224AAD
S315080089901268704711F1010F144A07D0CBB2136061
S315080089A0C1F307235360C1F30741916000231F49B0
S315080089B00B601368002B04BF5368002B01D1926823
S315080089C01AB10A6842F001020A600A6842F40072A3
S315080089D00A600A6842F080020A606BE51449D9E722
S315080089E000000000E8FA00200400004008BC00402F
S315080089F014A0004000000000044000409807080842
S31508008A0014A8004008ED00E000E100E008B00040CE
S31508008A1008B2004008B4004000E200E080E200E04E
S31508008A200000002094ED00E0008000402000004097
S31508008A3000016000736C6565702E63000348018849
S31508008A40034808237F22FCF725BC00BF82C702081B
S31508008A5000FC002010B52648264A002141654FF43F
S31508008A60804425490C6004210160C4601621116008
S31508008A7000214165416D41F060014165162000F015
S31508008A8005F81E4908701E48046010BD162807D14F
S31508008A901C480068800900F0010080F0010070475A
S31508008AA00020704710B512484FF48041C160042178
S31508008AB001601620FFF7EAFF104C227801468A4229
S31508008AC018BF21700DD1501E8041C00F207016208E
S31508008AD0217804F079FD2178481E8041C00F207066
S31508008AE02178BDE81040162004F06EBD0000000095
S31508008AF014A8004020BC004080E100E0A2FF00204E
S31508008B0000E100E008B40040002808BF00F02AB9D8
S31508008B102120704700B1704710B52C48046860885A
S31508008B2028B14FF42C710FF2C400FEF797F8A1880C
S31508008B30C9B2A01D00F00CFB0020A080208010BD4B
S31508008B40704780B50B46114620B9184600F000FB61
S31508008B50002002BD212002BDFBF79CBBF0B51C4BD3
S31508008B601D4A1C6812881B4D0FE0278810F8016BF8
S31508008B703F19BE7126882F88761C96FBF7FC07FBE3
S31508008B801C662680A688761CA6800E46711EF6B23E
S31508008B90CEB1A688571EBE42E7DB18680F4B1049B0
S31508008BA01C7824B90088088023201870F0BD09882D
S31508008BB0018023211970038841888B423ABF511AD4
S31508008BC05918591A8180F0BD0000000078F000207D
S31508008BD088F0002094960008F8C2020814FA0020CB
S31508008BE018FA0020704770477047704775617274AD
S31508008BF02E63000010B50446FEF714F846493020E7
S31508008C0008604649086046490860102045490860DA
S31508008C104FF20F01200A0028434808BF24020480A7
S31508008C204180BFF35F8F41480021016041604048A1
S31508008C304049086010BD40480168C90708D53F4A41
S31508008C4003211170016C4908490001640121016082
S31508008C500168090703D5016C21F008010164704712
S31508008C6080B5002000F009F830B9BDE80440FC21C1
S31508008C700FF2DC00FDF7F2BF01BD2DE9F044304CE0
S31508008C8021680D1A15F01F0105D0002852BF6D1A6C
S31508008C90681A00F120052B48A5F12006A84224BF32
S31508008CA02948864203D3EFF30880854201D3002082
S31508008CB02DE0FDF7B7FF82462448006810F001074B
S31508008CC018BF04F08BF8206801468D4206D2A842E8
S31508008CD024BFCD2100F80119F9D206E02038002278
S31508008CE001E000F8012B8842FBD32560304604F0EA
S31508008CF07AF8E22001E006F8010BAE42FBD30FB189
S31508008D0004F054F85046FDF7A3FF20682038BDE864
S31508008D10F0840B48006870473020004030C8004097
S31508008D2030C0004010E00040000000201C40004019
S31508008D300400FA050CED00E018A00040CFFF002063
S31508008D4008F1002038E400203C0F002094ED00E0F4
S31508008D506D6963726F2D696E7465726E616C2E63D0
S31508008D600000000080B5A54800214160417081706F
S31508008D70A5210170012000F0CAFC00F0CCFC00F02F
S31508008D801EF8002002BD9E480168C90700D4704736
S31508008D9080B59C490A6822F440620A60016849085D
S31508008DA04900016001680902FCD49748006810B1BF
S31508008DB06420FCF767F995490020086001BD80B575
S31508008DC09348016841F0807101600120914908606B
S31508008DD000209149FCF79DF99049914A02200860C4
S31508008DE0002090490860904990480160012111606F
S31508008DF0834A8F49116040F2014101654FF4803082
S31508008E008C49086001BD8148006800281EBF7E485D
S31508008E100068002805D07E480068000E00F00100B2
S31508008E20704700207047D12202704170090A81708C
S31508008E3081490A78C270501C0870042070472DE9D1
S31508008E40F14F82B0DFF8F48100900026D8F80000D0
S31508008E500099085C451DEDB204F0A4FC01904FF69C
S31508008E60FF7B19E0B11E9DF80800C9B202F08CF824
S31508008E700746594604F052FD83465646F9B24FEA6C
S31508008E80C90001FA00F0044309F10109B9F1040F18
S31508008E9017DB4FF060400460F6B2FFF7B4FF90B3FB
S31508008EA0AE4230DA04F07EFC0199401A80B2B0F581
S31508008EB0FA7F28DC4FF0604000680128ECD10024D6
S31508008EC0A146F6B216B95B270126D7E7012E06F1A9
S31508008ED0010A04D1D8F8000000990F5CCDE7E91E15
S31508008EE08E4208BF5F46C8D0A91E8E4208BF4FEA09
S31508008EF01B27C2D0691E8E4208BF5D27BDD0AE4271
S31508008F00B0D10027BAE74FF4C870FCF7BBF8AE42F9
S31508008F100CBF00200120BDE8FE8F48490968415C66
S31508008F200429A8BFFFF78BBF012070472DE9F04D34
S31508008F30324D6E78002E5ED004F034FC83463146FE
S31508008F40002001F00EFF0446FF2CA04602D10020A7
S31508008F50687050E0202EB4BF3746202701F00AFE7D
S31508008F606860AF70DFF8D8A004E0404601F002FE62
S31508008F706860AF706878C0B104F014FCA0EB0B0011
S31508008F8080B2B0F5FA7F10DCA8780028F2D1F61B7B
S31508008F906E70F6B2002EEDD0DAF8000018F80080F0
S31508008FA0202EB4BF37462027DFE7002E04BF687897
S31508008FB0002818D1A878B0B920480068205C851E1A
S31508008FC0E9B2204602F087F8122808D1E9B220460D
S31508008FD001F08FFF2146122000F09FF906E0204697
S31508008FE000F0E5F802E000206870A8702046BDE8A9
S31508008FF0F04D01F033BEBDE8F08D0000F0FF002013
S31508009000800E00E0001000E034000040100004E08C
S31508009010FCED00E0040004E020A10700F00004E0F5
S31508009020000E00E0040304E055CEACC5B00F00E026
S315080090300D00010000E100E0D1FF002098EE0020BD
S31508009040A0EE002030B52248016800200022012445
S315080090509440CBB2234213D00FF284001D4C30F853
S31508009060120006284CF23C324FF20F031DD16088DD
S31508009070984216D12188080A0B2812DA084612E007
S31508009080521C92B2082AE2D31349088140F20172AF
S315080090900889904204D11148D0E90023C1E9002388
S315080090A030BD4FF4C0606280EEE740F20725A84263
S315080090B001BF618899422188A942E5D162800846A4
S315080090C0E2E705480089000A7047034800897047A7
S315080090D02C0000400000002048F5002090000020E9
S315080090E00104020401030105060007020309010938
S315080090F070B5B34C204602F07DF8D8B9204602F088
S3150800910053F8FF28044615D0AE490968405C851E09
S31508009110E9B2204601F0DFFF0646E9B2204601F033
S31508009120E8FE2146304600F0F8F82046BDE87040D3
S3150800913001F094BD70BD03460A469FA10420FFE7CF
S315080091400CB480B502AA00F03DF801BC5DF80CFB32
S3150800915021B103460A4699A11120F1E7704700B5E7
S3150800916087B0FDF709FA00210591024620210491EE
S315080091700023572103910120002102910191924970
S3150800918000910FF25421FFF7DBFF90488179C378ED
S3150800919082780391018802914179019101790091C0
S315080091A042200FF24021FFF7CBFF07B000BD10B5F4
S315080091B004462146824801F0E2FF2046BDE81040F9
S315080091C001F03EBD2DE9F04F85B005460C469046A8
S315080091D0002600F0A5FAF8B9FFF715FEE0B1012060
S315080091E001F0D3FC8246BAF1FF0F15D0002101F039
S315080091F0C7FC294601A8FFF716FE05469CB900F0EC
S3150800920087F830B95046FFF788FE10B1042000F001
S3150800921083FA504601F022FD05B0BDE8F08F8DF8BF
S3150800922004200125641C20780028E8D0A0F130012C
S315080092300A2905D20A2101FB0600A0F13006F1E74A
S3150800924000F066F80028E4D122780025422A01A811
S315080092500ED0442A1AD0462A25D0572A0DD0622A7B
S315080092603AD0662A2AD06C2A25D0702A26D0D6E784
S3150800927058F8040B8DF80400D3E758F8041B8DF84A
S31508009280041002250904090E4170CBE758F8041B9F
S315080092908DF804100A0A427004250A0C8270080E1A
S315080092A08DF80700BEE758F8041B504601F0E1FDAB
S315080092B00028B7D0ADE758F8046BB3E7012358F890
S315080092C0041B662A08BF0223F2B2504601F0B3FD1A
S315080092D0002808BF0026ECE73A4858F8041B00683F
S315080092E01AF80090CFB2FF2F9CD017F800B00BEBFE
S315080092F00901C9B2504601F0FCFD002889D1CDF814
S3150800930000B000233A464946504601F007FF89E770
S315080093102A4601A9504601F0AABD2DE9F0431228B4
S3150800932085B080460D4609D03A281DD04FF6FE7105
S31508009330884204BF284600F0FEF934E02148244F4D
S3150800934000682E5C08E0284601F014FC2146FFF769
S3150800935005FC38682D5C203EFF2D24D0F6B2212E60
S31508009360ACBF20243446EEE700F0D1FD8146FCF779
S3150800937003FF0646FBF716FA0746FBF710FA0446FC
S31508009380FCF7F2FE024610480FF260010390CDF892
S31508009390109023460F48006840880290019600976F
S315080093A03B20FFF7CDFE2946404605B0BDE8F04311
S315080093B000F0B8B900000000574600006C700000C5
S315080093C004F1002098EE002000FC002084C7020863
S315080093D0A0EE0020CCFB00204242387042424242B6
S315080093E057424200424242425742000057424257C1
S315080093F057387042000000002DE9F04704468846B9
S3150800940091469A4600F031F9002801BF25460FF229
S315080094107820285C012823D1DFF8406256F82570A9
S31508009420FDF700FC0021B98039807980FDF710FC32
S3150800943006EB85000669FDF7F5FBDFF82422002117
S31508009440B18031807180A954FDF702FCFFF7CDFB8E
S3150800945053464A4641462046BDE8F047FFF754BB07
S315080094602120BDE8F08710B50446FFF7BBFBDFF8FF
S31508009470EC0100EB84000069808810BD2DE9F843F3
S3150800948081464C46DFF8D40100EB8400884606691D
S31508009490484600F0EAF808B1012037E0DFF8C05185
S315080094A0605D05EB440760B1B8887188884208D1C9
S315080094B0FDF7B8FB665D00216155FDF7C9FB30462F
S315080094C024E04846FFF78EFBB088F0B1FDF7AAFB0B
S315080094D071880FF2C0128919897988F800104FF639
S315080094E0FF78718832F8142000F03BF87180B18853
S315080094F04144B180FDF7ACFB605D20B1B8884045BA
S3150800950004BF3088B880002000E02620BDE8F2833A
S315080095100FF27411415C01290AD10FF264114F4A06
S3150800952031F8101052F820008088081A80B2704767
S315080095300020704710B50446FFF7EAFF0FF2401106
S3150800954031F81410081A80B210BD80880FF2301353
