S01A0000657A73702D7370692D626F6F746C6F616465722E73333747
S31508000000000400207500000881000008810000082F
S31508000010A70B090100000000040120570020000872
S31508000020040300006B0B00082D0E00088406000868
S3150800003000000000000000000000000000000000B2
S31508000040000000000000000000000000BC010000E5
S31508000050FFFFFFFF05480068202100EA010020B1E4
S315080000600348016842688D46104770472C000040D7
S3150800007000200008FFF7EEFF00F00AF800F03EF84F
S3150800008002E00000854670474FF4017000F09EB804
S3150800009038B54FF20F04414D00F0C6F828B140F2CA
S315080000A0052028806C80012032BD3D480068C006C6
S315080000B015D56888A0421ED1288840F202218842B8
S315080000C01CBF40F20621884215D040F20111884231
S315080000D01EBFB0F58A7F40F2111188420BD0314C11
S315080000E0208A40F6A721884205D12068FFF7CAFF73
S315080000F06068804700BF002032BD000038B50400A4
S31508000100294872B6016849084900016000F0ECF810
S3150800011023480068000910F001000CBF2349244950
S3150800012002E0CD2201F8012B224A9142F9D3224955
S31508000130224A234B03E011F8015B02F8015B9A425D
S31508000140F9D32049204A002301E001F8013B9142F6
S31508000150FBD3124A53884FF20F05AB4240F20521F2
S315080001600AD113888B4205D030B1180A012818BF66
S31508000170022801D1194601E004B900210648018088
S315080001804CF23C30508000F0C7F94FF40170BDE8DE
S31508000190324000F01BB80000840D0020000000204B
S315080001A02C00004000200008FCED00E000000020C4
S315080001B09800002000040020B01400080004002065
S315080001C00404002004040020970D00200E4A302164
S315080001D011600E4A11600E4A116010210D4A116015
S315080001E0010A00290C4908BF000208804FF20F00D7
S315080001F04880BFF35F8F09480021016041600848C5
S3150800020008490860704700003020004030C80040A8
S3150800021030C0004010D00040000000201C400040C4
S315080002200400FA050CED00E010B5002408210E20A4
S3150800023000F04EFA2948402181600A2100BF491E74
S31508000240FCD1C8210268520601D4012401E0491EE6
S31508000250F8D104210E2000F03BFA204610BD80B5E7
S3150800026000F029FA0121062000F032FA062000F0F3
S315080002705FFA0121072000F02BFA072000F04CFA5C
S315080002801748016821F01001016001BD052800D951
S31508000290704710B5DFE800F01721030F1C17114C43
S315080002A02088411E2180C0B9072000F04DFA42F28D
S315080002B01070208010BD072000F03AFABDE8104003
S315080002C0062000F041BABDE81040062000F024BA26
S315080002D0BDE81040062000F02BBA10BD08B4004057
S315080002E000BC0040900D00206F49512008607047FF
S315080002F038B5054600F0D2F96C49B0FBF1F44FF475
S31508000300F070B0FBF4F02D1A1E2DBCBF4FF401702F
S31508000310FFF75CFF6648674A0721016000214160D4
S3150800032081604FF00071116005FB04F1C91C890852
S31508000330491E416031BD604A01215170D8E76048C5
S31508000340016841F0010101600121416051205649CF
S3150800035008607047002070472DE9F047574D564E04
S315080003602968814640F2DC580129C2465048554F53
S31508000370554C1DDA0221618039600068C00348BF08
S3150800038000F079F8B86900F00300032861D02868FE
S31508000390002803D5B86940F00200B8614846FFF75F
S315080003A0D9FF5FEA000A1BD12868002851D54EE01C
S315080003B061884FF6FF75A9421DD14448018802237A
S315080003C07F22A01C00F0D6F96088A84204BF02204C
S315080003D06080B869800703D4B86940F00200B86144
S315080003E00120B070608838600FFA8AF0FFF7A3FF23
S315080003F05046BDE8F087B9698907EDD50068C0039E
S3150800040048BF00F038F8B07808B14046F1E7B86858
S31508000410B968628810F0010003D10F2A08D2521C6D
S3150800042006E0890704D5217811B1032AA8BFAA18BE
S3150800043092B2022A2070B8BF0222628038686188A8
S315080004408842CDD1B86900F00300032801D0FFF730
S3150800045076FF0020CDE710B5044604E000F0C0F9A9
S315080004600620FFF777FF2046FFF776FF0028F5D12D
S3150800047010BD0220EFE70E480E4A00214160816058
S31508000480016821F00201016000210B4841704FF01C
S3150800049000711160817801B9704780B500218170BB
S315080004A00620FFF757FF01BD0080004090D00300EB
S315080004B010E000E004ED00E0920D0020A41400080E
S315080004C01C4000400440004000040020AC14000812
S315080004D00078704730B5DBB00446214636A800F0F0
S315080004E09FF9002000904FF40263514A36A901A8EB
S315080004F000F03BFB0FF280120FF2881001A900F002
S3150800050095FC054600F0E0F81DB12146284600F0A6
S31508000510D2F928465BB030BD80B5FFF7AAFFFFF7D2
S315080005209EFE00F0A3FC00F0CFF800F0CFFC002000
S31508000530FFF7ACFE07E01A2000F0BBFA0122002103
S31508000540522000F023F800F0BFF80220FFF79EFEC5
S3150800055000A800F08DFC0028F5D19DF80000512870
S31508000560E9D03449002008700120FFF7B3FF20B90D
S315080005700520FFF78BFE012000E00420FFF786FE2A
S3150800058040F20120FFF722FE002002BDF8B506461C
S315080005900F461546284C0FF2B8011D22204600F0DA
S315080005A096FC0A2204F13401201D00F090FC234831
S315080005B0018808237F2204F10E0000F0DBF8522E92
S315080005C0A6761BD13520207006220FF2A40104F16D
S315080005D02E0000F07CFC0120E076022318480188F2
S315080005E07F2204F11C0000F0C5F816480188102384
S315080005F07F2204F11E0000F0BDF802E01D202070E5
S31508000600E776012D12D12078A0F11B05012000F014
S31508000610A4FC0D48FD2101704570EAB204F11A01E7
S31508000620801C00F054FC094901200870F1BD000047
S31508000630640500208F0D002024050020AE14000854
S31508000640AA140008A8140008940400208E0D00209F
S315080006500063CC00FFFF0000000000000000FFFF61
S31508000660FFFFFFFFFFFF7C656D0100000000000033
S3150800067000040300572000001B1400085714000844
S31508000680D1040008370A00086F0A00081A480068EB
S31508000690C00701D4194870471948704780B5FFF755
S315080006A0F5FF1849096801B9400802BD80B5FFF78A
S315080006B0EDFF400802BD1448012181604EF6BE21B7
S315080006C041600121016070471049012008607047A8
S315080006D0C208430710B54CBF0D4B0E4B03EB8222E5
S315080006E000F00300800013680F248440A34301FA36
S315080006F000F01843106010BD1C400040001BB700F6
S3150800070000366E012040004000600040086000404E
S3150800071004B0004000B00040C108032907DA0121EF
S3150800072000F007029140C00880020F4A1150704736
S31508000730C108032907DA012100F007029140C00821
S3150800074080020A4A11507047C10803290ADA084A82
S3150800075002EB812101230A6800F0070003FA00F082
S31508000760504008607047000014B0004010B00040C8
S315080007700CB0004030B5044610467F2808BF00205C
S315080007804BF23462914283B01AD108237F2240F695
S31508000790120100A8FFF7EEFF08220FF23C0100A89D
S315080007A000F0AEFB30B908237F2240F2A27100A800
S315080007B0FFF7E0FF082200A9204600F088FB37BDB6
S315080007C0044D294300FB03111A46204600F07FFB1F
S315080007D037BD000000000408FFFFFFFFFFFFFFFF13
S315080007E070B50D4C25680646FFF760FF0B49B0FB50
S315080007F0F1F070432F303021B0FBF1F0032809D314
S31508000800616D41F0010161652168491B0903090B06
S315080008108142F9D370BD00003820004090D0030013
S31508000820017001224270012982700CBF802140218B
S3150800083081800021C1800181AC4801600E2181625E
S31508000840016821F01001016000214163416270478F
S31508000850F8B50D460446A649A44F4FF0FF30086088
S315080008601646FE6200207862386840F0010038605B
S31508000870FFF72AFF012C11D135B900F00BFB00F068
S31508000880010080F0010002E0284600F0F1FA38B9CC
S3150800089038684008400038600020F2BD0120F2BDEB
S315080008A0786AB042E4D3002EE2D0386840084000A7
S315080008B038601620F2BD80B50A4601461820FFF7B3
S315080008C065FE012000F049FBBDE80140F4E038B5BB
S315080008D00446002020814AF6B432207800A9FFF7A2
S315080008E0B7FF08B11C2032BD9DF80000032818BFC9
S315080008F0182801D1182032BD042801D1172032BD8D
S31508000900012801D0212032BD002500E06D1CA188F8
S31508000910EDB2091D8D420BDA281900F10A0120787B
S3150800092040F2DD22FFF794FF0028EFD0262032BDE3
S315080009300025002006E00146EDB22819007B00F0EC
S3150800094013FC6D1CA188EAB28A42F4D3A27AE37A30
S315080009509B18FF2B01D0222032BD0B191D7BB5EB4E
S31508000960102F01D0232032BD5B7BC0B2834201D059
S31508000970242032BDA078824207D0401EC0B28242EF
S3150800098001D1272032BD252032BD881C20810220B6
S31508000990E080002032BD38B504466078012804D0CE
S315080009A00ED3032845D003D30AE0022060700FE077
S315080009B000F08CFA00F065F8A078401CA07007E0FB
S315080009C0182032BDA0782278411EC9B200F05BF823
S315080009D02046FFF77CFF05462078012804BF2846F5
S315080009E000F067F80DB100F071FA272DEAD0A806D5
S315080009F00BD52278A1781520FFF7C8FD002DE7D181
S31508000A000320FFF743FC002032BD680603D4182DE7
S31508000A1018BF1C2D07D121782846FFF74CFF042064
S31508000A206070284632BD172DE8D100F02AF8032059
S31508000A306070172032BDF8B504460D4616460027E5
S31508000A4006E0E088411C0019E180807A78557F1C11
S31508000A50BFB2B74209D2E08821898842F1D320463D
S31508000A60FFF799FF0028ECD0F2BD0020F2BD10B5C3
S31508000A700446FFF790FF00F004F800F01DF8172071
S31508000A8010BD2278A1780620FFF780BD80B51949E8
S31508000A90FD220A70887001224A70012000E00020B9
S31508000AA000F02FFB00F084FA0028F8D112490870EC
S31508000AB001BD00B91920E9E710B582B00F4C2078BE
S31508000AC060B1002000F01DFB0028F8D0002000F0DF
S31508000AD044FA012000F015FB0020207040F2DD22C8
S31508000AE000A90120FFF7B4FE13BD000000E0004096
S31508000AF000A80040940400208D0D00208E0D0020D3
S31508000B00F8B504460D4616461F4607E03046A04788
S31508000B10294600F03BFB05467F1E761CBFB2002F18
S31508000B20F4D12846F2BD38B50C46154605E001460F
S31508000B3014F8010B00F02AFB6D1EADB2002DF6D19C
S31508000B4032BDF8B504460D461F4616462868236882
S31508000B503A4631469847040005D1E8683A46314690
S31508000B60FFF7E1FFE8602046F2BD10B5029C8472EB
S31508000B700381426001604FF0FF31C16000210174BA
S31508000B8010BD2DE9F84F8946044699F81BB0D06880
S31508000B90A249BBF1800FA8BF4FF0800B88421E46C2
S31508000BA051D1002E4DD0B06800904FF0FF38002587
S31508000BB009EB450A9AF848700DE0FFF785FDF8023B
S31508000BC040F0006200984FF400634146FFF798FF33
S31508000BD08046781CC7B20AF148004078B84204DA61
S31508000BE0681CC5B2062D02DAE2E7FF2FE5D1D9F86F
S31508000BF044006FEA0801884225D1A068736800BAE4
S31508000C004FEA5B0249469847C8B9E06805BAA06842
S31508000C1002BAB0685B464FF0FF31FFF771FFC04379
S31508000C2085420CD140F6A720A9F810000122A06839
S31508000C30736800BA09F110011030984708B14220CC
S31508000C4002E0172000E04320BDE8F28F2DE9F04FBF
S31508000C500D4683B08046D5F804A02889ADF804006F
S31508000C60914605F1140606F110070423524640463C
S31508000C70FFF767FF00286ED1BAF8000040BA80B2C5
S31508000C800090BAF8020040BA84B2E00748BF46208E
S31508000C9061D4B4F5026FC8BF4E205CDC002C59D075
S31508000CA00098DFF87CB148B14FF60441401A00F0CD
S31508000CB09C80FF3853D0FE3851D0ACE0287C08B170
S31508000CC0512048E08D2C28BF4F2044D22346321DA0
S31508000CD000F0A9F800283ED1FA7E802AA8BF802213
S31508000CE002F10C00844201BFB08840BA00F47F408C
S31508000CF0B0F5007F31D1F08840BA4EF250318842C3
S31508000D0002BF388A40F6A721884226D1788A00F49D
S31508000D107F40B0F5807F01BFB06800BADBF81C10D1
S31508000D2088421AD14FF6FF70388206F110014FF04B
S31508000D30FF30FFF7F8FEF16809BAC943884204BFD5
S31508000D40387E042809D1787E032818BF062804D1DE
S31508000D50012028740020BDE8FE8F4520FBE7287C8B
S31508000D60002844D0042300F05DF80028F3D1DAF80F
S31508000D70000006BA201F84B2DBF81C00864238BF82
S31508000D804820E8D3796DA019884228BF4920E2D2C5
S31508000D9000984FF6035188420DD1B9F1000F0AD0D9
S31508000DA0D9F8002031460220904720B14A20D2E7E0
S31508000DB0E01B84B2BE19002CCCD0BDF804008442D6
S31508000DC0B4BF274607463B4600F02CF80028C2D198
S31508000DD0B9F1000FECD0D9F804307A0851463046FC
S31508000DE098470028E4D04B20B5E7287C08B941206D
S31508000DF0B1E7042C18BF4C20ADD16A68042300F073
S31508000E0012F80028A7D14B462A463946304603B081
S31508000E10BDE8F04FB5E644209DE70000E320BBDEC1
S31508000E20000000085246294640468AE670B50D4637
S31508000E3004462889C107164601D4802803DA4F20BC
S31508000E4070BDA87A78B9324629462046FFF7FEFED5
S31508000E500028F6D0172807D1286861688847172818
S31508000E6002D1002070BD502070BD000000F060B8AF
S31508000E7010B5044600F00EF850B1124812498278AF
S31508000E805118897821708178491C8170002010BD1D
S31508000E90012010BD10B50B4C207888B900F031F947
S31508000EA078B1607840B1002000F057F8012000F0D2
S31508000EB028F90020607010BD012020700020A07065
S31508000EC0012010BD8D0D00200404002070478142CA
S31508000ED012D210185118401E491E92B2002A1EBF7F
S31508000EE011F8013900F80139521EF6D1704711F888
S31508000EF0013B00F8013B521E92B2002AF7D1704717
S31508000F0010B500E0521E92B222B100F005F8F9D0F1
S31508000F10181B10BD002010BD10F8013B11F8014B3D
S31508000F20A34270478A4800214171817100F03EB999
S31508000F3080B58748002181700121C17001710021A7
S31508000F4001700921417000F060F9FFF7EBFF00F02E
S31508000F505DF9BDE8014000F060B958B17D48016807
S31508000F60490605D57C490968090744BF0421C160BB
S31508000F70002000E001207649C870704774490A7954
S31508000F8022B90870012200200A714870704710B50E
S31508000F90044600F07FF971484078A72807BF7048D3
S31508000FA004700320FFF7EAFFBDE810400120A8E01F
S31508000FB0674880797047F8B5654C664D2179664E65
S31508000FC021B13268120744BF0422EA60A278A2B1AE
S31508000FD00420E86001E0FFF777FB28684006FAD5A9
S31508000FE00420A8600020A070E07820B93220FFF71E
S31508000FF0F7FB0420E8600020F2BD6279584F1042E2
S3150800100025D031B100202071022221463846FFF74B
S315080010105EFFE07808B10420A8603878052803DA6E
S31508001020A720B87003200DE0FE2818BFFD2806D1BA
S315080010307978C919A72088707878C01C02E0A7209B
S3150800104078700220A071A07900F03FF9D1E7A07965
S315080010500028D0D100F04AF930B93068000703D526
S3150800106000F04CF900F01FF900F058F90028C2D03A
S31508001070012060710420A860384D00F05AF900BBC1
S3150800108000F05FF90028B6D028780A2806D00B2881
S3150800109008D0FD2818BFFE2806D0ACE78220FFF747
S315080010A076FFA8E7C120FAE76878862805DBFFF708
S315080010B039FF0120FFF762FF9DE700F04AF9002893
S315080010C099D000F0DDF800F0E5F800F0E7F82079AF
S315080010D018B1012000F015F88DE768784019807876
S315080010E0A72803D00320FFF749FFF2E72878FE2850
S315080010F003D10420FFF742FFEBE7FD2038700120FB
S31508001100F2BD70B5124E174D0446B07900F02CF9B1
S3150800111018B1042028600120707100F02DF908B17B
S315080011200120B07000F030F970B104202860B07961
S3150800113000F035F910B90220FFF720FFFFF7F2FE9D
S31508001140F07808B9042068602046BDE8704032E7A8
S31508001150860D002008B4004008B0004004040020B2
S315080011609404002010B400400A0242EA11214840C3
S31508001170C0F30311484080EA003041010206C9B2B3
S31508001180D20E41EA0221484080B270470A0A484016
S31508001190C0B208214308C00746BF0348584018464E
S315080011A0491EF7D1504070472083B8ED8048016C3E
S315080011B04908490001641022016C21F40071016498
S315080011C07C490A6320220A6300224A650A664A663F
S315080011D08A6502224A65784A0A608D324A60774AE9
S315080011E00A618D324A61764A1268120709D5026C7D
S315080011F042F001020264026C42F4007202640122A7
S315080012000A634FF6FF710160704770476D4848F2F0
S315080012109441016008210161704730B56A486B49FD
S315080012206B4D4FF40053036000220A65694A5468FF
S3150800123024F4706444F40064546040241461022465
S315080012400C60654C236040230B65136823F47043D8
S3150800125043F4804313604FF48043036000204865DD
S3150800126003202860042008602360202048650420A5
S315080012701061106820F4706040F48070106030BD12
S3150800128056480168490849000160016821F400715F
S3150800129001607047524910200860704744494FF46E
S315080012A00070086070474248012101604FF40071E0
S315080012B00160016C41F001010164016C41F40071A7
S315080012C0016401204649086070473C4A4549801830
S315080012D0401E08600122FF20886235480260042209
S315080012E0CA61016C41F00101016470473E4800681B
S315080012F0C00701D400207047012070473B4881B0E1
S3150800130001688DF8001001688DF8001001688DF8E5
S31508001310001000688DF8000001B070473448006876
S3150800132018B923480068800501D5012070470020B8
S3150800133070471F480068800501D5012070470020C6
S3150800134070472B480068022801D301207047002007
S3150800135070472748184900684978C91C884201D34C
S31508001360012070470020704711480068C00701D562
S31508001370012070470020704714480168890701D585
S31508001380022109E00020704710480168490701D585
S31508001390042101E0002070470160012070471549CB
S315080013A00968814201D0002070470120704700007B
S315080013B00CA8004000C0004004040020940400204B
S315080013C008B0004000B0004080E100E014A80040EA
S315080013D014BC004000B4004080E200E04CA8004085
S315080013E030C0004014C000402CC000403CC0004043
S315080013F020C0004028C000402748018A40F6A7724E
S31508001400914202BF408A4FF47F41084203D1022825
S3150800141001DB0120704700207047F8B504461D4ED1
S3150800142001200D463070FFF7E7FF18B94FF4017039
S31508001430FEF7CCFE29461848876A44F48070B847F8
S31508001440002131700FF2540618B9294644F4007089
S31508001450B847805DF2BD2DE9F0410446884656003E
S31508001460FFF7CAFF18B94FF40170FEF7AFFE0A4836
S31508001470476A0023324641462046B8470FF21C0504
S3150800148020B93346002241462046B847405DBDE8AC
S31508001490F0810000960D00200000040800020202F8
S315080014A04B4B464700366E012A083A08EE0834B612
S309080014B00100FFFF2B
S705080000757D
