S021000073657269616C2D756172742D6F74612D626F6F746C6F616465722E733337A1
S31508000000000400207500000881000008810000082F
S31508000010A70B090100000000030120570020000873
S31508000020041E0300A30F000865120008D80600087E
S3150800003000000000000000000000000000000000B2
S31508000040000000000000000000000000BC010000E5
S31508000050FFFFFFFF05480068202100EA010020B1E4
S315080000600348016842688D46104770472C000040D7
S3150800007000200008FFF7EEFF00F00DF800F042F848
S3150800008005E00000854670474548008870474FF4EC
S31508000090017000F09FB838B54FF20F04414D00F0DB
S315080000A0C7F828B140F2052028806C80012032BDAF
S315080000B03D480068C00615D56888A0421ED1288824
S315080000C040F2022188421CBF40F20621884215D020
S315080000D040F2011188421EBFB0F58A7F40F2111125
S315080000E088420BD0314C208A40F6A721884205D198
S315080000F02068FFF7C7FF6068804700BF002032BD51
S315080001000000000038B50400294872B6016849089D
S315080001104900016000F0DCF823480068000910F087
S3150800012001000CBF2349244902E0CD2201F8012B26
S31508000130224A9142F9D32249224A234B03E011F875
S31508000140015B02F8015B9A42F9D32049204A002351
S3150800015001E001F8013B9142FBD3124A53884FF262
S315080001600F05AB4240F205210AD113888B4205D010
S3150800017030B1180A012818BF022801D1194601E032
S3150800018004B90021064801804CF23C30508000F04A
S315080001907DF94FF40170BDE8324000F01BB800004D
S315080001A04C0F0020000000202C0000400020000812
S315080001B0FCED00E00000002098000020000400206C
S315080001C0DC1F000800040020200400202004002072
S315080001D0660F00200E4A302111600E4A11600E4A41
S315080001E0116010210D4A1160010A00290C4908BF47
S315080001F0000208804FF20F004880BFF35F8F09485E
S3150800020000210160416008480849086070470000FD
S315080002103020004030C8004030C0004010D00040B8
S31508000220000000201C4000400400FA050CED00E028
S315080002300020704780B500F053FA00F0A1FA38B1F3
S315080002400921152000F059FA0921162000F055FA5F
S315080002500121152000F051FA152000F077FC012144
S31508000260072000F04AFA072000F064FC16480168E7
S3150800027021F01001016001BD052800D9704710B5AD
S31508000280DFE800F01721030F1C17104C2088411EC9
S315080002902180C0B9072000F065FC42F2107020806A
S315080002A010BD072000F052FCBDE81040152000F0F4
S315080002B059BCBDE81040152000F03CBCBDE8104014
S315080002C0152000F043BC10BD00BC00404E0F0020B6
S315080002D0554951200860704738B55449C9780429EA
S315080002E0B4BF302460244FF4F071B1FBF4F1451A21
S315080002F01E2DBCBF4FF40170FFF76CFF4C484D4AEA
S31508000300072101600021416081604FF00071116092
S3150800031005FB04F1C91C8908491E416031BD434AE1
S3150800032001215170D8E72DE9F041444F424D7888B4
S315080003303E4E4FF6FF78404540F2DC541CD140480B
S31508000340018802237F22B81C00F022FC78884045E9
S3150800035004BF02207880A869800703D4A86940F002
S315080003600200A8610120B070788828602046FFF74F
S31508000370D6FF2046BDE8F081A8698007EED52C484F
S315080003800068C00348BF00F03BF8B0780028F0D1F9
S31508000390A868A9687A8810F0010003D10F2A08D244
S315080003A0521C06E0890704D5397811B1032AA8BF7B
S315080003B0424492B2022A3870B8BF02227A8028686C
S315080003C079888842CED1A86900F00300032808D0AE
S315080003D0A869154940F00100A8610120E86151208B
S315080003E008600020C6E710B5044601E000F033FCBB
S315080003F02046FFF798FF0028F8D110BD0220F2E743
S315080004000B480C4A002141608160016821F0020115
S3150800041001600021054841704FF000711160817834
S3150800042009B1002181707047008000405C0F0020F0
S3150800043010E000E004ED00E0044000400404002061
S31508000440D61F00080078704730B5DBB00446214651
S3150800045036A800F017FC002000904FF402638A4A81
S3150800046036A901A800F09DFD0FF260220FF2682060
S3150800047001A900F0F7FE054600F03BF91DB121463B
S31508000480284600F055FC28465BB030BD80B5FFF71E
S31508000490B5FF00F01BFF00F0F5FFFFF7CBFE01F0FC
S315080004A015F801F0A3F840F20120FFF793FE0020AB
S315080004B002BDF8B504460F461546744E0FF2E41110
S315080004C01D22304601F0D2F90A227149301D01F089
S315080004D0CDF97048018808237F2206F10E0000F046
S315080004E057FB522CB4761BD13520307006220FF2FA
S315080004F0D41106F12E0001F0B9F90120F076022395
S31508000500654801887F2206F11C0000F041FB63481C
S31508000510018810237F2206F11E0000F039FB02E055
S315080005201D203070F776012D04D12046BDE8F24033
S3150800053000F0E3BF3046BDE8F24000F045BFF8B52D
S31508000540574C601C00F0A7FF112821D10A25082660
S3150800055001F0CCF9400800F07EFB4D4F082229191E
S31508000560B81C01F083F902223119384601F07EF9E8
S315080005707878397801EB002080B200F0BEFE0120C1
S31508000580B8730222BDE8F8400021522091E7F1BD78
S315080005901528FCD10E250426DFE72DE9F041804613
S315080005A03B4C3F4E00206073304600F0C4FEC00747
S315080005B03AD5701C00F06FFF070035D0781CC5B21D
S315080005C004220FF2F601A81901F069F960BB281D8B
S315080005D02073C0B2805D01280DD003281CBF0428F3
S315080005E0182811D0512808BFB8F1000F1CD1FFF701
S315080005F0A6FF002019E045206073A07B90B1112F5B
S3150800060007D106F10A0008E0B8F1000F0CD0012066
S31508000610F2E7152F06D106F10E000822A11C01F0FB
S315080006203EF910B1002060730120BDE8F08138B5AD
S31508000630174C0546607B10B90120FFF7AEFF607BBB
S3150800064050B1207B1649415C2970401C2073607BA1
S31508000650401E6073002032BD012032BD0C480021C7
S31508000660417381730020704780B50020FFF795FF1E
S3150800067038B907490A48097B085C012801D10020D6
S3150800068002BD012002BD0000F0040020BC040020C9
S31508000690AC040020DA1F0008D21F0008D01F00088B
S315080006A0200400200063CC00FFFF000000000000CB
S315080006B00000FFFFFFFFFFFFFFFF7C656D010000E5
S315080006C00000000000041E03572000003F1F00081A
S315080006D07B1F000845040008F10E0008290F0008D2
S315080006E01048012181604EF6BE214160012101605A
S315080006F070470D49012008607047C208430710B5C6
S315080007004CBF0A4B0A4B03EB822200F00300800021
S3150800071013680F248440A34301FA00F018431060BD
S3150800072010BD0000006000400860004004B00040B2
S3150800073000B00040DFF82C339860012018600020D4
S31508000740186058680028FCD118691040C8407047DE
S31508000750DFF8103398600120186000201860586888
S315080007600028FCD1114018699043084380B2D8602C
S31508000770022018600020186058680028FCD17047CD
S31508000780DFF8E40200787047DFF8DC22DFF8DC02E5
S315080007901278DFF8DC120AB149780EE0895611F1B1
S315080007A0090FB8BF302108DBC16D39B1C26D40F2FF
S315080007B04A31B1FBF2F189B2C91E01607047F8B53A
S315080007C00546B5F5004FAA4C18D1AA480188022358
S315080007D000F076F9BDF80000000AFF2814BF0028CB
S315080007E018206070BDF800000006C00E10281CBF57
S315080007F0001D00F0CAF8BDF80000C5439A4E70788F
S3150800080008B1002005E0A089ADB26840C00701D54F
S31508000810012070709848A58105F00104016841F42B
S3150800082000410160C5F340070FF2043000EB4400B5
S315080008304FF440524078010389B22020FFF788FF21
S31508000840204601F063F84022B90100F031F92D067F
S31508000850A80E00F0010038433070FFF795FF00201E
S31508000860F2BD2DE9F04F8648864D007885B0A0F197
S315080008700B0428780128E4B20CBF0026012601F0F3
S31508000880A5F88148007820B900F014F9BDF802905F
S3150800089002E07E4890F808907D4FDFF8F8B1386896
S315080008A07D49400800F0010ADBF8000000F4E06822
S315080008B04FF4E0600860002001F065F93EB1386841
S315080008C04008400038600120287000F0C4F92878F4
S315080008D0012808D1386840F00100386000202870E7
S315080008E0642000F0B8F96D4D286820F4805028601F
S315080008F0286840F40050286001F0BAF906465F48B7
S3150800090041880122A24091434180CBF8008001F042
S315080009100DFA504601F037F901F0BBFA48F260705B
S315080009202860642000F097F9F0B201F079F95FFACF
S3150800093089F001F0BBFA05B0BDE8F08F01F075BA91
S3150800094038B50546A5F10B0401F003F9A5F10B002E
S31508000950102801D38A2032BD51488168090702D47C
S315080009600068C00701D58C2032BD454805704D4842
S3150800097001680C2907D00FF25011A4B231F82410DF
S31508000980C161FFF76EFF002032BD2DE9F041044634
S3150800099014F12B0F86B042DB00F08CF8BDF810007E
S315080009A04FF6FF71884203D0400448BF012606D49B
S315080009B03F220021F020FFF7BDFE0546002604F180
S315080009C02B022F2A2A4838491AD213220FF2381333
S315080009D000E0521ED2B213F91270BC42F9DB03EBE7
S315080009E04204032764780C60002413F8121001707F
S315080009F000208046AEB1BDF810104FF6BF7229E050
S31508000A00092C0CDA225C0A60047014232748018832
S31508000A1000F056F801240320A0462827EAE78B2091
S31508000A201DE0C1024FF4605200F042F84FF4E06254
S31508000A30210200F03DF880224FEAC81100F038F88C
S31508000A4085F020003D18ADB2402DA8BF3F253F22B6
S31508000A5085F0200100F02CF8FFF796FE002006B07E
S31508000A60BDE8F081E8100040610F002064100040E6
S31508000A700C040020D41F00081C100040500F002052
S31508000A80080400201E040020560F00200000002045
S31508000A908020004000E100E080E100E0D010004046
S31508000AA060200040AC100040C0100040CA1F00087B
S31508000AB0A0204DE6004801E0C81F0008018814235D
S31508000AC07F2200A800F064B8AA212900552329002E
S31508000AD000252800AA26270055282700002A2600D0
S31508000AE0AA2B2600552D2500002F2400AA30240005
S31508000AF05532230000342200AA352200553721003A
S31508000B0000392000AA3A2000D500E601EC02EF03DE
S31508000B10F204F405F506F707F808F909FA0AFB0BD3
S31508000B20FC0DFD0FFE11FF1300160119021C031F11
S31508000B3000000103C108032907DA012100F00702B2
S31508000B409140C00880020F4A11507047C108032916
S31508000B5007DA012100F007029140C00880020A4A1C
S31508000B6011507047C10803290ADA084A02EB8121A5
S31508000B7001230A6800F0070003FA00F050400860F5
S31508000B807047000014B0004010B000400CB00040A0
S31508000B9030B5044610467F2808BF00204BF2346261
S31508000BA0914283B01AD108237F2240F6120100A889
S31508000BB0FFF7EEFF08220FF23C0100A800F06FFED7
S31508000BC030B908237F2240F2A27100A8FFF7E0FFA0
S31508000BD0082200A9204600F049FE37BD044D2943E6
S31508000BE000FB03111A46204600F040FE37BD000000
S31508000BF000000408FFFFFFFFFFFFFFFF10B50446D4
S31508000C001C48018882B000F021F89DF800109DF874
S31508000C100100FF2902BFFF280420002104B1801C1F
S31508000C20154A1368C0B20828A8BF072023F46073C2
S31508000C3043EAC010106008291068A8BF0721C00839
S31508000C4041EAC00010600D48047013BD02237F22DC
S31508000C5000A8FFF79DBF0A490A68032809D34B6D08
S31508000C6043F001034B650B689B1A1B031B0B83425E
S31508000C70F9D37047CE1F000818000040600F002007
S31508000C8038200040017001224270012982700CBF91
S31508000C908021402181800021C18001812248016094
S31508000CA00E218162016821F0100101600021416373
S31508000CB041627047F8B50D4604461C491A4F4FF075
S31508000CC0FF3008601646FE6200207862386840F0F9
S31508000CD001003860FFF70DFD012C11D165B900F050
S31508000CE05DFC00F0010080F0010088B93868400812
S31508000CF0400038600020F2BD284600F057FCF4E7B3
S31508000D00022C03D12846FFF792FCEEE70120F2BD3C
S31508000D10786AB042DED3002EDCD03868400840003E
S31508000D2038601620F2BD000000E0004000A8004030
S31508000D3038B504460D4600F009F800F007F82A46CB
S31508000D402146BDE838401820FFF7B3BB2A4621469E
S31508000D501820FFF7AEBB38B50446002020814AF6B6
S31508000D60B432207800A9FFF7A5FF08B11C2032BDD0
S31508000D709DF80000032818BF182801D1182032BD95
S31508000D80042801D1172032BD012801D0212032BD07
S31508000D90002500E06D1CA188EDB2091D8D420BDA15
S31508000DA0281900F10A01207840F2DD22FFF782FFB8
S31508000DB00028EFD0262032BD0025002006E0014697
S31508000DC0EDB22819007B01F077F86D1CA188EAB20C
S31508000DD08A42F4D3A27AE37A9B18FF2B01D0222009
S31508000DE032BD0B191D7BB5EB102F01D0232032BD68
S31508000DF05B7BC0B2834201D0242032BDA0788242F8
S31508000E0007D0401EC0B2824201D1272032BD25201C
S31508000E1032BD881C20810220E080002032BD38B512
S31508000E2004466078012804D028D3032859D01DD356
S31508000E3024E02078012816D13B2500A800F0B6FB4F
S31508000E400028FAD0432000F058FB207840F2DD2233
S31508000E500021FFF72FFF30B12846451EC0B20028F3
S31508000E60F0D11B2032BD022060700FE000F0B2FB0B
S31508000E7000F039F8A078401CA07007E0182032BDB1
S31508000E80A0782278411EC9B200F02FF82046FFF755
S31508000E9062FF050018BF00F09DFB272DF0D0A806BD
S31508000EA00BD52278A1781520FFF703FB002DEDD18D
S31508000EB00320FFF7E1F9002032BD680603D4182D98
S31508000EC018BF1C2D07D121782846FFF731FF0420CB
S31508000ED06070284632BD172DE8D100F004F80320CB
S31508000EE06070172032BD2278A1780620FFF7E1BA94
S31508000EF0F8B504460D461646002706E0E088411C6C
S31508000F000019E180807A78557F1CBFB2B74209D2B2
S31508000F10E08821898842F1D32046FFF780FF002820
S31508000F20ECD0F2BD0020F2BD10B504462046FFF70E
S31508000F3076FF0028FAD010BDF8B504460D461646C9
S31508000F401F4607E03046A047294600F0C7FF05467A
S31508000F507F1E761CBFB2002FF4D12846F2BD38B5E5
S31508000F600C46154605E0014614F8010B00F0B6FFDD
S31508000F706D1EADB2002DF6D132BDF8B504460D464C
S31508000F801F461646286823683A463146984704009D
S31508000F9005D1E8683A463146FFF7E1FFE8602046A2
S31508000FA0F2BD10B5029C84720381426001604FF065
S31508000FB0FF31C1600021017410BD2DE9F84F894643
S31508000FC0044699F81BB0D068A249BBF1800FA8BFA8
S31508000FD04FF0800B88421E4651D1002E4DD0B06886
S31508000FE000904FF0FF38002509EB450A9AF848703B
S31508000FF00DE0FFF77EFBF80240F0006200984FF420
S3150800100000634146FFF798FF8046781CC7B20AF18D
S3150800101048004078B84204DA681CC5B2062D02DAE0
S31508001020E2E7FF2FE5D1D9F844006FEA08018842C4
S3150800103025D1A068736800BA4FEA5B02494698470B
S31508001040C8B9E06805BAA06802BAB0685B464FF04E
S31508001050FF31FFF771FFC04385420CD140F6A72048
S31508001060A9F810000122A068736800BA09F11001F6
S315080010701030984708B1422002E0172000E04320CC
S31508001080BDE8F28F2DE9F04F0D4683B08046D5F8BE
S3150800109004A02889ADF80400914605F1140606F166
S315080010A01007042352464046FFF767FF00286ED113
S315080010B0BAF8000040BA80B20090BAF8020040BA06
S315080010C084B2E00748BF462061D4B4F5026FC8BFB2
S315080010D04E205CDC002C59D00098DFF87CB148B172
S315080010E04FF60441401A00F09C80FF3853D0FE3872
S315080010F051D0ACE0287C08B1512048E08D2C28BF9F
S315080011004F2044D22346321D00F0A9F800283ED1CC
S31508001110FA7E802AA8BF802202F10C00844201BF11
S31508001120B08840BA00F47F40B0F5007F31D1F0882E
S3150800113040BA4EF25031884202BF388A40F6A7219B
S31508001140884226D1788A00F47F40B0F5807F01BFB7
S31508001150B06800BADBF81C1088421AD14FF6FF7047
S31508001160388206F110014FF0FF30FFF7F8FEF168FC
S3150800117009BAC943884204BF387E042809D1787E53
S315080011801E2818BF062804D1012028740020BDE8AF
S31508001190FE8F4520FBE7287C002844D0042300F076
S315080011A05DF80028F3D1DAF8000006BA201F84B2E9
S315080011B0DBF81C00864238BF4820E8D3796DA019B1
S315080011C0884228BF4920E2D200984FF60351884248
S315080011D00DD1B9F1000F0AD0D9F800203146022006
S315080011E0904720B14A20D2E7E01B84B2BE19002CF2
S315080011F0CCD0BDF804008442B4BF274607463B4618
S3150800120000F02CF80028C2D1B9F1000FECD0D9F8BB
S3150800121004307A085146304698470028E4D04B20D7
S31508001220B5E7287C08B94120B1E7042C18BF4C2043
S31508001230ADD16A68042300F012F80028A7D14B46FE
S315080012402A463946304603B0BDE8F04FB5E6442095
S315080012509DE70000E320BBDE000000085246294651
S3150800126040468AE670B50D4604462889C1071646E3
S3150800127001D4802803DA4F2070BDA87A78B932469F
S3150800128029462046FFF7FEFE0028F6D0172807D184
S31508001290286861688847172802D1002070BD502049
S315080012A070BD000070B50D460446687800260146F4
S315080012B0305D00F001FE725D06F0070120FA01F1CB
S315080012C051403155761C102EF1DB70BD80B5FEF706
S315080012D0DBFE40F20621884261490CBF012000204E
S315080012E00870604882888A808279C0794A708870D6
S315080012F00020BDE8024000F085BB5B4908607047E6
S315080013005A495B48486008608C304A6889324A60A6
S31508001310C8608860574AC8688930C8604FF6FF7049
S3150800132010605548026842F0010202601020086306
S315080013300320086370472DE9F84F4E4E376817F4B7
S31508001340105F80464FF0000A02D0FFF7D9FF38E059
S3150800135017F0600F454C28D0B80647BF256AD4F861
S315080013600090656AD4F80890A8B209EB4000A0F18D
S31508001370080B41480068800704D509F1010000F010
S315080013808AF890B19BF800009BF8011001EB002049
S3150800139000F4B940B0F5804F07D16A0092B24946C9
S315080013A0404600F063FA4FF0010AB80603D501205B
S315080013B02063202004E0780603D50220206340201D
S315080013C030605046BDE8F28F2DE9F0412B4D0446BA
S315080013D0286DC00748BF8C2040D42948254E01787F
S315080013E0E1700027491C0170202028624FF6FF781B
S315080013F04FF4807070606C602C6068687F3068603D
S315080014000920A86704202862C6F8048000F06EFA4E
S3150800141000F00F00C01CA8640D202865706810F045
S31508001420110FFBD07068C007ECD5607880060FD521
S31508001430706810F0820F04D130688004F8D5FFF781
S315080014405FFF7068800703D47F1CBFB2042FD9DB07
S31508001450042FC6F80480B4BF00200120BDE8F0813F
S31508001460560F002000000020902000400020004079
S31508001470100D002000A000408420004010200040ED
S31508001480630F002080B5022100A800F0A0FC009898
S3150800149000F018FA01BD4178007800EB01204CF203
S315080014A0070101404CF2030291420DD100F4446158
S315080014B0B1F5006F01D11120704700F44460B0F512
S315080014C0446F01D1152070470020704780B53E480B
S315080014D068214161022181600121016009200921F9
S315080014E0FFF70BF9BDE8044004210A20FFF705B908
S315080014F0364800684006FBD570473549CA68520722
S31508001500FCD50860704710B5044603E014F8010BD3
S31508001510FFF7F3FF20780028F8D110BD30B583B067
S315080015200FF2C00218CA00A9042218C1052100AD8D
S315080015300DE080B20A2390FBF3F30A2404FB13049C
S31508001540E4B2184604F130034B5504B10A46491E65
S3150800155049B20029EDD500A8D2B21018FFF7D3FF7B
S3150800156037BD10B5044620090A28ACBF37303030DD
S31508001570C0B2FFF7C2FF04F00F000A28BDE810400A
S31508001580ACBF37303030C0B2B7E710B50446200AD2
S31508001590FFF7E7FFE0B2BDE81040E2E70B48006856
S315080015A0800701D5012070470020704710B5044612
S315080015B0FFF7F4FF20B1064800682070002010BD30
S315080015C0012010BD0000000054C8004048C8004073
S315080015D03CC8004080B500A8FFF7E8FF0028FAD00D
S315080015E001BD000030303030300000002DE9F84FE2
S315080015F0FFF77FF8FFF7EEFFFFF730F85E4C0020A5
S31508001600FEF73AFE5D4D5E4E0FF2EC180FF2DC194E
S315080016100FF2C81A0FF2581B1FE00FF26810FFF7F7
S3150800162072FF0C27708BF84000F00F00FFF776FF6B
S31508001630012FA4BF2E20FFF760FF3F1FF2D54DA054
S31508001640FFF761FF06F11A00408EFFF767FF0FF2FA
S315080016505010FFF758FFFFF7BDFFFFF74AF80220C3
S31508001660FEF70AFEFFF700F810BB5046FFF74BFFE0
S315080016700220FEF7E9FE07000CD10520FEF7FCFD67
S315080016804846FFF740FFFFF733FF0120FEF7F4FD5A
S31508001690BDE8F18F0420FEF7EFFD4046FFF733FF64
S315080016A03846FFF772FF5846FFF72DFFFEF7D6FFBD
S315080016B02046441E18B9FEF7E7FCFEF78BFD00A886
S315080016C0FFF774FF0028C8D19DF80000FFF715FF43
S315080016D09DF800000A2818BF0D289ED0312804D08E
S315080016E03228D2D033282BD0B5E70FF21810FFF7DF
S315080016F00AFF0120FEF7A8FE07460FF21C10FFF7A7
S3150800170002FF27B90520FEF7B7FD4846A1E70420E2
S31508001710FEF7B2FD0FF21410FFF7F5FEB80648BF44
S315080017200FF2141005D478064CBF0FF224100FF2EE
S315080017303010FFF7E8FE3846FFF727FF584688E7D8
S3150800174000275846FFF7DFFE288A40F6A721884279
S3150800175018BF0FF27800F2D178197F1C90F8240090
S3150800176020B1FFF7CAFEFFB2202FF5DBE6E700003F
S315080017700D0A000020620000403CF8030020000823
S31508001780000000080D0A4546522033325365726937
S31508001790616C2F4F54412042746C20760000000083
S315080017A00D0A312E2075706C6F61642065626C0DB0
S315080017B00A322E2072756E0D0A332E2065626C2051
S315080017C0696E666F0D0A424C203E20002A2A206E5A
S315080017D06F20617070202A2A0D0A00000D0A4F54E6
S315080017E0412075706C6F616420000000636F6D7036
S315080017F06C6574650D0A00006572726F7220307828
S31508001800000000000D0A626567696E2075706C6FCE
S3150800181061640D0A000000000D0A53657269616C67
S315080018202075706C6F6164200000000061626F7241
S315080018307465640D0A0000000D0A584D6F64656DE5
S3150800184020626C6F636B206572726F72203078004D
S315080018500D0A66696C65206572726F7220307800B1
S315080018600D0A6572726F722030780000814212D2BA
S3150800187010185118401E491E92B2002A1EBF11F8B0
S31508001880013900F80139521EF6D1704711F8013BAB
S3150800189000F8013B521E92B2002AF7D1704710B5E4
S315080018A000E0521E92B222B100F005F8F9D0181BDA
S315080018B010BD002010BD10F8013B11F8014BA342E2
S315080018C07047000081B209B94BF6EF610E4A1180E4
S315080018D0000C08BF4FF6CE205080704702881304CC
S315080018E048BF4A40510001801046704738B5064C3B
S315080018F062212046FFF7F2FF054641F20B01A01CC4
S31508001900FFF7ECFF684032BD00040020F0B504463E
S3150800191089B00020FFF772F9214801880A237F223F
S3150800192000A8FFF735F900264FF6FF750FF288076E
S3150800193001E02A4616B94FF47C4203E0022E08BF9E
S315080019404EF23F0200A800F031F8761C052EF0D3BF
S31508001950012C03D114237F22124802E014237F228C
S315080019601148018803A8FFF713F900260FF250075C
S315080019702A4608E02A46012E08BF4FF6C07202D052
S31508001980082E08BF002203A800F010F8761C0A2EBD
S31508001990F0D3012C04BF0120FFF730F909B0F0BDE0
S315080019A0CC1F0008CA1F0008C81F000830F8161008
S315080019B0F05DFEF7CDBE000010F0B0C0D00000000C
S315080019C01120304060708090A0E0000010B50C48EF
S315080019D0018884B00A237F2200A8FFF7D9F8BDF84A
S315080019E000004FF6FF74A04204BF4FF40170FEF7E3
S315080019F0F1FBBDF8001022461020FEF7A9FE1FBD18
S31508001A00CC1F0008F8B50446FEF798FFDFF8E40196
S31508001A10DFF8C851002101601521E9600921016537
S31508001A201F21416001210166DFF8C4010088FEF725
S31508001A30C6FE00F09EF900F061FA00F08DF8DFF8B6
S31508001A40B811DFF8B8010978DFF8B46119B90221CD
S31508001A503170032101704FF6FE716961DFF8A41138
S31508001A6009882961696841F0D201696090F9000026
S31508001A70FEF78BFFDFF8607197F9000000F08FF82A
S31508001A8030780B30C0B2FEF75BFF18B14FF4017027
S31508001A90FEF7A0FB012C05D12868C0070FD500F07A
S31508001AA020F80CE05CB92868C00708D4286840F01C
S31508001AB001002860C820FFF7CEF80020F870F12052
S31508001AC0DFF82041206440F2F910E06300F02EF9B7
S31508001AD02868C00704D54FF6FF70206000F034F878
S31508001AE0F1BDDFF824113C480A68C378012B00D100
S31508001AF0704710B548F2D0030B604C68640509D5E9
S31508001B0048F222040C604C68E405F3D50B604B6878
S31508001B105B07EFD492B20A604FF4E061324A116073
S31508001B2032490A6A520852000A620A685208520082
S31508001B300A600A6842F002020A604A6A42F0010232
S31508001B404A620121C17010BD4FF4E0602449086063
S31508001B5070472148C07870472C494A780B782C483A
S31508001B6003EB022202608B78CA7803EB02224260FA
S31508001B700B794A7903EB02228260CA79897901EBEB
S31508001B800221C160704715490A68002814BF42F04F
S31508001B90020222F002020A601E490870704780B5E8
S31508001BA07F280ED11C48018802237F2200A8FEF751
S31508001BB0EFFFBDF80000C00554BFBDF800006FF088
S31508001BC04A0040B200F19A018905144A090C1160CD
S31508001BD00149087001BD00001B0400208020004058
S31508001BE000E100E004A0004080E100E06020004041
S31508001BF0180400205C100040560F0020580F0020E3
S31508001C00570F00205A0F00201C100040440F0020D8
S31508001C10982000401A040020D81F000854100040DD
S31508001C2081014FF4FE5289B2B020FEF791BD80B50E
S31508001C303A4908B14FF0FF304860086000F029F9CA
S31508001C400621BDE80440092000F01DB938B5012079
S31508001C50FFF7EDFF04460020FFF7E9FF05460120E0
S31508001C60FFF7E5FF4042001B00EB450000B232BD1E
S31508001C702DE9F04F2A4C2B4EDFF8AC8083B0A06AD2
S31508001C80019048F2607025683768C8F8000040F28D
S31508001C904C494CF24C00C8F83C000220A0620120D6
S31508001CA020604846FEF7D7FF0120F060306000202C
S31508001CB0FFF7B6FFFFF7CAFF82467F20FFF7B0FFA0
S31508001CC0FFF7C4FFADF80000504600F023F983463D
S31508001CD0BDF90000AAEB000000F01CF98246BFB26D
S31508001CE037600020F060ADB202202060256001A8B0
S31508001CF00088A0620020C8F83C004846FEF7ABFF03
S31508001D00FE2000FB0BF01FFA8AF1B0FBF1F080B25F
S31508001D10401CC003000CBDE8FE8F000038100040D0
S31508001D206020004028100040D0100040DFF8040171
S31508001D3010210163DFF800110A6842F001020A6007
S31508001D40DFF8F81001F10802426002609231426839
S31508001D508932426001220263C1608160C1688931AB
S31508001D60C160022101634FF6FF70DFF8D4100860E6
S31508001D707047DFF8D00045F26401C1601E21416258
S31508001D8050210162C821C1618165F021C16545F60E
S31508001D9090014166882181660621C16644F2066182
S31508001DA001604FF6FF71416048F26071DFF89800F4
S31508001DB001604FF4C1514160DFF89000016841F0BD
S31508001DC0040101600020DFF8881048707047F0B5FC
S31508001DD004460D4689B00021032000F03BF804AE06
S31508001DE01BE0002700F045F826F8170000F041F838
S31508001DF000A921F817007F1C082FF3DB04A8FFF7BA
S31508001E0051FA00202080218836F810205140401CC5
S31508001E1008282180F7DB6D1EA41CEDB2002DE0D149
S31508001E2000F037F8012009B0F0BD0321022000F0C8
S31508001E3011B800000020004084200040280E002031
S31508001E4000A000404C100040D01000408020004008
S31508001E50640F0020124A136C090341EAC01023F0EC
S31508001E6008031049136440F0010008600820106058
S31508001E7070470B4801680907FCD5082101600A4824
S31508001E80006880B2704780B5FFF7E4FFBDE80140FF
S31508001E90EFE70448016849084900016070470000F7
S31508001EA018A00040047000400070004001463F2220
S31508001EB02020FEF74DBC00000A0242EA11214840E4
S31508001EC0C0F30311484080EA003041010206C9B256
S31508001ED0D20E41EA0221484080B270470A0A4840B9
S31508001EE0C0B208214308C00746BF034858401846F1
S31508001EF0491EF7D1504070472083B8ED0348018842
S31508001F00034808237F22FEF743BE00BFDA1F0008F6
S31508001F10440F0020002848BF404270472748018ADE
S31508001F2040F6A772914202BF408A4FF47F410842A9
S31508001F3003D1022801DB0120704700207047F8B55D
S31508001F4004461D4E01200D463070FFF7E7FF18B90D
S31508001F504FF40170FEF73EF929461848876A44F49B
S31508001F608070B847002131700FF2540618B9294617
S31508001F7044F40070B847805DF2BD2DE9F04104468F
S31508001F8088465600FFF7CAFF18B94FF40170FEF7E6
S31508001F9021F90A48476A0023324641462046B8478F
S31508001FA00FF21C0520B93346002241462046B847A1
S31508001FB0405DBDE8F0810000BB0400200000040875
S31508001FC0000202024B4B4647AA07BE07D207DC07A8
S31508001FD02A083A083C08EE08F60834B6EFBECEFAE8
S31508001FE00100FFFF0B000000031800001316191C60
S31108001FF01F0000000080017F01FF0100B7
S705080000757D
