S00E00005A334C696768742E73333761
S3150800400008E7002055E9020895B6020899B602089D
S31508004010A70A090100410008040E03AC2057BC0199
S315080040200000000000000000000000000000000082
S315080040300000000000000000000000000000000072
S315080040400000000000000000FFFFFFFFFFFFFFFF6A
S31508004050FFFFFFFF007007080000000000000000D7
S31508004060FFFFFFFFFFFFFFFFFFFFFFFFFFFFFFFF52
S31508004070FFFFFFFFFFFFFFFFFFFFFFFFFFFFFFFF42
S31508004080F0FF002000000000E9FF0020E9FF002003
S3150800409008E700207818030886EB0208A8DD002048
S311080040A0200F0020000008080000012086
S3150800410008E7002055E9020895B6020899B602089C
S31508004110A1B602089DB60208A5B60208A4BB020805
S31508004120A4BB0208A4BB0208A4BB0208A4BB0208DD
S31508004130A9B60208A4BB0208A4BB0208F74C0008EB
S3150800414075B50208A4BB020817980008A4BB0208A4
S315080041502FA10008DB950008A4BB0208A4BB02082F
S31508004160D9890008B55A0008D355000891410008B6
S31508004170A4BB0208279700086F970008A4BB02088B
S315080041803DE60008A4BB0208A4BB0208A4BB0208BB
S3150800419070B52C4C2C4D60782968490726D503281C
S315080041A024DAA18804EB400291810121A27801FA60
S315080041B000F01043A070254A207890B1002320FA19
S315080041C003F6F60708D5994063704840207014EB4B
S315080041D04300808A106009E05B1CDBB2032BEEDB30
S315080041E004E0106000F0AAF8032060704FF6FF7034
S315080041F02860BFF35F8F70BD12480021017000224E
S31508004200032141700021C1700521018100218170BF
S31508004210001D0E490A604A604FF400428A60102267
S31508004220CA604861012088610320C86004210648E5
S3150800423001644FF6FF7101604FF40060044908609D
S3150800424000F0BAB858EB002010A8004004E000407F
S3150800425000E100E02D480068C00701D42C487047EB
S315080042602C48704780B5FFF7F5FF2B49096801B957
S31508004270400802BD80B5FFF7EDFF400802BD00F01B
S315080042800ABC2648012181604EF6BE214160012103
S31508004290016070472249012008607047A52805D1AA
S315080042A01E484DF6AD6141600221016070471B480A
S315080042B00068C00701D5012070470020704780B507
S315080042C01849194A1020086018491948007858B141
S315080042D003280CBF00200120106040F6510008603A
S315080042E0002000F01EFE06E0022010604FF4006079
S315080042F0086000F089FB07210E480160002101646F
S3150800430010200D490860002002BD00001C40004036
S31508004310001BB70000366E012040004000600040D8
S315080043200860004080E100E0080000400C600040A2
S31508004330A7FF002014A0004000E100E07047704786
S31508004340DFF8E83433F810001040C840704730B53D
S315080043500FF29854DFF8D83434F810409C601140B6
S31508004360DFF8C84434F8105095432943D96002222F
S315080043701A6000221A6024F8101058680028FCD128
S3150800438030BDDFF8B024DFF8B0041278DFF8AC14DB
S315080043900AB149780EE0895611F1090FB8BF3021E4
S315080043A008DBC16D39B1C26D40F24A31B1FBF2F199
S315080043B089B2C91E01607047E0B5DFF88404018838
S315080043C00A2300F064F8BDF806104FF6FF720D20B8
S315080043D0FFF7BDFF07BDF8B50546B5F5004FDFF891
S315080043E05C4419D1DFF85C040188022300F04FF819
S315080043F0BDF80000000AFF2814BF002818206070C6
S31508004400BDF800000006C00E10281CBF001D00F0F5
S315080044109CF9BDF80000C543DFF81864707808B148
S31508004420002005E0A089ADB26840C00701D501208B
S315080044307070DFF81404A58105F00104016841F4E1
S3150800444000410160C5F340070FF2C44000EB440089
S315080044504FF440524078010389B20220FFF777FFF4
S31508004460204600F0D5FD4022B90100F009FA2D06D4
S31508004470A80E00F0010038433070FFF782FF70780D
S3150800448018B1FFF799FF002070700020F2BD7F2257
S3150800449000A800F033BE2DE9F04FDFF8B4432078CA
S315080044A087B0042304900C210B38C0B2039000A8EF
S315080044B0039A00F0E1FE9DF800008DF80A009DF8C9
S315080044C001008DF809009DF802008DF808009DF896
S315080044D003008DF80500DFF87C030078012806BF85
S315080044E0607880F00105012501F03EF982469DF9C4
S315080044F002000399D54F0AF10A06AAF10A09B04241
S31508004500B6BF81454FF001084FF0000801208840EA
S31508004510ADF806009DF80100000604D47888BDF8B9
S315080045200610084201D04FF0010801F093F99DF8F2
S31508004530030000060AD4B888BDF80610084205D15B
S315080045409DF90000B042B8BF814502DB4FF0010972
S3150800455001E04FF0000948EA050059EA000000F0BA
S31508004560A480DFF8F4B2BD49DBF80000400800F08B
S3150800457001008DF80400BA48006800F4E060059070
S315080045804FF4E0600860002001F016FD00F0C3FB60
S31508004590B44EADB1607858B1DBF80000AD494008BB
S315080045A04000CBF800000120087000F09FFC07E0EF
S315080045B0306840F400503060306820F48050306035
S315080045C0A4480078012810D161780D4208BF01F08F
S315080045D0FFFDDBF800009F4940F00100CBF8000022
S315080045E000200870642000F081FC607880F00100EB
S315080045F0054203D00498C0B201F0ABFE607838B12A
S31508004600306820F480503060306840F400503060E4
S31508004610BDF80600C543B8F1000F08D001F084FFC5
S315080046208DF801008DF802A0788828407880B9F1C5
S31508004630000F08D002F029F88DF803008DF800A0C5
S31508004640B8882840B8809DF900009DF90A1088426C
S3150800465002BF9DF801009DF8091088420BD19DF90B
S3150800466002009DF90810884202BF9DF803009DF8D4
S315080046700510884206D00399042300AAC9B20C2063
S3150800468000F00BFE05987649086000F03DFE9DF89F
S31508004690040001F091FC02F018F9607828B148F29C
S315080046A060703060642000F021FC9DF8010001F084
S315080046B0A7FE9DF8030001F0E3FF07B0BDE8F08F01
S315080046C080B501F044F8BDE80140E4E601F03FB8E2
S315080046D070B50646A6F10B0401F0D6FB0546A6F111
S315080046E00B00102801D38A2070BD5F48816809072E
S315080046F002D40068C00701D58C2070BD54480670E6
S315080047005A4801680C290FD00FF27811584A92F9C5
S315080047100020A4B231F824105118C161FFF7BBFE7E
S31508004720012D08BF01F051FB002070BD10B50446ED
S3150800473001F00DF82046BDE81040C9E74448007866
S3150800474070473E4890F9000070472DE9F04104464D
S3150800475014F12B0F86B045DB464801881423FFF772
S3150800476096FEBDF810004FF6FF71884203D040044C
S3150800477048BF012606D43F2200211020FFF7E0FD9E
S315080047800546002604F12B022F2A2C483A491AD24C
S3150800479013220FF2301300E0521ED2B213F9127030
S315080047A0BC42F9DB03EB4204032764780C6000245F
S315080047B013F81210017000208046AEB1BDF8101033
S315080047C04FF6BF7229E0092C0CDA225C0A600470E5
S315080047D014232A480188FFF75AFE01240320A0461D
S315080047E02827EAE78B201DE0C1024FF4605200F04B
S315080047F047F84FF4E062210200F042F880224FEABF
S31508004800C81100F03DF885F020003D18ADB2402DE6
S31508004810A8BF3F253F2285F0200100F031F8FFF7B9
S31508004820B0FD002006B0BDE8F08100003CFB00208A
S31508004830E8100040B7FF0020641000408CEA002012
S31508004840EE130308FA1303081C100040FAF50020BB
S3150800485088EA00201EEB00208020004080E100E06E
S3150800486000E100E0D010004060200040AC1000409D
S31508004870B6FF0020EA130308C0100040EC13030833
S315080048800B2064E5AA2129005523290000252800C4
S31508004890AA26270055282700002A2600AA2B260024
S315080048A0552D2500002F2400AA3024005532230058
S315080048B000342200AA35220055372100003920008D
S315080048C0AA3A2000D500E601EC02EF03F204F4054B
S315080048D0F506F707F808F909FA0AFB0BFC0DFD0FB0
S315080048E0FE11FF1300160119021C031F1000110008
S315080048F02000300040004100500060007000800039
S315080049009000A000B000C000D000E000F000000059
S3150800491000000103DFF888145120086070472DE96C
S31508004920F0410546FFF79EFCDFF87814B0FBF1F678
S315080049304FF4F070B0FBF6F71E2D3FB201DBE81B13
S3150800494004D5A8B2BDE8F04100F0D0BA01F0F8FFEE
S31508004950804601F0FBFFDFF85014DFF850240120F1
S3150800496048700721DFF8480400F041F8E91B09B24E
S315080049707143C91C8908491EDFF83854416000F0A4
S31508004980BDF8DFF81C743C68386820F040003860D1
S3150800499001F0DEFF3C602E6001F0DEFF01F0E4FF6F
S315080049A04046BDE8F04101F0E1BF38B50546FFF7DE
S315080049B059FCDFF8F013B0FBF1F44FF4F070B0FBDC
S315080049C0F4F02D1A1E2D04DA92210FF2244001F07C
S315080049D0D3FFDFF8DC03DFF8D423072100F007F85C
S315080049E005FB04F1C91C8908491E416031BD0160F7
S315080049F00021416081604FF0007111607047DFF857
S31508004A00A82301215170D0E7DFF8AC03006800B98C
S31508004A1070472DE9F041DFF8A453DFF8A4630024BA
S31508004A202C6034604FF4A040706041F29A0840460A
S31508004A30FFF775FF6F68FFF71DFC000142F2107162
S31508004A40B0FBF1F000F5C870C01B00B24FF4487116
S31508004A5090FBF1F000B20828A8BF072004DA10F18D
S31508004A60080FB8BF6FF0070030604046FFF757FFE2
S31508004A7008274046FFF753FF686804197F1EF8D1D8
S31508004A80FFF7F8FB211D4001C908B0FBF1F080B221
S31508004A907060BDE8F081DFF82003006800B9704750
S31508004AA038B5DFF8205301206FF00F04A8602C609A
S31508004AB08020FFF734FFE868FF2802D8641C102C12
S31508004AC0F5DB31BD70B5DFF80003016841F001017F
S31508004AD001600121416001F033FF0446DFF8D4523A
S31508004AE000F00CF85120DFF8B81208602E6001F0CB
S31508004AF033FF2046BDE8704001F038BF2E682868AD
S31508004B0040084000286001F027BF002070472DE9C3
S31508004B10F041DFF8A442DFF89052226840F2DC51F7
S31508004B20012A8846DFF8A462DFF8A47217DA0221A0
S31508004B30B9803160B16901F0030103295BD02168AE
S31508004B40002903D5B16941F00201B161FFF7DDFF24
S31508004B505FEA00081BD1206800284CD549E0B888D0
S31508004B604FF6FF74A0421DD19A48018802237F227E
S31508004B70381D00F0C3FAB888A04204BF0220B880E6
S31508004B80B069800703D4B06940F00200B061012023
S31508004B90A870B88830600FFA88F0FFF730FF4046F3
S31508004BA0BDE8F081B3699B07EDD5AB780BB1084634
S31508004BB0F6E7B168B36811F0010103D10F2809D2ED
S31508004BC0401C06E09B0705D53B781BB1032801DB93
S31508004BD02018B880B88839700228BCBF0220B8806F
S31508004BE03068B9888842D2D1B06900F0030003283A
S31508004BF001D0FFF767FF0020D2E72DE9F04780468E
S31508004C0075480178002569B9C078072818BF0928AA
S31508004C100DD0032818BF112809D013281CBF152842
S31508004C200B2804D06D48016841F48071016001F0D9
S31508004C3087FE814601F08AFE4046FFF768FF08B9FD
S31508004C40012515E05B4F3C6838684008400038602D
S31508004C5001F082FE524ED6F800A0306820F04000DF
S31508004C60306001F075FEC6F800A03C6001F074FEE5
S31508004C7001F07AFE484601F079FE002DD7D0BDE84E
S31508004C80F0870220B9E710B54948474C0021416032
S31508004C908160016821F002010160002060704FF018
S31508004CA0007042490860A07838B10020A07006203C
S31508004CB0FFF72BFF00F02BF81CDBE078012814D156
S31508004CC047480121016047490968C90748BF0320C9
S31508004CD00FD40221E170016C41F001010164042046
S31508004CE0414908604149086010BDE078042801D1AF
S31508004CF00520E07010BD80B52B48407800281CBF01
S31508004D00BDE80140FFF7BFBF00F0ABFE01BD2A4872
S31508004D100068012870472DE9F843234C217920784B
S31508004D2081F0010108422ED0FFF7F1FF23DA40F2A5
S31508004D30EB310FF2BC0001F01FFE1CE001F000FE93
S31508004D40804601F003FEE07805280FD000F01FF832
S31508004D50134DD5F80090286820F04000286001F02F
S31508004D60F7FDC5F80090376001F0F6FD01F0FCFD8F
S31508004D70404601F0FBFDE0780528DFD10020A07051
S31508004D800520FFF73AFF00202070BDE8F183094EA1
S31508004D903768306840084000306001F0DDBD00002B
S31508004DA00080004090D00300CBFF002004ED00E017
S31508004DB010E000E094ED00E0840C03081040004089
S31508004DC00C000040084000401C40004004400040E1
S31508004DD006EB0020FE130308960708083840004033
S31508004DE018A000400C40004080E200E000E100E02E
S31508004DF0636C6F636B732E630000000010B5754C0F
S31508004E00002001F068FD40F68C2188422068B4BF76
S31508004E1040F0080020F00800206010BD10B50446D8
S31508004E206D48018882B000F05CF89DF800109DF886
S31508004E300100FF2902BFFF280420002104B1801CBD
S31508004E40664A1368C0B20828A8BF072023F460730F
S31508004E5043EAC010106008291068A8BF0721C008D7
S31508004E6041EAC00010605E48047013BD00B55D4895
S31508004E70018883B000F035F8BDF800004FF6FF71E1
S31508004E8088420EBF4FF4E1600A2190FBF1F0ADF8BD
S31508004E9000005348007808B34F48018802237F2250
S31508004EA001A800F02BF99DF80500BDF80030FF2891
S31508004EB008BF0420811CC9B20829A8BF0721C1F16F
S31508004EC02F0202EBD272C0F12F00521000FB032012
S31508004ED0C1F12F01B0FBF1F0ADF80000BDF80000FC
S31508004EE00EBD02237F2200A800F008B970B53E4C1B
S31508004EF025680646FFF7BEF93C49B0FBF1F070435A
S31508004F002F303021B0FBF1F0032809D3616D41F051
S31508004F10010161652168491B0903090B8142F9D31F
S31508004F2070BD10B5040004D110BD4FF47A70FFF7B8
S31508004F30DDFF2046441E80B20028F6D110BD2C485D
S31508004F40017869B9C078072818BF092814D003283A
S31508004F5018BF112810D013281CBF15280B280BD0F2
S31508004F602448016841F480720260C80504D43821D7
S31508004F700FF2900001F000BD704738B50C4620B11D
S31508004F8001280FD0032820D021E01B4D44B1FFF79C
S31508004F9071F91A49B0FBF1F0401EB0F5005F0CD26A
S31508004FA0286012E04CB1FFF765F9610801EB400093
S31508004FB0B0FBF4F0B0F5003F01D3202032BD104914
S31508004FC000F001024A6040080860002032BD212036
S31508004FD032BD000000BC0040F01303081800004072
S31508004FE0B9FF0020F21303083820004090D00300D0
S31508004FF09607080838400040100004E020A1070082
S3150800500068C800407573625F6572726F722E6300BE
S31508005010F0B5044689B00020FFF700FF264801884E
S315080050200A237F2200A800F069F8BDF802004FF6AF
S31508005030FF75A84204D1DC210FF2940001F09CFC14
S315080050400FF2A407002601E02A4616B94FF47C425F
S3150800505003E0022E08BF4EF23F0200A800F032F825
S31508005060761C052EF0D3012C03D114237F22134876
S3150800507002E014237F221248018803A800F03EF8B4
S3150800508000260FF26C072A4608E02A46012E08BFBA
S315080050904FF6C07202D0082E08BF002203A800F0FF
S315080050A011F8761C0A2EF0D3012C04BF0120FFF755
S315080050B0B5FE09B0F0BD0000EE130308EC130308B3
S315080050C0EA13030830F81610F05DFFF740B9000040
S315080050D0616E616C6F6775652D63656C6C2D6269B1
S315080050E061732E630000000000100C0D0E00000016
S315080050F0010203040708090A0B0F000030B504462D
S3150800510010467F2808BF00204BF23462914283B0D4
S315080051101AD108237F2240F6120100A8FFF7EEFFF6
S3150800512008220FF2C40100A801F06EFD30B9082369
S315080051307F2240F2A27100A8FFF7E0FF082200A92B
S31508005140204601F017FD37BD1F4D294300FB03110B
S315080051501A46204601F00EFD37BD2DE9F0440C46EF
S3150800516019490FF2780A41EA0006C007154602D522
S31508005170622100F02FF8E80702D5632100F02AF82B
S315080051801248864204D3A819401E1149884202D300
S31508005190642100F01FF8002706E0B85DFF2802D05A
S315080051A06B2100F017F87F1CAF42F6D36A08214638
S315080051B0304601F093FD28B15046BDE8F044712110
S315080051C001F0DABBBDE8F08400000808000808080A
S315080051D000100808504601F0CFBB00006D66672D29
S315080051E0746F6B656E2E6300FFFFFFFFFFFFFFFF07
S315080051F030B50FF21011DFF8FC500A6883B001A829
S315080052000024026001202870002001F0ABFD30B1B7
S31508005210002001F0A7FD10B12C7049203EBDDFF833
S31508005220D800018802237F220DF1020000F024F83D
S3150800523002237F22002100A800F01EF8204601A9BB
S31508005240BDF8022031F81010914208BF0124401C15
S315080052500228F4D3BDF8000024B1B0F57F7F07D14A
S3150800526000203EBDB0F57F7F0CBF0620042000E07D
S315080052700720002129703EBD10B5FF2908DCDFF89C
S315080052807440247844B1BDE81040C9B202F09CB914
S31508005290BDE81040FFF732BF10BD2DE9F0410546C5
S315080052A0FF2D0E46174698460FF2500013DCDFF81E
S315080052B044402178A1B1617811B1C02101F05CFBAD
S315080052C001206070434632463946E8B202F0C0FC17
S315080052D00020607004E0BDE8F041CB2101F04CBB32
S315080052E0BDE8F08103490978002918BF02F0E4BD3A
S315080052F070470000B2FF0020F6130308746F6B6551
S315080053006E2E6300FE01FD0210B5DFF8F44410208E
S31508005310206301F015FBDFF8EC140A6842F001027D
S315080053200A6001F023FBDFF8E00400F10801616080
S315080053302160923061688931616001212163E060F2
S31508005340A060DFF8C814E0688930E06002202063B6
S315080053504FF6FF70086010BDDFF8B40445F264012B
S31508005360C1601E21416250210162C821C161816567
S31508005370F021C16545F690014166882181660621BE
S31508005380C16644F2066101604FF6FF714160DFF8BD
S315080053908404007838B1DFF8800448F2607101604F
S315080053A04FF4C1514160DFF87404016841F004010B
S315080053B001600020DFF86814487070472DE9F0474F
S315080053C0DFF844248A2101FB002101F1080909F1CB
S315080053D0010104244B78097801EB03211FFA81FAAD
S315080053E000210AF44063B3F5006F05460AF4404706
S315080053F008BF082403D0B3F5406F08BF0E2427B1B1
S315080054005FEA4A635CBFA41CE4B2DFF818341B7871
S31508005410537000EB02080AF02700232888F80210C8
S3150800542067D1DFF80464706E000662D5B7F5404FA1
S3150800543004EB090003D102F058FE014617E0B7F560
S31508005440004F14D1407814F8091001EB002080B2FF
S3150800545003F0D8F80021FF2808D0DFF8D023126817
S3150800546032F810004FF4FE62104200D001214FF4CA
S3150800547080604FF40062F9B15FEA0A731CD4B7F58D
S31508005480004F08BFA41C03D0B7F5404F01D108341C
S31508005490E4B26308002D14BF776837689F421CD3AF
S315080054A0002D14BF7768376803F1010C6745F7D3F9
S315080054B014F80930042B10D179B1F16DC90608D456
S315080054C0B16C05B11046014203D0706C40F0010082
S315080054D07064012088F802000BE0F16DC90608D552
S315080054E0B16C05B11046014203D0706C400840000B
S315080054F07064BDE8F0872DE9F04E0446C24EDFF829
S3150800550028538A2000FB046000F1080B002C0CBF0E
S3150800551028686868C1B2052903DA7068401C70609B
S3150800552055E040005FFA80F909EB0B00A0F1080787
S315080055303878797801EB00201FFA80FA707838708D
S3150800554003F02FF97870BA4FF86B20F48050F8639F
S31508005550686E14B93868400504D4012C1FD1386820
S3150800556000051CD5B348017889B1002101701AF4E9
S31508005570E45FB148016802D00022402005E09BF8AC
S315080055800100000900F001028F2003F088F9002CC1
S315080055900CBF4FF480604FF40060386012E01AF4D4
S315080055A0E45F0FD100F005FD10B15FEA4A4009D566
S315080055B09BF80000802805DAA019494682785846E3
S315080055C003F036FA002C0CBF012002202861BDE842
S315080055D0F08E2DE9F0478D4C974E2068216C924F3E
S315080055E0DFF85882DFF84C92DFF81CA201EA0005C2
S315080055F019E038B14878C00604D4316800228F20F3
S3150800560003F04DF9280605D503F0A6F9802025F004
S3150800561080052060E80506D503F09EF94FF48070F2
S3150800562025F480752060002D5CD0280706D500205B
S31508005630FFF7C4FE082025F008052060E80606D511
S315080056400120FFF7BBFE102025F01005206005F0AD
S315080056506000602803D1B86CC0050AD401E0A8062A
S3150800566005D52020206025F02005002006E06806E4
S3150800567006D54020206025F040050120FFF73BFFB6
S31508005680E80404D54FF4805025F480552060E807D7
S31508005690B8D5012020606D089AF800006D00002832
S315080056A0B0D000F0FBFB0128ACD199F80000002827
S315080056B0A8D098F800000428A4D1F868400800F09B
S315080056C001008A2101FB00A10831002814BF7A686D
S315080056D03A6812B92268D204F7D5002814BF786848
S315080056E0386886E700202060BDE8F08754480068DF
S315080056F07047F0B504460D4689B00021032001F035
S315080057008DF804AE1BE0002701F0A3F826F8170071
S3150800571001F09FF800A921F817007F1C082FF3DB7A
S3150800572004A803F017FB00202080218836F81020F3
S315080057305140401C08282180F7DB6D1EA41CEDB2E1
S31508005740002DE0D101F0C1F8012009B0F0BD032118
S31508005750022001F063B84FF6FF71081A292190FB61
S31508005760F1F03A3040B2704738B501F072F8FFF7F9
S31508005770F2FF344D04462878B0B90321032001F01E
S315080057804DF83148018802237F2200A8FFF7B6FCAE
S3150800579001F05FF8BDF80010401880B2FFF7DBFF94
S315080057A0153868700120287001F08FF86878201A7B
S315080057B040B232BD80B50321022001F02FF8BDE8C2
S315080057C00140D1E770B521480078002490B9FFF769
S315080057D0F1FF134E0546707848B13078401B40B249
S315080057E003F0C1FA0B2805DB3570012402E001201D
S315080057F035707070204670BD1548007870470000F7
S315080058000020004084200040ACFC002000A000409E
S315080058104C10004089EA0020D0100040802000404B
S31508005820D5FF002088EA00202020004080E80020DC
S3150800583004A00040C8FD0020D0FD00201DEB00207C
S3150800584038200040D3FF0020F41303081EEB002085
S31508005850D7FF002010B50D48018884B00A237F229F
S3150800586000A8FFF74BFCBDF800004FF6FF74A042F6
S3150800587004D14E210FF2180001F07EF8BDF8001091
S3150800588022460020FEF763FD1FBD0000EE13030845
S31508005890616E616C6F6775652D66696C7465722ECD
S315080058A063000000DFF87807007848B1DFF874076E
S315080058B00179012904BF4079042801D101207047E4
S315080058C0002070470FF2F8714008405C70470106E7
S315080058D003D54FF67F710840C0007047491C800108
S315080058E089B2B0FBF1F080B2FF288CBF0020C0F16E
S315080058F0FF00C0B2704738B5DFF82C07C17809B188
S31508005900002032BDDFF82C47617871B1E178007963
S3150800591045182079ADB2854228BF054603F03CFA02
S315080059200121A940491E084000E0002061790818B5
S31508005930C0B232BD2DE9F0470446C00705D54FF47D
S31508005940BE710FF26C7001F017F8DFF8EC56286D8F
S31508005950C00748BF8C2000F18280DFF8CC06DFF84C
S31508005960D47600210170417829B9397819B1A96F1F
S3150800597041F0010102E0A96F49084900A967DFF86B
S31508005980A4867A7898F80610DFF8B096DFF8B0663D
S3150800599092B1002202710129286D40F004002865A1
S315080059A006D14FF6FF7030604FF40070C9F800005A
S315080059B0FFF7A1FF82460CE0286D20F004000129BC
S315080059C028654FF0000A04D100F02CFA6420FFF78E
S315080059D08DFAA86F20F00800A8671420E864C5F8B7
S315080059E048A0787838B198F80600002801BFA86C56
S315080059F000280120A864B8790028286D14BF40F053
S31508005A00080020F008002865FFF74CFF18B1306C35
S31508005A1040F008003064202028626C602C604FF447
S31508005A20E06468687F30686004202862DFF814063E
S31508005A30046006E003F0C0F918B103F0C5F900F0F8
S31508005A407FFFDFF80406006800F003000328F1D0A2
S31508005A50C9F80040286D40F0010028650020BDE81F
S31508005A60F087DFF8E805002141608160016821F0D0
S31508005A70020101604FF00070DFF8D41508600120BC
S31508005A80DFF8D01508707047A0F13301DFF8C82594
S31508005A90914200D3704710B5DFF8B8450021217050
S31508005AA0FEF783FF02E0012003F092F92078002830
S31508005AB0F9D010BD2DE9F84FDFF88485DFF8685571
S31508005AC0D8F80000D8F84010DFF86C7501EA000431
S31508005AD0A4B2C8F800406878002840F0D580E007EE
S31508005AE0DFF87865DFF84C954CD5D7F800A0386C08
S31508005AF0796C41EA004199F80000A96000283DD078
S31508005B009AF80100800639D501202870FFF7CAFEE9
S31508005B10C0B31920FFF7EAF94FF44040DFF840B563
S31508005B20CBF82800DBF800000090F06E40F4005037
S31508005B30F066F06E40F48050F0669AF80010A86897
S31508005B404901B83101EB000AFFF7D0FDAAEB0000C6
S31508005B500003000BFFF798FFF06E80098001F066DE
S31508005B6000A9F06E09880843F0660020CBF82800E3
S31508005B7048F26070F066E888306003E00022002092
S31508005B8002F08DFE20060ED5287830B10020287048
S31508005B900022A968402002F082FED8F83C0020F4D2
S31508005BA08050C8F83C00600608D5687830B9FFF719
S31508005BB09DFD01460022892002F071FEE00654D5BB
S31508005BC0DFF860A4DFF874B49AF80400012804BF6B
S31508005BD09AF8061001291FD100F0FAFA386F40F03A
S31508005BE00100386700208AF80600FFF78DFB0A20B7
S31508005BF0FFF77CF94FF6FF70C8F8000000244FF451
S31508005C00E060CBF800000920B8660120B864B86FD8
S31508005C1040F00800B86718E0297999F80220491C6D
S31508005C202971C9B2914215D2012808BF00F0CDF8F2
S31508005C30B86F20F00800B8671420B866FFF75BFE57
S31508005C40B8644FF40070CBF80000386D40F00100DE
S31508005C5038650AE0012808BF00F0B7F8FFF746FDE7
S31508005C60014600228D2002F01AFE20070CD5FFF708
S31508005C7019FE48B13068E88001203060D8F8400045
S31508005C8020F00800C8F84000A0060AD5202038628F
S31508005C90687830B9FFF72AFD01460022882002F00D
S31508005CA0FEFD687820B114F4407F04BF0120A87077
S31508005CB0BDE8F18F70B582B00446FEF707FDDFF840
S31508005CC0AC03DFF86853002101601521E96009215A
S31508005CD001651F21416001210166DFF88C030088F8
S31508005CE0FEF779FBFFF738FB03F036FB00F027F9E0
S31508005CF0DFF83063308900F04FF9708900F054F905
S31508005D0000F01EFE696841F04001696000F02EFE51
S31508005D10707800F0E5F8B07800F0F6F8DFF8500390
S31508005D20007800F023F9DFF84C0390F90000FEF73D
S31508005D300CFD307800F040F996F9030000F048F9B8
S31508005D40DFF8340300F066F9BDF80000DFF82C131D
S31508005D50C0054CBF0020BDF800000870DFF820031E
S31508005D600078FEF7B5FC28B10FF2443040F2B231A4
S31508005D7000F002FE012C05D12868C00711D500F0F5
S31508005D8024F80EE06CB92868C0070AD400F020FA97
S31508005D90286840F001002860C820FFF7A7F800200F
S31508005DA0B071F120DFF89842206440F2F910E06300
S31508005DB0FFF7AAFA2868C00704D54FF6FF702060D7
S31508005DC000F05DF8FEF7A7FF73BD70B5DFF8B452B3
S31508005DD0DFF850422E68A079012822D000F0B0FDE5
S31508005DE0B6B2DFF860222E604FF4E0611160DFF88A
S31508005DF074120A6A520852000A620A685208520065
S31508005E000A600A6842F002020A604A6A42F001021F
S31508005E104A620121A17100F0A9FDBDE8704000F0B9
S31508005E20D0B970BD70B57F4CA07938B300F0D0F901
S31508005E3000F086FD0546DFF850127D4E0120086009
S31508005E40306D40F0010030650020A071FFF75CFA64
S31508005E5020203060306B40F002003063F06D40F077
S31508005E600800F065284600F081FD0A20FFF73EF895
S31508005E7073494FF6FF70086000F001F870BD4FF4E3
S31508005E80E0606E49086070476648807970476548E3
S31508005E900079012808BFFFF798BF70476148007965
S31508005EA0704780B5022801DB012002BD5D490871F3
S31508005EB08979884205D010B9FFF7B4FF01E0FFF7EA
S31508005EC084FF002002BD71480068800200149A38D9
S31508005ED001B211F1800FB8BF6FF07F0040B2704772
S31508005EE010B5044600F02CFD69490A68002C04D058
S31508005EF042F012020A60012103E022F012020A604F
S31508005F000021484A517040E038B5044600F018FDB3
S31508005F100546FFF771FC40B95D480168002C14BFBF
S31508005F2041F0800121F0800101603E4884702846D6
S31508005F30BDE8324000F01ABD3A48807870475549A6
S31508005F404A780B78544803EB022202608B78CA78A9
S31508005F5003EB022242600B794A7903EB0222826044
S31508005F60CA79897901EB0221C160704710B50446E8
S31508005F7000F0E6FC46490A68002C14BF42F02002ED
S31508005F8022F020020A603A490C70BDE8104000F081
S31508005F90EDBC244800897047224908813F490860BA
S31508005FA070472048408970471E4948813C49086027
S31508005FB070473C48007870471C490A68002814BF97
S31508005FC042F0020222F002020A601649087070477F
S31508005FD038B504467F2C0AD1334800F01BF8BDF8C3
S31508005FE00000C00554BFBDF800406FF04A0400F039
S31508005FF0A7FC0546FFF700FC30B964B204F19A0025
S3150800600080052A49000C08600648C470284600F036
S31508006010ADFC31BD018802237F2200A8FFF76EB8C8
S31508006020DCFF002018EB0020C8FD0020802000407F
S3150800603030200040C4EA00201020004000E100E0C3
S3150800604004A0004080E100E0A820004010E000E045
S3150800605004ED00E0DDFF0020CDFF070064100040DE
S31508006060E41000406020004098EA00205C100040E0
S31508006070DBFF00208CEA002000140308B6FF00208E
S3150800608088EA00201C100040281000400C10004030
S3150800609084200040A4FB0020982000409420004063
S315080060A09020004016EB002004140308541000400A
S315080060B07068792D636F6D6D6F6E2E63000000003A
S315080060C0FEF7C80138B50120FEF721FD0020FEF7CE
S315080060D0A5FE574C206840F008002060FEF7D1F86E
S315080060E0FEF78CFE534954480A78C2604B78534AE7
S315080060F0D3608D78524BDD608D880560CD8845600C
S31508006100088910604889506088891860C88958606D
S3150800611000F057F8206820F010002060FEF76CF8B1
S3150800612003F05AFA03F0BAFAFEF7ABFDFEF7A7F842
S31508006130BDE83140FEF7C3B840F2016003F04ABB40
S31508006140F0B50B68414C0F252468960005FA06F64B
S31508006150344215D0002606EB820724FA07F7FF0714
S315080061600BD5B70005FA07FC23EA0C0330F812C072
S3150800617005FA07F707EA0C073B43761C042EEADB09
S315080061800B60F0BDF0B50B68304CFF252468D600CF
S31508006190B5402C4213D00025012605EBC20724FA88
S315080061A007F7FF0708D506FA05F7BB43175C06FA93
S315080061B005FC0CEA07073B436D1C082DEDDB0B605D
S315080061C0F0BD10B52148006808B11E4C07E010BDA7
S315080061D010B51E48006808B1164C00E010BD1C49F1
S315080061E000222046FFF7CEFF01221A492046FFF774
S315080061F0C9FF022218492046FFF7C4FF00220E49AC
S3150800620000F030F80122104900F02CF802220B4960
S3150800621000F028F80322114900F024F8042208495E
S3150800622000F020F8201DBDE8104005220C4987E73C
S3150800623000BC004058E9002000B0004000B2004011
S3150800624000B4004068E9002004B00040E4F50020EE
S315080062500CB000400CB200400CB4004004B2004040
S3150800626004B40040201D6BE70320FFF73BB880B558
S3150800627003F0A7FB0FF2600109E080B503F0A5FB68
S315080062800FF280010204120E51F82210C0B201EB7F
S31508006290800002BD10B503F094FB044603F095FB9D
S315080062A0C0B208B9012C07D1072C11D8DFE804F0D1
S315080062B004100608080A0C0E002010BD092010BD9F
S315080062C0022010BD032010BD0B2010BD062010BDF6
S315080062D044F0800010BD0000554E4B004649420070
S315080062E042544C00455854005057520057444700F2
S315080062F02053570043525300465348004241440036
S31508006300464C5400880C03088C0C0308E40C03085C
S31508006310040D03080C0D0308180D0308240D0308C3
S31508006320300D0308380D0308440D0308540D0308FF
S315080063302A490A68920992010A600A6810430860A5
S315080063404FF4004126480160002101606420FEF7F1
S31508006350CDBD2DE9F047234D204FD5F80090224CAE
S315080063608046286840F400402860386820F4805049
S315080063703860207868B162781C48A17800EB820200
S3150800638000EB880012F82A2C10F82A0C891A4618ED
S3150800639002E0012020262070B0B2FFF7C9FF0FF2F5
S315080063A0500A02E0B0B2FFF7C3FF386B042805D0E5
S315080063B0386B400754BF761E761CF3E7F86A38B187
S315080063C084F80180A6701FFA89F02860BDE8F08776
S315080063D040F22111504600F0CFFAE6E7D01000400F
S315080063E0181000401C100040D8FF00208448000800
S315080063F0616E616C6F6775652D76636F2E6300003D
S3150800640081014FF4FE5289B20C20FDF7A0BF2DE999
S31508006410F84F8F4CA56820680127ADB200264FF0CB
S315080064200A08B9461FFA80FA00F04FFAB02020632E
S31508006430DFF820B208E016F1190FB8BF4FF00A08C6
S31508006440464436B27019A060DBF80000000702D592
S3150800645059EA070028D00120FEF748FDB9F1000FD8
S3150800646011D0AAF10300874202DAF81C87B213E0BA
S315080064700AF50040206057460621092000F0CEF9AB
S315080064804FF000090BE0DBF80000000707D5042FE2
S31508006490A6BFF81E87B2002707F5004020601A2E0F
S315080064A0C9DB6FF00908CBE7A560C4F800A008208F
S315080064B0CBF800006848006880B2BDE8F28F80B566
S315080064C0624B66491B784FF0FF326BB1002819BF43
S315080064D04A606348486041F2111008606148418883
S315080064E00088BDE8044092E7002819BF4A600A60A0
S315080064F04860086000F0E9F9BDE804400621092073
S3150800650000F0DDB938B50120FFF7D9FF04460020B1
S31508006510FFF7D5FF05460120FFF7D1FF4042001BD4
S3150800652000EB450000B232BD2DE9FE4F4E4CDFF8B8
S315080065303C81A06A454EADF802002568D8F800B03F
S31508006540307860B14FF6FF7200210820FDF7F8FE9B
S31508006550ADF80000C022C0210820FDF7F8FE444827
S31508006560DFF81091007818B148F26070C9F8000099
S31508006570708840F4404040F04C00C9F83C000220C6
S31508006580A0620120206040F24C40FEF7AFFC0120DB
S31508006590C8F80C00C8F800000020324F38804020A8
S315080065A07880307800B12020FFF72AFFFFF7AAFF8E
S315080065B08246402038807F207880FFF721FFFFF74A
S315080065C0A1FF0290504602F0CEFBFE2101FB00F728
S315080065D00298AAEB00000190307860B1029802F0A8
S315080065E0C2FB8246019802F0BEFB80B207EB8A1115
S315080065F0B1FBF0F005E0019802F0B5FB80B2B7FBFD
S31508006600F0F080B2401CC7031FFA8BF0C8F80000F0
S31508006610ADB20020C8F80C00022020602560BDF845
S315080066200200A0620020C9F83C00307830B1BDF8FD
S3150800663000104FF6FF720820FDF789FE40F24C4025
S31508006640FEF754FC380CBDE8FE8F000012EB002064
S31508006650C010004018A000400070004038100040EC
S31508006660EEEEFFFF0CFF00206020004028100040DF
S3150800667089EA0020D010004041003F2289B201E09B
S3150800668001463F220220FDF762BE2DE9F04F564C27
S31508006690564D95B0E06CADF810004FF6FF782068BF
S315080066A0ADF80E004246E86AADF80C00002101205C
S315080066B0FDF746FEADF80A00424600210B20FDF71D
S315080066C03FFEADF808004FF4004020600020286126
S315080066D0686148F2020000F08BF84CF68C30E064F2
S315080066E04FF4805248F2F000E86211460120FDF7A7
S315080066F02EFE424600210B20FDF729FE0621062024
S3150800670000F0DDF8019000F085F800904CF69C301A
S31508006710E0640020FFF7B0FF0621084600F07EF887
S3150800672000260DF1140BB0B2FFF7A6FF06210620CE
S3150800673000F074F800F08DF82BF81600761C202E61
S31508006740F1DB00F086F81020FFF796FF00F062F8FC
S315080067500099019A401ABBF82010891A404301FB98
S3150800676001094FF0100A112700F04EF800F052F810
S3150800677000F043F806DB81461FFA87FA781C07B251
S31508006780202FF1DBBAF1100F0ED10F2700F03CF8DD
S3150800679000F040F800F031F806DB81461FFA87FA68
S315080067A0781E07B2002FF1D5BDF81000E064424606
S315080067B0BDF80E002060BDF80C00E8620120BDF8A7
S315080067C00A10FDF7C4FDBDF8081042460B20FDF778
S315080067D0BEFD01202861002000F00AF84FEA4A00B1
S315080067E0C0B215B0BDE8F08FC010004018100040C8
S315080067F0286040F24C40FEF779BB0099401A4043A6
S3150800680006FB0600484570473BF817000199461AEB
S31508006810B8B231E70621072000F051B870B5054631
S315080068200E4600F093F83F4C206C20F008002064D8
S3150800683000F09AF800F084F8310341EAC5113A4AA3
S3150800684041F00101116008212160BDE8704000F0A7
S315080068508DB82DE9F041354C354D324E25E000F026
S3150800686075F8344904200860306C40F0080030643C
S315080068702F68286840084000286000F06DF8D4F8B2
S315080068800080206820F04000206000F061F8C4F81D
S3150800689000802F6000F060F8306C274920F008006F
S315080068A030640420086000F05FF830680007D6D529
S315080068B0082030602148006880B2BDE8F08180B5C4
S315080068C0FFF7ACFFBDE80140C3E717480168490870
S315080068D0490001607047F8B50746FEF7C7FA04464F
S315080068E039460320FFF7EBFF054639460120FFF737
S315080068F0E6FF0646FDF723FD39460020FFF7DFFFD2
S315080069000746FDF71BFD084801684908490001606C
S31508006910781B0004711BB0FBF1F060434000000CCB
S31508006920F2BD000018A0004004700040008000403E
S3150800693094ED00E000E100E080E200E00070004035
S31508006940EFF31180602181F31188704772B67047A2
S3150800695000BF30BF00BF7047BFF35F8FBFF34F8FD5
S31508006960BFF36F8F7047000062B6704780F31188D7
S315080069707047000042DE704738B504460D46FDF7FD
S3150800698089FCFFF7DDFF2946204603F054F82B461D
S3150800699022460FF2CC11012003F0C1FA29462046FF
S315080069A0BDE83440E6E72DE9F84F6548654D0168CE
S315080069B02E1D4FF4206A7165016AB165624909683E
S315080069C0F165416A3166816A7166C16AB166016BB1
S315080069D0F166806B306796F8340040074CBFF76B5A
S315080069E0B76BBB4602F085FF0022584CDFF8608182
S315080069F0DFF86091F2648742014624BFA4F12003C0
S31508006A00BB4231651DD357F8180F306457F8040F89
S31508006A107064706DC005C00D062815D1306C4845E8
S31508006A2012D3404510D200884DF6426290420BD1EF
S31508006A3005F18C006A68426040F2017A72688260E9
S31508006A4002E03264726483464348814202D20146B8
S31508006A5000E0091DA14203D20B68B3F1CD3FF8D07F
S31508006A60601AB064182105F1780003F099FA00203D
S31508006A7003E0C0B205EB80029167A34523D254F820
S31508006A80041D4945F9D34145F7D2CA07F5D5002271
S31508006A9005EB82039B6F8B4203D0521CD2B2062AA7
S31508006AA0F6DB062AE9D1002814BF401E0520E0E7D8
S31508006AB0716F002205EB8203521CDF6F9F67052A60
S31508006AC0F8DBC5F88C100146481EC9B20029EFD17B
S31508006AD0706DC005C00D02280AD0032815D00428F9
S31508006AE016D0052817D0062818D00C281CD01EE06A
S31508006AF01A480168890748BF40F6021A1CD400687C
S31508006B00C00719D540F2025A16E040F6012A13E0EA
S31508006B1040F6022A10E040F6032A0DE0BAF5206F87
S31508006B200AD140F6042A07E040F6052A04E018B11F
S31508006B30242838BF40F6072A5046BDE8F28F0000E1
S31508006B4004ED00E00000002000E300E008E7002074
S31508006B5086EB020890410008980000201CA000401F
S31508006B600D0A5B4153534552543A25703A25645DE4
S31508006B700D0A0000814233D210185118401E491ED2
S31508006B8010E011F8013900F80139121F11F801391E
S31508006B9000F8013911F8013900F8013911F80139FD
S31508006BA000F8013992B2042AEBDA92B2002A1EBF23
S31508006BB011F8013900F80139521EF6D1704711F85B
S31508006BC0013B00F8013B121F11F8013B00F8013B9D
S31508006BD011F8013B00F8013B11F8013B00F8013BB5
S31508006BE092B2042AEBDA92B2002A1EBF11F8013BD0
S31508006BF000F8013B521EF6D17047130003D00A462F
S31508006C00194603F0D1B9704710B500E0521E92B28A
S31508006C1022B100F012F8F9D0181B10BD002010BDE3
S31508006C2010B500E0521E92B22AB100F006F8F9D06B
S31508006C30181B40B210BD002010BD10F8013B11F81A
S31508006C40014BA342704700004048018A40F6A772EC
S31508006C50914202BF408A4FF47F41084203D102287D
S31508006C6001DB01207047002070472DE9F84F824666
S31508006C708846FFF765FE364D2F68044628684008A3
S31508006C8040002860FFF768FE0120DFF8BCB08BF8EB
S31508006C900000FFF7D9FF20B9FE210FF2B800FFF771
S31508006CA06BFE2A48D0F8289041464AF48070C847B7
S31508006CB006462F60FFF750FE2046FFF757FE0020D6
S31508006CC08BF800000FF294040EB1305D04E04146E3
S31508006CD04AF40070C847005DBDE8F28F2DE9F84F09
S31508006CE0804689464FEA420AFFF72AFE184E376859
S31508006CF005463068400840003060FFF72DFEFFF774
S31508006D00A3FF28B940F241110FF24800FFF734FEFD
S31508006D100E48D0F824B00023524649464046D84784
S31508006D2004463760FFF718FE2846FFF71FFE0FF2E6
S31508006D302C050CB1605D05E05346002249464046E5
S31508006D40D847405DBDE8F28FCAFF0020000008085A
S31508006D5094ED00E0666C6173682E6300000202021F
S31508006D604B4B46472DE9F84F8046DFF880A00AF1DD
S31508006D70A000242500902422FF21FFF73EFF9E2233
S31508006D80FF215046FFF739FF0027194CDFF86490BA
S31508006D90194EB85D17F809B0395D401C00EBD07084
S31508006DA0401001B11930C01C00FB0BF2134830F833
S31508006DB017100FF24C0003F02BF9BBF1010F1CBFA3
S31508006DC02AF817505D447F1C242FE2DB0FF24C0093
S31508006DD024234FF480524FF4437103F019F90099B4
S31508006DE04046BDE8F44F00F039BB000060F90020CA
S31508006DF0D80F030820100308FC0F0308900F030898
S31508006E0043726561746F723A2030782532582C20A7
S31508006E10576F7264733A2025640A000053696D45FA
S31508006E204520646174613A20256420776F72647323
S31508006E30206F66202564206D61782C20746F6B6541
S31508006E406E436F756E743A2025640A0010B5DFF834
S31508006E50E04BDFF8E03B2488001B03EB40000023EF
S31508006E6004E030F8134021F813405B1C9342F8DB2A
S31508006E70002010BDDFF8B82BDFF8B81B1288801A7F
S31508006E8001EB40010220FFF7F0BEF8B504460F46B5
S31508006E901546DFF8A06BEDB205B34FF6FF70ADF8F7
S31508006EA0000000AA002017F8011B8154401C6D1E23
S31508006EB0C0B2022802DAEDB2002DF4D1DFF8700B69
S31508006EC00088A4B2201A012200A906EB4000FFF7A9
S31508006ED005FF641C0028DED000F0DEBB0120F2BDF1
S31508006EE070B582B004460D461646F6B27EB100F07D
S31508006EF0BFFF641C002000A9761E415C05F8011B33
S31508006F00401CC0B20228F0DAF6B2002EF3D173BDE7
S31508006F10DFF8241BDFF8242B415C825CDFF8203D78
S31508006F20C05C10B102F5997292B241EAC21080B201
S31508006F30704710B5DFF8403CDFF8FC4A03EB400227
S31508006F40005D012801D1104610BD1088081803EB12
S31508006F50400010BD30B591B004460D4604E0401C13
S31508006F6080B220280BDB2034A4B2A54211D32022FC
S31508006F7000A92046FFF76AFF00204FF6FF7200A916
S31508006F8031F810109142EAD02046FFF773FF203CF3
S31508006F90E9E711B030BD10B5044661882088FFF7CF
S31508006FA0D9FFDFF8D81B0120A071097820880818B6
S31508006FB0DFF8901C098800EB4100801DA08010BDF9
S31508006FC010B5DFF8BC4B00F08AF800F050F900F075
S31508006FD04BF9DFF8740C446004F10801816004F190
S31508006FE01001C16010BD2DE9F0460446DFF88C0B90
S31508006FF005782E46072E85B003DB40F2CA2100F03D
S3150800700013FB0020A0716A1C208892B201A9FFF721
S315080070101DFFBDF804004FF6FF7A504518BF00283B
S3150800702058D00DF10409AAEB000039F81610814270
S3150800703050D1012705E0BDF8041088424AD1781CD2
S31508007040C7B2B74214DA39F817000028F3D1DFF8C7
S31508007050FC1B20880A8807FB02214118514407FBBC
S31508007060020089B280B2FFF775FF0220A071E6E739
S31508007070A079022830D020882818C01C00F0D2FE3B
S31508007080BDF80000000BA84224D120882818401D0E
S3150800709000F0C8FEBDF80010BDF80000C1F1FF0100
S315080070A0000AC9B2884215D10320A071012220889E
S315080070B02818401C0DF1020180B2FFF7C7FEBDF883
S315080070C00200FF2802D10420A07105E0504518BF30
S315080070D0002801D000F003F805B0BDE8F086204688
S315080070E059E770B5DFF8984ADFF85C5B0020A071B5
S315080070F0A073A07582B004F10800A8606C6004F162
S315080071001000E8602046FFF76EFF04F10800FFF75D
S315080071106AFF04F11000FFF766FFA179A07BDFF88C
S315080071201469042908D100210428ADF800102CD1CF
S31508007130FFF746FF012076BDA17D042812D1002065
S315080071400429ADF80000F3D0FFF7C9FF00F08CF86A
S31508007150DFF8283A208900F08DF8060026D10320AA
S31508007160A07334E0042929D10020ADF80000FFF708
S31508007170B6FF00F07CF8DFF8043A208A00F07AF8C7
S31508007180060013D10320A07518E0A07D0428CFD0EF
S3150800719000F06DF800F068F8DFF8E039208800F0B4
S315080071A069F8060002D10320A0710AE0304602F011
S315080071B051FF1EB140F2BE3100F036FAA07903281D
S315080071C005D1A07B012804BFA07D012843D0A07962
S315080071D0032801BFA17B0329A17D01293BD00228F1
S315080071E001BFA17B0329A17D01290DD0012801BF7B
S315080071F0A17B0329A17D012906D0012801BFA17B16
S315080072000329A17D032904D104F1080004F1100122
S3150800721025E0012801BFA17B0229A17D03290DD004
S31508007220012801BFA17B0129A17D032906D00328D6
S3150800723001BFA17B0129A17D032904D104F1100016
S31508007240214608340BE0032801BFA07B0128A07D56
S3150800725002287FF46DAF204604F1080110346860F7
S31508007260EC60A960002076BD04F1100093E604F1F5
S31508007270080090E61B781818DFF8B4371B88401CFE
S31508007280C01A012200A906EB4000FFF727BD2DE929
S31508007290F04F0446DFF8E408007885B00D46ADF8EF
S315080072A00C0001222088BDF80C100818461D0DF1A7
S315080072B00201B0B2FFF7CAFDBDF80200DFF8F09B85
S315080072C0DFF8F0AB000AADF80200761CDFF87409A7
S315080072D0B0F80080BDF8020040451CBF01202870A8
S315080072E000271BE0401CC1B2414515D2C0B28346F7
S315080072F03AF81B10BDF80A209142F3D1FFF708FEB1
S315080073004FF680710840BDF808104FF6807211409C
S31508007310884208BF0BF80970781C87B2BDF80200CE
S31508007320874207DA022202A9B0B2FFF78FFDB61C20
S315080073300020D8E7002101E0491C89B2414509DA55
S3150800734011F809008842F7D00120287002E022F8D7
S31508007350176006466088C01EB6B2B0424FF6FF7A7E
S3150800736069DBFF2700F076F8BDF80000504562D0CB
S31508007370701C01220DF1060180B2FFF767FDBDF80A
S315080073800010BDF80600AAEB010188425FD1BDF8DE
S315080073900010BDF8000001F07F0ABDF80210F61CC7
S315080073A0000A884253DA002101E0491C89B24145A6
S315080073B004DA11F809208242F7D1CFB22388BDF842
S315080073C00CC0634403EB4000801D00F026FDBDF8A9
S315080073D004006188C0F3C710401C00EBD07006EBB0
S315080073E0600080B2814232D3FF2FB2D0DFF8F41B9F
S315080073F0795CBAF17F0F0CBF002252468A4208DA3E
S31508007400BDF80020DFF83838FB5C1206D20F9A4226
S3150800741002D0012129709CE70129DFF8CC2B96D0F0
S31508007420BAF17F0F32F8171008BF4FF0000A51441F
S3150800743022F811608DE7A6806088B6B2B04208D3FC
S3150800744000F008F8BDF80000761C5045F4D001207D
S315080074502870EDE1012200A93046F7E4F8B58DF869
S315080074600000DFF8881BDFF8C8050288DFF8100778
S315080074700988DFF80837DFF8D0471E78DFF8703B51
S315080074801B8841800280B218DFF8B8170D8843813F
S3150800749002EB4502921D828000228271DFF8543B7E
S315080074A0DFF8542B12881B8802814382B21802EB3C
S315080074B04502921D828100228273DFF8402B1288D2
S315080074C00282B21802EB4501891D8182002181756D
S315080074D002F010FE00284FD1FFF703FE9DF80010BA
S315080074E008438DF800000122606800883018801C67
S315080074F0A11C80B2FFF7AAFC9DF8000000283ED127
S31508007500606800A9FFF7C3FEDFF8F40ADFF86876BB
S315080075100688A0688179032922D100A9FFF7B7FE5A
S315080075206168DFF8C02A002010E0A84202DA835C0E
S31508007530012B09D137F81030B1F800C0634524BFD4
S31508007540B1F802C09C450BD2401C80B2B042ECDBBD
S3150800755002208871A16860686160E168A160E060E6
S3150800756000204FF6FF7201E0401C80B2B04206DAF6
S3150800757037F810109142F7D101208DF80000607895
S3150800758028B101208DF800000020607002E09DF807
S315080075900000B8B14D2002F05DFD6088401C608097
S315080075A0E068FFF7F8FC9DF8000000F041F838B1F4
S315080075B000F076F820B19DF8000000F047FA08B907
S315080075C00120F2BD0020F2BDF8B50D46DFF87416AD
S315080075D0098817467F2F08BF002704468D423EBFFD
S315080075E0DFF85404285C87421E4605D2DFF84C04AF
S315080075F0285C864200D11CB940F2296100F014F8D3
S3150800760039462846FFF795FCDFF8FC190088695CBF
S3150800761029B10146284600F030FC2060F1BD32460B
S315080076202146BDE8F8405BE40FF60C20FFF7A4B945
S31508007630F8B5DFF81416DFF8FC43DFF878580028A9
S3150800764014BFC8688868DFF83415008809780818F0
S31508007650861DB6B2002703E0B61C7F1CB6B2BFB2C1
S3150800766000F086FA874215DAF8B2FFF751FCADF852
S315080076700000022235F81700DFF894391B88ADF8A8
S31508007680020000A9F01A04EB4000FFF727FB0028C8
S31508007690E2D001E00120F2BD02F0DCFC0020F2BDE0
S315080076A02DE9F04FDFF89C05DFF8D014008809783B
S315080076B0DFF8809385B00024ADF80C00DFF8880564
S315080076C0C06800880818BDF80C1000EB4100801D42
S315080076D086B201E0641CA4B2BDF80C00844280F2B4
S315080076E09E804FF0000B5CE000F051FAADF8060002
S315080076F0711CCF480588701B8EB2BDF800104FF676
S31508007700FF72914209EB400016D100F09AF8002862
S315080077101CD100F09BF8002818D1B01C86B2C748C7
S315080077203E80225CDFF8EC0850F824103046FFF75C
S31508007730ACFB00282ED17BE0C049615C491C01EBFB
S31508007740D1714FEAC15A00F07CF800286DD100F0DB
S315080077507DF8002869D1B11C8EB2B8F1000F3E80C1
S3150800776040D00290DFF8E004007828B102AA00A908
S31508007770204602F0C3FC05E0BDF80010E0B200F0B8
S315080077807CFB0290701B4FEA1A6202A900F0FBF913
S3150800779000284AD1DFF88008205C801986B20BF1F0
S315080077A0010BA548255C5FFA8BFBAB4592D259467F
S315080077B0E0B2FFF7BEFB0746012D3888ADF800009A
S315080077C0DFF87C0414F800804FEAC81040EA042069
S315080077D0ADF80200BDF802000CBF40F07F004BEA8E
S315080077E0000081E700270AE000F025F8FFF72EFBE6
S315080077F0B819401B012200F0C5F9B0B97F1CFFB2C9
S31508007800B7EB1A6FC6DADFF8400400780028BDF82F
S315080078100000E9D000F00FF802F06EFCE8E7DFF8A8
S315080078202804C0688680012002E002F013FC0020CC
S3150800783005B0BDE8F08F411CADF80010012201A982
S31508007840704701220DF10201FFF748BA701B0122A9
S315080078500DF1060109EB4000FFF740BA2DE9F64F96
S315080078608046DFF8B407DFF8B4371B6885B0085CD4
S31508007870DFF8AC17098801900C264A0891FBF6F642
S31508007880B618B3424FF0000928BF001808D21826C8
S3150800789091FBF6F1511A8B4203D300EB500080B2EC
S315080078A001900026DFF85C7701E0761CB6B200F09E
S315080078B05FF9864280F2AD80002441E001220DF195
S315080078C002011FFA8BF0FFF7C1FABB68DFF860C147
S315080078D09B88BCF800C05748EB18A3EB0C030BF1C8
S315080078E0010B4A4600F0ACF8002816D16D1C049826
S315080078F0EDB28542E2DBBDF80010BB684FF6FF70BB
S31508007900401AADF80200012249489B880588494873
S315080079109B1E5B1B00F094F8002872D1BB68454893
S315080079209B88DB1E5B1B012200F046FB002868D102
S31508007930B868039A81881180818851448180641CC3
S31508007940E4B23D48355CAC42AFD22146F0B2FFF70F
S31508007950F0FA0390B0F800B03848305C401C00EBF1
S31508007960D070C005000E0490BDF81400864204BF0E
S315080079709DF818008442E2D0786801888B4524BFB8
S3150800798040885845DBD301981FFA88F880B28045AD
S315080079904BD2DFF8840616F800A0B86882884188BA
S315080079A05244D21C914203DA01207870452028E01F
S315080079B0A349715CCA0142EA0622ADF80020012DEE
S315080079C0BDF800200CBF42F07F022243ADF800202C
S315080079D0D0448288D21C4FF001098280B9B1594639
S315080079E0F0B200F04AFABB68114D049A02909B88DF
S315080079F02D8810485B1B02A900F024F800283FF4E4
S31508007A007AAF02F027FB002007B0BDE8F08F00250B
S31508007A106DE7B9F1000F08D1796802208871B96855
S31508007A2078687960F968B960F8600120ECE70000C9
S31508007A30560F03080070070820100308FC0F0308F8
S31508007A400DF1020100EB4300FFF748B92DE9F04FAD
S31508007A5083B05FEA0008DFF8AC55DFF8B09514BFCD
S31508007A60E868A8680122B0F800B000F081F8C0F113
S31508007A70FF01C9B241EA0020ADF8000000A93F485D
S31508007A800678DFF88C05048806EB0B07781D001BC3
S31508007A9000F079F8002846D140F6127040EA063020
S31508007AA0ADF800000122F81C001B00A900F06BF8D5
S31508007AB0002838D1B81C001B0122A91C09EB40007C
S31508007AC0FFF70CF900282ED1781C001BB8F1000F1F
S31508007AD009EB400A03D0FF2000F061F818BB68687C
S31508007AE0008801220DF10201FFF7B0F9BDF8020086
S31508007AF001280CBF4FF6FE70401E00F048F8ADF89E
S31508007B0004000122381B00F03DF860B9731E7EB1EF
S31508007B109EB206EB0B00001B01220DF1020100F0DC
S31508007B2032F80028F2D002F095FA0020BDE8FE8F60
S31508007B30B8F1000F17D0E968032088716868FFF765
S31508007B402AFAA868FFF727FAA968EA686868AA609F
S31508007B50E860A860696000206A60E96000F01FF8C4
S31508007B600028E0D102E0A968032088710120DDE73A
S31508007B70344800887047000060F90020540F030855
S31508007B80D8EA002001A909EB4000FFF7A7B8ADF82D
S31508007B9002004FF6FF70BDF80210401A7047ADF8A4
S31508007BA00000012200A95046FFF798B8F8B5044628
S31508007BB0DFF8640482B00D5CA088134662882E182C
S31508007BC0F61CB24205DADFF83C140120487045205D
S31508007BD031E0C01CDFF84C24A08080B28A5C1946CC
S31508007BE0FFF753F950B3DFF82804DFF82074068846
S31508007BF0A088C01E801B012202A907EB4000FFF7E0
S31508007C006DF8C0B9BDF808104FF6FF70401AADF808
S31508007C1000000122A088801E801B00A907EB4000F7
S31508007C20FFF75CF838B90899A0880880A088281852
S31508007C30A0800120FEBD02F00DFA0020FEBD000066
S31508007C40D80F0308620F0308ACFB0020520F030885
S31508007C502DE9F84F84B00446884691460127FCF77B
S31508007C6019FBFFF785FFADF80600B9F17F0F08BFCE
S31508007C704FF0000984423EBFDFF86803205C814567
S31508007C8009D2DFF8A0139DF81000615C884202D182
S31508007C90B8F1000F03D140F69601FFF7C5FC0125A0
S31508007CA049462046FFF745F90646DFF87C03B6F84D
S31508007CB000A0817902291FBF817B0229807D0228C5
S31508007CC002D1432002F0C6F9CF48205C70B3514672
S31508007CD0204600F0D2F8D8F80010814252D0AAF116
S31508007CE0030000F09AF8C74DCB4B68684288E35CFE
S31508007CF08188D21ED21A8A4207DB31B1A9680A885E
S31508007D009245A4BF4988514575DBE868D5F808A0AF
S31508007D108079022837D1442002F09CF9E8688079F6
S31508007D20012830D0452002F095F953E09DF810005F
S31508007D3002904FF0000B20E00BEBDB700AEB6000C3
S31508007D4000F070F80BEB08001BF80810407801EB00
S31508007D5000200299491E8B4580B205D1BDF8001056
S31508007D60C9B2C0B2ADF80010BDF8001088420BF1D8
S31508007D70020018BF00255FFA80FB02988345DBDB0B
S31508007D80002DACD042E0A8688179012914D10020E1
S31508007D90FFF74EFC002839D00020FFF757FE0028D1
S31508007DA034D0A248BDF80630007800EB4300C01D69
S31508007DB04A46214680B204E0032911D14A462146A3
S31508007DC00020FFF74BFD28B100F021F85046FFF7D9
S31508007DD0EDFED8B93846471EC0B2002814D115E0C2
S31508007DE00FF2542002290CBF40F6861140F689117D
S31508007DF0FEF7C2FD0AE000F00AF8FFF7D7FE28B939
S31508007E003846471EC0B200287FF449AF10E50096F1
S31508007E104246BDF8043021467047012201A980B2C6
S31508007E20FFF714B8012200A980B2FFF70FB870B5A2
S31508007E3082B004460025192600F01AF8BDF800009D
S31508007E40641C48B14FF47F41401A02D0FF3806D06F
S31508007E5007E0681C40B276BDAD1C761EECD168B250
S31508007E6076BDBDF80000C0B200B96D1CE843F1E765
S31508007E70012200A9A0B2FEF7E9BF38B50C460021D9
S31508007E8000916849455C2A4600A92046FFF728F86C
S31508007E90681C00EBD07004EB600080B2FFF7C7FFE8
S31508007EA0002848BFC043009940B2401832BD0000C0
S31508007EB000FA0020900F0308F0B55D4909880446CA
S31508007EC0494883B0254630F815608C4202D24E48A0
S31508007ED0285C18B940F6E811FFF7A6FB51482D5C57
S31508007EE0681C00EBD07006EB6007B8B2FFF79FFF7F
S31508007EF0322814D2C107BFB207EB6000444F434B88
S31508007F003F884CBF00214FF47F41ADF80410C01BD9
S31508007F10012201A903EB4000FEF7E0FE60B13146FD
S31508007F202046FFF7AAFF00902B46401C00907F22B0
S31508007F3000A92046FFF78CFEF7BD70B505463B48FD
S31508007F40067882B0344621464C1E2888022923DB4F
S31508007F50E4B22018FFF766FFBDF800000028F2D04B
S31508007F6034492888098804FB010080B2FEF782FF9D
S31508007F700020ADF8000001222B88254D23482D88C6
S31508007F80E3185B1B00F018F8250018BF012508B197
S31508007F9002F060F8284676BDFEF76CFF0120A8714E
S31508007FA0234928880988301800EB4100801DA880DD
S31508007FB0E0B200B1012076BD00A900EB4300FEF750
S31508007FC08DBE19488179022908D0817B022908BF0C
S31508007FD0083003D0817D022901D11030ADE7002099
S31508007FE0704700002010030860F90020580F0308A6
S31508007FF05C0F0308600F03085A0F03085E0F030897
S31508008000640F0308ACFB0020D80F030800700708AC
S31508008010560F0308EC1203086C0F0308680F0308D1
S31508008020500F0308FC0F0308D8EA0020540F030872
S31508008030620F0308520F030873696D2D6565707228
S315080080406F6D322D696E7465726E616C2E630000F9
S31508008050DFF8841500200870FF21DFF8800501701D
S3150800806001717047F8B5044602F04AF80546DFF88C
S315080080707005DFF868750688204602F040F9B0F505
S31508008080006F16D1204602F05EF900F0BBFAFF2811
S315080080900DD000F029FA2146381D02F0F2FCDFF86F
S315080080A03805017881B10089A9190E1A10E09320C4
S315080080B0F2BDFF21384602F00FFD052802DA2146F7
S315080080C03846EAE73920F2BD0581314602F065FDFA
S315080080D0B2B20321204602F090F8032200F070F8AD
S315080080E0204602F009FA0020F2BDF8B50446DFF88A
S315080080F0EC040078FF2813D0DFF8E8542968465CBA
S315080081003746384602F010F9014608222046FEF79F
S315080081107BFD08B90120F2BD28683F5CB742F0D163
S315080081200020F2BDF8B5044602F093F8000B00F003
S315080081300105204602F01CF90646204602F007F91A
S31508008140B0F5404F11D1002D36D03146002000F051
S3150800815086F90446FF2C2FD0002102F019FE58B3E9
S3150800816000F0A3F900F02AF826E0304603F046F8B6
S3150800817000F048FA0446FF2C01D10020F2BD012088
S315080081800021224603F068F8DFF85C24D2E900678C
S3150800819006430F43C2E9006775B1DFF850341B6820
S315080081A033F814304FF4FE64234205D0D2E9024571
S315080081B020432943C2E902010120F2BD40F08002B2
S315080081C00521204602F024B838B5044602F097F88F
S315080081D0B0F5006F0CBF01250025204602F0A4F873
S315080081E004462146284600F03AF9FF2810D18DB1F9
S315080081F0204603F003F800F005FAFF280AD0DFF856
S31508008200EC13096831F810004FF4FA61084201D0FE
S31508008210012032BD002032BD2DE9F04107460C464B
S31508008220DFF8B85302F06BF8B0F5006F0CBF281DE5
S3150800823028460078FF2846D0DFF8A8130968405C6E
S315080082400646B7423CD1FEF77BFB80460521304601
S3150800825001F0E5FF00F07F00471EFAB2052130461F
S3150800826001F0D6FF002C18BF312C01D0F8B200BBA4
S31508008270FEF766FB0746F0B202F041F8B0F5006F6C
S31508008280F1B205D1281D02F027FC00F012F902E030
S31508008290284602F021FC3846FEF768FB4046FEF702
S315080082A065FB2146304603F00FFF304602F032F9EF
S315080082B004E000F0FEF84046FEF758FB012003E014
S315080082C0765C8642BDD10020BDE8F08138B501F064
S315080082D017FFC14C21892081421A4FF6FF75ADF868
S315080082E0005000A990B200F008F9BDF80000A842B5
S315080082F002D10020207031BD0146204602F04DFC17
S3150800830031BD00214FF6FF70F7E02DE9F84FDFF891
S31508008310D892D9E90001002908BF002800F0988002
S3150800832000264FF00108B24600270024FEF708FB96
S31508008330D9E90023844608EA02001AEA030108BFBD
S31508008340002817D06FEA08006FEA0A0102400B40BE
S31508008350C9E90023D9E9025B012708EA05021AEAF6
S315080083600B0308BF002A05D028400BEA0101C9E91A
S31508008370020101246046FEF7F9FA002F57D09B4800
S31508008380006830F81600810751D59949096831F80F
S3150800839016702CB100F49871102908BF012500D079
S315080083A0002594490978C9070AD5934A1268002115
S315080083B042F8261091490968725C42F0F00272543C
S315080083C0F4B180061CD5380A8DF801008DF80070C6
S315080083D000A9012000F043F80446FF2C07D100F05D
S315080083E039F84FF6DF72114020F8161014E0002114
S315080083F002F0CEFC80B100F058F8FFF7DFFE0BE084
S3150800840085F00100044207D000F024F841F4006129
S3150800841020F8161004F006FA00953B461A226DA1BC
S31508008420032001F0FAFD2946384601F005FE761CC0
S31508008430F6B24FEA4A0040EAD87A402E4FEA480890
S3150800844006DAD9E90001002908BF00287FF46CAFD5
S31508008450BDE8F18F6548006830F8161070472DE9B9
S31508008460F04188465D4900281ABF091D02250825DE
S315080084700878FF2816D05B4E3168475C3C4600F00A
S3150800848014F800060AD4204601F04EFF01462A4693
S315080084904046FEF7B9FB08B9204604E03068245C7C
S315080084A0BC42ECD1FF20BDE8F0810521204601F051
S315080084B0B6BE70B50021202004F051FC474800796B
S315080084C0FF2810D0474C2168455C2E46304601F0FF
S315080084D03AFF00F097F8FF2801D000F005F8206869
S315080084E0365CAE42F2D170BD4049096831F81020B9
S315080084F042F0200221F8102070472DE9F84F8046F7
S315080085000FF2FC00354E0068364F00908A46344616
S3150800851000E0341DFEF714FA814606E0204602F014
S31508008520C5FA294600A802F0ACFA204602F008FB74
S3150800853040B9386821780D5C0321284601F054FEBD
S315080085408045EBD2301D844208BFFFF7B2FF48468C
S31508008550FEF70CFA2078FF281CD0396810F801902D
S315080085604D460321284601F03FFEA0EB080B1FFAF3
S315080085708BF20321284601F040FEBAF800001FFAE4
S315080085808BFB834588BF8346AAF800B038682D5C04
S315080085904D45E6D1301D8442BBD100A802F0D0FA81
S315080085A0A8B900A802F082FA044601F05CFE00F0C1
S315080085B0FAF8FFF77AFF000603D44221204603F0B3
S315080085C083FD204601F0A6FF00F0EEF8E5E7BDE8DA
S315080085D0F18F00004257420024FE00202CEB0020B9
S315080085E0F8E8002070E8002048EB002080E800202A
S315080085F078E8002094FC002084E80020D4E80020D5
S31508008600FF000000F8B50D4C2768060014D0FEF7E9
S3150800861097F90B4D21682A7821F8126037F8021B62
S31508008620B142FBD1FEF7A2F9B81E2168401AC0056F
S315080086302978000E884200D1FF20F2BD78E8002094
S315080086407CE8002010B57348734C006820606060B1
S3150800865048220021FEF7D1FA704821680078087090
S31508008660002021680873216848730B2021688873E5
S3150800867003202168C8734FF6FE71206801824FF601
S31508008680FF71418200F088FB2168087600F084FBC0
S315080086902168487600F080FB216888766048216862
S315080086A00078C8765F492068096881625E4909785A
S315080086B080F82C105D4821680068086310BD10B565
S315080086C0FCF73CF8544C6168897B884203D008461D
S315080086D0FCF72CF850B9FCF734F80146606890F9B5
S315080086E00F00814204D0FCF730F808B1012010BD14
S315080086F06068008AFDF750FC6068408AFDF754FC04
S315080087006068007B012818BF0020FDF72FFC0020B9
S3150800871010BD10B5464C0020207004F08CFA20B924
S315080087202046BDE8104002F02DBA04F03BFF08B120
S3150800873004F069FF62E080B5002000F015F828B162
S31508008740002000F005F808B1002002BDFF2002BD98
S3150800875031480068407B02281CBF1128432801D1F4
S3150800876001207047002070472B480068007B0128CD
S3150800877018BF022804D003281CBF0628072801D1E1
S31508008780012070470020704700207047002070477E
S3150800879070477047002070470120704770470020D7
S315080087A0704700207047704770470020704780B5B3
S315080087B00020FFF7CDFF18B1BDE802400020D3E73F
S315080087C002BD80B50020FFF7C3FF30B1124800682C
S315080087D0007B032801DA002002BDFF2002BD10B588
S315080087E0040004D0E5210FF26C00FEF7C5F809482D
S315080087F00068482101FB040007494860BDE81040AD
S315080088005DE705484068008A704703484068408A23
S3150800881070470000A4E8002070FB0020F4E8002060
S31508008820F5E80020ACE80020B0E80020B4E8002015
S3150800883060FB00207047002070470020704702F058
S31508008840DCBA7047704704F06EBF05F05BB905F0F7
S31508008850EFBA0000656D6265722D6D756C74692DD1
S315080088606E6574776F726B2D737475622E63000074
S3150800887038B504460D46012005F0B6FB5F48002DC5
S3150800888012BF00210178491C01705D4844705D489B
S31508008890FDF750F8BDE83240002005F0A5BB10B53D
S315080088A00028144643D0402823D0882818BF892892
S315080088B044D08D2831D08F284AD1534800780428CF
S315080088C00DD144B151490220087040F60620BDE892
S315080088D0104005F091BBFDF7DAFA312034E00120AB
S315080088E001F09AFBFDF7D3FA002C0CBF31200020CB
S315080088F02AE005F0AFFBFDF7CAFA4048444900787C
S315080089000978884204D2BDE8104000210120AFE76B
S31508008910002001F081FB402016E0002001F07CFBDE
S31508008920FDF7B5FA00212020FFF791FF0BE00120A3
S3150800893001F072FBFDF7ABFA002005E0002001F01C
S315080089406BFBFDF7A4FA8D20BDE8104002F01CBBB6
S31508008950BDE81040A6213BE02C480078022800D04C
S31508008960704780B52B480078042807D00C280ED10C
S3150800897029480078022818BF7C2808D105F057FB3B
S31508008980FDF785FABDE80240002002F0FDBA01BDF8
S3150800899038B50024FDF7D4FF05461C48007810B901
S315080089A0FCF710FF04462846FDF7E0FF002C1CBF25
S315080089B0BDE8314001F04CBB31BD80B5FFF7E8FF9B
S315080089C0BDE804404FF4A051144802F0E6B8E2218D
S315080089D00FF25000FDF7D0BF38B5114C2068216C56
S315080089E001EA0005ADB2680705D5206C20F0040041
S315080089F0206403F0FFFF256031BD0000E4FF00207E
S31508008A00C4EA002010FF00201DEB0020E4FD002032
S31508008A1040EB0020C7FF0020C8FF0020CCFE002046
S31508008A2008A000406D61632D656D3235302E6300F8
S31508008A3070B504460D461646FDF77EFA38B16078DD
S31508008A40002E14BF40F0200000F0DF0060702946B9
S31508008A50204601F0E2FDFF2821D0974C0146201D53
S31508008A6002F00FF8954D28882188401C288080B28E
S31508008A7081420AD26888401C6880201D02F016F8D8
S31508008A8001F048FD2888401E2880208829888842C9
S31508008A90F3D3BDE870408A48007802F061B970BD2A
S31508008AA02DE9F04FA5B082460027FDF749FF834C14
S31508008AB02188491E2180FDF759FF504601F0B6FC72
S31508008AC090F8009081784078009700EB01201FFA13
S31508008AD080F800F0D4F8A0F108020823D2B2514673
S31508008AE002A801F0B6FD02AD6878FFF75CFE75488E
S31508008AF0007808B3606800281DD0E878FCF7E7FE20
S31508008B004946FCF7EBFE074695F9020000F16605B3
S31508008B100020009009F10103DBB20022514604A8A7
S31508008B2001F097FDFFF73AFE63686AB2394604A872
S31508008B309847FFF739FE98E008F0070002282DD07D
S31508008B40FF208DF80400504601F070FC00F1010B7F
S31508008B50584601F0B9FB0446A9EB0400801E46B24C
S31508008B60002E1BD45FEA885003D508F007000328B7
S31508008B7010D101A9584605F077FB002876D108F0F0
S31508008B80070001280BD19DF8040004EB0B0103F044
S31508008B90C4FD20B99DF8040001F0BCFC66E04A4912
S31508008BA09DF804000968475C4849096800F801A06F
S31508008BB000F065F800F120019DF80400C9B201F043
S31508008BC03BFC9DF8040001F049FB00F00C0004286A
S31508008BD01CBFA619002470B280B20090631C9DF8D1
S31508008BE004009BB25246394601F01AFFF1199DF866
S31508008BF00400C9B201F0D9FD354968780978884278
S31508008C0004D3CD210FF2D000FDF7B6FE9DF804007F
S31508008C1001F01FFB69788004800C40EA81319DF8D9
S31508008C20040089B201F017FBE878FCF750FE4946C4
S31508008C30FCF754FE02469DF80400032101F0E8FA09
S31508008C40A87800F166029DF80400D2B2042101F06A
S31508008C50DFFA9DF808209DF80400052101F0D8FAEE
S31508008C609DF804A0504602F0EBF90127504601F0A2
S31508008C7051FCFFF799FD384625B0BDE8F08F12483C
S31508008C8000681AF80000704710B50C4C618829B1C5
S31508008C90C9B21D20FFF7DBFD002060800D4801F0FA
S31508008CA005FFFF2803D0FFF7FBFE0028F6D010BD0E
S31508008CB0084801F045BF000038EB00204CFE0020B4
S31508008CC0C1FF0020C9FD002064E800206CE80020F0
S31508008CD0A8E800203CEB00206D61632D7265636592
S31508008CE06976652E630000000268174912BACA60E1
S31508008CF0426812BA8A60826812BA4A60C06800BAC4
S31508008D0008607047704710B5104980220A6006232C
S31508008D100F4A136007230B6013689B07FCD50023D3
S31508008D2050F823405B1C24BA042B8C62F8D31368D2
S31508008D305B07FCD500220B6B1BBA40F82230521C8D
S31508008D40042AF8D310BD0000383000400030004037
S31508008D5010A0004010B504460846FFF7C5FF204698
S31508008D60BDE81040CFE7002848BF404270470000E2
S31508008D7081B209B94BF6EF610E4A1180000C08BFA3
S31508008D804FF6CE20508070470288130448BF4A40E9
S31508008D90510001801046704738B5064C62212046BE
S31508008DA0FFF7F2FF054641F20B01A01CFFF7ECFFA7
S31508008DB0684032BD22EA0020EFF311806028804126
S31508008DC0C043C00F70470000002181F31188704727
S31508008DD02DE9F04FDFF82C4591B06168109107280E
S31508008DE008BF032006D0082808BF022002D005289D
S31508008DF008BF0420DFF8105529686A6841EA02218D
S31508008E00AA6841EA024100916968490703D5E16900
S31508008E1041F00201E1612968490703D5E16941F09A
S31508008E200401E1610099EA69D140C90703D5E169FE
S31508008E3041F00801E1610021DFF8C464DFF8CC7471
S31508008E403160012800F00082C0F0268203281AD07B
S31508008E5004D3042840F02082616014E0386CC0070F
S31508008E6003D5E06940F04000E061386C400703D55F
S31508008E70E06940F02000E061386C800703D5E069BE
S31508008E8040F01000E061FDF75BFDFBF710FA8DF886
S31508008E903C004FF00009DFF87814DFF878A4C1F534
S31508008EA080310120090B00FA01F1491ECAF8381071
S31508008EB0090A07D1DFF86014097819B1616C41F025
S31508008EC020016164396CDFF85484DFF854240E916C
S31508008ED0796C0D91D8F84C100C91D8F850100B916C
S31508008EE0D8F854100A91D8F858100991DAF80010F1
S31508008EF00891DAF804100791DAF814100691DAF8EE
S31508008F0024100591DAF834100491DFF8181409686A
S31508008F101268039202222260DFF80C2412688DF888
S31508008F200420DFF8082412688DF80520DFF80024ED
S31508008F3012688DF806204FF0FF32626200F0B5F92C
S31508008F40D2040AD56A68D20707D5E269D20704D5DA
S31508008F50326842F480728146326000F0A6F99204C3
S31508008F600AD56A68520607D5E269D20704D5326877
S31508008F7042F480428146326000F097F952040ED5D9
S31508008F80009AAB69DA40D20709D5E269D20706D555
S31508008F903268AB6900FA03F31A438146326000F07F
S31508008FA084F9120410D5009AEB69DA40D2070BD57A
S31508008FB0E269D20702D4E269120705D53268EB697D
S31508008FC08146984010433060DA480068C00308D5E7
S31508008FD0E069000605D5F07840F008004FF0010971
S31508008FE0F07000206A68D2076A6848BF4FF480505C
S31508008FF05206009AAB6948BF40F40050DA40D207DF
S31508009000009AEB6948BF40F48040DA40D207E2692B
S3150800901048BF40F40040D20605D4E269920602D45D
S31508009020E269520601D540F01000E269120648BF0F
S3150800903040F4803008400290A520FBF72FF9012064
S31508009040E063E069A16B11B1616A0142FAD0616A15
S31508009050014200F0CA800020E063F07840F040004A
S31508009060F070FDF773FC0498CAF8340007203860DE
S315080090700F20C8F8000005F0B9F91098A9496060F2
S315080090800E9838640D9878640C98C8F84C000B98BC
S31508009090C8F850000A98C8F854000998C8F8580043
S315080090A00898CAF800000798CAF804000698CAF88B
S315080090B014000598CAF8240002980860984903988D
S315080090C008604FF0FF309C49086097480068307088
S315080090D096480068707096480068B070626AE069E1
S315080090E01040EA69336801994B4000990B40010624
S315080090F0490E01F0010143EA81230106890E01F0B8
S31508009100010143EA81030106C90E01F0010101FAD2
S3150800911002F21A4300F47C7042EA00503060FDF710
S315080091200FFCFDF721FC002020609DF83C0008B1EB
S31508009130FBF7A7F8F0787B490968C90304D5C0F39B
S31508009140C00109B120212162396C890703D5C107FD
S3150800915044BF0221F960396C490704D5C0F34001C0
S3150800916009B10421F960396CC90704D5C0F3800137
S3150800917009B10121F9603168D8F84C2012F0E00FE6
S3150800918005D0CA0503D56B4B4FF480521A60D8F840
S31508009190502012F0E00F05D04A0403D5654B4FF472
S315080091A000521A60D8F8542012F0E00F08D0AA69C5
S315080091B021FA02F2D20703D55E4B4FF480421A60B9
S315080091C0D8F8582012F0E00F07D0EA69D140C9074D
S315080091D003D5584A4FF40041116040F08000F07002
S315080091E011B0BDE8F04FFFF7EFBDB9F1000F7FF4FE
S315080091F034AFDAF818004A49DFF840B140084000B1
S31508009200CAF818004648806840F00400886040F2B2
S315080092100721BBF80000884202BFBBF802004FF2E4
S315080092200F01884205D14CF23C30ABF802004FF0F2
S315080092300109012005F014F9B9F1000F03D04FF226
S315080092400F00ABF802000EE7FBF731F80446A5203D
S31508009250FBF724F8FDF77AFBFFF7B6FD384D2E68C5
S315080092602868400840002860FDF776FB354FD7F898
S315080092700080386820F040003860FDF769FBC7F8C1
S3150800928000802E60FDF768FB0CB1FAF7FAFF11B003
S31508009290BDE8F04FFDF768BB11B0BDE8F04F40F2EE
S315080092A04C410FF2AC00FDF767BB224A12687047C3
S315080092B011F1010F144A07D0CBB21360C1F307238B
S315080092C05360C1F30741916000231F490B6013687F
S315080092D0002B04BF5368002B01D192681AB10A68A3
S315080092E042F001020A600A6842F400720A600A68DB
S315080092F042F080020A606BE51449D9E700000000D5
S3150800930024FA00200400004008BC004014A00040D5
S3150800931000000000044000409807080814A8004010
S3150800932008ED00E000E100E008B0004008B20040A7
S3150800933008B4004000E200E080E200E000000020FF
S3150800934094ED00E00080004020000040004040000E
S31508009350736C6565702E630003480188034808230B
S315080093607F22FBF7CBBE00BF06140308A4FB002030
S31508009370DFF8D802016C41F4C04141F009010164EB
S315080093804FF6FF7101602020DFF8C41208607047AD
S3150800939070B515461E46002804BFBDE8614005F0B5
S315080093A085B8012835D113293CBF0FF2DC20095CAA
S315080093B008096422504301F00F010B2903DA88409B
S315080093C006E00A2250430A46511ED2B20B2AF8DAA0
S315080093D001460120FBF7D1FDE0B9300907280CBF8B
S315080093E000200220012D08BF40F0180003D0022DEE
S315080093F008BF40F0080006F00F0102299549A8BFEA
S3150800940040F00400886001200860FFF7B1FF0020E3
S3150800941062BD212062BD38B5040012D18E480468A9
S31508009420608828B14FF42C710FF25420FDF7A4FA86
S31508009430A188C9B2A01D00F00BFB0020A0802080E7
S3150800944031BD012802BF8348006801280FD1FDF706
S3150800945077FA05468148016841F006010160012056
S3150800946000F09AF82846BDE83240FDF77FBA31BDCC
S31508009470012804D17948016821F006010160704786
S3150800948080B50B46114620B9184600F0E1FA0020CF
S3150800949002BD012802BF72488269012A07D021202D
S315080094A002BDC2685207FCD513F8012B02600A46B2
S315080094B0511ED2B2002AF4D1C1684906FCD5E6E7A6
S315080094C010B50446FAF7E6FE012C03D16748006892
S315080094D04006FBD510BD70B5624A634B12680CE0B6
S315080094E0158810F8014BAD18AC7114881D8800F06A
S315080094F06DF814809488641C94800C46611EE4B24E
S3150800950054B194885A4D2D886D1EAC42E8DBBDE8EF
S3150800951070402321002079E070BD2DE9F843044608
S315080095205048DFF84491DFF848814D4F254650F8FA
S31508009530256014E0B18838F81520521E91421CDACD
S31508009540318889198871308839F81510401C90FBC4
S31508009550F1F201FB12003080B088401CB080F86838
