S00F0000786E63702D6C65642E733337CA
S315080020004022002061330208E9350208ED3502084E
S31508002010A70A090100210008040303AC2057BC01E4
S3150800202000000000000000000000000000000000A2
S315080020300000000000000000000000000000000092
S315080020400000000000000000FFFFFFFFFFFFFFFF8A
S31508002050FFFFFFFF007002080000000000000000FC
S31508002060FFFFFFFFFFFFFFFFFFFFFFFFFFFFFFFF72
S31508002070FFFFFFFFFFFFFFFFFFFFFFFFFFFFFFFF62
S31508002080F02F002000000000ED2F0020ED2F00208B
S31508002090402200209C3D020870360208E018002005
S311080020A0A01700200000030800300020F4
S315080021004022002061330208E9350208ED3502084D
S31508002110F5350208F1350208F93502087036020865
S3150800212070360208703602087036020870360208E1
S31508002130FD3502087036020870360208B12C000810
S315080021407036020870360208DF7A00087036020810
S31508002150958800081F7A000870360208703602084B
S315080021606D6C0008D93A0008693500089121000805
S315080021707036020870360208703602082D440008C8
S3150800218045D1000870360208703602087036020813
S3150800219070B52C4C2C4D60782968490726D503283C
S315080021A024DAA18804EB400291810121A27801FA80
S315080021B000F01043A070254A207890B1002320FA39
S315080021C003F6F60708D5994063704840207014EB6B
S315080021D04300808A106009E05B1CDBB2032BEEDB50
S315080021E004E0106000F0AAF8032060704FF6FF7054
S315080021F02860BFF35F8F70BD12480021017000226E
S31508002200032141700021C1700521018100218170DF
S31508002210001D0E490A604A604FF400428A60102287
S31508002220CA604861012088610320C8600421064805
S3150800223001644FF6FF7101604FF4006004490860BD
S3150800224000F0BAB8E824002010A8004004D00040E6
S3150800225000E100E02D480068C00701D42C4870470B
S315080022602C48704780B5FFF7F5FF2B49096801B977
S31508002270400802BD80B5FFF7EDFF400802BD00F03B
S315080022800ABC2648012181604EF6BE214160012123
S31508002290016070472249012008607047A52805D1CA
S315080022A01E484DF6AD6141600221016070471B482A
S315080022B00068C00701D5012070470020704780B527
S315080022C01849194A1020086018491948007858B161
S315080022D003280CBF00200120106040F6510008605A
S315080022E0002000F0F8FD06E0022010604FF40060C0
S315080022F0086000F089FB07210E480160002101648F
S3150800230010200D490860002002BD00001C40004056
S31508002310001BB70000366E012040004000600040F8
S315080023200860004080E100E0080000400C600040C2
S31508002330CB2F002014A0004000E100E07047704752
S31508002340DFF8E83433F810001040C840704730B55D
S315080023500FF29854DFF8D83434F810409C601140D6
S31508002360DFF8C84434F8105095432943D96002224F
S315080023701A6000221A6024F8101058680028FCD148
S3150800238030BDDFF8B024DFF8B0041278DFF8AC14FB
S315080023900AB149780EE0895611F1090FB8BF302104
S315080023A008DBC16D39B1C26D40F24A31B1FBF2F1B9
S315080023B089B2C91E01607047E0B5DFF88404018858
S315080023C00A2300F064F8BDF806104FF6FF720D20D8
S315080023D0FFF7BDFF07BDF8B50546B5F5004FDFF8B1
S315080023E05C4419D1DFF85C040188022300F04FF839
S315080023F0BDF80000000AFF2814BF002818206070E6
S31508002400BDF800000006C00E10281CBF001D00F015
S315080024109CF9BDF80000C543DFF81864707808B168
S31508002420002005E0A089ADB26840C00701D50120AB
S315080024307070DFF81404A58105F00104016841F401
S3150800244000410160C5F340070FF2C44000EB4400A9
S315080024504FF440524078010389B20220FFF777FF14
S31508002460204600F087FD4022B90100F009FA2D0642
S31508002470A80E00F0010038433070FFF782FF70782D
S3150800248018B1FFF799FF002070700020F2BD7F2277
S3150800249000A800F0E5BD2DE9F04FDFF8B443207839
S315080024A087B0042304900C210B38C0B2039000A80F
S315080024B0039A00F093FE9DF800008DF80A009DF837
S315080024C001008DF809009DF802008DF808009DF8B6
S315080024D003008DF80500DFF87C030078012806BFA5
S315080024E0607880F00105012501F016F982469DF90C
S315080024F002000399D54F0AF10A06AAF10A09B04261
S31508002500B6BF81454FF001084FF00008012088400A
S31508002510ADF806009DF80100000604D47888BDF8D9
S315080025200610084201D04FF0010801F089F99DF81C
S31508002530030000060AD4B888BDF80610084205D17B
S315080025409DF90000B042B8BF814502DB4FF0010992
S3150800255001E04FF0000948EA050059EA000000F0DA
S31508002560A480DFF8F4B2BD49DBF80000400800F0AB
S3150800257001008DF80400BA48006800F4E060059090
S315080025804FF4E0600860002001F08FFD00F0A8FB22
S31508002590B44EADB1607858B1DBF80000AD494008DB
S315080025A04000CBF800000120087000F079FC07E035
S315080025B0306840F400503060306820F48050306055
S315080025C0A4480078012810D161780D4208BF01F0AF
S315080025D0C1FEDBF800009F4940F00100CBF800007F
S315080025E000200870642000F05BFC607880F0010031
S315080025F0054203D00498C0B201F0D1FF607838B123
S31508002600306820F480503060306840F40050306004
S31508002610BDF80600C543B8F1000F08D002F0AAF8C5
S315080026208DF801008DF802A0788828407880B9F1E5
S31508002630000F08D002F04FF98DF803008DF800A0BE
S31508002640B8882840B8809DF900009DF90A1088428C
S3150800265002BF9DF801009DF8091088420BD19DF92B
S3150800266002009DF90810884202BF9DF803009DF8F4
S315080026700510884206D00399042300AAC9B20C2083
S3150800268000F0D3FD05987649086000F007FE9DF82E
S31508002690040001F00AFD02F03EFA607828B148F21B
S315080026A060703060642000F0FBFB9DF8010001F0CB
S315080026B0CDFF9DF8030002F009F907B0BDE8F08FD9
S315080026C080B501F01CF8BDE80140E4E601F017B852
S315080026D070B50646A6F10B0401F003FC0546A6F103
S315080026E00B00102801D38A2070BD5F48816809074E
S315080026F002D40068C00701D58C2070BD5448067006
S315080027005A4801680C290FD00FF27811584A92F9E5
S315080027100020A4B231F824105118C161FFF7BBFE9E
S31508002720012D08BF01F06EFB002070BD10B50446F0
S3150800273000F0E5FF2046BDE81040C9E744480078A8
S3150800274070473E4890F9000070472DE9F04104466D
S3150800275014F12B0F86B045DB464801881423FFF792
S3150800276096FEBDF810004FF6FF71884203D040046C
S3150800277048BF012606D43F2200211020FFF7E0FDBE
S315080027800546002604F12B022F2A2C483A491AD26C
S3150800279013220FF2301300E0521ED2B213F9127050
S315080027A0BC42F9DB03EB4204032764780C6000247F
S315080027B013F81210017000208046AEB1BDF8101053
S315080027C04FF6BF7229E0092C0CDA225C0A60047005
S315080027D014232A480188FFF75AFE01240320A0463D
S315080027E02827EAE78B201DE0C1024FF4605200F06B
S315080027F047F84FF4E062210200F042F880224FEADF
S31508002800C81100F03DF885F020003D18ADB2402D06
S31508002810A8BF3F253F2285F0200100F031F8FFF7D9
S31508002820B0FD002006B0BDE8F08100000C250020B0
S31508002830E81000409E2F0020641000404822002027
S31508002840763602088A3602081C1000400625002043
S3150800285044220020222400208020004080E100E05D
S3150800286000E100E0D010004060200040AC100040BD
S315080028709D2F002072360208C010004074360208E8
S315080028800B2064E5AA2129005523290000252800E4
S31508002890AA26270055282700002A2600AA2B260044
S315080028A0552D2500002F2400AA3024005532230078
S315080028B000342200AA3522005537210000392000AD
S315080028C0AA3A2000D500E601EC02EF03F204F4056B
S315080028D0F506F707F808F909FA0AFB0BFC0DFD0FD0
S315080028E0FE11FF1300160119021C031F1000110028
S315080028F02000300040004100500060007000800059
S315080029009000A000B000C000D000E000F000000079
S3150800291000000103DFF838145120086070472DE9DC
S31508002920F0410546FFF79EFCDFF82814B0FBF1F6E8
S315080029304FF4F070B0FBF6F71E2D3FB201DBE81B33
S3150800294004D5A8B2BDE8F04100F0AABA02F01EF913
S31508002950804602F021F9DFF80014DFF80024012090
S3150800296048700721DFF8F80300F041F8E91B09B2BF
S315080029707143C91C8908491EDFF8E853416000F015
S31508002980BDF8DFF8CC733C68386820F04000386042
S3150800299002F004F93C602E6002F004F902F00AF92C
S315080029A04046BDE8F04102F007B938B50546FFF7DD
S315080029B059FCDFF8A013B0FBF1F44FF4F070B0FB4C
S315080029C0F4F02D1A1E2D04DA92210FF2D83002F0F7
S315080029D0F9F8DFF88C03DFF88423072100F007F8FD
S315080029E005FB04F1C91C8908491E416031BD016017
S315080029F00021416081604FF0007111607047DFF877
S31508002A00582301215170D0E7DFF85C03006800B94C
S31508002A1070472DE9F041DFF85453DFF8546300247A
S31508002A202C6034604FF4A040706041F29A0840462A
S31508002A30FFF775FF6F68FFF71DFC000142F2107182
S31508002A40B0FBF1F000F5C870C01B00B24FF4487136
S31508002A5090FBF1F000B20828A8BF072004DA10F1AD
S31508002A60080FB8BF6FF0070030604046FFF757FF02
S31508002A7008274046FFF753FF686804197F1EF8D1F8
S31508002A80FFF7F8FB211D4001C908B0FBF1F080B241
S31508002A907060BDE8F081DFF8D002006800B97047C1
S31508002AA038B5DFF8D05201206FF00F04A8602C600B
S31508002AB08020FFF734FFE868FF2802D8641C102C32
S31508002AC0F5DB31BD70B5DFF8B002016841F00101F0
S31508002AD001600121416002F059F80446DFF884528A
S31508002AE000F00CF85120DFF8681208602E6002F03A
S31508002AF059F82046BDE8704002F05EB82E6828688E
S31508002B0040084000286002F04DB8002070472DE9C3
S31508002B10F041954C904D226840F2DC51012A8846D6
S31508002B20964E974F17DA0221B9803160B16901F0E4
S31508002B30030103295BD02168002903D5B16941F057
S31508002B400201B161FFF7E1FF5FEA00081BD12068C7
S31508002B5000284CD549E0B8884FF6FF74A0421DD12D
S31508002B608848018802237F22381D00F079FAB88840
S31508002B70A04204BF0220B880B069800703D4B069B8
S31508002B8040F00200B0610120A870B88830600FFAE2
S31508002B9088F0FFF734FF4046BDE8F081B3699B072C
S31508002BA0EDD5AB780BB10846F6E7B168B36811F016
S31508002BB0010103D10F2809D2401C06E09B0705D561
S31508002BC03B781BB1032801DB2018B880B888397018
S31508002BD00228BCBF0220B8803068B9888842D2D1A2
S31508002BE0B06900F00300032801D0FFF76BFF00204F
S31508002BF0D2E72DE9F04780460024554D594E01F09D
S31508002C00C5FF814601F0C8FF4046FFF780FF08B9B7
S31508002C1001240AE000F05DF8D5F800A000F0BCF841
S31508002C20C5F800A0376001F0BDFF01F0C3FF4846B4
S31508002C3001F0C2FF002CE2D0BDE8F0870220D8E7F9
S31508002C4010B54748444C002141608160016821F075
S31508002C5002010160002060704FF000703F49086073
S31508002C60A07838B10020A0700620FFF74EFF00F0CC
S31508002C702BF81CDBE078012814D1434801210160B8
S31508002C8042490968C90748BF03200FD40221E170E9
S31508002C90016C41F00101016404203D4908603D4989
S31508002CA0086010BDE078042801D10520E07010BD49
S31508002CB080B52948407800281CBFBDE80140FFF7C9
S31508002CC0BFBF00F0E0FE01BD274800680128704735
S31508002CD0244E3768306840084000306001F062BF13
S31508002CE02DE9F8431C4C2179207881F0010108422E
S31508002CF02AD0FFF7E9FF1FDA40F2EB310FF2A40002
S31508002D0001F060FF18E001F041FF804601F044FF42
S31508002D10E07805280BD0FFF7DBFF0D4DD5F80090BE
S31508002D2000F03AF8C5F80090376001F03BFF01F073
S31508002D3041FF404601F040FFE0780528E3D1002036
S31508002D40A0700520FFF755FF00202070BDE8F1832D
S31508002D500080004090D00300A62F002004ED00E07C
S31508002D6010E000E094ED00E0AC36020810400040A8
S31508002D700C000040084000401C4000400440004051
S31508002D80862200209636020818A000400C40004013
S31508002D9080E200E000E100E0286820F040002860BA
S31508002DA001F0FCBE636C6F636B732E63000000005A
S31508002DB010B5664C002001F0B4FE40F68C2188421E
S31508002DC02068B4BF40F0080020F00800206010BD5D
S31508002DD010B504465E48018882B000F05CF89DF89C
S31508002DE000109DF80100FF2902BFFF2804200021DA
S31508002DF004B1801C574A1368C0B20828A8BF072028
S31508002E0023F4607343EAC010106008291068A8BF4D
S31508002E100721C00841EAC00010604F48047013BD7E
S31508002E2000B54E48018883B000F035F8BDF80000BB
S31508002E304FF6FF7188420EBF4FF4E1600A2190FBFE
S31508002E40F1F0ADF800004448007808B3404801881E
S31508002E5002237F2201A800F003F99DF80500BDF8BA
S31508002E600030FF2808BF0420811CC9B20829A8BF62
S31508002E700721C1F12F0202EBD272C0F12F005210C6
S31508002E8000FB0320C1F12F01B0FBF1F0ADF8000003
S31508002E90BDF800000EBD02237F2200A800F0E0B8AE
S31508002EA070B52F4C25680646FFF7E4F92D49B0FBA7
S31508002EB0F1F070432F303021B0FBF1F0032809D32D
S31508002EC0616D41F0010161652168491B0903090B20
S31508002ED08142F9D370BD10B5040004D110BD4FF47A
S31508002EE07A70FFF7DDFF2046441E80B20028F6D12F
S31508002EF010BD704738B50C4620B101280FD00328FD
S31508002F0020D021E0184D44B1FFF7B4F91749B0FBBA
S31508002F10F1F0401EB0F5005F0CD2286012E04CB10B
S31508002F20FFF7A8F9610801EB4000B0FBF4F0B0F533
S31508002F30003F01D3202032BD0D4900F001024A604E
S31508002F4040080860002032BD212032BD00BC004088
S31508002F507836020818000040CA2F00207A36020880
S31508002F603820004090D00300100004E020A107009C
S31508002F7068C80040F0B5044689B00020FFF728FF6E
S31508002F80264801880A237F2200A800F069F8BDF8C0
S31508002F9002004FF6FF75A84204D1DC210FF2940017
S31508002FA001F010FE0FF2A407002601E02A4616B922
S31508002FB04FF47C4203E0022E08BF4EF23F0200A8FF
S31508002FC000F032F8761C052EF0D3012C03D1142319
S31508002FD07F22134802E014237F221248018803A89F
S31508002FE000F03EF800260FF26C072A4608E02A464B
S31508002FF0012E08BF4FF6C07202D0082E08BF002265
S3150800300003A800F011F8761C0A2EF0D3012C04BF91
S315080030100120FFF7DDFE09B0F0BD00007636020894
S31508003020743602087236020830F81610F05DFFF79B
S315080030308EB90000616E616C6F6775652D63656C8E
S315080030406C2D626961732E630000000000100C0D80
S315080030500E000000010203040708090A0B0F00000E
S3150800306030B5044610467F2808BF00204BF234626C
S31508003070914283B01AD108237F2240F6120100A894
S31508003080FFF7EEFF08220FF2C40100A801F0E2FEE6
S3150800309030B908237F2240F2A27100A8FFF7E0FFAB
S315080030A0082200A9204601F08BFE37BD1F4D294393
S315080030B000FB03111A46204601F082FE37BD2DE9B2
S315080030C0F0440C4619490FF2780A41EA0006C0078F
S315080030D0154602D5622100F02FF8E80702D56321CC
S315080030E000F02AF81248864204D3A819401E11494E
S315080030F0884202D3642100F01FF8002706E0B85D75
S31508003100FF2802D06B2100F017F87F1CAF42F6D3D8
S315080031106A082146304601F007FF28B15046BDE847
S31508003120F044712101F04EBDBDE8F08400000408AA
S315080031300008040800100408504601F043BD0000CA
S315080031406D66672D746F6B656E2E6300FFFFFFFF5C
S31508003150FFFFFFFF30B50FF24011DFF828510A686C
S3150800316083B001A80024026001202870002001F025
S3150800317021FF30B1002001F01DFF10B12C7049204D
S315080031803EBDDFF80401018802237F220DF102000B
S3150800319000F024F802237F22002100A800F01EF880
S315080031A0204601A9BDF8022031F81010914208BF47
S315080031B00124401C0228F4D3BDF8000024B1B0F560
S315080031C07F7F07D100203EBDB0F57F7F0CBF06206C
S315080031D0042000E00720002129703EBD10B5FF2914
S315080031E008DCDFF8A040247844B1BDE81040C9B235
S315080031F002F012BBBDE81040FFF732BF10BD10B594
S31508003200FF2908DCDFF87C4024786CB1BDE8104063
S31508003210C9B202F035BB7F2A08BF0022DFF86C402E
S31508003220214302FB0311016010BD2DE9F04105465B
S31508003230FF2D0E46174698460FF2540013DCDFF8AA
S3150800324044402178A1B1617811B1C02101F0BAFCDE
S3150800325001206070434632463946E8B202F032FE33
S315080032600020607004E0BDE8F041CB2101F0AABC63
S31508003270BDE8F08103490978002918BF02F056BF56
S3150800328070470000E22F00207E360208000004087E
S31508003290746F6B656E2E6300FE01FD0210B5DFF8D4
S315080032A044451020206301F071FCDFF83C150A68DC
S315080032B042F001020A6001F07FFCDFF8300500F1F8
S315080032C0080161602160923061688931616001217D
S315080032D02163E060A060DFF81815E0688930E060D7
S315080032E0022020634FF6FF70086010BDDFF8040562
S315080032F045F26401C1601E21416250210162C82164
S31508003300C1618165F021C16545F690014166882154
S3150800331081660621C16644F2066101604FF6FF71B7
S315080033204160DFF8D404007838B1DFF8D00448F2F9
S31508003330607101604FF4C1514160DFF8C40401684F
S3150800334041F0040101600020DFF8B81448707047A6
S315080033502DE9F047DFF894248A2101FB002101F1C9
S31508003360080909F1010104244B78097801EB0321C6
S315080033701FFA81FA00210AF44063B3F5006F054687
S315080033800AF4404708BF082403D0B3F5406F08BFC6
S315080033900E2427B15FEA4A635CBFA41CE4B2DFF8D7
S315080033A068341B78537000EB02080AF027002328BC
S315080033B088F8021067D1DFF85464706E000662D58B
S315080033C0B7F5404F04EB090003D102F0C8FF0146E8
S315080033D017E0B7F5004F14D1407814F8091001EB3F
S315080033E0002080B203F048FA0021FF2808D0DFF851
S315080033F02024126832F810004FF4FE62104200D002
S3150800340001214FF480604FF40062F9B15FEA0A7354
S315080034101CD4B7F5004F08BFA41C03D0B7F5404F1E
S3150800342001D10834E4B26308002D14BF7768376801
S315080034309F421CD3002D14BF7768376803F1010C2F
S315080034406745F7D314F80930042B10D179B1F16D1B
S31508003450C90608D4B16C05B11046014203D0706C98
S3150800346040F001007064012088F802000BE0F16D5D
S31508003470C90608D5B16C05B11046014203D0706C77
S31508003480400840007064BDE8F0872DE9F04E044618
S31508003490DFF85863DFF874538A2000FB046000F1F4
S315080034A0080B002C0CBF28686868C1B2052903DA26
S315080034B07068401C706055E040005FFA80F909EBBF
S315080034C00B00A0F108073878797801EB00201FFA7D
S315080034D080FA7078387003F0A0FA7870CD4FF86BE0
S315080034E020F48050F863686E14B93868400504D42F
S315080034F0012C1FD1386800051CD5C748017889B149
S31508003500002101701AF4E45FC448016802D0002261
S31508003510402005E09BF80100000900F001028F2019
S3150800352003F007FB002C0CBF4FF480604FF40060DB
S31508003530386012E01AF4E45F0FD100F06AFD10B1AA
S315080035405FEA4A4009D59BF80000802805DAA019E9
S3150800355049468278584603F0B5FB002C0CBF01207B
S3150800356002202861BDE8F08E2DE9F84FA04CA74E41
S315080035702068216CDFF8A8A2DFF89C82DFF86C923D
S31508003580A84F01EA00051AE040B14878C00605D4FC
S31508003590A248016800228F2003F0CBFA280605D539
S315080035A003F024FB802025F080052060E80506D579
S315080035B003F01CFB4FF4807025F480752060002D05
S315080035C068D0280706D50020FFF7C2FE082025F098
S315080035D008052060E80606D50120FFF7B9FE102089
S315080035E025F01005206005F06000602803D1B06C56
S315080035F0C0050AD401E0A80605D52020206025F0DC
S315080036002005002006E0680606D54020206025F043
S3150800361040050120FFF739FFE80410D54FF4805024
S31508003620206025F48055D7F800B0082038607868FF
S31508003630000548BF00F03CF91FFA8BF03860E80730
S31508003640ACD5012020606D0899F800006D000028AF
S31508003650A4D000F050FC0128A0D198F8000000285A
S315080036609CD09AF80000042898D1F068400800F029
S3150800367001008A2101FB00910831002814BF7268F5
S31508003680326812B92268D204F7D5002814BF7068C8
S31508003690306879E700202060BDE8F18F624800684D
S315080036A07047F0B504460D4689B00021032001F0A5
S315080036B0DBF904AE1BE0002701F0F1F926F8170044
S315080036C001F0EDF900A921F817007F1C082FF3DB9C
S315080036D004A803F089FC00202080218836F81020F1
S315080036E05140401C08282180F7DB6D1EA41CEDB252
S315080036F0002DE0D101F00FFA012009B0F0BD032139
S31508003700022001F0B1B94FF6FF71081A292190FB82
S31508003710F1F03A3040B2704738B501F0C0F9FFF71A
S31508003720F2FF424D04462878B0B90321032001F080
S315080037309BF93F48018802237F2200A8FFF790FCE7
S3150800374001F0ADF9BDF80010401880B2FFF7DBFFB5
S31508003750153868700120287001F0DDF96878201A9C
S3150800376040B232BD80B50321022001F07DF9BDE8E3
S315080037700140D1E770B52F480078002490B9FFF7CB
S31508003780F1FF204E0546707848B13078401B40B2AC
S3150800379003F033FC0B2805DB3570012402E0012019
S315080037A035707070204670BD2348007870472249EE
S315080037B00A78904200D1704780B5087040B11F4919
S315080037C0002008600848016821F08001016001BDF9
S315080037D000F09FFC00F075FC00F0DEFBBDE802403F
S315080037E000F0C2BB00200040842000404029002091
S315080037F000A000404C10004045220020D010004098
S3150800380080200040D72F002044220020202000409E
S31508003810E422002004A00040342900203C2900208E
S3150800382021240020B820004038200040D52F002051
S315080038307C36020822240020D92F0020541000408C
S3150800384010B50D48018884B00A237F2200A8FFF727
S3150800385007FCBDF800004FF6FF74A04204D14E21C4
S315080038600FF2180001F0AEF9BDF80010224600204C
S31508003870FEF76DFD1FBD000076360208616E616CAD
S315080038806F6775652D66696C7465722E6300000036
S31508003890DFF88808007848B1DFF88408017901293B
S315080038A004BF4079042801D10120704700207047E1
S315080038B0DFF87008016821F480510160DFF86808B4
S315080038C0017881B100210170DFF860180A68520892
S315080038D052000A600A6842F001020A600022816802
S315080038E0402003F026B970470FF6E4014008405C13
S315080038F07047010603D54FF67F710840C000704730
S31508003900491C800189B2B0FBF1F080B2FF288CBF58
S315080039100020C0F1FF00C0B2704738B5DFF80808CC
S31508003920C17809B1002032BDDFF80848617871B165
S31508003930E178007945182079ADB2854228BF054659
S3150800394003F074FB0121A940491E084000E000204D
S3150800395061790818C0B232BD2DE9F0470446C007A0
S3150800396005D54FF4BE710FF6580001F02BF9DFF8B4
S31508003970C857286DC00748BF8C2000F18280DFF841
S31508003980A807DFF8B07700210170417829B939789E
S3150800399019B1A96F41F0010102E0A96F4908490070
S315080039A0A967DFF87C877A7898F80610DFF88C978D
S315080039B0DFF88C6792B1002202710129286D40F068
S315080039C00400286506D14FF6FF7030604FF400708A
S315080039D0C9F80000FFF7A1FF82460CE0286D20F029
S315080039E00400012928654FF0000A04D100F047FABF
S315080039F06420FFF755FAA86F20F00800A86714207E
S31508003A00E864C5F848A0787838B198F80600002820
S31508003A1001BFA86C00280120A864B8790028286D81
S31508003A2014BF40F0080020F008002865FFF730FFB3
S31508003A3018B1306C40F008003064202028626C60B1
S31508003A402C604FF4E06468687F3068600420286260
S31508003A50DFF8F006046006E003F0F8FA18B103F0A0
S31508003A60FDFA01F093F8DFF8E006006800F00300BD
S31508003A700328F1D0C9F80040286D40F001002865F8
S31508003A800020BDE8F087DFF8C406002141608160A8
S31508003A90016821F0020101604FF00070DFF8B016EE
S31508003AA008600120DFF8AC1608707047A0F13301F2
S31508003AB0DFF8A426914200D3704710B5DFF8944684
S31508003AC000212170FEF771FF02E0012003F0CAFA17
S31508003AD020780028F9D010BD2DE9F84FDFF87C666C
S31508003AE0DFF844567068716CDFF84C7608401FFAA8
S31508003AF080F8C6F804806878002840F0DD805FEA20
S31508003B00C870DFF85C46DFF82C9653D5D7F800A0C6
S31508003B10386C796C41EA004199F80000A9600028E0
S31508003B2044D09AF80100800640D5012028704FF449
S31508003B3080503060306C40F480503064FFF7A8FE47
S31508003B40C0B31920FFF7ACF94FF44040DFF814B6BC
S31508003B50CBF82800DBF800000090E06E40F4005037
S31508003B60E066E06E40F48050E0669AF80010A868B7
S31508003B704901B83101EB000AFFF790FDAAEB0000F6
S31508003B800003000BFFF792FFE06E80098001E066F4
S31508003B9000A9E06E09880843E0660020CBF82800F3
S31508003BA048F26070E066E888206003E000220020A2
S31508003BB002F0BFFF5FEA08600CD5287830B1002014
S31508003BC028700022A968402002F0B3FF306C20F468
S31508003BD0805030645FEA486008D5687830B9FFF7E6
S31508003BE05DFD01460022892002F0A3FF5FEAC86056
S31508003BF054D5DFF82CA5DFF844B59AF80400012857
S31508003C0004BF9AF8061001291FD100F0A3FB386FEC
S31508003C1040F00100386700208AF80600FFF73EFBEF
S31508003C200A20FFF73DF94FF6FF7070604FF0000865
S31508003C304FF4E060CBF800000920B8660120B864AC
S31508003C40B86F40F00800B86718E0297999F802209B
S31508003C50491C2971C9B2914215D2012808BF00F042
S31508003C60D1F8B86F20F00800B8671420B866FFF7D7
S31508003C7054FEB8644FF40070CBF80000386D40F07D
S31508003C80010038650AE0012808BF00F0BBF8FFF715
S31508003C9005FD014600228D2002F04BFF5FEA087001
S31508003CA00AD5FFF7F5FD38B12068E88001202060C5
S31508003CB0706C20F0080070645FEA88600AD52020DE
S31508003CC03862687830B9FFF7E9FC01460022882097
S31508003CD002F02FFF687820B118F4407F04BF012056
S31508003CE0A870BDE8F18FDFF884040088704770B5C6
S31508003CF082B00446FEF7EAFCDFF87404DFF82C54B9
S31508003D00002101601521E960092101651F21416033
S31508003D1001210166DFF854040088FEF75CFBFFF713
S31508003D20E5FA03F0DDFC00F03AF9DFF8F4633089D0
S31508003D3000F062F9708900F067F900F027FF6968FA
S31508003D4041F04001696000F037FF707800F0F5F83F
S31508003D50B07800F009F9DFF81C04007800F036F9AD
S31508003D60DFF8140490F90000FEF7EFFC307800F055
S31508003D709CF996F9030000F0A4F9DFF8000400F0B6
S31508003D80C2F9BDF80000DFF8F813C0054CBF0020E3
S31508003D90BDF800000870DFF8EC030078FEF798FC21
S31508003DA028B10FF21C4040F2B23100F00BFF012C93
S31508003DB005D12868C00711D500F024F80EE06CB9C3
S31508003DC02868C0070AD400F0C5FA286840F0010040
S31508003DD02860C820FFF764F80020B071F120DFF8EA
S31508003DE06043206440F2F910E063FFF757FA286849
S31508003DF0C00704D54FF6FF70206000F06DF8FEF797
S31508003E006FFF73BD70B5DFF88053DFF814432E6873
S31508003E10A079012832D000F0B9FE48F2D001296015
S31508003E206A68520509D548F222022A606A68D205EC
S31508003E30F5D529606A685207F1D4B6B2DFF80423CB
S31508003E402E604FF4E0611160DFF81C130A6A52080D
S31508003E5052000A620A68520852000A600A6842F06A
S31508003E6002020A604A6A42F001024A620121A1710D
S31508003E7000F0A2FEBDE8704000F032BA70BD70B521
S31508003E80A74CA07938B300F065FA00F07FFE054626
S31508003E90DFF8F812A64E01200860306D40F00100E8
S31508003EA030650020A071FFF7F9F920203060306BEB
S31508003EB040F002003063F06D40F00800F0652846D7
S31508003EC000F07AFE0A20FEF7EBFF9D494FF6FF70D9
S31508003ED0086000F001F870BD4FF4E060974908608B
S31508003EE070478F48807970478D480079012808BF48
S31508003EF0FFF788BF70478A480079704780B502285F
S31508003F0001DB012002BD864908718979884205D0FE
S31508003F1010B9FFF7B4FF01E0FFF774FF002002BDF8
S31508003F209B480068800200149A3801B211F1800F8C
S31508003F30B8BF6FF07F0040B2704710B5044600F076
S31508003F4025FE94490A68002C04D042F012020A6041
S31508003F50012103E022F012020A600021704A517022
S31508003F6043E06F484078704738B5044600F00EFEC7
S31508003F700546FFF719FC40B986480168002C14BFAE
S31508003F8041F0800121F0800101606548847028466F
S31508003F90BDE8324000F010BE6148807870477E491F
S31508003FA04A780B787D4803EB022202608B78CA7840
S31508003FB003EB022242600B794A7903EB0222826004
S31508003FC0CA79897901EB0221C160704710B50446A8
S31508003FD000F0DCFD6F490A68002C14BF42F020028D
S31508003FE022F020020A6063490C70BDE8104000F018
S31508003FF0E3BD4B480089704749490881684908600C
S31508004000704747484089704745494881654908606F
S3150800401070476548007870475348816A41F0020145
S3150800402081620121016070474F4800210160816A61
S3150800403021F0020181625020FEF732BF38B55B4C91
S315080040405B4821695B4D0180E1694180E96C8180AB
S3150800405000202061FFF7E0FF0120E0610020606298
S3150800406020624CF25D00E864286840F4004028604D
S315080040704FF40040206048F20200206031BD80B550
S31508004080FFF7D2FF49484FF4004101600021016063
S3150800409048490A6822F400420A60454A9388CB6474
S315080040A0118801615188C16101BD20490A6800284B
S315080040B014BF42F0020222F002020A601849087090
S315080040C0704738B504467F2C0AD13B4800F01BF8E8
S315080040D0BDF80000C00554BFBDF800406FF04A04A3
S315080040E000F054FD0546FFF75FFB30B964B204F1F2
S315080040F09A0080053149000C08600948C4702846B2
S3150800410000F05AFD31BD018802237F2200A8FEF780
S31508004110A7BF034890F9030070470000D32F00207B
S315080041201C24002040A000403429002080200040A4
S3150800413030200040CC2400201020004000E100E0A0
S3150800414004A0004080E100E0A820004010E000E064
S3150800415004ED00E0D42F0020CDFF070000A00040AA
S3150800416064100040E4100040602000405422002003
S315080041705C100040D22F0020482200209836020802
S315080041809D2F0020442200201C10004028100040CB
S315080041900C10004084200040902800209820004001
S315080041A094200040902000401B2400201810004056
S315080041B0882F0020C01000409C360208541000408A
S315080041C07068792D636F6D6D6F6E2E630000000049
S315080041D0FEF7C80138B50120FEF799FC0020FEF766
S315080041E0F7FDDFF83C43206840F008002060FEF742
S315080041F048F8FEF7DDFD00F01EF88D78DFF8243369
S31508004200DD600D8905604D89456000F01FF820685E
S3150800421020F010002060FDF7EFFF03F0C7FBFEF764
S315080042200DFDFEF72CF8BDE83140FEF748B840F220
S31508004230016003F033BCDFF8F012DFF8F0020A7809
S31508004240C2604B78DFF8E822D3607047888910602F
S31508004250C8895060088A1860488A586040E0F0B5F6
S315080042600B68B14C0F25246A960005FA06F6344207
S3150800427015D0002606EB820724FA07F7FF070BD5A9
S31508004280B70005FA07FC23EA0C0330F812C005FA52
S3150800429007F707EA0C073B43761C042EEADB0B609C
S315080042A0F0BDF0B50B68A04CFF25246AD600B540D2
S315080042B02C4213D00025012605EBC20724FA07F77E
S315080042C0FF0708D506FA05F7BB43175C06FA05FC8F
S315080042D00CEA07073B436D1C082DEDDB0B60F0BDB0
S315080042E010B59548017801F0FD010170C80703D59E
S315080042F092494FF4004008608B4C206A002825D06C
S3150800430000228F49201DFFF7CCFF01228D49201D71
S31508004310FFF7C7FF02228C49201DFFF7C2FF0022C4
S31508004320824900F014F80122824900F010F80222AE
S315080043307F4900F00CF80322844900F008F80422AB
S31508004340784900F004F804F1140041E010BD04F1C6
S31508004350140084E710B57848017841F0020101702D
S31508004360C80707D575484FF40044046000F05EF8A6
S31508004370774804606C4C206A002825D000227049D2
S315080043802046FFF78EFF01226E492046FFF789FF78
S3150800439002226D492046FFF784FF0022634900F098
S315080043A014F80122634900F010F80222604900F06F
S315080043B00CF80322654900F008F80422594900F070
S315080043C004F804F1080003E010BD04F1080046E70C
S315080043D0BDE8104005225F4941E70320FEF74ABFC2
S315080043E010B503F06CFC044603F06DFCC0B208B9C6
S315080043F0012C07D1072C11D8DFE804F004100608B1
S31508004400080A0C0E002010BD092010BD022010BDA0
S31508004410032010BD0B2010BD062010BD44F08000FF
S3150800442010BD4548007800F00100704742494A48E7
S315080044300978C9070BD54FF40041C160082101600E
S3150800444046480068800900F00100FFF7B0B9082166
S31508004450016070472DE9F041DFF8DC803E4F0546E4
S3150800446098F8000000F0010129434FF4004406D0F3
S315080044700021B96531490C6008213960FC6000F0FB
S31508004480FE00284388F8000000F080FB002D294E26
S315080044902549326822F4706214D042F40062326010
S315080044A0B26822F04002B260082200F061F802F019
S315080044B0BF020A70082200F055F802F0BF020A711E
S315080044C0602113E042F480723260B26842F0400222
S315080044D0B260012200F04CF842F040020A70012254
S315080044E000F040F842F040020A710021B965062141
S315080044F01B4A116000F060FB65B198F80000800760
S315080045000BD57068800900F00100FFF750F91048D4
S31508004510046002E00020FFF74AF90020BDE8F081B8
S3150800452000BC004000B80040B023002000B00040A6
S3150800453000B4004004B00040CC2F002080E100E029
S315080045400CB000400CB400400CB8004004B4004065
S3150800455000E100E004B8004014A8004008B000409C
S3150800456018BC0040CB8A62F30B230A79CB827047CA
S315080045704B8962F30B230A784B8170472A490A68EC
S31508004580920992010A600A68104308604FF40041D4
S3150800459026480160002101606420FEF781BC2DE9F0
S315080045A0F047234D204FD5F80090224C80462868C6
S315080045B040F400402860386820F48050386020783D
S315080045C068B162781C48A17800EB820200EB88008B
S315080045D012F82A2C10F82A0C891A461802E001202B
S315080045E020262070B0B2FFF7C9FF0FF2500A02E08A
S315080045F0B0B2FFF7C3FF386B042805D0386B400705
S3150800460054BF761E761CF3E7F86A38B184F8018041
S31508004610A6701FFA89F02860BDE8F08740F22111DC
S31508004620504600F0CFFAE6E7D010004018100040D8
S315080046301C1000401527002084280008616E616C54
S315080046406F6775652D76636F2E63000081014FF4E1
S31508004650FE5289B20C20FDF77ABE2DE9F84F8F4C31
S31508004660A56820680127ADB200264FF00A08B946AA
S315080046701FFA80FA00F04FFAB0202063DFF820B264
S3150800468008E016F1190FB8BF4FF00A08464436B2CB
S315080046907019A060DBF80000000702D559EA070088
S315080046A028D00120FEF7FCFBB9F1000F11D0AAF1C2
S315080046B00300874202DAF81C87B213E00AF50040C5
S315080046C0206057460621092000F0CEF94FF0000970
S315080046D00BE0DBF80000000707D5042FA6BFF81E7D
S315080046E087B2002707F5004020601A2EC9DB6FF055
S315080046F00908CBE7A560C4F800A00820CBF800009D
S315080047006848006880B2BDE8F28F80B5624B66499A
S315080047101B784FF0FF326BB1002819BF4A60634817
S31508004720486041F211100860614841880088BDE878
S31508004730044092E7002819BF4A600A60486008608A
S3150800474000F0E9F9BDE804400621092000F0DDB9CA
S3150800475038B50120FFF7D9FF04460020FFF7D5FF3B
S3150800476005460120FFF7D1FF4042001B00EB45003C
S3150800477000B232BD2DE9FE4F4E4CDFF83C81A06AEF
S31508004780454EADF802002568D8F800B0307860B11B
S315080047904FF6FF7200210820FDF7D2FDADF80000A4
S315080047A0C022C0210820FDF7D2FD4448DFF8109149
S315080047B0007818B148F26070C9F80000708840F4B3
S315080047C0404040F04C00C9F83C000220A06201209D
S315080047D0206040F24C40FEF763FB0120C8F80C004D
S315080047E0C8F800000020324F3880402078803078A2
S315080047F000B12020FFF72AFFFFF7AAFF82464020D4
S3150800480038807F207880FFF721FFFFF7A1FF02900D
S31508004810504602F0F2FBFE2101FB00F70298AAEBD4
S3150800482000000190307860B1029802F0E6FB8246FB
S31508004830019802F0E2FB80B207EB8A11B1FBF0F0B7
S3150800484005E0019802F0D9FB80B2B7FBF0F080B220
S31508004850401CC7031FFA8BF0C8F80000ADB2002051
S31508004860C8F80C00022020602560BDF80200A0628E
S315080048700020C9F83C00307830B1BDF800104FF67A
S31508004880FF720820FDF763FD40F24C40FEF708FB77
S31508004890380CBDE8FE8F000040220020C010004002
S315080048A018A000400070004038100040EEEEFFFFF0
S315080048B0F42E0020602000402810004045220020E9
S315080048C0D010004041003F2289B201E001463F2254
S315080048D00220FDF73CBD2DE9F04F564C564D95B0DC
S315080048E0E06CADF810004FF6FF782068ADF80E00C2
S315080048F04246E86AADF80C0000210120FDF720FDCC
S31508004900ADF80A00424600210B20FDF719FDADF867
S3150800491008004FF40040206000202861686148F2D2
S31508004920020000F08BF84CF68C30E0644FF48052AD
S3150800493048F2F000E86211460120FDF708FD4246FC
S3150800494000210B20FDF703FD0621062000F0DDF807
S31508004950019000F085F800904CF69C30E064002049
S31508004960FFF7B0FF0621084600F07EF800260DF195
S31508004970140BB0B2FFF7A6FF0621062000F074F864
S3150800498000F08DF82BF81600761C202EF1DB00F0CF
S3150800499086F81020FFF796FF00F062F80099019A52
S315080049A0401ABBF82010891A404301FB01094FF051
S315080049B0100A112700F04EF800F052F800F043F8FC
S315080049C006DB81461FFA87FA781C07B2202FF1DB2F
S315080049D0BAF1100F0ED10F2700F03CF800F040F89E
S315080049E000F031F806DB81461FFA87FA781E07B20F
S315080049F0002FF1D5BDF81000E0644246BDF80E0060
S31508004A002060BDF80C00E8620120BDF80A10FDF729
S31508004A109EFCBDF8081042460B20FDF798FC0120C5
S31508004A202861002000F00AF84FEA4A00C0B215B023
S31508004A30BDE8F08FC010004018100040286040F212
S31508004A404C40FEF72DBA0099401A404306FB060073
S31508004A50484570473BF817000199461AB8B231E73E
S31508004A600621072000F051B870B505460E4600F03D
S31508004A7093F83F4C206C20F00800206400F09AF868
S31508004A8000F084F8310341EAC5113A4A41F00101C0
S31508004A90116008212160BDE8704000F08DB82DE94D
S31508004AA0F041354C354D324E25E000F075F8344965
S31508004AB004200860306C40F0080030642F682868CD
S31508004AC040084000286000F06DF8D4F8008020689F
S31508004AD020F04000206000F061F8C4F800802F60E4
S31508004AE000F060F8306C274920F008003064042094
S31508004AF0086000F05FF830680007D6D508203060F7
S31508004B002148006880B2BDE8F08180B5FFF7ACFFA8
S31508004B10BDE80140C3E71748016849084900016034
S31508004B207047F8B50746FEF77BF904463946032071
S31508004B30FFF7EBFF054639460120FFF7E6FF064675
S31508004B40FDF7FDFB39460020FFF7DFFF0746FDF7B7
S31508004B50F5FB08480168490849000160781B00040C
S31508004B60711BB0FBF1F060434000000CF2BD000081
S31508004B7018A00040047000400080004094ED00E05A
S31508004B8000E100E080E200E000700040EFF31180F1
S31508004B90602181F31188704772B6704700BF30BF35
S31508004BA000BF7047BFF35F8FBFF34F8FBFF36F8FA1
S31508004BB07047000062B6704780F31188704700009E
S31508004BC042DE704738B504460D46FDF763FBFFF72E
S31508004BD0DDFF2946204603F0ACF82B4622460FF2A5
S31508004BE0CC11012003F0EBFA29462046BDE83440F3
S31508004BF0E6E72DE9F84F6548654D01682E1D4FF427
S31508004C00206A7165016AB16562490968F165416A98
S31508004C103166816A7166C16AB166016BF166806B3D
S31508004C20306796F8340040074CBFF76BB76BBB4646
S31508004C3002F0D3FF0022584CDFF86081DFF860915C
S31508004C40F2648742014624BFA4F12003BB423165C2
S31508004C501DD357F8180F306457F8040F7064706D39
S31508004C60C005C00D062815D1306C484512D34045FD
S31508004C7010D200884DF6426290420BD105F18C00A5
S31508004C806A68426040F2017A7268826002E03264C1
S31508004C90726483464348814202D2014600E0091DF8
S31508004CA0A14203D20B68B3F1CD3FF8D0601AB064C5
S31508004CB0182105F1780003F0C1FA002003E0C0B21C
S31508004CC005EB80029167A34523D254F8041D494594
S31508004CD0F9D34145F7D2CA07F5D5002205EB820379
S31508004CE09B6F8B4203D0521CD2B2062AF6DB062AE9
S31508004CF0E9D1002814BF401E0520E0E7716F0022A5
S31508004D0005EB8203521CDF6F9F67052AF8DBC5F89F
S31508004D108C100146481EC9B20029EFD1706DC00536
S31508004D20C00D02280AD0032815D0042816D0052855
S31508004D3017D0062818D00C281CD01EE01A4801687F
S31508004D40890748BF40F6021A1CD40068C00719D55F
S31508004D5040F2025A16E040F6012A13E040F6022A0B
S31508004D6010E040F6032A0DE0BAF5206F0AD140F6A6
S31508004D70042A07E040F6052A04E018B1242838BFBB
S31508004D8040F6072A5046BDE8F28F000004ED00E021
S31508004D900000002000E300E04022002070360208F0
S31508004DA090210008980000201CA000400D0A5B41D5
S31508004DB053534552543A25703A25645D0D0A00004E
S31508004DC0814233D210185118401E491E10E011F8BE
S31508004DD0013900F80139121F11F8013900F80139B3
S31508004DE011F8013900F8013911F8013900F80139CB
S31508004DF092B2042AEBDA92B2002A1EBF11F80139E0
S31508004E0000F80139521EF6D1704711F8013B00F837
S31508004E10013B121F11F8013B00F8013B11F8013B59
S31508004E2000F8013B11F8013B00F8013B92B2042A55
S31508004E30EBDA92B2002A1EBF11F8013B00F8013BDB
S31508004E40521EF6D17047130003D00A46194603F0DE
S31508004E50F9B9704710B500E0521E92B222B100F0BF
S31508004E6012F8F9D0181B10BD002010BD10B500E0CF
S31508004E70521E92B22AB100F006F8F9D0181B40B2B9
S31508004E8010BD002010BD10F8013B11F8014BA342DC
S31508004E90704700004148018A40F6A772914202BF56
S31508004EA0408A4FF47F41084203D1022801DB0120E2
S31508004EB07047002070472DE9F84F82468846FFF76D
S31508004EC065FE374D2F68044628684008400028606C
S31508004ED0FFF768FE0120DFF8C0B08BF80000FFF787
S31508004EE0D9FF20B9FE210FF2BC00FFF76BFE2B4855
S31508004EF0D0F8289041464AF48070C84706462F6085
S31508004F00FFF750FE2046FFF757FE00208BF80000FB
S31508004F100FF298040EB1305D04E041464AF4007081
S31508004F20C847005DBDE8F28F2DE9F84F80468946EF
S31508004F304FEA420AFFF72AFE194E376805463068D7
S31508004F40400840003060FFF72DFEFFF7A3FF28B9A1
S31508004F5040F241110FF24C00FFF734FE0F48D0F82B
S31508004F6024B00023524649464046D847044637608F
S31508004F70FFF718FE2846FFF71FFE0FF230050CB1A3
S31508004F80605D05E05346002249464046D847405DE5
S31508004F90BDE8F28F00000000C32F002000000408BF
S31508004FA094ED00E0666C6173682E630000020202ED
S31508004FB04B4B46472DE9F84F8046DFF880A00AF5A7
S31508004FC0AC70222500902222FF21FFF73CFF4FF408
S31508004FD0AB72FF215046FFF736FF0027184CDFF863
S31508004FE06490194EB85D17F809B0395D401C00EB9E
S31508004FF0D070401001B11930C01C00FB0BF21348E9
S3150800500030F817100FF2480003F053F9BBF1010FFF
S315080050101CBF2AF817505D447F1C222FE2DB0FF2D3
S315080050204C0022234FF4805240F28B6103F041F981
S3150800503000994046BDE8F44F00F038BB002D00202B
S315080050408C370208D4370208B037020848370208F6
S3150800505043726561746F723A2030782532582C2075
S31508005060576F7264733A2025640A000053696D45C8
S315080050704520646174613A20256420776F726473F1
S31508005080206F66202564206D61782C20746F6B650F
S315080050906E436F756E743A2025640A0010B5DFF802
S315080050A0044CDFF8043C2488001B03EB4000002373
S315080050B004E030F8134021F813405B1C9342F8DBF8
S315080050C0002010BDDFF8DC2BDFF8DC1B1288801A05
S315080050D001EB40010220FFF7EEBEF8B504460F4685
S315080050E01546DFF8C46BEDB205B34FF6FF70ADF8A1
S315080050F0000000AA002017F8011B8154401C6D1EF1
S31508005100C0B2022802DAEDB2002DF4D1DFF8940B12
S315080051100088A4B2201A012200A906EB4000FFF776
S3150800512003FF641C0028DED000F0EFBB0120F2BDAF
S3150800513070B582B004460D461646F6B27EB100F04A
S31508005140D1FF641C002000A9761E415C05F8011BEE
S31508005150401CC0B20228F0DAF6B2002EF3D173BDB5
S31508005160DFF8481BDFF8482B415C825CDFF8443DDA
S31508005170C05C10B102F5997292B241EAC21080B2CF
S31508005180704710B5DFF8643CDFF8204B03EB4002AC
S31508005190005D012801D1104610BD1088081803EBE0
S315080051A0400010BD30B591B004460D4604E0401CE1
S315080051B080B220280BDB2034A4B2A54211D32022CA
S315080051C000A92046FFF76AFF00204FF6FF7200A9E4
S315080051D031F810109142EAD02046FFF773FF203CC1
S315080051E0E9E711B030BD10B5044661882088FFF79D
S315080051F0D9FFDFF8FC1B0120A07109782088081860
S31508005200DFF8B41C098800EB4100801DA08010BDA2
S3150800521010B5DFF8E04B00F08AF800F050F900F01E
S315080052204BF9DFF8980C446004F10801816004F139
S315080052301001C16010BD2DE9F0460446DFF8B00B39
S3150800524005782E46072E85B003DB40F2CA2100F00A
S3150800525013FB0020A0716A1C208892B201A9FFF7EF
S315080052601DFFBDF804004FF6FF7A504518BF002809
S3150800527058D00DF10409AAEB000039F8161081423E
S3150800528050D1012705E0BDF8041088424AD1781CA0
S31508005290C7B2B74214DA39F817000028F3D1DFF895
S315080052A0201C20880A8807FB02214118514407FB65
S315080052B0020089B280B2FFF775FF0220A071E6E707
S315080052C0A079022830D020882818C01C00F0E4FEF7
S315080052D0BDF80000000BA84224D120882818401DDC
S315080052E000F0DAFEBDF80010BDF80000C1F1FF01BC
S315080052F0000AC9B2884215D10320A071012220886C
S315080053002818401C0DF1020180B2FFF7C7FEBDF850
S315080053100200FF2802D10420A07105E0504518BFFD
S31508005320002801D000F003F805B0BDE8F086204655
S3150800533059E770B5DFF8BC4ADFF8805B0020A0713A
S31508005340A073A07582B004F10800A8606C6004F12F
S315080053501000E8602046FFF76EFF04F10800FFF72B
S315080053606AFF04F11000FFF766FFA179A07BDFF85A
S315080053703869042908D100210428ADF800102CD179
S31508005380FFF746FF012076BDA17D042812D1002033
S315080053900429ADF80000F3D0FFF7C9FF00F08CF838
S315080053A0DFF84C3A208900F08DF8060026D1032054
S315080053B0A07334E0042929D10020ADF80000FFF7D6
S315080053C0B6FF00F07CF8DFF8283A208A00F07AF871
S315080053D0060013D10320A07518E0A07D0428CFD0BD
S315080053E000F06DF800F068F8DFF8043A208800F05D
S315080053F069F8060002D10320A0710AE0304602F0DF
S31508005400D0FF1EB140F2BE3100F036FAA07903286B
S3150800541005D1A07B012804BFA07D012843D0A0792F
S31508005420032801BFA17B0329A17D01293BD00228BE
S3150800543001BFA17B0329A17D01290DD0012801BF48
S31508005440A17B0329A17D012906D0012801BFA17BE3
S315080054500329A17D032904D104F1080004F11001F0
S3150800546025E0012801BFA17B0229A17D03290DD0D2
S31508005470012801BFA17B0129A17D032906D00328A4
S3150800548001BFA17B0129A17D032904D104F11000E4
S31508005490214608340BE0032801BFA07B0128A07D24
S315080054A002287FF46DAF204604F1080110346860C5
S315080054B0EC60A960002076BD04F1100093E604F1C3
S315080054C0080090E61B781818DFF8D8371B88401CA8
S315080054D0C01A012200A906EB4000FFF725BD2DE9F9
S315080054E0F04F0446DFF80809007885B00D46ADF898
S315080054F00C0001222088BDF80C100818461D0DF175
S315080055000201B0B2FFF7CAFDBDF80200DFF8149C2D
S31508005510DFF814AC000AADF80200761CDFF898092B
S31508005520B0F80080BDF8020040451CBF0120287075
S3150800553000271BE0401CC1B2414515D2C0B28346C4
S315080055403AF81B10BDF80A209142F3D1FFF708FE7E
S315080055504FF680710840BDF808104FF6807211406A
S31508005560884208BF0BF80970781C87B2BDF802009C
S31508005570874207DA022202A9B0B2FFF78FFDB61CEE
S315080055800020D8E7002101E0491C89B2414509DA23
S3150800559011F809008842F7D00120287002E022F8A5
S315080055A0176006466088C01EB6B2B0424FF6FF7A4C
S315080055B069DBFF2700F076F8BDF80000504562D099
S315080055C0701C01220DF1060180B2FFF767FDBDF8D8
S315080055D00010BDF80600AAEB010188425FD1BDF8AC
S315080055E00010BDF8000001F07F0ABDF80210F61C95
S315080055F0000A884253DA002101E0491C89B2414574
S3150800560004DA11F809208242F7D1CFB22388BDF80F
S315080056100CC0634403EB4000801D00F038FDBDF864
S3150800562004006188C0F3C710401C00EBD07006EB7D
S31508005630600080B2814232D3FF2FB2D0DFF8181C47
S31508005640795CBAF17F0F0CBF002252468A4208DA0B
S31508005650BDF80020DFF85C38FB5C1206D20F9A42D0
S3150800566002D0012129709CE70129DFF8F02B96D09A
S31508005670BAF17F0F32F8171008BF4FF0000A5144ED
S3150800568022F811608DE7A6806088B6B2B04208D3CA
S3150800569000F008F8BDF80000761C5045F4D001204B
S315080056A02870FEE1012200A93046F7E4F8B58DF826
S315080056B00000DFF8AC1BDFF8EC050288DFF83407DA
S315080056C00988DFF82C37DFF8F4471E78DFF8943BB3
S315080056D01B8841800280B218DFF8DC170D884381E9
S315080056E002EB4502921D828000228271DFF8783B28
S315080056F0DFF8782B12881B8802814382B21802EBE6
S315080057004502921D828100228273DFF8642B12887B
S315080057100282B21802EB4501891D8182002181753A
S3150800572002F0F7FF00284FD1FFF703FE9DF800109F
S3150800573008438DF800000122606800883018801C34
S31508005740A11C80B2FFF7AAFC9DF8000000283ED1F4
S31508005750606800A9FFF7C3FEDFF8180BDFF88C7640
S315080057600688A0688179032922D100A9FFF7B7FE28
S315080057706168DFF8E42A002010E0A84202DA835CB8
S31508005780012B09D137F81030B1F800C0634524BFA2
S31508005790B1F802C09C450BD2401C80B2B042ECDB8B
S315080057A002208871A16860686160E168A160E060B4
S315080057B000204FF6FF7201E0401C80B2B04206DAC4
S315080057C037F810109142F7D101208DF80000607863
S315080057D028B101208DF800000020607002E09DF8D5
S315080057E00000B8B14D2002F0DCFD6088401C6080E6
S315080057F0E068FFF7F8FC9DF8000000F052F838B1B1
S3150800580000F087F820B19DF8000000F059FA08B9B1
S315080058100120F2BD0020F2BDF8B50D46DFF8981656
S31508005820098817467F2F08BF002704468D423EBFCA
S31508005830DFF87804285C87421E4605D2DFF8700434
S31508005840285C864200D11CB940F2296100F014F8A0
S3150800585039462846FFF795FCDFF8201A0088695C68
S3150800586029B10146284600F042FC2060F1BD3246C7
S315080058702146BDE8F8405BE40FF63020FFF7A2B9F1
S3150800588010B5044608461146FFF77BFCDFF81424DA
S3150800589000881288DFF8E819801A01EB40002060BA
S315080058A010BDF8B5DFF81416DFF8FC43DFF87858B2
S315080058B0002814BFC8688868DFF834150088097896
S315080058C00818861DB6B2002703E0B61C7F1CB6B2C0
S315080058D0BFB200F087FA874215DAF8B2FFF740FC44
S315080058E0ADF80000022235F81700DFF898391B8852
S315080058F0ADF8020000A9F01A04EB4000FFF714FB0C
S315080059000028E2D001E00120F2BD02F04AFD0020A5
S31508005910F2BD2DE9F04FDFF8A005DFF8D4140088B2
S315080059200978DFF8849385B00024ADF80C00DFF819
S315080059308C05C06800880818BDF80C1000EB4100FB
S31508005940801D86B201E0641CA4B2BDF80C00844236
S3150800595080F29E804FF0000B5CE000F052FAADF842
S315080059600600711CCF480588701B8EB2BDF8001062
S315080059704FF6FF72914209EB400016D100F09AF8F3
S3150800598000281CD100F09BF8002818D1B01C86B25C
S31508005990C7483E80225CDFF8F00850F824103046ED
S315080059A0FFF79BFB00282ED17BE0C149615C491CAF
S315080059B001EBD1714FEAC15A00F07CF800286DD18D
S315080059C000F07DF8002869D1B11C8EB2B8F1000F3D
S315080059D03E8040D00290DFF8E404007828B102AA9D
S315080059E000A9204602F0BDFE05E0BDF80010E0B2B1
S315080059F000F07DFB0290701B4FEA1A6202A900F0C4
S31508005A00FCF900284AD1DFF88408205C801986B2A0
S31508005A100BF1010BA548255C5FFA8BFBAB4592D2CF
S31508005A205946E0B2FFF7ADFB0746012D3888ADF8B9
S31508005A300000DFF8800414F800804FEAC81040EA36
S31508005A400420ADF80200BDF802000CBF40F07F004C
S31508005A504BEA000081E700270AE000F025F8FFF787
S31508005A601DFBB819401B012200F0C6F9B0B97F1C0E
S31508005A70FFB2B7EB1A6FC6DADFF8400400780028E1
S31508005A80BDF80000E9D000F00FF802F0E5FCE8E701
S31508005A90DFF82804C0688680012002E002F081FC55
S31508005AA0002005B0BDE8F08F411CADF800100122BA
S31508005AB001A9704701220DF10201FFF735BA701BE3
S31508005AC001220DF1060109EB4000FFF72DBA2DE979
S31508005AD0F64F8046DFF8B407DFF8B4371B6885B0A1
S31508005AE0085CDFF8B017098801900C264A0891FB74
S31508005AF0F6F6B618B3424FF0000928BF001808D2C8
S31508005B00182691FBF6F1511A8B4203D300EB50008D
S31508005B1080B201900026DFF8607701E0761CB6B205
S31508005B2000F060F9864280F2AD80002441E001224F
S31508005B300DF102011FFA8BF0FFF7B0FABB68DFF828
S31508005B4064C19B88BCF800C05748EB18A3EB0C034C
S31508005B500BF1010B4A4600F0ADF8002816D16D1C72
S31508005B600498EDB28542E2DBBDF80010BB684FF63B
S31508005B70FF70401AADF8020001224A489B88058842
S31508005B8049489B1E5B1B00F095F8002872D1BB683C
S31508005B9045489B88DB1E5B1B012200F047FB00285B
S31508005BA068D1B868039A81881180818851448180B8
S31508005BB0641CE4B23D48355CAC42AFD22146F0B233
S31508005BC0FFF7DFFA0390B0F800B03948305C401CA4
S31508005BD000EBD070C005000E0490BDF81400864294
S31508005BE004BF9DF818008442E2D0786801888B4586
S31508005BF024BF40885845DBD301981FFA88F880B23D
S31508005C0080454BD2DFF8840616F800A0B86882886B
S31508005C1041885244D21C914203DA0120787045200B
S31508005C2028E0A449715CCA0142EA0622ADF80020C0
S31508005C30012DBDF800200CBF42F07F022243ADF8CB
S31508005C400020D0448288D21C4FF001098280B9B165
S31508005C505946F0B200F04BFABB68124D049A02900E
S31508005C609B882D8810485B1B02A900F025F80028A0
S31508005C703FF47AAF02F095FB002007B0BDE8F08F3D
S31508005C8000256DE7B9F1000F08D1796802208871FF
S31508005C90B96878687960F968B960F8600120ECE756
S31508005CA0000000000E37020800700208D437020808
S31508005CB0B03702080DF1020100EB4300FFF734B9D3
S31508005CC02DE9F04F83B05FEA0008DFF8AC55DFF83E
S31508005CD0B09514BFE868A8680122B0F800B000F0D3
S31508005CE081F8C0F1FF01C9B241EA0020ADF8000011
S31508005CF000A93F480678DFF88C05048806EB0B07F1
S31508005D00781D001B00F079F8002846D140F612707D
S31508005D1040EA0630ADF800000122F81C001B00A975
S31508005D2000F06BF8002838D1B81C001B0122A91C0A
S31508005D3009EB4000FFF7F8F800282ED1781C001B65
S31508005D40B8F1000F09EB400A03D0FF2000F061F814
S31508005D5018BB6868008801220DF10201FFF79EF959
S31508005D60BDF8020001280CBF4FF6FE70401E00F079
S31508005D7048F8ADF804000122381B00F03DF860B978
S31508005D80731E7EB19EB206EB0B00001B01220DF1BD
S31508005D90020100F032F80028F2D002F002FB0020DF
S31508005DA0BDE8FE8FB8F1000F17D0E96803208871A7
S31508005DB06868FFF718FAA868FFF715FAA968EA6885
S31508005DC06868AA60E860A860696000206A60E9609F
S31508005DD000F01FF80028E0D102E0A96803208871C6
S31508005DE00120DDE73448008870470000002D0020B8
S31508005DF00C3702088C24002001A909EB4000FFF7A4
S31508005E0093B8ADF802004FF6FF70BDF80210401ABD
S31508005E107047ADF80000012200A95046FFF784B884
S31508005E20F8B50446DFF8640482B00D5CA088134612
S31508005E3062882E18F61CB24205DADFF83C140120F7
S31508005E404870452031E0C01CDFF84C24A08080B2A1
S31508005E508A5C1946FFF741F950B3DFF82804DFF8E2
S31508005E6020740688A088C01E801B012202A907EBA1
S31508005E704000FFF759F8C0B9BDF808104FF6FF7093
S31508005E80401AADF800000122A088801E801B00A9D8
S31508005E9007EB4000FFF748F838B90899A08808804A
S31508005EA0A0882818A0800120FEBD02F07AFA0020FA
S31508005EB0FEBD00008C3702081A370208F02C0020B5
S31508005EC00A3702082DE9F84F84B0044688469146F9
S31508005ED00127FCF7DFF9FFF785FFADF80600B9F1F2
S31508005EE07F0F08BF4FF0000984423EBFDFF8680302
S31508005EF0205C814509D2DFF8A0139DF81000615C8B
S31508005F00884202D1B8F1000F03D140F69601FFF797
S31508005F10B3FC012549462046FFF733F90646DFF864
S31508005F207C03B6F800A0817902291FBF817B02296C
S31508005F30807D022802D1432002F033FACF48205C44
S31508005F4070B35146204600F0D2F8D8F800108142C6
S31508005F5052D0AAF1030000F09AF8C74DCB4B6868F7
S31508005F604288E35C8188D21ED21A8A4207DB31B1A5
S31508005F70A9680A889245A4BF4988514575DBE8682F
S31508005F80D5F808A08079022837D1442002F009FA0A
S31508005F90E8688079012830D0452002F002FA53E0FB
S31508005FA09DF8100002904FF0000B20E00BEBDB7021
S31508005FB00AEB600000F070F80BEB08001BF80810FD
S31508005FC0407801EB00200299491E8B4580B205D125
S31508005FD0BDF80010C9B2C0B2ADF80010BDF8001087
S31508005FE088420BF1020018BF00255FFA80FB029871
S31508005FF08345DBDB002DACD042E0A8688179012916
S3150800600014D10020FFF74DFC002839D00020FFF7F7
S3150800601057FE002834D0A248BDF80630007800EBB9
S315080060204300C01D4A46214680B204E0032911D127
S315080060304A4621460020FFF74AFD28B100F021F81C
S315080060405046FFF7EDFED8B93846471EC0B20028BD
S3150800605014D115E00FF2542002290CBF40F6861120
S3150800606040F68911FEF7AEFD0AE000F00AF8FFF7E0
S31508006070D7FE28B93846471EC0B200287FF449AF74
S315080060800FE500964246BDF80430214670470122C6
S3150800609001A980B2FFF702B8012200A980B2FEF773
S315080060A0FDBF70B582B004460025192600F01AF81F
S315080060B0BDF80000641C48B14FF47F41401A02D075
S315080060C0FF3806D007E0681C40B276BDAD1C761EC8
S315080060D0ECD168B276BDBDF80000C0B200B96D1C3F
S315080060E0E843F1E7012200A9A0B2FEF7D7BF38B509
S315080060F00C46002100916849455C2A4600A92046BD
S31508006100FFF716F8681C00EBD07004EB600080B24D
S31508006110FFF7C7FF002848BFC043009940B24018A0
S3150800612032BD0000582E002048370208F0B55D49F8
S3150800613009880446494883B0254630F815608C42DC
S3150800614002D24E48285C18B940F6E811FFF794FBCE
S3150800615051482D5C681C00EBD07006EB6007B8B29E
S31508006160FFF79FFF322814D2C107BFB207EB6000C2
S31508006170444F434B3F884CBF00214FF47F41ADF855
S315080061800410C01B012201A903EB4000FEF7CCFE58
S3150800619060B131462046FFF7AAFF00902B46401C07
S315080061A000907F2200A92046FFF78CFEF7BD70B548
S315080061B005463B48067882B0344621464C1E288858
S315080061C0022923DBE4B22018FFF766FFBDF80000BA
S315080061D00028F2D034492888098804FB010080B2D7
S315080061E0FEF770FF0020ADF8000001222B88254D30
S315080061F023482D88E3185B1B00F018F8250018BF04
S31508006200012508B102F0CDF8284676BDFEF75AFFFB
S315080062100120A871234928880988301800EB410015
S31508006220801DA880E0B200B1012076BD00A900EB70
S315080062304300FEF779BE19488179022908D0817B87
S31508006240022908BF083003D0817D022901D1103008
S31508006250ADE7002070470000D4370208002D002063
S3150800626010370208143702081837020812370208CE
S31508006270163702081C370208F02C00208C37020853
S31508006280007002080E3702086C3A02082437020822
S315080062902037020808370208B03702088C24002085
S315080062A00C3702081A3702080A37020873696D2D77
S315080062B0656570726F6D322D696E7465726E616C8C
S315080062C02E630000DFF8841500200870FF21DFF830
S315080062D08005017001717047F8B5044602F0B6FAF8
S315080062E00546DFF87005DFF868750688204602F06F
S315080062F0BEFBB0F5006F16D1204602F0DCFB00F0BD
S31508006300BBFAFF280DD000F029FA2146381D02F005
S3150800631063FFDFF83805017881B10089A9190E1ADB
S3150800632010E09320F2BDFF21384602F080FF0528D1
S3150800633002DA21463846EAE73920F2BD05813146B8
S3150800634002F0D5FFB2B20321204602F00EFB03226B
S3150800635000F070F8204602F087FC0020F2BDF8B580
S315080063600446DFF8EC040078FF2813D0DFF8E85479
S315080063702968465C3746384602F08EFB01460822F5
S315080063802046FEF767FD08B90120F2BD28683F5C84
S31508006390B742F0D10020F2BDF8B5044602F011FB71
S315080063A0000B00F00105204602F09AFB064620463F
S315080063B002F085FBB0F5404F11D1002D36D031469D
S315080063C0002000F086F90446FF2C2FD0002103F0A8
S315080063D087F858B300F0A3F900F02AF826E030460B
S315080063E003F0B4FA00F048FA0446FF2C01D1002065
S315080063F0F2BD01200021224603F0D6FADFF85C241C
S31508006400D2E9006706430F43C2E9006775B1DFF8B2
S3150800641050341B6833F814304FF4FE64234205D019
S31508006420D2E9024520432943C2E902010120F2BD0F
S3150800643040F080020521204602F0A2BA38B504468B
S3150800644002F015FBB0F5006F0CBF012500252046AC
S3150800645002F022FB04462146284600F03AF9FF28B6
S3150800646010D18DB1204603F071FA00F005FAFF2825
S315080064700AD0DFF8EC13096831F810004FF4FA6116
S31508006480084201D0012032BD002032BD2DE9F0417D
S3150800649007460C46DFF8B85302F0E9FAB0F5006F84
S315080064A00CBF281D28460078FF2846D0DFF8A81319
S315080064B00968405C0646B7423CD1FEF767FB804652
S315080064C00521304602F063FA00F07F00471EFAB253
S315080064D00521304602F054FA002C18BF312C01D0A1
S315080064E0F8B200BBFEF752FB0746F0B202F0BFFA5D
S315080064F0B0F5006FF1B205D1281D02F098FE00F044
S3150800650012F902E0284602F092FE3846FEF754FBDE
S315080065104046FEF751FB2146304604F0C2F93046A4
S3150800652002F0B0FB04E000F0FEF84046FEF744FB3C
S31508006530012003E0765C8642BDD10020BDE8F081EB
S3150800654038B502F083F9C14C21892081421A4FF6E9
S31508006550FF75ADF8005000A990B200F008F9BDF833
S315080065600000A84202D10020207031BD0146204615
S3150800657002F0BDFE31BD00214FF6FF70F7E02DE9B0
S31508006580F84FDFF8D892D9E90001002908BF00289A
S3150800659000F0988000264FF00108B2460027002434
S315080065A0FEF7F4FAD9E90023844608EA02001AEA53
S315080065B0030108BF002817D06FEA08006FEA0A012E
S315080065C002400B40C9E90023D9E9025B012708EA22
S315080065D005021AEA0B0308BF002A05D028400BEA71
S315080065E00101C9E9020101246046FEF7E5FA002F18
S315080065F057D09B48006830F81600810751D599494D
S31508006600096831F816702CB100F49871102908BF82
S31508006610012500D0002594490978C9070AD5934A67
S315080066201268002142F8261091490968725C42F006
S31508006630F0027254F4B180061CD5380A8DF80100B0
S315080066408DF8007000A9012000F043F80446FF2CDD
S3150800665007D100F039F84FF6DF72114020F816100E
S3150800666014E0002102F03CFF80B100F058F8FFF773
S31508006670DFFE0BE085F00100044207D000F024F8A5
S3150800668041F4006120F8161004F0BAFC00953B4668
S315080066901A226DA1032001F047FE2946384604F068
S315080066A014FF761CF6B24FEA4A0040EAD87A402E22
S315080066B04FEA480806DAD9E90001002908BF002888
S315080066C07FF46CAFBDE8F18F6548006830F81610A6
S315080066D070472DE9F04188465D4900281ABF091D13
S315080066E0022508250878FF2816D05B4E3168475CD6
S315080066F03C4600F014F800060AD4204602F0CCF90D
S3150800670001462A464046FEF7A5FB08B9204604E09E
S315080067103068245CBC42ECD1FF20BDE8F08105213D
S31508006720204602F034B970B50021202004F073FF2A
S3150800673047480079FF2810D0474C2168455C2E460B
S31508006740304602F0B8F900F097F8FF2801D000F0BB
S3150800675005F82068365CAE42F2D170BD404909683A
S3150800676031F8102042F0200221F8102070472DE958
S31508006770F84F80460FF2FC00354E0068364F009001
S315080067808A46344600E0341DFEF700FA814606E0E4
S31508006790204602F036FD294600A802F01DFD2046D7
S315080067A002F078FD40B9386821780D5C0321284647
S315080067B002F0D2F88045EBD2301D844208BFFFF7BD
S315080067C0B2FF4846FEF7F8F92078FF281CD039684A
S315080067D010F801904D460321284602F0BDF8A0EBBB
S315080067E0080B1FFA8BF20321284602F0BEF8BAF806
S315080067F000001FFA8BFB834588BF8346AAF800B0C2
S3150800680038682D5C4D45E6D1301D8442BBD100A8C1
S3150800681002F040FDA8B900A802F0F3FC044602F015
S31508006820DAF800F0FCF8FFF77AFF000603D44221F5
S31508006830204604F036F8204602F024FA00F0F0F874
S31508006840E5E7BDE8F18F000042574200EC2800203A
S315080068509823002078230020D4220020D824002062
S31508006860E4220020DC22002028260020E82200203E
S3150800687054230020FF000000F8B50D4C27680600D9
S3150800688014D0FEF783F90B4D21682A7821F8126097
S3150800689037F8021BB142FBD1FEF78EF9B81E216804
S315080068A0401AC0052978000E884200D1FF20F2BDA3
S315080068B0DC220020E022002010B57B487B4C0068D3
S315080068C02060606048220021FEF7BDFA78482168FA
S315080068D000780870002021680873216848730B2027
S315080068E02168887303202168C8734FF6FE712068F3
S315080068F001824FF6FF71418200F098FB2168087605
S3150800690000F094FB2168487600F090FB21688876B1
S31508006910684821680078C8766749206809688162EE
S315080069206649097880F82C1065482168006808636C
S3150800693010BD10B5FBF702FF5C4C6168897B884285
S3150800694003D00846FBF7F2FE50B9FBF7FAFE0146FC
S31508006950606890F90F00814204D0FBF7F6FE08B193
S31508006960012010BD6068008AFDF746FB6068408A12
S31508006970FDF74AFB6068007B012818BF0020FDF779
S3150800698025FB002010BD10B54E4C0020207004F0E9
S3150800699040FD20B92046BDE8104002F09DBC05F038
S315080069A031FA08B105F0C2FA64E080B5002000F0BB
S315080069B015F828B1002000F005F808B1002002BD3E
S315080069C0FF2002BD39480068407B02281CBF1128F9
S315080069D0432801D1012070470020704733480068DA
S315080069E0007B012818BF022804D003281CBF0628EC
S315080069F0072801D101207047002070470020704702
S31508006A007020704700207047704770470020704715
S31508006A100120704770470020704700207047704774
S31508006A2070470020704780B50020FFF7CBFF18B1EC
S31508006A30BDE802400020D1E702BD80B50020FFF77F
S31508006A40C1FF30B119480068007B032801DA00202D
S31508006A5002BDFF2002BD10B5040004D0E5210FF2E7
S31508006A608800FEF7AFF810480068482101FB0400CB
S31508006A700E494860BDE810405BE70C484068008A4C
S31508006A8070470A484068408A7047084909684A6951
S31508006A900260C97E017170470449096802684A6143
S31508006AA00079C87670470000102300206C28002063
S31508006AB0BC2F002074230020182300201C2300204C
S31508006AC0202300205C280020704700207047002003
S31508006AD0704702F03ABD7047704705F078BD05F07B
S31508006AE0B3BE05F00BBF0000656D6265722D6D754E
S31508006AF06C74692D6E6574776F726B2D737475621D
S31508006B002E63000038B504460D46012005F0EAFF5D
S31508006B105F48002D12BF00210178491C01705D48AD
S31508006B2044705D48FCF718FFBDE83240002005F0C8
S31508006B30D9BF10B50028144643D0402823D088284A
S31508006B4018BF892844D08D2831D08F284AD1534878
S31508006B50007804280DD144B151490220087040F646
S31508006B600620BDE8104005F0C5BFFDF7BDF9312088
S31508006B7034E0012001F0D1FBFDF7B6F9002C0CBF7B
S31508006B80312000202AE005F0E8FFFDF7ADF940487E
S31508006B90444900780978884204D2BDE810400021AB
S31508006BA00120AFE7002001F0B8FB402016E00020E6
S31508006BB001F0B3FBFDF798F900212020FFF791FFBC
S31508006BC00BE0012001F0A9FBFDF78EF9002005E096
S31508006BD0002001F0A2FBFDF787F98D20BDE81040E3
S31508006BE002F07ABDBDE81040A6213BE02C480078AB
S31508006BF0022800D0704780B52B480078042807D0B3
S31508006C000C280ED129480078022818BF7C2808D1FC
S31508006C1005F08BFFFDF768F9BDE80240002002F099
S31508006C205BBD01BD38B50024FDF7B0FF05461C481D
S31508006C30007810B9FCF79EFD04462846FDF7BCFF10
S31508006C40002C1CBFBDE8314001F0F8BB31BD80B552
S31508006C50FFF7E8FFBDE804404FF4A051144802F0DE
S31508006C6046BBE2210FF25000FDF7ACBF38B5114C18
S31508006C702068216C01EA0005ADB2680705D5206CCD
S31508006C8020F00400206404F0A3FA256031BD00005A
S31508006C90C72F0020CC240020082F00202124002004
S31508006CA00029002094230020C52F0020C62F00208D
S31508006CB0D828002008A000406D61632D656D323527
S31508006CC0302E630070B504460D461646FDF764F986
S31508006CD038B16078002E14BF40F0200000F0DF00C5
S31508006CE060702946204602F050F8FF2821D0974CBC
S31508006CF00146201D02F070FA954D28882188401C0F
S31508006D00288080B281420AD26888401C6880201D8B
S31508006D1002F077FA01F0B6FF2888401E28802088FE
S31508006D2029888842F3D3BDE870408A48007802F083
S31508006D30C1BB70BD2DE9F04FA5B082460027FDF70F
S31508006D4025FF834C2188491E2180FDF735FF5046D3
S31508006D5001F024FF90F8009081784078009700EBC6
S31508006D6001201FFA80F800F0D4F8A0F108020823E1
S31508006D70D2B2514602A802F024F802AD6878FFF7AD
S31508006D804EFE7548007808B3606800281DD0E8787C
S31508006D90FCF7AFFD4946FCF7B3FD074695F9020037
S31508006DA000F166050020009009F10103DBB200221C
S31508006DB0514604A802F005F8FFF72CFE63686AB28C
S31508006DC0394604A89847FFF72BFE98E008F0070015
S31508006DD002282DD0FF208DF80400504601F0DEFE73
S31508006DE000F1010B584601F027FE0446A9EB040002
S31508006DF0801E46B2002E1BD45FEA885003D508F0E1
S31508006E000700032810D101A9584605F0B1FF00284C
S31508006E1076D108F0070001280BD19DF8040004EB91
S31508006E200B0104F068F820B99DF8040001F02AFF68
S31508006E3066E04A499DF804000968475C48490968BC
S31508006E4000F801A000F065F800F120019DF80400A3
S31508006E50C9B201F0A9FE9DF8040001F0B7FD00F0E3
S31508006E600C0004281CBFA619002470B280B200903A
S31508006E70631C9DF804009BB25246394602F07BF922
S31508006E80F1199DF80400C9B202F047F83549687847
S31508006E900978884204D3CD210FF2D000FDF792FE7F
S31508006EA09DF8040001F08DFD69788004800C40EAA5
S31508006EB081319DF8040089B201F085FDE878FCF778
S31508006EC018FD4946FCF71CFD02469DF804000321FF
S31508006ED001F056FDA87800F166029DF80400D2B2CA
S31508006EE0042101F04DFD9DF808209DF804000521B8
S31508006EF001F046FD9DF804A0504602F049FC012722
S31508006F00504601F0BFFEFFF78BFD384625B0BDE8B9
S31508006F10F08F124800681AF80000704710B50C4C3C
S31508006F20618829B1C9B21D20FFF7DBFD002060800A
S31508006F300D4802F066F9FF2803D0FFF7FBFE00288C
S31508006F40F6D010BD084802F0A5B90000A02300201D
S31508006F50F8280020EB2F002035290020C822002021
S31508006F60D022002014230020A42300206D61632D65
S31508006F70726563656976652E6300000002681749C5
S31508006F8012BACA60426812BA8A60826812BA4A603D
S31508006F90C06800BA08607047704710B5104980226B
S31508006FA00A6006230F4A136007230B6013689B07C2
S31508006FB0FCD5002350F823405B1C24BA042B8C62B2
S31508006FC0F8D313685B07FCD500220B6B1BBA40F895
S31508006FD02230521C042AF8D310BD00003830004075
S31508006FE00030004010A0004010B504460846FFF7E0
S31508006FF0C5FF2046BDE81040CFE7002848BF4042FD
S315080070007047000081B209B94BF6EF610E4A11804C
S31508007010000C08BF4FF6CE20508070470288130434
S3150800702048BF4A40510001801046704738B5064CA3
S3150800703062212046FFF7F2FF054641F20B01A01C2C
S31508007040FFF7ECFF684032BD5A240020EFF31180A9
S3150800705060288041C043C00F70470000002181F3BB
S31508007060118870472DE9F04FDFF818469BB0804627
S3150800707060681990B8F1070F08BF4FF003080AD0E7
S31508007080B8F1080F08BF4FF0020804D0B8F1050F91
S3150800709008BF4FF00408DFF8F0552868696840EA29
S315080070A00120A96840EA014000906868400703D5B6
S315080070B0E06940F00200E0612868400703D5E0690E
S315080070C040F00400E06100982969C840C00703D56C
S315080070D0E06940F00800E0610020DFF8A465DFF809
S315080070E0AC953060B8F1010F00F06F82C0F098825D
S315080070F0B8F1030F1ED005D3B8F1040F40F0908203
S31508007100606017E0D9F84000C00703D5E06940F091
S315080071104000E061D9F84000400703D5E06940F037
S315080071202000E061D9F84000800703D5E06940F007
S315080071301000E061FDF72AFDFBF7B9F88DF860004D
S315080071404FF0000BD9F84000DFF844A5DFF8447586
S31508007150DFF844151790D9F844001690DFF83C0577
S31508007160C06C1590DFF83405006D1490DFF82C0517
S31508007170406D1390DFF82405806D1290DAF8000050
S315080071801190DAF804001090DAF814000F90DAF883
S3150800719024000E90DAF834000D9038680C90786860
S315080071A00B90B8680A90F868099038690890786969
S315080071B00790B8690690F8690590B86B0490DFF8EF
S315080071C0E00400680968039102212160DFF8D414FD
S315080071D009688DF80410DFF8D01409688DF80510D1
S315080071E0DFF8C81409688DF806104FF0FF316162A0
S315080071F0DFF8BC140968C9040BD56968C90708D53E
S31508007200E169C90705D5316841F480714FF0010B72
S315080072103160DFF89C14096889040BD5696849064A
S3150800722008D5E169C90705D5316841F480414FF0B1
S31508007230010B31600121DFF87824126852040ED55B
S31508007240009AEB68DA40D20709D5E269D20706D573
S315080072503268EB6801FA03F31A438B463260DFF8AB
S3150800726050241268120410D5009A2B69DA40D20706
S315080072700BD5E269D20702D4E269120705D532684E
S315080072802B698B46994011433160DFF8241409684D
S31508007290C90308D5E169090605D5F17841F0080161
S315080072A04FF0010BF17000216A68D2076A6848BF7F
S315080072B04FF480515206009AEB6848BF41F40051DA
S315080072C0DA40D207009A2B6948BF41F48041DA4078
S315080072D0D207E26948BF41F40041D20605D4E26903
S315080072E0920602D4E269520601D541F01001E2691C
S315080072F0120648BF41F4803108400290A520FAF7EB
S31508007300CDFF0120E063E069A16B11B1616A01421A
S31508007310FAD0616A014200F0F5800020E0634FF080
S31508007320010BF07840F04000F070FDF735FC0D9841
S31508007330DFF86813CAF834000720C9F800000F20E0
S31508007340086005F0D7FD1998D44960601798C9F800
S3150800735040001698C9F844001598C864149808653A
S315080073601398486512988865CD491198CAF800009F
S315080073701098CAF804000F98CAF814000E98CAF8AC
S3150800738024000C9838600B9878600A98B8600998B9
S31508007390F86008983861079878610698B861059882
S315080073A0F8610498B86302980860BB4903980860B6
S315080073B04FF0FF30BF490860BA4800683070BA48D5
S315080073C000687070B9480068B070626AE069104079
S315080073D02A69336801994B4000990B400106490E0A
S315080073E001F0010143EA81230106890E01F001013A
S315080073F043EA81030106C90E01F0010101FA02F20E
S315080074001A4300F47C7042EA00503060FDF7BEFB78
S31508007410FDF7D0FB002020609DF8600008B1FAF760
S3150800742030FFF0789E490968C90304D5C0F3C00146
S3150800743009B120212162D9F84010890704D5C1076E
S3150800744044BF0221C9F80C10D9F84010490705D5E0
S31508007450C0F3400111B10421C9F80C10D9F8401045
S31508007460C90705D5C0F3800010B10120C9F80C0082
S3150800747030688A49C96C11F0E00F05D0C10503D5FB
S315080074808B4A4FF4805111608449096D11F0E00F61
S3150800749005D0410403D5864A4FF4005111607F494F
S315080074A0496D11F0E00F08D0E96820FA01F1C90723
S315080074B003D57F4A4FF4804111607849896D11F0F0
S315080074C0E00F07D02969C840C00703D578494FF4AB
S315080074D000400860BBF1000F6ED1774800680005D0
S315080074E06AD56068800767D5B8F1040F64D06C4820
S315080074F00068C0063DD56E480068C00639D501202B
S31508007500307159E0BBF1000F7FF40BAFDAF81800C1
S31508007510614940084000CAF818005F48806840F092
S315080075200400886040F2072164480088884201BF49
S31508007530624840884FF20F01884205D15F494CF2F4
S315080075403C3048804FF0010B012005F00DFDBBF1E2
S31508007550000F05D059494FF20F0048804FF0000B35
