S01500006D66672D73616D706C652D6170702E73333788
S31508002000E8250020ED880108658801086988010827
S31508002010A70A090100210008041E03AC2057BC01C9
S3150800202000000000000000000000000000000000A2
S315080020300000000000000000000000000000000092
S315080020400000000000000000FFFFFFFFFFFFFFFF8A
S31508002050FFFFFFFF00E0020800000000000000008C
S31508002060FFFFFFFFFFFFFFFFFFFFFFFFFFFFFFFF72
S31508002070FFFFFFFFFFFFFFFFFFFFFFFFFFFFFFFF62
S31508002080F02F002000000000F02F0020F02F002085
S31508002090E8250020E4910108588B0108881C0020D7
S311080020A0A40F00200000030800300020F8
S31508002100E8250020ED880108658801086988010826
S31508002110718801086D88010875880108EC8801082E
S31508002120EC880108EC880108EC880108EC880108AD
S3150800213079880108EC880108EC880108857100088F
S315080021402D880108EC88010833790008EC88010815
S31508002150854900083D770008EC880108EC880108E5
S31508002160F15001083D880008697E00084974000896
S31508002170EC880108437800088B780008453D00087C
S3150800218051840008EC880108EC880108EC880108ED
S3150800219010B5DFF88C395C89641C5C819C89641CE9
S315080021A09C81DC796CB901245A71DC719C81997126
S315080021B0411C0278DFF86C091A71BDE8104001F07D
S315080021C09DBA10BD2DE9F047DFF854490FF6E41122
S315080021D0A28982B000F018FA207994F90530A2791C
S315080021E00FF6E41100F02FF800F00AFA0025B3A65E
S315080021F0B3A7DFF830890FF6F81917E0E81005EBF2
S3150800220010700011B5EB001A04D1494600F05BF9CD
S3150800221000F0F6F915F80820394600F0F5F9BAF194
S315080022200F0F01D100F04EF96D1CEDB220798542F1
S31508002230E4DB00F047F900F0E3F90020E071A08143
S31508002240E081BDE8F3870090012001F0C1BB38B5F5
S3150800225001F025FC044601F039FC01F0BDFD01231F
S3150800226000220F21012001F0BBFD01F03AFD0346D3
S3150800227022460FF68811012001F097FE01F0D4FEE0
S31508002280020006D00FF68811012001F08EFE8BA100
S3150800229001E00FF69411012001F087FE012002F0FB
S315080022A069F9DFF87C4805E000202072A089E08102
S315080022B002F063F902F0ECFA01F0A9FF02F03EFB26
S315080022C00546208A281A80B2C928F1DB072002F0C1
S315080022D0E0FBE07925820028EAD0E089A1898842D6
S315080022E0E2D1207A401C2072C0B20228DED1FFF764
S315080022F069FFDBE710B59028DFF8244804D0912859
S3150800230008D0942809D00FE00FF6301100F0DBF85A
S31508002310012007E00FF6501101E00FF6781100F0E2
S31508002320D2F80020E07010BDBDE8104002460FF656
S315080023309011012001F04CBB7047704770477CB57F
S3150800234004460D46164602F025FCDFF8DC17096838
S31508002350715C019103466988009122460FF6801147
S31508002360FFF772FF73BD0FF6A41100F01FBCF8B596
S315080023700D4604460FF6D01101F02AFB0826B1A730
S315080023807019394610F8012C204601F021FB761EFB
S31508002390F6D110E0F8B50D4604460FF6B41101F073
S315080023A017FB0026A7A7725D3946204601F010FBE9
S315080023B0761C082EF7DB41A1204601F009FBBDE893
S315080023C0F240012001F0E0BDF0B587B001A802F0A7
S315080023D049FC20B102460FF68C1100F015F90FF6EC
S315080023E02C1100F070F8DFF844170120FFF7BFFF43
S315080023F045F220720FF6A01100F006F9DFF8206703
S315080024000FF6A411307890A490A5002814BF2A4688
S31508002410224600F0F9F800F0F3F8307810B302F02D
S31508002420ADFD074602F087FD02463B460FF68C11C6
S3150800243000F09CFB02F07CFC02460FF6A81100F0A7
S31508002440E3F872890FF6B81100F0DEF8707818B163
S315080024500FF6CC1100F037F8B07818B10FF6DC118A
S3150800246000F031F8F07800B12C4622460FF6EC1150
S3150800247000F0CAF800F0C4F8F078C0B101F0D0FF57
S3150800248002460FF6EC1100F0BFF800F0B9F8BDF8F7
S315080024900C009DF90E309DF80F200FF6E811FFF796
S315080024A0D2FE01A90120FFF775FF00F0A9F803A1E4
S315080024B000F009F800F0A4F807B0F0BD0D0A000016
S315080024C0257820003146012001F082BA10B586B081
S315080024D001210FF6E01002F0EFF890B100F043FB8F
S315080024E000F084F800F07CF800F085F800EB042092
S315080024F0ADF8080000A802F011FF02460FF6BC115D
S3150800250050E001210FF6C41002F0D6F800B31822E5
S31508002510002100A801F035F90822002100A801F0E1
S3150800252030F900F020FB00F061F800F059F800F0EF
S3150800253062F800EB0420ADF8080000A900208DF829
S315080025400C00022002F071FF02460FF6881129E0FE
S3150800255001210FF6901002F0AFF820B103F055F8FC
S315080025600FF6881109E001210FF6901002F0A4F881
S3150800257028B104F08AF90FF68C11024612E00121FF
S315080025800FF6901002F098F878B100F0ECFA0FF612
S315080025908C11C4B200F037F8204602F025FF024637
S315080025A00FF6841100F030F818E00FF68C11FFF7DB
S315080025B08AFF0FF6B411FFF786FF0FF6DC11FFF757
S315080025C082FF00F01DF80FF6E011FFF77CFF0FF60B
S315080025D0E811FFF778FF1EA1FFF775FF06B010BDDB
S315080025E08DF80A000421002002F08FB88DF80B0040
S315080025F0032002F0CCB804460421012002F085B875
S31508002600012001F0C1BC2246012001F0E1B970B5F4
S3150800261004460D46681E20703AB10126AE420FDA0E
S3150800262004F024FB3055761CF8E70126DFF8000590
S3150800263004E0311811F8011C3155761CAE42F8DB5E
S3150800264070BD0000257800004E4F00005945530024
S315080026500D0A00002DE9F0470FF67414DFF8C05490
S3150800266082B0012100F074FAB8B100F07CFAC4B265
S31508002670012C0CBFDFF8BC04002002F07DFB0646E7
S31508002680334622460FF6501100F070FA002E03D199
S31508002690012028700020688139E2012183A002F018
S315080026A00BF888B16A890FF65411FFF7ADFF02F0EF
S315080026B097FB064632460FF66C11FFF7A5FF002E6C
S315080026C001D10020287022E201210FF6741001F0D2
S315080026D0F3FFD8B100F03BFA58B102F0BDFB06464D
S315080026E032460FF66411FFF78FFF002E0DD1012039
S315080026F00AE002F0BCFB064632460FF66011FFF709
S3150800270083FF002E01D10020687000E201210FF638
S31508002710601001F0D1FFD8B100F019FA58B102F0F3
S31508002720B0FB064632460FF65011FFF76DFF002E36
S315080027300DD101200AE002F0B2FB064632460FF63A
S315080027405011FFF761FF002E01D10020A870DEE1CD
S3150800275057A401210FF6501001F0AEFF002800F033
S31508002760938000F000FA0546042002F010F80746A8
S31508002770DFF8C4630FF63810032101F09DFF68B136
S315080027800122F9B23046FFF742FF812F3BDB0FF6F5
S315080027909811FFF798FE80277F203CE003210FF66B
S315080027A0181001F089FF40B1412F04DB40233A4657
S315080027B00FF60C11A0E00022E3E703210FF638100C
S315080027C001F07AFFE0B10027042100F0B9F9B85505
S315080027D007EB0608052100F0B3F988F8080006217A
S315080027E000F0AEF988F81000072100F0A9F97F1C5F
S315080027F0082F88F81800E7DB3078471CBFB2C4E713
S315080028000FF6FC0181E1062F06DA0FF64C11FFF7E9
S315080028105AFE0627052030703B462A460FF66811F1
S3150800282000F0A4F94FF000080FF2E8290FF6841A11
S3150800283013E04FEAE80008EB10700011B8EB00103F
S3150800284002D15146FFF73FFE18F806204946FFF722
S31508002850DBFEFFF7D5FE08F10108B845E9DB21469E
S31508002860FFF731FE2DB90FF65411012001F0B8F823
S315080028704DE1691E89B2304602F01EFB0600F7D00C
S3150800288002460FF66011DCE0A3A6A4A701210FF605
S315080028906C1001F011FFE8B100F061F950B102F0D7
S315080028A04AFB02460FF65C11CBE000BF656E64007A
S315080028B00D0A000000F04FF900281FD0032001F090
S315080028C066FF0446C0B202F02BFB0346E2B20FF6DF
S315080028D0501111E001210FF6741001F0EDFE70B3EE
S315080028E000F03DF958B102F023FA044602F046FB1F
S315080028F0024623460FF65C1100F038F907E100F0AE
S315080029002AF90028FAD004210FF66C1001F0D4FE3B
S315080029100028F3D0032001F03AFF0446052001F011
S3150800292036FF0546032D09DA61B202F006FB009070
S315080029302B46E2B20FF64811FFF786FCE7E00121C5
S315080029400FF6701001F0B8FEE0B100F00CF904467D
S31508002950032001F031FF0546E4B222460FF6601166
S31508002960FFF752FE25B90FF69811FFF7ACFD04E004
S315080029702A460FF6D011FFF747FE2946204602F0F1
S31508002980FFFAC4E00FF6E818012100F0DDF800B3FD
S3150800299000F0E5F828B102F0EDFA02460FF6DC1170
S315080029A04FE000F0D8F80028EBD0032001F0E0FE55
S315080029B06D780FF6EC1144B2FFF725FE0DB102F063
S315080029C056FA204602F0CDFA002D01D002F044FA5C
S315080029D09DE001210FF6EC1001F06EFE002833D0C1
S315080029E0564804880FF6E410022101F065FE68B126
S315080029F000F0A9F850B102237F22214600A804F06E
S31508002A0045F9BDF800200FF6CC111AE002210FF6A1
S31508002A10FC1001F051FE002879D000F094F8002847
S31508002A2075D002F0A7FAC0B240F47E40ADF80000B7
S31508002A30022200A9204604F058F9BDF800200FF636
S31508002A40D411FFF7E1FD62E00FF60021FFF73BFD29
S31508002A500FF62821FFF737FD0FF62C21FFF733FD78
S31508002A60FFF7CEFD0FF63421FFF72DFD0FF63C21BB
S31508002A70FFF729FD0FF64821FFF725FDFFF7C0FDF3
S31508002A800FF65021FFF71FFD0FF67821FFF71BFD04
S31508002A900FF69821FFF717FDFFF7B2FD0FF6AC21E9
S31508002AA0FFF711FDFFF7ACFD0FF6C421FFF70BFD8D
S31508002AB00FF6E821FFF707FDFFF7A2FD0FF6EC2159
S31508002AC0FFF701FDFFF79CFD0FF60431FFF7FBFC4E
S31508002AD0FFF796FD0FF60C31FFF7F5FCFFF790FDB3
S31508002AE00FF64831FFF7EFFC0FF68C31FFF7EBFCDA
S31508002AF0FFF786FD0FF69431FFF7E5FC0FF6A831D0
S31508002B00FFF7E1FCFFF77CFD2146FFF7DCFCBDE89B
S31508002B10F3870000202578007365740067657400E4
S31508002B206E290020A02800204C260020A42B002077
S31508002B30FC2500209121000820280020AE8F0108DE
S31508002B40F8B201F0E2BD0321404601F0B5BD02210D
S31508002B50204601F0B1BD0221304601F0ADBD02218B
S31508002B60384601F0A9BD022001F011BE012000F08F
S31508002B702FBF00F0DABF0000F8B500240FF6443581
S31508002B800FF64836004F07E03C26002056F834205A
S31508002B902946FFF739FD641C3878E4B28442F5D338
S31508002BA0BDE8F44000A101E00D0A0000012000F094
S31508002BB00FBF00000D0A4D4647205258202532788F
S31508002BC020706B74730D0A006669727374207061E5
S31508002BD0636B65743A206C71692025752C207273B5
S31508002BE073692025642C206C656E2025750D0A00F6
S31508002BF02020202020203A2000000000526573651E
S31508002C00742830782578293A25700D0A00000000C6
S31508002C104552524F523A20656D626572496E697423
S31508002C2020307825783A0000656D626572496E69CC
S31508002C3074207061737365640D0A00004556454E2D
S31508002C40543A20737461636B537461747573206EA0
S31508002C506F7720454D4245525F4E4554574F524B6C
S31508002C605F55500D0A0000004556454E543A2073EC
S31508002C707461636B537461747573206E6F77204546
S31508002C804D4245525F4E4554574F524B5F444F573E
S31508002C904E0D0A004556454E543A20737461636BCF
S31508002CA0537461747573206E6F7720454D42455293
S31508002CB05F4A4F494E5F4641494C45440D0A00005C
S31508002CC04556454E543A20737461636B5374617468
S31508002CD07573206E6F7720307825780D0A0000000E
S31508002CE0525820747970652025782066726F6D2099
S31508002CF02532782C20636C757374657220253278BA
S31508002D002C206C656E202578000000004D616E75DC
S31508002D10666163747572696E67204C696272617266
S31508002D20792053616D706C65204170706C696361C0
S31508002D3074696F6E2C2076657273696F6E20312EFA
S31508002D40300D0A0D0A0000004555493A20000000DA
S31508002D50202020457874656E64656450616E496408
S31508002D603A2000004572726F723A20676574206EC9
S31508002D706574776F726B20706172616D65746572C8
S31508002D80206661696C65642C2073746174757320A0
S31508002D90307825780D0A0000737461636B205B2513
S31508002DA032785D0D0A000000696E206D6667206D39
S31508002DB06F64653A2025700D0A0000002020206DFA
S31508002DC06667206368616E6E656C3A203078257890
S31508002DD02C206D666720706F7765723A20307825EB
S31508002DE078000000202020545820706F77657220E4
S31508002DF06D6F64653A2030782532780D0A00000038
S31508002E002020206D666720706B7473207265636579
S31508002E10697665643A2030782532780D0A00000014
S31508002E202020206D666720546F6E65207465737464
S31508002E302072756E6E696E670D0A00002020206D7F
S31508002E4066672053747265616D20746573742072A9
S31508002E50756E6E696E670D0A000000007374616313
S31508002E606B2069732075703A2025700D0A000000E2
S31508002E7020202073686F7274204944205B253278BD
S31508002E805D0D0A002020206368616E205B3078257E
S31508002E90785D2C20706F776572205B307825785DB9
S31508002EA02C2070616E4964205B30782532785D0D80
S31508002EB00A000000666F726D00000000666F726D92
S31508002EC020307825780D0A0D0A0000006A6F696EB1
S31508002ED0000000006A6F696E20307825780D0A0DAB
S31508002EE00A000000696E697400000000696E697462
S31508002EF020307825780D0A0D0A0000006C65617689
S31508002F00650000006C6561766520307825780D0AC5
S31508002F100D0A0000706A6F696E00000076616C2009
S31508002F20307825780D0A0000704A6F696E2030786F
S31508002F3025780D0A0D0A00006E6574776F726B208E
S31508002F40666F726D203C6368616E6E656C3E203CF0
S31508002F50706F7765723E203C70616E696420696E99
S31508002F60206865783E0D0A006E6574776F726B206F
S31508002F706A6F696E203C6368616E6E656C3E203CC4
S31508002F80706F7765723E203C70616E696420696E69
S31508002F90206865783E0D0A006E6574776F726B203F
S31508002FA0696E69740D0A00006E6574776F726B201E
S31508002FB06C656176650D0A006E6574776F726B20B5
S31508002FC0706A6F696E203C74696D653E0D0A000073
S31508002FD073746172740000006D66676C69622073B1
S31508002FE07461727420282578292C2073746174758D
S31508002FF07320307825780D0A0D0A00007278203083
S3150800300078253278207061636B65747320776869F8
S315080030106C6520696E206D6667206D6F64650D0AA4
S31508003020000000006D66676C696220656E64207337
S31508003030746174757320307825780D0A0D0A0000BE
S31508003040746F6E6500000000737461727420746F8B
S315080030506E6520307825780D0A0D0A0073746F7036
S3150800306020746F6E6520307825780D0A0D0A0000E9
S3150800307073747265616D0000737461727420737481
S315080030807265616D20307825780D0A0D0A000000FA
S3150800309073746F702073747265616D20307825784B
S315080030A00D0A0D0A0000000073656E64000000003A
S315080030B072616E646F6D00007465737400000000C1
S315080030C06C656E677468206F662030782578206C8A
S315080030D06172676572207468616E206375727265C5
S315080030E06E742074657374207061636B6574202830
S315080030F030782578290D0A006D6573736167650058
S315080031006E6F74207265636F676E697A65642C20CA
S3150800311074727920226D66672220666F7220686550
S315080031206C700D0A0000000061646A757374696E3C
S3150800313067206C656E6774682066726F6D203078DC
S31508003140257820746F206D6178696D756D206F66BE
S31508003150203132380D0A000061646A757374696E2D
S3150800316067206C656E6774682066726F6D203078AC
S31508003170257820746F206D696E696D756D206F6690
S3150800318020360D0A0000000073656E64696E6720BC
S315080031906D66676C696220307825327820706163C5
S315080031A06B65742873292C206C656E6774682030EB
S315080031B0782578000D0A2020203A20004572726F83
S315080031C0723A206E756D626572206F662070616353
S315080031D06B657473206D757374206265203E2030AC
S315080031E0000000006D66672073656E642065727264
S315080031F02030782578200D0A0D0A00006368616E74
S31508003200000000006D666720676574206368616E5C
S315080032106E656C20307825780D0A0D0A00000000CE
S315080032206D666720736574206368616E6E656C20D1
S31508003230746F20307825782C207374617475732028
S31508003240307825780D0A0D0A00000000706F776542
S31508003250720000006D66672067657420706F776579
S3150800326072203078257820286D6F6465202532789D
S31508003270290D0A0D0A0000006D6F64650000000044
S315080032806D66672073657420706F77657220746F3A
S3150800329020307825782C206D6F64652030782532AB
S315080032A0782C2073746174757320307825780D0A2C
S315080032B00D0A0000746573746D6F6463616C0000B9
S315080032C053657474696E67206368616E6E656C20F9
S315080032D0616E6420706572666F726D696E672063D1
S315080032E0616C6962726174696F6E20666F722063C1
S315080032F068616E6E656C20307825780D0A000000CE
S31508003300436F6E74696E756F7573204D6F642044D4
S3150800331041432043616C2C20746869732077696C7B
S315080033206C206E6576657220656E642C20726573F6
S315080033306574207061727420746F2073746F702EB8
S315080033400D0A00004D6F64204441432043616C2000
S3150800335072756E6E696E6720666F72202575206DB0
S31508003360696C6C697365636F6E64730D0A0000009F
S3150800337073796E6F66667365740000006D66672004
S315080033806765742073796E7468206F6666736574F2
S315080033903A2025642073746570730D0A0D0A0000BF
S315080033A06D6667207365742073796E7468206F661E
S315080033B0667365743A2025642073746570730D0A04
S315080033C00D0A0000746F6B656E000000726561641B
S315080033D0000000006D6667207265616420746F6B7B
S315080033E0656E20544F4B454E5F4D46475F53594EC9
S315080033F054485F465245515F4F46465345543A2016
S3150800340030782532780D0A0D0A0000007772697443
S31508003410650000006D666720777269746520746FB1
S315080034206B656E20544F4B454E5F4D46475F53596B
S315080034304E54485F465245515F4F46465345543AA7
S315080034402030782532780D0A0D0A00006D6667204F
S315080034507374617274203C77616E742063616C6C5E
S315080034606261636B2C20303D46616C73652C20319C
S315080034703D547275653E0D0A000000006D666720B2
S31508003480656E640D0A0000006D666720746F6E65D0
S315080034902073746172740D0A000000006D6667205F
S315080034A0746F6E652073746F700D0A006D66672001
S315080034B073747265616D2073746172740D0A00000D
S315080034C06D66672073747265616D2073746F700D15
S315080034D00A0000006D66672073656E64203C6E7591
S315080034E06D5061636B6574733E20746573742D70DB
S315080034F061636B6574203C6C656E6774683E0D0A83
S31508003500000000006D66672073656E64203C6E756A
S315080035106D5061636B6574733E2072616E646F6D86
S31508003520203C6C656E6774683E0D0A006D66672000
S3150800353073656E64203C6E756D5061636B6574735C
S315080035403E206D6573736167652000003C6669728D
S31508003550737420382062797465733E203C73656302
S315080035606F6E6420382062797465733E0D0A000018
S315080035706D666720706F77657220736574203C707E
S315080035806F7765723E206D6F6465203C706F776556
S31508003590726D6F64653E0D0A000000006D66672057
S315080035A0706F776572206765740D0A006D6667200F
S315080035B06368616E6E656C20736574203C63686130
S315080035C06E6E656C2031312D32363E0D0A000000D4
S315080035D06D6667206368616E6E656C206765740D3D
S315080035E00A0000006D666720746573746D6F646306
S315080035F0616C203C6368616E6E656C2031312D32DA
S31508003600363E203C23206D696C6C697365636F6E6A
S31508003610647320746F2072756E2C2030203D3D2017
S31508003620696E66696E6974653E0D0A006D66672087
S3150800363073796E6F666673657420736574203C23B0
S315080036402031312E376B487A2073746570733E20AB
S315080036502D2076616C7565206973206F6E6C7920F4
S3150800366073657420756E74696C206E657874207243
S31508003670657365740D0A00006D66672073796E6F51
S315080036806666736574206765740D0A006D66672043
S31508003690746F6B656E20726561642073796E6F66F0
S315080036A0667365740D0A00006D666720746F6B6536
S315080036B06E2077726974652073796E6F66667365B6
S315080036C0740D0A0025700D0A00000000588B0108C9
S315080036D0792B0008608B010867230008688B0108AE
S315080036E0C9230008708B010855260008748B010849
S315080036F0CD2400087C8B0108732B0008814233D245
S3150800370010185118401E491E10E011F8013900F82A
S315080037100139121F11F8013900F8013911F8013978
S3150800372000F8013911F8013900F8013992B2042A72
S31508003730EBDA92B2002A1EBF11F8013900F80139F6
S31508003740521EF6D1704711F8013B00F8013B121FD3
S3150800375011F8013B00F8013B11F8013B00F8013B69
S3150800376011F8013B00F8013B92B2042AEBDA92B257
S31508003770002A1EBF11F8013B00F8013B521EF6D184
S315080037807047130003D00A46194603F0F9BA704782
S3150800379010B500E0521E92B222B100F012F8F9D02C
S315080037A0181B10BD002010BD10B500E0521E92B2C5
S315080037B02AB100F006F8F9D0181B40B210BD002057
S315080037C010BD10F8013B11F8014BA34270470000E9
S315080037D070B51346101802E0A4192C705B1EDBB2F4
S315080037E04BB101F00F060909451E0A2E2846B4BF3B
S315080037F030243724F0E7101870BD2DE9F24F88B051
S31508003800804601A81446994601AD4FF0000B0027E3
S315080038108DF8000010E00127641E05A885420AD32A
S315080038209DF800002E1A00F0B5F8002839D1B344E7
S315080038305FFA8BFB01AD641C9DF800002E1A2078F8
S3150800384000280BD0252803D017B905F8010BE4E7A3
S31508003850002F14BF0027641C2078010000F08F8019
S31508003860B0F1250113D00B39092968D928395DD05B
S315080038700B390ED0491E2CD008392AD0091F0BD077
S31508003880C91E09D0891E24D0C91E4FD0C5E72520D8
S31508003890DBE759F8040BD8E759F804AB00F07AF8D7
S315080038A0002873D1B3445FFA8BFB01AD002600E014
S315080038B0761CF6B216F80A000028F9D19DF8200001
S315080038C032465146C047002860D1B3445FFA8BFBA5
S315080038D0A3E759F8040B0021002803D52D212970E8
S315080038E040420121002200234FF0000C02E0801B19
S315080038F00CF1010C0FF2041656F82360B042F6D20A
S315080039005FFA8CF6002E08BF002A05D0C9B206F168
S3150800391030024A55491C01225B1C092BE4DBC9B25B
S3150800392030304855481CC0B2451976E759F8041B8B
S315080039300222C9B22846FFF74BFF05466DE76078B5
S315080039400127782818BF5828F8D1641C002714F8CE
S31508003950010C322804D159F8041B042289B2E9E77C
S3150800396034287FF458AF59F804AB04224FEA1A41B9
S315080039702846FFF72DFF04221FFA8AF1DBE700F03D
S3150800398009F818B906EB0B00C0B200E0002009B030
S31508003990BDE8F08F9DF82000F2B201A9404709A1C1
S315080039A016E010B5084BC35C0024012B07D113465B
S315080039B00A4601460548FFF720FF00B901242046BC
S315080039C010BD00000D0A000014400008073F00085B
S315080039D00CB480B502AAFFF7E4FF02BC5DF80CFB45
S315080039E00CB438B5044604AAFFF7DBFF05462046A3
S315080039F0FFF7D5FF284632BC5DF80CFB00CA9A3B98
S31508003A0000E1F5058096980040420F00A086010067
S31508003A1010270000E8030000640000000A00000008
S31508003A2030B5224801680020002201249440CBB218
S31508003A30234213D00FF284001D4C30F812000628DA
S31508003A404CF23C324FF20F031DD16088984216D1D2
S31508003A502188080A0B2812DA084612E0521C92B28C
S31508003A60082AE2D31349088140F201720889904274
S31508003A7004D11148D0E90023C1E9002330BD4FF431
S31508003A80C0606280EEE740F20725A84201BF618860
S31508003A9099422188A942E5D162800846E2E70548AD
S31508003AA00089000A70470348008970472C000040C7
S31508003AB0000000208829002090000020010402044C
S31508003AC001030105060007020309010938B50120AB
S31508003AD003F087FA002003F0E5FBDFF89042206840
S31508003AE040F00800206000F0CAFE03F0CBFB00F0AF
S31508003AF020F88D78DFF87832DD600D8905604D890C
S31508003B00456000F020F8206820F01000206003F0DF
S31508003B10CFFC03F012FE03F04FFE03F0F9FA00F0B3
S31508003B20ACFEBDE8314000F0C8BE40F2016003F0CB
S31508003B30DFBEDFF84012DFF840020A78C2604B7831
S31508003B408E4AD360704788891060C8895060088A91
S31508003B501860488A586040E0F0B50B68884C0F2515
S31508003B606468960005FA06F6344215D0002606EB78
S31508003B70820724FA07F7FF070BD5B70005FA07FCF3
S31508003B8023EA0C0330F812C005FA07F707EA0C0710
S31508003B903B43761C042EEADB0B60F0BDF0B50B68E0
S31508003BA0774CFF256468D600B5402C4213D0002513
S31508003BB0012605EBC20724FA07F7FF0708D506FA18
S31508003BC005F7BB43175C06FA05FC0CEA07073B43F7
S31508003BD06D1C082DEDDB0B60F0BD10B5684801784B
S31508003BE001F0FD010170C90703D5664A4FF400418B
S31508003BF011604068002827D000F066F8201DFFF7FE
S31508003C00CDFF01226049201DFFF7C8FF02225F4948
S31508003C10201DFFF7C3FF0022574900F016F80122BE
S31508003C205B4900F012F80222544900F00EF803220C
S31508003C30584900F00AF804224D4900F006F804F144
S31508003C401400BDE8104046E010BD04F1140083E7F7
S31508003C5038B54B4C207840F002002070C00707D5D5
S31508003C6048484FF40045056000F06CF84A4805607E
S31508003C706068002827D000F027F82046FFF78EFF57
S31508003C80012241492046FFF789FF02223F49204683
S31508003C90FFF784FF0022384900F01AF801223C4950
S31508003CA000F016F80222354900F012F803223949C5
S31508003CB000F00EF804222E4900F00AF804F1080074
S31508003CC0BDE8384007E031BD2A4C34490022704728
S31508003CD004F1080040E7052231493DE7032003F0D7
S31508003CE04BBF80B5FFF7DBFE0FF2C001FFE701EB24
S31508003CF0800002BD0000000010B5FFF7D0FE0446A4
S31508003D00FFF7D1FEC0B208B9012C07D1072C11D88C
S31508003D10DFE804F004100608080A0C0E002010BD9F
S31508003D20092010BD022010BD032010BD0B2010BDB8
S31508003D30062010BD44F0800010BD1148007800F040
S31508003D40010070470E4917480978C9070BD54FF483
S31508003D500041C1600821016013480068C00900F0ED
S31508003D60010004F0A4B908210160704700BC0040B6
S31508003D7000B800402827002000B0004000B40040EA
S31508003D80202A002080E100E00CB400400CB8004076
S31508003D9004B0004004B4004000E100E00CB000406C
S31508003DA004B8004014A8004008B00040554E4B0027
S31508003DB04649420042544C00455854005057520058
S31508003DC05744470020535700435253004653480070
S31508003DD042414400464C5400002181F31188704743
S31508003DE02DE9F0470446884691469A4600F002F9BE
S31508003DF0002801BF25460FF21C20285C012823D184
S31508003E00DFF8E46156F8257004F09AF90021B980C4
S31508003E103980798004F09AF906EB8500066904F082
S31508003E208FF9DFF8C8210021B18031807180A9544B
S31508003E3004F08CF903F081FC53464A464146204675
S31508003E40BDE8F04703F070BB2120BDE8F0872DE9F7
S31508003E50F84381464C46DFF8900100EB840088461B
S31508003E600669484600F0C6F808B1012037E0DFF8D1
S31508003E707C51605D05EB440760B1B888718888425B
S31508003E8008D104F05DF9665D0021615504F05EF91C
S31508003E90304624E0484603F032FCB088F0B104F01E
S31508003EA04FF971880FF278128919897988F8001004
S31508003EB04FF6FF78718832F8142000F01EF87180EA
S31508003EC0B1884144B18004F041F9605D20B1B888F9
S31508003ED0404504BF3088B880002000E02620BDE8B1
S31508003EE0F28380880FF2241333F81110891A884256
S31508003EF001DA0120704700207047491C91FBF2F354
S31508003F0002FB131170472DE9F047804647460FF22A
S31508003F100410385C01288A4616462FD132480FF21B
S31508003F20F80950F82740002514E004F009F9A1889B
S31508003F3001B9012522881AF8011B121991712188E5
S31508003F4039F81720FFF7D9FF2180A188491CA180DD
S31508003F5004F0FCF83046461EC0B258B1002241466D
S31508003F602046FFF7BEFF0028DFD10DB100F009F8A3
S31508003F70222004E000F005F8002000E00120BDE85A
S31508003F80F087404603F00DBB80B501460FF2840268
S31508003F908A5C012A05D1144A52F821108A88002A17
S31508003FA0FCD103F037FB002002BD0CB438B504463B
S31508003FB00D4603F00FFB04AB2A4621460C48FFF7D3
S31508003FC01CFC0FF250012046415C012907D1064925
S31508003FD051F82000808810B1204603F0E2FA32BC7E
S31508003FE000205DF80CFB000048270020042B002069
S31508003FF0E5750008042806DA0FF21801415C481E28
S315080040008041C00F70470120704700000000800003
S315080040100000000000010000000080000000000011
S31508004020000040000000000038B504F093F804F0E2
S3150800403047F9DFF814442078002840F0A7801220BA
S3150800404004F090FA00060BD500F0DBF8000607D559
S3150800405000F0DAF8000603D500F0D0F8000610D410
S31508004060122004F07FFA000614D500F0CAF80006FC
S3150800407010D400F0C9F800060CD500F0BFF8000609
S3150800408008D5E0780E2861D103F0FCFC002800F082
S315080040907F8032BD00F0B5F800060FD400F0B4F802
S315080040A000060BD500F0B0F8C00707D400F0A6F854
S315080040B0000603D4E0780C2845D1E5E700F0A1F81E
S315080040C0000609D500F0A0F800F08100812803D188
S315080040D000F094F800060DD500F093F800060ED40B
S315080040E000F092F800F08100812808D100F086F8E7
S315080040F0000604D4E0780D28C6D00E28DCE700F0C8
S3150800410080F8000610D500F07FF800060CD400F001
S3150800411075F8000608D5E07816281CBF01281A2865
S31508004120B2D00F2815D1AFE700F06BF80006ABD474
S3150800413000F06AF80006A7D400F060F80006A3D5D8
S31508004140E0781628A0D0E07801289DD0E0781A28D3
S315080041509AD0E078022818BF1B2895D0062818BFE1
S31508004160072891D0082818BF09288DD00A2818BF13
S31508004170032889D0102818BF112885D0122818BFFF
S315080041801328FAD0142818BF1528F6D0B02032BD47
S31508004190FFF7A4FD012004F05CFC04F0CDFE04F05A
S315080041A0DDFE04F0E3FE05F093F8DFF8A0420FF217
S315080041B0DC2005F07CFA2070DFF8940205F077FA27
S315080041C0607003F0BDFF0546607805F091FA284651
S315080041D003F0BCFF05F0DCFA05F0B5FC05F008FEB7
S315080041E007F0D8F807F0D9F807F0ECF8DFF864021A
S315080041F04FF4704105F0D3F9002032BD002004F0D9
S31508004200B1B9102004F0AEB9112004F0ABB92DE90C
S31508004210F04707F01BF907F02FFA07F037FD08B942
S3150800422007F020FDDFF83082404608F09DF808B90F
S3150800423006F0F1F8DFF82492484608F095F808B930
S3150800424008F00AFA08F023FD08F0B3FEDFF8FC616F
S31508004250307805F018FA707805F015FA09F026F89E
S31508004260DFF8FC51DFF8FCA1002700240BE020460C
S3150800427005F03BFB2868007B001F022838BF012792
S3150800428005F034FB641C9AF80000E4B28442EED3CD
S31508004290002F1EBFDFF8D0010078002805D000F0F7
S315080042A02AF8102808BF09F0B9FA04F0E1FF09F066
S315080042B031FE03F045FF074607F0E8FC68B14046C3
S315080042C008F052F848B1484608F04EF828B109F007
S315080042D01FFE10B1307805F00BFA384603F036FFAA
S315080042E005F0FCFA18B94FF4BC7100F04AF803F06F
S315080042F06AF8BDE8F08710B505F00FFC48B109F07B
S31508004300C1FE30B109F07FFF00F0010080F0010422
S3150800431000E0012404F097FC08B944F0040407F00F
S31508004320B5FC38B14C4808F01FF818B14B4808F0EE
S315080043301BF808B944F002044C48007808B144F068
S3150800434020044948007808B144F010044848007829
S3150800435008B144F0400409F052FF08B144F0800463
S3150800436009F04FFF08B144F480744248007808B158
S3150800437044F400744048007808B144F48064A0B25C
S3150800438010BD0FF2F80009F061BF38B5044634488D
S315080043900068007BC01E03280BD320460AF005FAE6
S315080043A04FF6FF75A84204BF20460AF05FFCA842F4
S315080043B004D12046BDE8324004F04CBE32BD70B58B
S315080043C004464FF6F87084420D4627DA244E3CB967
S315080043D03068007D800703D428460AF0A6FFD8B9BE
S315080043E0306841888C4205D1011D08222846FFF70E
S315080043F085F911E0007BC01E032808D320460BF080
S3150800440027F9FF2803D029460BF046F920B9294693
S31508004410204604F066FE08B1002070BD012070BD7C
S315080044200F480068008A70470D4909680882704776
S315080044300B480068408A70470949096848827047EE
S31508004440074800680078704796070408C12F0020BF
S31508004450888F0108BC2E0020C8270020BC27002012
S315080044604C2D002098260020602D0020B82B002017
S315080044703C2E00207C2D0020842D00207A6967625E
S3150800448065652D737461636B2E630000F42D00203F
S3150800449075CF0008B82D0020313B0108D82D002023
S315080044A0152C0108A02D0020D5E10008D02E0020EB
S315080044B00D560108B82B00209D5E0008C42B00206D
S315080044C0575F0008602D002019D80008B02B00207F
S315080044D021540008DC2B00205D680008942D00207C
S315080044E04F060108E82E0020C1850108542D00203A
S315080044F0F3F000084C2E0020AD710108AC2D002009
S31508004500C7850108702D0020C1130108002E002060
S3150800451025F60008342E0020C9D500083C2E0020B8
S315080045209DB300083C2D00205F9800087C2D0020D4
S3150800453087120108842D0020C5120108202E0020AC
S3150800454075180108D82E002013770108142E0020AC
S315080045504D400108C42E0020D3500108BC2E00206F
S31508004560418B0108442D00208799000800000000AF
S31508004570000000009A490870704738B5984C2078B2
S3150800458000A9FFF764FCA0BB9DF800202078954D94
S315080045900A2A18BF0D2A8FA102D0202A03D010E0BC
S315080045A000F028F831BDFFF713FA28784119097980
S315080045B0F9B1401C2870C0B208281AD10FF2382168
S315080045C012E0FFF705FA287841190A79112A09DA5B
S315080045D0854D9DF8004000EB001040191454501CFE
S315080045E0087131BD0FF230212078FFF7F1F900F09C
S315080045F048F831BD2DE9F843794C2078012676A193
S31508004600FFF7E6F977480079002838D00025DFF863
S31508004610D881DFF8D891764F0DE056B100F038F919
S3150800462009EBC5004068804700F032F93878401C2D
S31508004630C5B2681CC5B2387885421ADA59F8350009
S3150800464003780146002202E0521CD2B2135C002B0A
S31508004650FAD10126002006E0435C10F808C063453D
S3150800466018BF0026401C9042F6DB002AD5D100264A
S31508004670DFE726B920780FF2BC11FFF7A9F9BDE8E4
S31508004680F14338B50024584D04EB041011214019A4
S315080046900BF0D8F8641C082CF6DB5248011D0022E2
S315080046A000230CC102704DA1524802684C4800789C
S315080046B0BDE83840FFF78CB970B5002201EB01164A
S315080046C003780BB9012070BD13465A1C464D75195F
S315080046D0DBB210F8014B5B5D9C42F1D0002070BD47
S315080046E0A0F130020A2A38BF30380AD3A0F1610295
S315080046F0062A38BF573804D3A0F14101062902D249
S315080047003738C0B270470020704738B5364A01EBD3
S3150800471001139A18092902EB400401DB002032BD77
S315080047206078FFF7DDFF05462078FFF7D9FF05EB30
S315080047300010C0B232BD70B52A492B4D411800EBA6
S3150800474000100A79465D0021012300242D2E0BD185
S31508004750012409E0521E4619D2B2965D303EF6B2E1
S3150800476006FB03110A2673439442F3D3084670BD29
S3150800477010B50446092C01DB002010BDFFF7DBFF4E
S3150800478000F014F804BF00B2404200B210BD10B5E4
S315080047900446082C01DB002010BDFFF7CCFF00F013
S315080047A005F804BF80B2404280B210BD0E4904EB42
S315080047B00412515C2D29704710B50446082C01DBFC
S315080047C0002010BDFFF7B7FFFFF7F0FF08BF404214
S315080047D010BD0000256300000D0A000025703E008C
S315080047E068270020982B0020102B0020CC360008C4
S315080047F03C260020402600200D0A4F5554204F46DF
S315080048002053455249414C20434D44204255464683
S3150800481045520D0A000000000D0A4F5554204F4618
S315080048202053455249414C20434D4420535041435F
S31508004830450D0A00636F6D6D616E64206E6F74209E
S315080048407265636F676E697A65640D0A0000000019
S315080048502D480068C00701D42C4870472C4870477B
S3150800486080B5FFF7F5FF2B49096801B9400802BD75
S3150800487080B5FFF7EDFF400802BD02F076BB26487B
S31508004880012181604EF6BE21416001210160704719
S315080048902249012008607047A52805D11E484DF613
S315080048A0AD6141600221016070471B480068C0077E
S315080048B001D5012070470020704780B51849194A6C
S315080048C01020086018491948007858B103280CBF09
S315080048D000200120106040F651000860002002F018
S315080048E064FD06E0022010604FF40060086002F0E4
S315080048F0F5FA07210E4801600021016410200D49D0
S315080049000860002002BD00001C400040001BB700E4
S3150800491000366E01204000400060004008600040FC
S3150800492080E100E0080000400C600040BD2F002038
S3150800493014A0004000E100E07047704780B500F021
S3150800494008F880B202BD80B500F003F80002000C3A
S3150800495002BD10B503F0F4FB33490A68496841EA19
S31508004960024403F0F3FB3148017831B13049096854
S315080049708C4202D12F48406810BD002101702046A4
S3150800498010BD704780B5FFF7FCFF2B49072008606C
S3150800499001202849087001BD2DE9F8430446002581
S315080049A0206810B9FFF718FA2AE003F0C9FB00F0EF
S315080049B02FF8206810F1010F1CBF401C2060FFF77C
S315080049C0C8FF21681B4E1C4F814600F01CF8216861
S315080049D04944090C0160357002203860386400F0DB
S315080049E01CF801200BF058FA3D64307838B9852553
S315080049F0FFF7AFFF2168081A4844206000E02560E9
S31508004A002846BDE8F2830E48494489B2416070479A
S31508004A1080460A4910200860704710200949086036
S31508004A20404603F093BB0000106000402C2A00208B
S31508004A30302A0020E42B002014A0004080E100E08A
S31508004A401860004000E100E010B50446072C02D1CA
S31508004A50FFF773F930B9E008032803DA00F012F813
S31508004A60194A505010BD10B50446072C02D1FFF75D
S31508004A7064F930B9E008032803DA00F003F8134AAA
S31508004A80505010BD012004F007018840E108890252
S31508004A90704710B50446072C02D1FFF74EF990B9B6
S31508004AA003F04EFBE108032909DA094A02EB8121E2
S31508004AB001230A6804F00704A3405A400A60BDE8C7
S31508004AC0104003F043BB10BD14B0004010B00040C6
S31508004AD00CB0004000281CBF1520FFF7B5BF1520F5
S31508004AE0C1E70000F0B52F4C0D46A16889B006460F
S31508004AF0174629B1082206A8FEF700FE06A8A060F8
S31508004B0027B9FFF78DFC6188814201D1002700E0B3
S31508004B10012730460BF08EFB014605AB3A46304678
S31508004B200BF0C2F9A0BB6068C18804912B46417995
S31508004B3003911122017902914188019100880FF2AF
S31508004B406801009003200BF0A9FC0120207004F0F6
S31508004B50C7FE9DF8142061682846FDF7F0FB04F0AF
S31508004B60C5FE9DF81400FF2818BF07F01FF96DB998
S31508004B706068C18848F240021140402906D1217870
S31508004B80490703D44088FF2107F02AFF0020207038
S31508004B9009B0F0BD0348017811B94FF6FF707047A8
S31508004BA040887047CC2B0020424257574242570054
S31508004BB05C480068408870475A480068001D70477E
S31508004BC058480068C07E704770B5564C564D2168E7
S31508004BD0564E4873022819D100F0ACF878B9206807
S31508004BE0007B001F022824BF304604F0CDFC206855
S31508004BF0007BC01E032824BF284604F0C5FC206895
S31508004C004069C00054BF9024BC240AE000F092F822
S31508004C1010B109F0F3FA03E03070287004F00DFFC4
S31508004C209124204606F0C7FB50B9234613223CA11F
S31508004C3003200BF033FC2046BDE8704004F0A7BE05
S31508004C4070BD38480068407B00F00F007047354853
S31508004C500068407B00F00F00022801D10120704750
S31508004C600020704738B5044600F064F820B12046A5
S31508004C70BDE8324009F0B6BA2A4DFFF7E8FF28B971
S31508004C802868407B032801D0932032BDFFF7D0FB6C
S31508004C9020812868C07BA0722868807BE072204645
S31508004CA001F024FD0020207304F1140104F1100022
S31508004CB00BF005FCE081002032BD10B5002300E0B2
S31508004CC05B1CDBB28B4205D210F8014B9442F7D03D
S31508004CD0002010BD012010BD80B5082103F061F940
S31508004CE008B1002002BDA52002BD0E480068407B21
S31508004CF001281CBF3128332801D101207047002024
S31508004D00704710B504460BF09FFF10B905490968AE
S31508004D10CC7310BD03480068807B70470000000014
S31508004D20424200004C2D00204C2E0020542D00201D
S31508004D3003F08BBE80B5FFF783FB032801D1012062
S31508004D4002BD002002BD80B5FFF7F4FF38B1BDE80B
S31508004D5004404FF490710FF2080009F077BA01BDCC
S31508004D60656D6265722D737461636B2D636F6D6D0E
S31508004D706F6E2E630000000070B5D04D044628788B
S31508004D8010B904F0CAFE08B9012070BDCC4E0BF06C
S31508004D9054FF30710BF054FF707103F056FE3081EA
S31508004DA003F051FF707003F058FF307003F08BFF6B
S31508004DB0B07003F0A3FFF070C2484178B1710021CA
S31508004DC0417001202870C0480460002003F067FF86
S31508004DD0002003F07BFFBDE87040002003F040BFD1
S31508004DE070B5B64D28780024012833D103F0A8F908
S31508004DF02C700646B24DB449A8780C6003F04FFFF4
S31508004E00E87803F063FF304603F0A0F9A879AD49C6
S31508004E104870287803F024FF00B104466878012812
S31508004E2008BF03F0A1FE28890BF039FD00B104463E
S31508004E30A64E95F905003168C8730BF005FF00B159
S31508004E4004463168287988730BF0EFFE00B10446F2
S31508004E50204670BD012070BD10B500F01DF8012870
S31508004E6001D0012010BD03F09BFF022021E010B500
S31508004E7000F012F8022801D0012010BD03F0B1FF9E
S31508004E8016E010B500F008F8012801D0012010BD81
S31508004E9003F074FF03200CE0884C2078704710B5A7
S31508004EA0FFF7FAFF032801D0012010BD03F06EFFBB
S31508004EB001202070002010BD2DE9F0478046C0076C
S31508004EC08A4604D59C210FF2242009F0BFF97B48B5
S31508004ED00078012818BF012020D100267C4F42F215
S31508004EE0107403F02DF9814600203870404603F00F
S31508004EF0E5FB0546484603F029F98C2D03D038789A
S31508004F000028FCD001E0641EEBD1FFF7C1FC761C3B
S31508004F10B6B2B24501D3002DE1D02846BDE8F087E8
S31508004F2066490978012901D001207047674909684F
S31508004F3088730BF07ABE0BF080BE10B50C465F493D
S31508004F400978012901D0012010BD0BF0A8FC38B959
S31508004F505E480068C4732046BDE810400BF074BE76
S31508004F6010BD80B55B4908700BF067FEBDE80240CE
S31508004F700BF05BBE574890F9000070470BF060BE17
S31508004F802DE9F04F544F85B004463868002580B2A5
S31508004F9089464FF00A0A0390A8460BF04EFE8DF894
S31508004FA0060020460BF0DBFCB8684C4C4C4E80B231
S31508004FB002904FF6FF72A06AADF80400002120683F
S31508004FC0ADF802000820D6F800B00BF01DFCADF8CD
S31508004FD00000C022114608200BF01DFC414800784D
S31508004FE010B148F2607038614CF25C00F864022037
S31508004FF0A0620120206040F24C4002F0BBF901207B
S31508005000F06030607F200BF005FF039800F5004044
S315080050103860FFF79EFC049002E0B8F1000F04D157
S315080050200020706141F2111003E04FF0FF3070610B
S315080050302D48306188F00108012002F09BF91A2DED
S31508005040A8BF6FF0090A04DA15F1190FB8BF4FF0B7
S315080050500A0A554402982DB22818B860FFF718FCBA
S31508005060B9F1000FD9D0FFF774FC0499401A8145AD
S31508005070D3D20298B8604FF6FF72039838601FFAC9
S315080050808BF030600020F06002202060BDF802003E
S315080050902060BDF80400A0620020F8640820BDF86E
S315080050A000100BF0B8FB40F24C4002F063F99DF893
S315080050B0060005B0BDE8F04F0BF051BC092E0020E4
S315080050C09229002088270020482E00204C2D0020F9
S315080050D00A2E0020C42F0020C01000406020004087
S315080050E02810004095270020EEEEFFFF6D66676CDE
S315080050F069622E6300000000DFF8C02A1268127881
S3150800510082420AD019B1012A03D1022805D000200B
S315080051107047022A08BF0128F9D101207047DFF835
S31508005120A01A0875704710B5DFF8904A2068407BCA
S31508005130112804D0B9210FF2100009F087F8216868
S315080051404120487310BD00006173736F6369617411
S31508005150696F6E2E6300000080B5022004F0BCFB68
S3150800516004F0C3FB00F081FC001F022805D2DFF81B
S31508005170500AC17C491DC17405E04FF47A71DFF805
S31508005180440A04F00CFA00F0FCBE10B5DFF8304A09
S31508005190002060742078FF2803D006F007FEFF2061
S315080051A0207010BD70B582B004460D4606F08AFD23
S315080051B0007C00F00701400800F0380000EB4100D1
S315080051C000F11106DFF8C80C0068205CF6B28642CA
S315080051D00BDA831BDBB20F2BA8BF0F23002000902E
S315080051E032462146284606F080FE304676BD1FB573
S315080051F001200BF04BFF0BF04DFF04F04AFE18B3ED
S31508005200DFF8BC49207800A9FFF7CCFFDFF8B4190E
S31508005210002008700DF10300617901F075F9FFF7B8
S31508005220B4FF00F012F800F01DFC007DC00702D59F
S315080052300CF0C8F808B90CF0BDFA0CF0C2F80BF07F
S3150800524079FF012001F098FA1FBD10B500F00AFC9D
S31508005250017BC91E032906D240884FF6FF71884292
S3150800526008BF032008D0FFF7A3FC0446FFF7A4FCF9
S31508005270214603F06BFE0220FFF7A6FC0BF016F999
S3150800528000F083FEBDE810400CF0C3BA38B5DFF86D
S3150800529030492075FFF779FF00214FF6FF7001F0BE
S315080052A03BFADFF818592868417B032918BF0029FB
S315080052B01DD0332918BF432913D101F0C9F928682D
S315080052C0017BC91E032906D203214173207DBDE84F
S315080052D0324004F05CBB207D04F059FBBDE8314048
S315080052E0B3E721214173BDE8314001F029BB31BD47
S315080052F010B500F0B3FB002048734FF6FE70FFF7B9
S3150800530093F84FF6FF70FFF797F8DFF8B44801F007
S315080053109FF9207DBDE8104004F039BB3EB5044630
S315080053202346E07A0FF2B8010290152294F90A0092
S3150800533001902089009000F003FA00F059FF78B92F
S3150800534020894FF6FF7188420AD0DFF8580C00789A
S315080053500A2805D104F0CBFA10B904F0CAFA08B144
S3150800536070203EBD2868007D800706D5DFF8380C1A
S31508005370007810B10CF0ECFB00E00020214601F0AB
S315080053807FF8050008D1012001F05DF80021012011
S315080053900CF063FD050001D028463EBDDFF8200865
S315080053A0007E08B109F0FEFA002208212046FFF720
S315080053B084FC30B10421204602F0F3FD08B9A5208B
S315080053C03EBD00202074DFF8E40B60610020E08118
S315080053D0204600F0F5F8054604F041FADCE700003F
S315080053E0423870574242000010B504462346182238
S315080053F001F030F9DFF8B80B0021017114B1FF2C68
S3150800540002D10121017007E0012100F8041BA10067
S31508005410491C090204F0C3F800F0B7FD002010BDCE
S31508005420DFF88C1B00200871DEE730B50D4689B021
S31508005430044668690FF27C1107902346287C06907B
S315080054401622E8890590287B0490E87A039095F956
S315080054500A00029028890190009500F071F9287BCE
S3150800546000280CBF4FF6FE70FEF7DAFF2B462246E1
S3150800547009B0BDE83040014601202DE9F041DFF8CA
S315080054803C6780463068407B00280F4614461D4618
S315080054904BD1002C49D0062C47DADFF8080B0078E8
S315080054A00A2842D104F023FA00283ED104F021FA52
S315080054B008B1042C39DB287B032816D14FF6FE7079
S315080054C0874214D1012C08BF002710D0022C2CD1FA
S315080054D0FEF7A6FF4FF6FC71884202DAFEF7A0FF38
S315080054E001E00CF035FB074601E0012C1DD0B8F1B0
S315080054F0000F0CD0287B03280CBF01210021012CAA
S315080055000CBF012000200CF0A8FC00284ED129462B
S31508005510384600F0B5FF002848D104F0E2F904F057
S31508005520C9F920B104F0E5F908B170203EE0306809
S31508005530DFF88C76407B33281EBF53280020787509
S31508005540204600F080FF387E20B104F0D2F908B971
S3150800555009F028FA287B032803D12846BDE8F0413C
S315080055602EE00822294607F10800FEF7C7F8287B2F
S315080055700328A8BF00203874FFF707FE9420387563
S31508005580387C316800280CBF012031204873002080
S3150800559031687A7EB8740120897B00FA01F103200C
S315080055A00DF056FA10B1326800215173BDE8F0814A
S315080055B000000000424238705742424257424400B7
S315080055C010B5044600220821FFF777FB08B1012031
S315080055D010BDFEF725FF00224FF6FF7100F078FF99
S315080055E0217C204600F090FF6269E189207C0AF060
S315080055F090FFDFF8C8050068007B012808BF0DF09A
S31508005600BEF9FFF722FE002010BD002038B5DFF8EE
S31508005610AC4505462068407B002802BFDFF88409B0
S3150800562000780A2801D0702032BD08F000FE002854
S3150800563041D12DB102222946DFF8C00BFEF75EF8EC
S3150800564000A801F035F808B1932032BD9DF8003066
S31508005650142200F0FFFF00F09FFF68BB9DF80000D2
S3150800566000F0F1FE2068007B012818BF022806D04A
S31508005670C01E03280FD2002001F05AF858B100F0D6
S31508005680A2FF2068007BC01E032838BF07F010FB66
S31508005690FFF7DBFD0FE02168132048730020DFF8D1
S315080056A02015887405222168897B012000FA01F1FA
S315080056B005200DF0CDF9002032BDFF22FFE72DE9C8
S315080056C0FC41044600F0CEF90D46017B01299046BF
S315080056D025D0407B022818BF032820D1FFF733FBCB
S315080056E0DFF8DC747A7E294603200DF0B1F906004E
S315080056F016D13320FFF768FAFFF747FDFEF798FE45
S31508005700F880002C14BF02200120387407F1080025
S3150800571000F0ECFF0020B87487F8158000E07026CA
S315080057200196009523462C220FF20C0100F008F88A
S315080057303046BDE8F68100004242444200000000BF
S3150800574003200AF0ABBE38B5044606F0BBFA054698
S3150800575020460DF0AAFB441920460DF0A7FC4FF68B
S31508005760FF5101402046BDE834400DF0A6BC70B597
S3150800577084B0FEF755FEDFF84844064620780B212C
S315080057800DF072FB002100F0C7FFDFF83054FFF779
S31508005790ACFA58B11EB14FF6F870864206DB0CF02B
S315080057A0D7F90646286840888642F8D03046FEF77C
S315080057B03BFE207809210DF057FBFEF73DFE2E68CB
S315080057C0307B052813D100F09CFF8DF8080002AB4A
S315080057D0207C00280CBF4FF4804244F201020120CD
S315080057E000904FF48061708806F000FF0FE00620F5
S315080057F08DF8080000F085FF8DF8090002230020C7
S315080058000190009002AA708801210AF06FFC0646F2
S31508005810FF2E08BF002011D02868418830460DF0B9
S3150800582080FB207C02281CBF3046FFF78CFF00F067
S3150800583047F80446304606F0B9FA204604B070BD6B
S3150800584070B586B00C4616461D4638B920460DF08A
S315080058505BFC02AA03A908F0C6FF03A807218DF876
S3150800586008100190310A8DF80A1001200A998DF85E
S315080058700B1000908DF80960042302AA0121204626
S315080058800AF034FC0646FF2E18D021460DF049FBD7
S3150800589015B93046FFF757FF0B9808B930460DE0A3
S315080058A0204608F0CCFF18B1304607F02FFA01E081
S315080058B000F006F8304606F079FAFF2006B070BD0B
S315080058C0002200231146304608F092BB2DE9F64F18
S315080058D083B004461E4600274FF6FF7856B14FF0B0
S315080058E0010B30460AF040FC81467078400800F00B
S315080058F0010A05E0BB4610460DF07AFB8146BA461A
S3150800590000F0B3F8C01E0328C0F0A1800E98411C11
S315080059109DF81000C9B206F0DFFB0546680800F0DE
S3150800592001008DF808009DF80C0018B9280658BF24
S3150800593045F0800500F096F8407B022804D1DFF890
S3150800594070060078204301D102271CE04846FEF77E
S315080059501CFD9DF80C1084F0010202EA0108BBF157
S31508005960000F1CBF301D0DF0A1FB0121009143461D
S3150800597001462A46484608F094FE80464FF6FF70D0
S31508005980804508BF0127DEB11CB94FF6FF70804578
S3150800599004D1301D0DF08AFB014600E04146012086
S315080059A001900097534642464846FFF749FF9DF83F
S315080059B0080050B94FF6FF71484609F0B3FA04E0FB
S315080059C03A46414648460DF04AFD002F3FD19DF81C
S315080059D00800E0B14946404609F0C7FA0E2101FB26
S315080059E000F700F03BF8896A79184A7942F04002D4
S315080059F04A7109F0EDFA00F035F8806A38186A0637
S31508005A0041794CBF41F0800101F07F014171F6B147
S31508005A10DFF8906C9DF810003070FEF701FD6906FE
S31508005A200FF2300C48BF0CF1010CBAF1000F18BF89
S31508005A300CF1020C02D10CB90CF1040C01469CF8CD
S31508005A4000004B4642460DF08DFDFF20307005B034
S31508005A50BDE8F08F0307000401050000DFF8481CC5
S31508005A6009687047554800687047DFF83C0C0068BD
S31508005A70007B70472DE9FE4F04468846914640460E
S31508005A800DF01DFA4E4D2F7C824607B101274B4E6D
S31508005A903068007B052808BF01273CB150460AF04C
S31508005AA063FB834650460AF052FB05E040460DF07C
S31508005AB09FFA8346DFF8F40B029004230020009037
S31508005AC04A46414601A806F010FA0DF105000DF008
S31508005AD0EDFA9DF807908046D4B10298DFF8CC1B02
S31508005AE00822FDF755FE002863D13068407B02285E
S31508005AF008BFB9F1000F0BD14046FEF795FC0BF035
S31508005B0059FE992300F0A5FD992003F040FF50E0C7
S31508005B10FFF7EBF800284CD0002F14BF204684F07E
S31508005B200100002845D0B9F1000F03D09420FFF7F3
S31508005B30ADFB3EE030684088594609F016FA09F090
S31508005B4047FA306841885A46404600F0C1FC30683A
S31508005B50417B012916BF31291121432141730220B6
S31508005B6003F0B9FEDFF87C7C40F6B831384603F01E
S31508005B7016FD07F09DF80020E8743068C17E19B953
S31508005B80384603F001FD11E034B19AF8011089078F
S31508005B9002D5FFF72CFB09E0007B001F022805D27F
S31508005BA00521384603F0FBFC0620E874AD20FFF714
S31508005BB0B6FA03F054FEBDE8F78F00004C2D00201E
S31508005BC06C270020B82B00202DE9F04F8DB0054634
S31508005BD00DF075F981460DF0B7F9039028460DF0DA
S31508005BE007FA804602AB052205A928460DF050FFA4
S31508005BF00446022C8DF800002ED028460DF055F9E3
S31508005C00039908189DF808100818C6B231462846A0
S31508005C1006F062FA0190FFF78DF820B1019807287F
S31508005C201AD1012C18D00198DFF8BCBBDFF8787AB6
S31508005C30F41C01284FF6FF7A0FD0022815D0042845
S31508005C4000F0F680062816D0072800F0818008287C
S31508005C503AD07C2800F0B48019E100210096002390
S31508005C602A460846FFF732FE11E132462946002049
S31508005C70FFF700FF0BE1404608F097FD0446544540
S31508005C801AD0214640460DF09BFBDFF8640B0078DE
S31508005C90800711D520460DF037FAFF280CD0DFF81B
S31508005CA0542B1268002142F82010DFF84C1B0968B3
S31508005CB0425C42F0F00242543868407B022802D126
S31508005CC0404602F09EFAE2E000200BF0DFF9711C74
S31508005CD000F0E0F88146E1B200F0DDF80446B11DB7
S31508005CE000F0D8F806465645EDD006F0E1FF3868CC
S31508005CF0407B132808D100F066FC28460DF078F999
S31508005D000146204609F031F93868407B022818BF59
S31508005D1013281CD13046FEF787FB4846FEF78CFB56
S31508005D200021002000F0F0FB4146204600F0F4FC7C
S31508005D309BF80300DFF8C41A087000F026F93868E3
S31508005D40417B132903D1232141730CF00EFF9EE0FA
S31508005D5001210398484406F0ACF8044600220023C3
S31508005D602146104602F04FFA204606F01FF838681A
S31508005D70407B022802BFDFF8884A20780028E6D14F
S31508005D809DF8001005AA28460DF0B2FE002816D088
S31508005D9000F06CFF05469BF9191001208840C0EBFE
S31508005DA000181FFA88F6002003F095FD95FBF6F01B
S31508005DB006FB1050411C89B2204603F0F0FB66E052
S31508005DC0284605F07FFF30184178652904BF80789A
S31508005DD06D285CD12E480068285CE4B2844256D20D
S31508005DE00822414603A8FDF789FC00AB002221469C
S31508005DF028460AF059F8002849D19DF80000FF28DE
S31508005E0045D0DFF8004ADFF89C680120207035701D
S31508005E1003F066FD03A89DF8001002F0AAF903F046
S31508005E2065FDFF203070002020709DF800002CE0F2
S31508005E3028460DF0FAF80446DFF8CC090078FE2863
S31508005E4009DB28460DF045F8000B00F00101204655
S31508005E5002F095F91BE00FF600200088ADF80A005D
S31508005E6002230020019000900DF10A02012120462C
S31508005E700AF03CF90546FF2D09D021460DF051F8E8
S31508005E800021284603F096FD284605F08FFFACE171
S31508005E904C260020C9B2284606F0C5B970B50220BE
S31508005EA003F01AFD03F021FDDFF83859DFF8F8672B
S31508005EB00020287003F0EDFF28B13068C07E10B9C5
S31508005EC0FFF795F93EE0DFF8204903F0E2FF10B945
S31508005ED0FEF70BFF58B1E07C48B1C821284603F00D
S31508005EE05EFBE07C401EE07403F099FD2AE0306812
S31508005EF0407B132809D0FEF7F8FE30B93068407B9E
S31508005F0011281CBF4328412803D1207DFFF7BEF97D
S31508005F1018E0022818BF032803D0002818BF212834
S31508005F2010D10024DFF8E45808E0204603F0DDFC31
S31508005F30002000F021FC03F0D9FC641C2878E4B2A8
S31508005F408442F2D3BDE8704003F0D0BCDFF898185D
S31508005F500020C874704780B5002003F0BDFC03F02C
S31508005F60C4FCDFF89C1800200870DFF83C070068BE
S31508005F70417B022905D1007BC01E032828BF0DF0EE
S31508005F808DFABDE8014003F0B1BC80B503F0BBFC57
S31508005F90FF28DFF87C181ABF05480078002008702B
S31508005FA001BD0000CC270020DA2F002000F8FF07EB
S31508005FB0AC2B00202DE9F04F0446DFF8580800689E
S31508005FC08DB0205C0090204605F07CFE0646B01D8C
S31508005FD00DF06CF8074606F109000DF067F88146E2
S31508005FE006F10B000DF062F8ADF80A0006F10D0097
S31508005FF00DF05CF88346C00B8DF80800FEF79AFE94
S3150800600018B1204608F0F8F8EFE008A92046FFF78F
S31508006010C9F808AEB178C1F3C3010391717801F0EC
S315080060200F0A00992029ACBF9DF82E804FF0000872
S31508006030021F0023D2B22146052002F0E4F800F040
S31508006040D7F8022812D1FEF7F3F981450ED104A834
S3150800605000F04CFB00981C2806DB08220DF12301F2
S3150800606004A8FDF795FB08B10AF087FBB7F5004FC2
S3150800607002BF2BF4404040F6FF718842C4D1009815
S315080060801C28C1DB002208210DF12300FEF715FEAE
S31508006090002839D1DFF880070078012830D19DF82B
S315080060A008000FF2AC710090CDF804A04B462722E9
S315080060B0FFF746FBDFF8640700788DF81200ADF8A5
S315080060C010908DF81CA08DF81D8008229DF80800F8
S315080060D08DF813000DF1230105A8FDF70FFB2868BD
S315080060E0DFF8C075407B01281CBF33283C7003F0DD
S315080060F0F7FB04A8FCF721F9FF20387003F0F6FB3C
S31508006100DFF8E476B87C00286FD1FEF7EEFD0028AC
S315080061106BD0012078740022082107F10800FEF7E9
S31508006120CCFD10B1F888814508D008220DF123016D
S3150800613007F10800FDF72CFB002856D19DF808004A
S3150800614028B92868407B312818BF33284DD101214A
S315080061505046FEF7D1FF002847D09DF820000028BA
S3150800616002BF7078000902283FD12868017BB278FF
S31508006170022902D1500709D437E0120606D40529A8
S315080061801EBF4088BDF80A1088422ED13878DFF83D
S315080061909056DFF89066FF2813D0787980450BD1A2
S315080061A097F9020096F9001088420ADB1DD1787823
S315080061B02978884205D318E0A8EB0000C0B28128E8
S315080061C013DAFEF7E2FF3C70204605F0E1FD287879
S315080061D078703078B87003980F28B4BF401C0F2029
S315080061E0F87087F804A087F805800DB0BDE8F08F31
S315080061F0DFF834562868407B70470000C02B002023
S315080062002DE9FF410546DFF8E04501200E46174611
S31508006210A07405F0CBF8002813D1A846B8F1010FF1
S3150800622018BF002D0ED1009733462622B5A1FFF7D9
S3150800623087FA03F055FB39463046FCF77DF803F03C
S3150800624055FBA4E0FEF776FD28B13A4631462846C6
S3150800625007F0D1FF9BE0FFF7CBFF23280DD1FEF710
S31508006260A7FC0446FEF7A8FC214602F06FFE0220B2
S31508006270FEF7AAFC0AF05EFF89E0002FFCD1212870
S315080062801CBF0428532802D100F05AFB7FE0FEF712
S315080062902CFD00285BD02678FF2E05D1607C0028CF
S315080062A00CBFAB20942066E02868007BC01E03283C
S315080062B089412079C90FFEF71FFF08B998205AE0CF
S315080062C002F08FFC052130460CF0E9FD2968887339
S315080062D003F0C5FA207C68BB2868007B052829D00E
S315080062E000F00FFA0746092130460CF0BDFD80463E
S315080062F00B2130460CF0B8FD3A4641460DF094F8AD
S31508006300E0B99420FEF70BFF022003F0E4FA2968AF
S31508006310DFF8D0044A7B012A07D0312A18BF332A6E
S315080063200ED1097B091F02290AD2C82103F037F9C1
S3150800633003200AE0FFF71BFA0028E2D194201AE0AE
S315080063404FF4167103F02BF90020E0741FE028685B
S31508006350407B132815D100F017F9BDF80000FEF7A9
S315080063606BF800F030F92868017BC91E032905D2AD
S31508006370332141739620FEF789FF08E0FEF765FF93
S3150800638005E0B8F1020F04BF304607F084F84FF471
S31508006390006008F0E7F810B907F07CFE08B10DF0C8
S315080063A0ADFBBDE8FF811FB5044600208DF800004F
S315080063B0FFF758FB007840F020008DF80100FEF743
S315080063C0B9FC18B1204607F020FF3AE00DF10300AA
S315080063D000F08CF90322FF210DF10B00FDF7D1F92E
S315080063E00AF081F88DF80E00DFF84014DFF818047B
S315080063F0DFF83C240078DFF83C34097812781B78FB
S31508006400FE28A8BF0020091A9B1A9042B4BF101A8A
S315080064100020DFF8E8231278DBB2C0B2D200C01839
S31508006420C9B242F004028842B8BF42F080028DF831
S31508006430022000A90F22204605F0C1FD401E80411A
S31508006440C00F04B010BD38B5DFF8DC530446286821
S31508006450017BA14203D00473204603F095FA24B1C8
S315080064602868007B001F022805D203F00AFAFF28D5
S3150800647008BF012000D00020BDE8324002F0F0BB82
S3150800648038B50D460446E87A0B38102801D38A2019
S3150800649032BD95F90A00FEF734FC08B18B2032BDEF
S315080064A08148E97A026891730068A97AC17320461F
S315080064B0FDF7BAFF4FF6FE7084420CBF4FF6FF7029
S315080064C02889FDF7B9FF2889C749C880002032BD49
S315080064D038B50C461546FDF7A7FF0BF00DFB294608
S315080064E0204600F019F9C0480178FF2918BFC0787E
S315080064F005D1FFF7BAFA01280CBF00200120BF49D1
S31508006500087031BD424242007FB504460D4600F090
S315080065103BF8654E94B1C84A0021284609F0F9FFB0
S31508006520306801788DF804100822007B8DF8050084
S31508006530214602A8FDF7E2F808F0AAFE3068817B3A
S315080065408DF80310C07B8DF80200FDF771FFADF8DA
S315080065500000FDF765FFADF8060000F017F87FBDEF
S315080065601FB5044600F010F81CB100208DF8050090
S3150800657007E0FDF755FFADF80600FDF759FFADF842
S31508006580000000F003F81FBD00A835E0102307221D
S3150800659000A900200DF0EDBC00B58BB0FFF7F4FFA5
S315080065A0BDF80000ADF8180004A99DF803008DF8A1
S315080065B01B009DF802008DF81A00BDF80600FFF7CB
S315080065C05FFF0BB000BD1FB5012000F0B1F804460F
S315080065D008F069FEFFF7D8FF1CB900224FF6FF71D5
S315080065E003E0FFF73FFA4188021DBDF80600FFF7F2
S315080065F06FFF0DF028FD1FBD01461023072201205D
S315080066000DF0B7BC38B5082003F066F9044603F068
S315080066106CF9254D894829680078887303F063F971
S31508006620A04208BF03F0F1F800210020FFF76CFF35
S315080066309B2300F00EF89B2003F0A9F92868002197
S31508006640A0F84410A0F84610BDE8314003F04EB952
S31508006650237D132265A1032009F020BF80B5A0F190
S315080066600B01102901D38A2002BDFFF7F7F9497BF0
S31508006670022918BF032901D0702002BD6F4908708E
S31508006680082003F028F900216D4803F01DFA20B10F
S31508006690012808BFFFF7B6FF01E0A12002BD0020D0
S315080066A002BD0000902700204C2D0020A42B0020BE
S315080066B01FB50446FEF73EFB18B1204607F094FDC9
S315080066C012E000A8FFF798FF9DF8050040B10628DC
S315080066D006DAFFF7C3F99DF804200978914201D03C
S315080066E0932001E02070002004B010BD1FB50446B9
S315080066F000A8FFF781FF082202A92046FCF7FEFF43
S315080067001FBD5048007800B14020474A4E491268DC
S31508006710127B515C08437047434A1368588019B97D
S315080067200822181DFDF72DB80822181DFCF7E6BF2C
S3150800673010B504462B48007AC00784B011D50A2341
S315080067400A2200A901200DF014FCBDF808004FF636
S31508006750FF71884205D00822FF2100A8FEF7ADFA8E
S3150800676008B1002006E024B1BDF8080000A9FFF72B
S31508006770D3FF012004B010BD70B51A4D0446287A1F
S31508006780C00784B00CD5284E306841884FF6FF7292
S31508006790914207D100220821001DFEF78EFA08B1A2
S315080067A000201DE044B1022003F095F84FF4F041B3
S315080067B0284602F0F4FE12E030684188ADF8081069
S315080067C00822011D00A8FCF799FF0A230A22FFF7F1
S315080067D0DFFE02230B221D4900200DF0CAFB012013
S315080067E004B070BDB82B00206C2700204242000080
S315080067F08C2D00206C260020B8260020DD2F0020D6
S31508006800C42B0020CC2B0020B72F00209826002070
S31508006810DF2F00204C260020CC270020D72F002071
S31508006820D52F0020D62F00204C2D0020D82600205A
S31508006830192F0020182F002000F8FF07C02F00206E
S3150800684005660008818F0108E4EB00088E2D0020FC
S3150800685042574242000000000460000080B5DFF89D
S31508006860841300200871062003F036F803F03DF87B
S31508006870DFF874030068407B042814BF532800F02F
S315080068805FF8BDE8014003F031B880B517229DA135
S31508006890032009F003FEFEF756FABDE80240002081
S315080068A04AE0F8B5DFF8404323685D7B002D18BF42
S315080068B0212D05F00F0607D01D7B012D01D1850678
S315080068C002D4C84D2F790FB17020F2BD2A70012E5F
S315080068D0C64A118004D12120587300F031F829E006
S315080068E081064CBF53210421597321680A7BD21EA5
S315080068F0032A39BF4A8800F020004FF6FD7200F0DF
S31508006900A0000146104600F032F92068407B0428B2
S3150800691004BF0120FFF724FE062002F0DCFF2068F2
S31508006920007BC01E032834BF022008200102281D50
S3150800693002F035FE0020F2BDFF224FF6FF71B0E7E8
S3150800694080B506F09CFE07F0AAFB06F02EFBA848C9
S3150800695000780A281CBFBDE801400CF006B90620DD
S3150800696002F0B9FFBDE8044001210FF2090003F067
S31508006970ABB8000010B5062002F0AEFF02F0B5FF76
S31508006980994C2068417B532906D103214173012084
S315080069900021FEF792FE26E0042918BF212922D1FC
S315080069A00120FFF7DDFD4FF6FE70FDF73DFD4FF6C2
S315080069B0FF70FDF741FD0020FFF745FDFFF7E5FAFB
S315080069C003F041FA04F0F4FC2068407B212802D148
S315080069D0FEF78EFC07E00020FEF7F6F800214FF4DC
S315080069E0004008F052FC02F081FFBDE8104002F0BA
S315080069F036BF2DE9F8430E468046511CC9B23046CB
S31508006A0005F06AFB054630460CF059FA0646B01CF6
S31508006A100CF04CFB0746A809DFF8CC9100F00104FE
S31508006A20D9F80000017B032903DB4088804503D0A1
S31508006A3022E04069C0011FD484B17078000708D5E8
S31508006A40304609F084FB08226A49FCF7A1FE0028B3
S31508006A5002E0FDF7E5FC874251D107E00329A4BF10
S31508006A604FF6F870874209DBE80907D0012241464C
S31508006A7005F0A000FFF715FF002C40D1D9F800005B
S31508006A80007B03283BDA7078C00638D5304609F013
S31508006A906BFB06463146002007F0A9FD0446FF2C8D
S31508006AA0554F09D0387808B1A80602D4204600F018
S31508006AB02BF8204607F062FF404608F004F9FF2845
S31508006AC00DD008F0A0F9387848B1A80607D4FDF724
S31508006AD0A7FC20B10222314640460BF04DFCFDF7DB
S31508006AE09FFC60B902F0FCFE4FF6FF7302223146A6
S31508006AF0404601F030FBBDE8F14302F0F7BEBDE8C1
S31508006B00F1830000420000001CB507F05CFE044655
S31508006B1000A907F0B9FE50B1FDF782FC38B1FEF7BF
S31508006B204FF820B1022200A920460BF025FC13BD20
S31508006B3038B504460D460CF0E7FA0146FF2901D19F
S31508006B40012032BD284A1268D27E4AB12B4A126801
S31508006B5032F81110490403D507F010FF002032BDA2
S31508006B60FFF7D2FF45F040012046BDE8344030B576
S31508006B700446880985B000F0010504208DF8080050
S31508006B808DF8091045B103A9204607F07DFE08B91E
S31508006B90012024E003A800E00020019000950223CC
S31508006BA002AA0121204609F0A1FA0546FF2D08BFD1
S31508006BB0182014D04FF6F870844206DB0023002212
S31508006BC00221284607F014FA03E02146284603F076
S31508006BD0E9FA0446284605F0E9F884F0010005B00C
S31508006BE030BD0000D82B00204C2D00209227002015
S31508006BF0CC270020A42B0020DA2F002068260020AE
S31508006C0038B504460CF05BF90546204609F08DFABE
S31508006C10411CC9B2204605F05FFA697809070AD50A
S31508006C20284609F094FA0146002007F0E0FCBDE882
S31508006C30324007F0A3BE40065CBFBDE83140FFF70F
S31508006C400DBE31BD81B209B94BF6EF610E4A11800E
S31508006C50000C08BF4FF6CE205080704702881304F8
S31508006C6048BF4A40510001801046704738B5064C67
S31508006C7062212046FFF7F2FF054641F20B01A01CF0
S31508006C80FFF7ECFF684032BDE026002030B5044629
S31508006C9010467F2808BF00204BF23462914283B029
S31508006CA01AD108237F2240F6120100A8FFF7EEFF4B
S31508006CB008220FF2C40100A8FCF76AFD30B90823C0
S31508006CC07F2240F2A27100A8FFF7E0FF082200A980
S31508006CD02046FCF713FD37BD1F4D294300FB031162
S31508006CE01A462046FCF70AFD37BD2DE9F0440C4646
S31508006CF019490FF2780A41EA0006C007154602D577
S31508006D00622100F02FF8E80702D5632100F02AF87F
S31508006D101248864204D3A819401E1149884202D354
S31508006D20642100F01FF8002706E0B85DFF2802D0AE
S31508006D306B2100F017F87F1CAF42F6D36A0821468C
S31508006D4030460DF0CFF928B15046BDE8F044712120
S31508006D5007F07CBABDE8F0840000040800080408BF
S31508006D6000100408504607F071BA00006D66672DDA
S31508006D70746F6B656E2E6300FFFFFFFFFFFFFFFF5B
S31508006D8062F30F2262F31F42401810F0030308D083
S31508006D90C91A1FD3DB0748BF00F8012D28BF20F802
S31508006DA0022D130030B414461546103928BF20E9C1
S31508006DB03C00FAD8490728BF20E90C0048BF40F82C
S31508006DC0042D890028BF20F8022D48BF00F8012DA0
S31508006DD030BC7047C91818BF00F8012DCB0728BF6B
S31508006DE000F8012D70470000DFF8381451200860BC
S31508006DF070472DE9F0410546FDF732FDDFF8281406
S31508006E00B0FBF1F64FF4F070B0FBF6F71E2D3FB26B
S31508006E1001DBE81B04D5A8B2BDE8F04100F0AABA28
S31508006E2001F08EF980460DF0A3F9DFF80014DFF8BB
S31508006E300024012048700721DFF8F80300F041F824
S31508006E40E91B09B27143C91C8908491EDFF8E853D2
S31508006E50416000F0BDF8DFF8CC733C68386820F074
S31508006E60400038600DF086F93C602E600DF086F91A
S31508006E700DF08CF94046BDE8F04101F067B938B528
S31508006E800546FDF7EDFCDFF8A013B0FBF1F44FF46F
S31508006E90F070B0FBF4F02D1A1E2D04DA92210FF2D1
S31508006EA0D83007F0D3F9DFF88C03DFF884230721FD
S31508006EB000F007F805FB04F1C91C8908491E416062
S31508006EC031BD01600021416081604FF000711160A1
S31508006ED07047DFF8582301215170D0E7DFF85C03CB
S31508006EE0006800B970472DE9F041DFF85453DFF820
S31508006EF0546300242C6034604FF4A040706041F263
S31508006F009A084046FFF775FF6F68FDF7B1FC000168
S31508006F1042F21071B0FBF1F000F5C870C01B00B268
S31508006F204FF4487190FBF1F000B20828A8BF07207B
S31508006F3004DA10F1080FB8BF6FF00700306040465A
S31508006F40FFF757FF08274046FFF753FF68680419FD
S31508006F507F1EF8D1FDF78CFC211D4001C908B0FB46
S31508006F60F1F080B27060BDE8F081DFF8D002006809
S31508006F7000B9704738B5DFF8D05201206FF00F041A
S31508006F80A8602C608020FFF734FFE868FF2802D845
S31508006F90641C102CF5DB31BD70B5DFF8B002016852
S31508006FA041F0010101600121416001F0C9F8044680
S31508006FB0DFF8845200F00CF85120DFF868120860F8
S31508006FC02E600DF0DBF82046BDE8704001F0BEB833
S31508006FD02E6828684008400028600DF0CFB80020C9
S31508006FE070472DE9F041954C904D226840F2DC51EE
S31508006FF0012A8846964E974F17DA0221B9803160E2
S31508007000B16901F0030103295BD02168002903D582
S31508007010B16941F00201B161FFF7E1FF5FEA0008DB
S315080070201BD1206800284CD549E0B8884FF6FF7474
S31508007030A0421DD18848018802237F22381DFFF708
S3150800704025FEB888A04204BF0220B880B069800730
S3150800705003D4B06940F00200B0610120A870B88876
S3150800706030600FFA88F0FFF734FF4046BDE8F0813C
S31508007070B3699B07EDD5AB780BB10846F6E7B1685F
S31508007080B36811F0010103D10F2809D2401C06E0AC
S315080070909B0705D53B781BB1032801DB2018B88070
S315080070A0B88839700228BCBF0220B8803068B98811
S315080070B08842D2D1B06900F00300032801D0FFF757
S315080070C06BFF0020D2E72DE9F04780460024554D96
S315080070D0594E01F035F881460DF04AF84046FFF75B
S315080070E080FF08B901240AE000F05DF8D5F800A091
S315080070F000F0BCF8C5F800A037600DF03FF80DF0B9
S3150800710045F8484601F022F8002CE2D0BDE8F087A1
S315080071100220D8E710B54748444C002141608160F9
S31508007120016821F002010160002060704FF00070D4
S315080071303F490860A07838B10020A0700620FFF704
S315080071404EFF00F02BF81CDBE078012814D14348E9
S315080071500121016042490968C90748BF03200FD4C5
S315080071600221E170016C41F00101016404203D49EE
S3150800717008603D49086010BDE078042801D1052063
S31508007180E07010BD80B52948407800281CBFBDE8CE
S315080071900140FFF7BFBF01F028FB01BD2748006883
S315080071A001287047244E3768306840084000306030
S315080071B00CF0E4BF2DE9F8431C4C2179207881F0C6
S315080071C0010108422AD0FFF7E9FF1FDA40F2EB3146
S315080071D00FF2A40007F03AF818E000F0B1FF804675
S315080071E00CF0C6FFE07805280BD0FFF7DBFF0D4D46
S315080071F0D5F8009000F03AF8C5F8009037600CF022
S31508007200BDFF0CF0C3FF404600F0A0FFE07805285C
S31508007210E3D10020A0700520FFF755FF002020705D
S31508007220BDE8F1830080004090D00300CE2F0020F7
S3150800723004ED00E010E000E094ED00E0748F010832
S31508007240104000400C000040084000401C40004030
S3150800725004400040B0270020AC8F010818A0004069
S315080072600C40004080E200E000E100E0286820F0E1
S31508007270400028600CF07EBF636C6F636B732E63EF
S315080072800000000010B5664C00200CF0DEFF40F64A
S315080072908C2188422068B4BF40F0080020F008001E
S315080072A0206010BD10B504465E48018882B000F023
S315080072B05CF89DF800109DF80100FF2902BFFF2821
S315080072C00420002104B1801C574A1368C0B208285C
S315080072D0A8BF072023F4607343EAC010106008298A
S315080072E01068A8BF0721C00841EAC00010604F48CF
S315080072F0047013BD00B54E48018883B000F035F818
S31508007300BDF800004FF6FF7188420EBF4FF4E160EA
S315080073100A2190FBF1F0ADF800004448007808B364
S315080073204048018802237F2201A8FFF7AFFC9DF899
S315080073300500BDF80030FF2808BF0420811CC9B22B
S315080073400829A8BF0721C1F12F0202EBD272C0F1AA
S315080073502F00521000FB0320C1F12F01B0FBF1F002
S31508007360ADF80000BDF800000EBD02237F2200A87C
S31508007370FFF78CBC70B52F4C25680646FDF778FAE2
S315080073802D49B0FBF1F070432F303021B0FBF1F0FE
S31508007390032809D3616D41F0010161652168491B24
S315080073A00903090B8142F9D370BD10B5040004D155
S315080073B010BD4FF47A70FFF7DDFF2046441E80B2F9
S315080073C00028F6D110BD704738B50C4620B1012803
S315080073D00FD0032820D021E0184D44B1FDF748FA14
S315080073E01749B0FBF1F0401EB0F5005F0CD22860DB
S315080073F012E04CB1FDF73CFA610801EB4000B0FB26
S31508007400F4F0B0F5003F01D3202032BD0D4900F05D
S3150800741001024A6040080860002032BD212032BDC2
S3150800742000BC0040A28F010818000040C72F0020AA
S31508007430A48F01083820004090D00300100004E013
S3150800744020A1070068C8004070B52C4C2C4D607808
S315080074502968490726D5032824DAA18804EB4002BF
S3150800746091810121A27801FA00F01043A070254A03
S31508007470207890B1002320FA03F6F60708D599403C
S3150800748063704840207014EB4300808A106009E05E
S315080074905B1CDBB2032BEEDB04E01060FDF74CFA55
S315080074A0032060704FF6FF702860BFF35F8F70BDD2
S315080074B01248002101700022032141700021C17089
S315080074C00521018100218170001D0E490A604A606C
S315080074D04FF400428A601022CA6048610120886120
S315080074E00320C8600421064801644FF6FF71016055
S315080074F04FF400600449086009F0C2B95029002019
S3150800750010A8004004D0004000E100E09848016C53
S3150800751041F4C04141F0090101644FF6FF71016071
S31508007520202094490860704770B5012815461E4604
S3150800753035D113293CBF0FF26C20095C0809642277
S31508007540504301F00F010B2903DA884006E00A22AE
